:020000041000EA
:1000000000B5324B212058609868022188439860DF
:10001000D860186158612E4B002199600221596106
:100020000121F02299502B49196001219960352056
:1000300000F044F80222904214D00621196600F024
:1000400034F8196E01211966002018661A6600F04E
:100050002CF8196E196E196E052000F02FF8012189
:100060000842F9D1002199601B49196000215960AB
:100070001A491B48016001219960EB211966A021F2
:10008000196600F012F800219960164914480160C1
:100090000121996001BC002800D000471248134993
:1000A000086003C880F30888084703B5996A0420EC
:1000B0000142FBD001200142F8D103BD02B5186610
:1000C0001866FFF7F2FF186E186E02BD00000240BE
:1000D000000000180000070000035F00212200005C
:1000E000F4000018222000A00001001008ED00E03C
:1000F00000000000000000000000000074B24E7A12
:1001000000200420F7010010C3010010C5010010F9
:10011000C1010010C1010010C1010010C101001097
:10012000C1010010C1010010C1010010C701001081
:10013000C1010010C1010010C9010010CB01001065
:10014000CD010010CD010010CD010010CD01001037
:10015000CD010010CD010010CD010010CD01001027
:10016000CD010010CD010010CD010010CD01001017
:10017000CD010010CD010010CD010010CD01001007
:10018000CD010010CD010010CD010010CD010010F7
:10019000CD010010CD010010CD010010CD010010E7
:1001A000CD010010CD010010CD010010CD010010D7
:1001B000CD010010CD010010CD010010CD010010C7
:1001C00000BE00BE00BE00BE00BE00BEEFF3058054
:1001D000103800BEF2EB887150B1001074B10010FD
:1001E0003802001090A31AE71E481F49086006C88D
:1001F00081F3088810471D480068002801D019487D
:10020000F3E70DA40ECC002902D000F012F8F9E7B4
:100210001749184A002000E001C19142FCD116495B
:100220008847164988471649884700BEFDE701C937
:1002300001C29A42FBD3704774B10010C000002085
:10024000D020002084D100100000042000000420F1
:1002500084D10010001004200010042000000000D1
:10026000704700000000000008ED00E0000000D032
:10027000D02000204031002075500010B90300103C
:1002800037500010F8B5C04606480749091A8B10C8
:10029000C90FC91810B5491003D0044B002B00D06A
:1002A000984710BDD0200020D02000200000000082
:1002B000054B10B5002B03D00449054800E000BFF2
:1002C000FFF7E2FF10BDC04600000000DC2E00205A
:1002D0007490001030B585B00500204805F060F836
:1002E0001F4805F05DF8002410E01E48210005F0CD
:1002F00087F80FE01C4805F083F8E217120FA118E9
:100300000F230B409B1A0F2B1FD001347F2C20DCB6
:100310002307EAD078231A0022402342EAD0782A21
:10032000E8D0E1B228680023009301330F226A4429
:1003300008F004F9002804DB0C48210005F060F8FF
:10034000DBE70B4805F05CF8D7E70A2005F01AF860
:10035000DBE7084805F024F805B030BD78900010C0
:1003600090900010C4900010CC900010D490001019
:10037000D0900010DC90001000B585B0006800231C
:10038000009301330F226A4408F0D8F8C043C00F2D
:1003900005B000BD70B50C0016001D00080000F08F
:1003A00022FD011C00230022300001F099F82100F9
:1003B000280001F0ABF970BDF0B5C64600B5B4B089
:1003C00004F0B2FFE049E14805F01AF8E04AE149DB
:1003D000E14805F015F8E14804F0E2FFFA20C0001A
:1003E00002F02AF9DE4DDF4C2900200008F070F8F9
:1003F0000321082001F008FA0321092001F004FA82
:1004000000220121082001F019FA0022012109200F
:1004100001F014FAD4482B000922082104F0F0FF5F
:10042000339433AC2000FFF755FF27212000FFF75E
:10043000A3FF002800D18FE0CC48272104F0E0FF83
:10044000C84931AC2722200000F0F6F9C84804F072
:10045000A7FF200000F065FA200000F0D5FAC5489B
:1004600004F09EFF30AD2100280000F019FD2800A7
:1004700000F02AFD2AAD2100280001F079F8BE4BDA
:100480002F93280001F090F8BC4804F089FF0AADD2
:1004900001230393FA2676000296FE239B0501931F
:1004A0000B230093013B0022B549280000F09EFB7E
:1004B000280000F057FBB3480B220A2104F0A0FFEC
:1004C000B14800960022B14B04F09AFF200000F0E2
:1004D0001FFA00220021200000F05AFA9A4AAC4983
:1004E000200000F07CFA01220021200000F050FAE8
:1004F000A849200000F066FA02220021200000F046
:1005000047FA7C23EB5C002B2ED0A34BA34931ACE4
:100510000193FA235B00009300229C4B200000F023
:100520005EFA2AA801F062F903220021200000F0FF
:100530002FFA9B49200000F045FA9A4804F030FF5A
:10054000994802F079F8994804F02AFF984804F095
:1005500027FF002500264AE09648272104F050FF97
:10056000954804F01DFF6BE7944BCFE7FA21890013
:1005700002F062FC040044E000220F92904804F074
:100580000FFF0F9FA31BBD4200D1D6E02AAB30AABC
:100590000AA931A8FFF7FEFEBD4200D1D1E00AADA5
:1005A000280000F020FC03F033FB0690079124980C
:1005B00003F02EFB08900991280000F025FC814DE6
:1005C0000022814B0492059303F022FB02900391D9
:1005D0000899099A00910192069A079B3900280010
:1005E00004F00EFF2600012002F026F83D0002F084
:1005F00017F90029BAD0FA229200002302F05AFC1F
:1006000004000AA800F086FB002004F091FE4438A4
:100610003228B6D880006D4B1B589F4633A8FFF791
:1006200059FEAEE76A4804F0BBFE6A4804F0B8FE23
:10063000694804F0B5FE694804F0B2FE684804F069
:10064000AFFE684804F0ACFE674804F0A9FE6748B6
:1006500004F0A6FE95E70AAF7C239846FB5C0122D6
:1006600053404246BB54380000F07CFA4346FB5CE2
:10067000002B04D048495E4804F0C2FE81E74F4990
:10068000F9E75C4804F08CFE0AAF249803F0C0FA46
:1006900002000B00584804F0B3FE380000F0B4FB31
:1006A00003F0B6FA02000B00544804F0A9FE3249E8
:1006B000380000F0BFFB03F0ABFA02000B0050481B
:1006C00004F09EFE279803F0A3FA02000B004D48A9
:1006D00004F096FE26994C4804F092FE380000F093
:1006E000C1FB03F095FA02000B00484804F088FEB5
:1006F0007C23FB5C002B04D04549464804F080FE77
:100700003FE74549F9E7454804F04AFE0E494448A9
:1007100004F076FE0F49434804F072FE0C4942484B
:1007200004F06EFE414804F03BFE414804F038FE00
:1007300027E7404804F034FE23E7312B00D852E786
:1007400024E726004FE7C0461891001020910010C2
:1007500048910010549100106091001070910010A9
:10076000801A0600681B00208C910010C4910010B4
:1007700054920010789200100000204198920010CE
:1007800000002050C0920010F09200100000F03FD6
:100790002093001030930010EC9000104493001050
:1007A0005493001060930010B80B00008C9300105D
:1007B000B8930010E891001018920010F09000100B
:1007C00018940010D496001000408F4024A400100C
:1007D0003094001044940010609400107494001041
:1007E00090940010A8940010C0940010D8940010A9
:1007F000EC94001004950010289500104C95001002
:100800006095001088950010A4950010BC9500100C
:10081000F8900010D895001008910010E495001091
:1008200004960010149600102496001034960010C0
:100830006C9600109C9600100160027108234371B1
:10084000704770B584B0040004230B430F226A4440
:100850001370042399430E256D44297001790068B3
:1008600000260096033B07F05DFE0120002101F009
:10087000D1FE21792068009601232A0007F052FE5C
:100880003220002101F0C6FE04B070BD30B585B045
:10089000040043790B430F256D442B7001790068E8
:1008A0000023009301332A0007F03CFE2978200042
:1008B000FFF7C7FF05B030BDF0B585B004000F23CA
:1008C0000800984303001343607903430F256D44E8
:1008D0002B7009010A4310430E266E4430702179B3
:1008E00020680027009701232A0007F01BFE2978C3
:1008F0002000FFF7A6FF217920680097012332002E
:1009000007F010FE31782000FFF79BFF05B0F0BD27
:1009100010B500220121FFF7CFFF022001F08CFE6D
:1009200010BD10B50400322001F086FE30212000F9
:10093000FFF7ACFF052001F07FFE30212000FFF71C
:10094000A5FF6420002101F065FE30212000FFF7A3
:100950009DFF6420002101F05DFE20212000FFF7B3
:1009600095FF002228212000FFF7A6FF00220C217E
:100970002000FFF7A1FF2000FFF7CAFF0022062199
:100980002000FFF799FF022001F056FE10BD000085
:1009900000B583B00A4B0193032A00D903220F2923
:1009A00000D90F2101AB9B5C5B18DBB2802149426F
:1009B0001943C9B20022FFF77FFF03B000BDC04654
:1009C0000040145470B505000C0004E0013401220D
:1009D0002800FFF771FF21780029F7D170BD0EB410
:1009E00030B5A2B0040025AB04CB019302AD802149
:1009F000280004F0DDFA29002000FFF7E3FF22B011
:100A000030BC08BC03B0184708234371704770B569
:100A100005001600CB00382119404023194349B284
:100A2000C9B20022FFF748FF002405E0315D012232
:100A30002800FFF741FF0134072CF7DD70BD10B52A
:100A40000122FFF739FF10BD70B5002313600025A8
:100A500044680E0008360123B340234212D10B0034
:100A600008339B001B58032423400A4C24789C42E3
:100A7000EED0A4001C43E4B2074E34572D19054CA8
:100A80002370E5E7002D01D1002070BD1560012025
:100A9000FBE7C046353100202CA50010F0B5D64646
:100AA0004F464646C0B586B00600884691461F00B0
:100AB00002AD10220021280003F070F980235B02B0
:100AC0000293F8235B0203938023DB020493C02389
:100AD0001B0304934B465A1CDB011203134303937D
:100AE000FB03F82212031340059380231B03049396
:100AF0001A4B04931A4BF418240DE4B20634E4B2F2
:100B00002100380000F080FE7B1C9A46210018006E
:100B100000F07AFE0023009302333A004146300091
:100B200007F0E6FD00220121380000F087FE0022D8
:100B30000121504600F082FE2B004A46414630001B
:100B400007F030FE3368012241468A401343336088
:100B500006B0E0BCBA46B146A846F0BD0000088029
:100B60000000E0AF70B582B004007C23C35C002BB2
:100B70000DD01D49406807F0A3FD0200E368A1689D
:100B8000606824690094FFF789FF02B070BDC068F7
:100B900000F070FE206900F06DFEE36801252A0078
:100BA0009A40D0263606B26223692A009A40B26281
:100BB000E0680022012100F041FE206900220121AD
:100BC00000F03CFE23697268290099400B00134035
:100BD0005A1E9341E16872688D4015406A1E954126
:100BE0005B001D432576D0E73CA5001070B50400DE
:100BF00007A800781C4D25606160A260E360049B3B
:100C00002361002363612376059AE261069A2262DA
:100C10007C22A0540022A2666422A35401F000FEAC
:100C200000290CD0FA229200002302F043F9A067B9
:100C3000E0660023236700236367002210E0FA21A7
:100C4000890002F0F9F8F2E7130008339B00E3187B
:100C500000215960130010339B00E31859600132E2
:100C6000072AF1DD200070BD14A5001030B5642501
:100C7000435D1C000834A4000419616019001031A0
:100C8000890041184A60013307221340435530BDA3
:100C900070B504000022002500200CE0130008338A
:100CA0009B00E3185B68C018130010339B00E31827
:100CB0005B68ED180132072AF0DD002D1AD002F032
:100CC0007DFF061C280002F074FF011C301C02F09E
:100CD00016FF0A4902F029FF011CE06902F025FF16
:100CE000051C206A02F065FF011C281C02F007FFAA
:100CF000A06670BD0023A366FBE7C04600007A44EF
:100D0000037E9B001943C9B2014B58567047C04639
:100D10001CA50010F0B583B0040001F081FD00298E
:100D200028D0FA229200002302F0C4F80500666978
:100D30007C23E35C002B27D12269D0210906486877
:100D400001273B0093401A000240501E8241E06898
:100D5000496887400F407B1E9F4152001743237E06
:100D6000BB4218D039002000FFF7CAFF801960612C
:100D7000277610E0FA21890002F05EF80500D6E738
:100D80006269019B9B186361A168606801AAFFF713
:100D90005BFE0028F4D16169B14205D1A56720004E
:100DA000FFF776FF03B0F0BD8E1BA26FAA1A3100C9
:100DB0002000FFF75BFFE36EEB1AFA2292009342EA
:100DC0000AD3206F02F0F5FEFA21890502F0ADFE8C
:100DD000606700232367E566236FF217B618564055
:100DE0009B192367DAE770B50400406902F0E6FE5C
:100DF000E16902F09AFE051C206A02F0DAFE011C8D
:100E0000281C02F07CFE70BD70B50400C56900218D
:100E1000281C02F0C9FE002801D1002070BDA06E80
:100E2000291C02F06CFE024902F07FFEF6E7C04684
:100E30000000704270B505000C1C0021201C02F05F
:100E4000B3FE002801D1002070BDA86E400040080C
:100E5000211C02F054FE024902F067FEF4E7C0468E
:100E60000000C84270B5046A002C15D0456F0021FF
:100E7000281C02F099FE002801D100200DE007494E
:100E8000281C02F052FE051C200002F092FE011CFC
:100E9000281C02F034FE00E0002070BD000070420B
:100EA0000160704770B50500002407E02868E20083
:100EB000044BD218E1B2FFF7AAFD0134072CF5DD8F
:100EC00070BDC04670A5001010B5FFF7EBFF10BD58
:100ED000F8B5CE46474680B5040016001D00092926
:100EE00040D88900DC4B5B589F4600682A003100DF
:100EF000FFF74EFD20680021FFF7A1FD2068771C59
:100F0000FFB22A003900FFF743FD20680121FFF7F7
:100F100096FD20686B1CDBB298461A003100FFF783
:100F200037FD20680621FFF78AFD20684246390018
:100F3000FFF72EFD20680621FFF781FD20680235AE
:100F4000EDB22A003100FFF723FD20680421FFF7EE
:100F500076FD20682A003900FFF71AFD2068052178
:100F6000FFF76DFDC0BCB946B046F8BD00682A0069
:100F70003100FFF70DFD2068B84B99461900FFF7C7
:100F800021FD2068771CFFB22A003900FFF700FD21
:100F900020680621FFF753FD20686B1CDBB29846E2
:100FA0001A003100FFF7F4FC20684946FFF70AFDFC
:100FB000206842463900FFF7EBFC20680621FFF766
:100FC0003EFD20680235EDB22A003100FFF7E0FC5B
:100FD00020684946FFF7F6FC20682A003900FFF731
:100FE000D7FC20680621FFF72AFDBBE700682A002E
:100FF0003100FFF7CDFC20680021FFF720FD2068BD
:10100000771CFFB22A003900FFF7C2FC20680121DB
:10101000FFF715FD20686B1CDBB298461A00310003
:10102000FFF7B6FC20680721FFF709FD206842465C
:101030003900FFF7ADFC20680221FFF700FD2068B2
:101040000235EDB22A003100FFF7A2FC206806212C
:10105000FFF7F5FC20682A003900FFF799FC2068AB
:101060000721FFF7ECFC7DE700682A003100FFF75D
:101070008FFC20680021FFF7E2FC2068771CFFB29C
:101080002A003900FFF784FC20680121FFF7D7FC14
:1010900020686B1CDBB298461A003100FFF778FC21
:1010A00020680721FFF7CBFC206842463900FFF794
:1010B0006FFC20680321FFF7C2FC20680235EDB207
:1010C0002A003100FFF764FC20680721FFF7B7FC16
:1010D00020682A003900FFF75BFC20680521FFF734
:1010E000AEFC3FE700682A003100FFF751FC2068A2
:1010F0000621FFF7A4FC2068771CFFB22A00390004
:10110000FFF746FC20680621FFF799FC20686B1C5E
:10111000DBB298461A003100FFF73AFC2068042140
:10112000FFF78DFC206842463900FFF731FC20684C
:101130000321FFF784FC20680235EDB22A0031005C
:10114000FFF726FC20684549FFF73CFC20682A0091
:101150003900FFF71DFC20680621FFF770FC01E74E
:1011600000682A003100FFF713FC20680621FFF712
:1011700066FC2068771CFFB22A003900FFF708FCE4
:1011800020680721FFF75BFC20686B1CDBB29846E8
:101190001A003100FFF7FCFB20680221FFF74FFC2B
:1011A000206842463900FFF7F3FB20680721FFF76C
:1011B00046FC20680235EDB22A003100FFF7E8FB5B
:1011C00020680721FFF73BFC20682A003900FFF761
:1011D000DFFB20680521FFF732FCC3E600682A0028
:1011E0003100FFF7D5FB20680021FFF728FC2068BD
:1011F000771CFFB22A003900FFF7CAFB20680721DD
:10120000FFF71DFC20686B1CDBB298461A0031000A
:10121000FFF7BEFB20680221FFF711FC2068424661
:101220003900FFF7B5FB20680121FFF708FC2068B3
:101230000235EDB22A003100FFF7AAFB2068042135
:10124000FFF7FDFB20682A003900FFF7A1FB2068AB
:101250000521FFF7F4FB85E648A500101C97001058
:1012600000682A003100FFF793FB20680021FFF798
:10127000E6FB2068771CFFB22A003900FFF788FBE5
:1012800020680121FFF7DBFB20686B1CDBB298466E
:101290001A003100FFF77CFB20684F4B994619007C
:1012A000FFF790FB206842463900FFF771FB20688A
:1012B0000621FFF7C4FB20680235EDB22A00310099
:1012C000FFF766FB20684946FFF77CFB20682A0091
:1012D0003900FFF75DFB20680621FFF7B0FB41E610
:1012E00000682A003100FFF753FB20680021FFF758
:1012F000A6FB2068771CFFB22A003900FFF748FBE5
:1013000020680121FFF79BFB20686B1CDBB298462D
:101310001A003100FFF73CFB20680221FFF78FFB2A
:10132000206842463900FFF733FB20680321FFF7AE
:1013300086FB20680235EDB22A003100FFF728FB5A
:1013400020680421FFF77BFB20682A003900FFF7A3
:101350001FFB20680521FFF772FB03E600682A00E7
:101360003100FFF715FB20680021FFF768FB2068BC
:10137000771CFFB22A003900FFF70AFB2068012121
:10138000FFF75DFB20686B1CDBB298461A0031004A
:10139000FFF7FEFA20680421FFF751FB2068424660
:1013A0003900FFF7F5FA20680321FFF748FB2068B2
:1013B0000235EDB22A003100FFF7EAFA2068072172
:1013C000FFF73DFB20682A003900FFF7E1FA2068AB
:1013D0000521FFF734FBC5E51C970010F8B5CE4694
:1013E000474680B504000E0015000068FFF7D0FAEC
:1013F00020681E4B98461900FFF7E4FA2068771C16
:10140000FFB22A003900FFF7C3FA20684146FFF710
:10141000D9FA20686B1CDBB299461A003100FFF73D
:10142000B7FA20680721FFF70AFB20684A4639000F
:10143000FFF7AEFA20680721FFF701FB20680235AD
:10144000EDB22A003100FFF7A3FA20684146FFF70A
:10145000B9FA20682A003900FFF79AFA2068414655
:10146000FFF7B0FAC0BCB946B046F8BD1C970010F3
:10147000F8B505000E0014000068FFF789FA286827
:101480000C4F3900FFF79EFA2868621CD2B2310077
:10149000FFF77EFA28683900FFF794FA28680234CB
:1014A000E2B23100FFF774FA28680621FFF7C7FAA5
:1014B000F8BDC0461C97001070B50500002409E077
:1014C0002868E2B20021FFF763FA28680349FFF7B2
:1014D00079FA0134022CF3DD70BDC046209700106C
:1014E000F0B5C64600B584B00600884614001F005B
:1014F000FFF7E2FF1D4D404602F08AFB009001918C
:101500002A00082102A803F03FFD002504E0023470
:10151000E4B20F2C26D80135052D23DC02A9495D44
:101520002029F4D02D290DD02E2913D03039C9B25D
:101530000929EED83B0022003000FFF7C9FC023435
:10154000E4B2E6E73A0021003000FFF747FF02343B
:10155000E4B2DEE73A0021003000FFF789FF0134F2
:10156000E4B2D6E704B080BCB846F0BD34970010B2
:10157000054B436101600023037183600023C36056
:10158000012303747047C0460000204110B50400D9
:10159000006803220021FFF7FBF920680149FFF7EB
:1015A00011FA10BD3C97001010B5FFF7EFFF10BD0A
:1015B00070B504000E001500006803220421FFF737
:1015C000E7F9002D0ED0002E22D02379022B1AD05D
:1015D0000DD8002B12D0012B08D120681B49FFF732
:1015E000F1F903E020681A49FFF7ECF970BD032B0D
:1015F000FCD120681749FFF7E5F9F7E7206816499D
:10160000FFF7E0F9F2E720681349FFF7DBF9EDE7B0
:101610002379022B15D008D8002B0DD0012BE5D152
:1016200020680E49FFF7CEF9E0E7032BDED12068F2
:101630000B49FFF7C7F9D9E720680A49FFF7C2F954
:10164000D4E720680749FFF7BDF9CFE754970010AA
:101650004C9700105C970010509700106497001092
:101660006C97001060970010F8B50600081C111C5C
:101670004000400802F043FA051CFE21890502F0F3
:1016800093FA002801D0FE25AD051949281C02F067
:101690004CFA02F0B5FAC7B2306803220921FFF70D
:1016A00077F900240EE030681249FFF78BF908E063
:1016B00030681149FFF786F903E030680F49FFF7FA
:1016C00081F90134062C12DCA742F6DD0C49281CF6
:1016D00002F05CFA0028E6D10A49281C02F056FA0A
:1016E0000028E5D030680849FFF76CF9E9E7F8BD54
:1016F0000000E040B4930010749700101C97001095
:101700009A99993E3333333F40940010F0B5C64662
:1017100000B582B004000E0001F082F8002958D014
:10172000FA229200002301F0C5FB0500B76E780095
:10173000400801262A4902F037FA002800D1002685
:10174000F3B2984601260021381C02F025FA002841
:1017500000D10026F6B2A368EB1AC72B05D922796F
:101760000132032313402371A560237CB34211D1BE
:10177000E0684000400801236A46D371184902F02E
:1017800013FA002802D100236A46D3716B46DB7935
:10179000434505D0424631002000FFF709FF26747B
:1017A000E168381C02F0A1F9400040080D4902F040
:1017B000FBF9002803D1A368ED1AC72D05D80A4A02
:1017C000391C2000FFF750FFE76002B080BCB8462C
:1017D000F0BDFA21890001F02FFB0500A6E7C04605
:1017E0000AD7233CCDCCCC3D0000204110B50400ED
:1017F000006803220021FFF7CBF820680149FFF7BA
:10180000E1F810BD2097001010B58300084A9A181F
:1018100014684022544080322240064CA44663445F
:101820001A60C000044B9C466044416010BDC04635
:1018300004C0014004D001400040014080000C4B36
:101840009C46604400290ED00823002A0DD00422B3
:101850001343026853400C221340802252019446E5
:101860006044036070470023EFE70022F0E7C046C2
:1018700004C0014010B501238340D02212069362B8
:1018800093610521FFF7C0FF10BD000010B5802354
:10189000DB05186803051B0D0B4A934207D10B4B60
:1018A000034080229201934207D1000F10BD084BE4
:1018B000084A0948222103F0C1FB084B054A0648A3
:1018C000232103F0BBFBC0462709000000F0FF0FF7
:1018D00078970010B0A500109C970010E4970010B6
:1018E0000FB400B583B0084803F05AFD049B002BE9
:1018F00007D005A90191180003F062FD034803F029
:101900004FFD012003F074FBF89700104491001084
:10191000EFF3108072B6034B1B68002BFBD0BFF3B4
:101920005F8F70472C0100D0BFF35F8F024B002206
:101930001A6080F3108870472C0100D0F8B50600BB
:101940000C001500FFF7E4FFE308F718F15C07222D
:101950002240012393400B4205D1DBB20B433B7085
:10196000FFF7E2FFF8BD21002800FFF7B9FFF0B54F
:1019700083B00600019114001F00FFF7C9FF00E0CB
:101980000134BC420CD8E308F518F35C0721214070
:1019900001228A401A42F3D1D2B21A432A7001E0DE
:1019A00001246442FFF7C0FF002C02DB200003B0DB
:1019B000F0BD019B002BF9D00898FFF791FF0000C4
:1019C000054A1078431CDBB21370172B02D91300A1
:1019D00010221A707047C046AC1A002010B582B0B1
:1019E0000100054C054B00931F2318222000FFF730
:1019F000BEFF02B010BDC046682A00200898001043
:101A0000002307E0054A9A189200BFF35F8F002178
:101A1000116001331F2BF5D97047C04640000034D8
:101A2000074B9B68103080001950BFF35F8FBFF3E6
:101A30005F8F044B0021196082F310887047C04605
:101A400000ED00E0240100D00048704700E400E011
:101A500010B5FFF7F9FF002302E0034A04C0013389
:101A6000072BFAD910BDC0468080808010B503884E
:101A7000DA0A1C2A05D15B055B1502335B00C0182E
:101A800010BD034B034A16210348FF3103F0D6FA79
:101A900024980010ECA500103C98001010B5091A0D
:101AA0000B1F0A4A88180A4A904208D8C90706D468
:101AB0005B105B055B0D0748184380B210BD064BF9
:101AC000064A08210648FF3103F0B8FAFC07000077
:101AD000FE0F000000E0FFFF80980010E0A500105E
:101AE0003C98001001238340034A10681840431EAD
:101AF0009841C0B27047C04600E100E0002A05D01E
:101B0000044BC0225200995019607047014A80234B
:101B1000D150FAE700E100E010B50A001F230340AE
:101B2000012199404009FFF7E9FF10BD01238340DF
:101B3000014A13607047C04600E200E0024B9B6818
:101B400010308000C058704700ED00E010B5FFF77E
:101B5000F5FF044BC31A00202F229A424041C0B225
:101B600010BDC046B01A002070B504000D00EFF3A0
:101B7000108672B60C4B1B68002BFBD0BFF35F8F37
:101B80002000FFF7DBFF094B984201D0A84205D1A6
:101B9000320029002000FFF743FF70BD044B054AC7
:101BA0000548E72103F04AFA240100D0CD010010D6
:101BB000B098001014A600103C980010F0B5DE4656
:101BC00057464E464546E0B589B08146019115001D
:101BD000EFF3108B72B66F4B1B68002BFBD0BFF37B
:101BE0005F8F6D4B00269E57002E40DB7400A419BA
:101BF000A4006A4824180622A256674B1A70684B44
:101C00009A684B4610339B00D35898461B1A2F2BCB
:101C10003BD9644B984531D105AF634B3B80634959
:101C200073009A46981980005C4B984640440230F5
:101C3000FFF734FF78805E4BBB80FF23BB71FD71E3
:101C4000019B0793330053449B00434407CF07C3D2
:101C500001231C43A0465A4641464846FFF7E0FE92
:101C600009B0F0BCBB46B246A946A046F0BD514BF8
:101C7000514A74215148FF3103F0E0F9504B4E4A6C
:101C8000BD214E48490003F0D9F9012342469A4349
:101C90009246101A0C2101F0CFF800290FD15346BB
:101CA0000027DA79AA4212D90621595600290DDBFC
:101CB0004A005218920039491F008B18F1E7414B36
:101CC0003D4A8C213D48FF3103F0B8F91F00002F39
:101CD0002ED005AB3C4A1A80813A5A800623FB5627
:101CE0000293002B17DA394805AB9A469880029A7E
:101CF0009A71DD71019A0792381D2100FFF7CEFE1F
:101D0000B880BE71254B7200921992009B18524602
:101D100013CA13C39FE7381DFFF7A8FE0100700028
:101D2000801980001D4BC0180430FFF7B7FEDBE7B9
:101D300005AF1D4B3B801D49730002939B199B000F
:101D4000164A90461A0042440392901CFFF7A6FEE2
:101D50007880039A101D5146FFF7A0FEB8801C4BF7
:101D600052464146521A524153431B0DBB71FD71FD
:101D7000019A0792029B9B199B00434407CF07C31C
:101D8000114B52461380813B538001231C43A046D4
:101D900061E7C046240100D03A310020B01A00208B
:101DA00000ED00E0CD01001000A1FFFFE01A0020CF
:101DB00001BDFFFFE8980010FCA500103C98001042
:101DC00010990010389900100148000001BD000072
:101DD000AAAA0000F8B5012202432D4BD31A2F2BDB
:101DE00028D8EFF30583002B2BD0EFF3108472B6C5
:101DF000284909680029FBD0BFF35F8F244D26498D
:101E00000600761B76417143090D4DB2234989685E
:101E10009B00C95891421AD00021032931D81C4B8C
:101E20004A00521892009B189B795BB2AB421ED0BD
:101E30000131F2E71A4B1B4A9D211B48890003F030
:101E4000FDF81A4B174A1848194903F0F7F8134AD6
:101E500092681849D150184B1A7882711D70BFF3DF
:101E60005F8F0C4B00221A6084F31088F8BD084B7A
:101E70004A005618B6009E19FF27B7710F4AB28064
:101E8000E9E70F4B074AA2210748890003F0D6F87B
:101E9000B01A0020240100D0AAAA000000ED00E042
:101EA000BC990010C4A500103C980010E4990010E3
:101EB00077020000CD0100103A31002001BDFFFF84
:101EC000F099001010B582B00100074C074B009349
:101ED000052300222000FFF74AFD002801DB1F2315
:101EE000181A02B010BDC0463E310020F89900100B
:101EF000024B9C46614489000160704740000034F9
:101F000010B50400FFF75CFD01002000FFF7F0FFB3
:101F1000FF232371BFF35F8F10BD10B50400FFF7DF
:101F20004FFD01002000FFF7E3FFFF232371002393
:101F30006371BFF35F8F10BD10B50D4C09E00D4B01
:101F40000D4A0E481A2103F079F82000FFF7D8FF58
:101F500008340B4B9C4209D22368002BF5D0012B8F
:101F6000EDD12000FFF7D9FF0834F2E710BDC046DD
:101F7000C8200020149A001054A60010349A0010B3
:101F8000D0200020034B9C46614489000160BFF3D0
:101F90005F8F70474000003410B504000120FFF748
:101FA0001DFD01002000FFF7EDFF10BD30B5846A74
:101FB000151B0B1D9B001B581B1B9D4204D3046A61
:101FC00001238B40234202D1043189000A5030BDE5
:101FD00000040843704700000A4B1968EFF31083B0
:101FE00072B60A68002AFCD0BFF35F8F054A1268F8
:101FF000BFF35F8F0021116083F3108840BF002082
:102000000021704718310020F0B5DE4657464E4695
:102010004546E0B587B0EFF3058303221A409246A8
:10202000AE4B9200D7583B78534507D10123524617
:1020300093409946AA4B4A461A6025E1A94BAA4A01
:10204000AA48922102F0FAFF7A6973009B19DB001B
:102050009046984443469C68DD68A54800F0AEFB76
:10206000001BA941002900DA16E1002D74DB43466C
:102070001B699B469F4B9B454FD00823F85E434608
:10208000598889B2FFF7A4FF43465969D84702909F
:1020900003910299039A0B00100013435CD01300C4
:1020A0000A00002847DAA41A9D410094019543468E
:1020B000009C019D9C60DD600021595E002900DAD2
:1020C000EAE078694B005B18DB00C3189A68DB68AC
:1020D000A41A9D41002D00DADEE039813D0008356B
:1020E000844604912A000597B346009E019F049BF5
:1020F000002B2ADB0023D45E63001B19DB00634442
:102100009C68DD6830003900001BA94100291CDBF8
:102110001A000021595E0491E9E743465B699B463A
:102120001B6958469847002816D05B461A685B68BA
:1021300002920393ADE76E4800F040FB029B039CC4
:102140001B184C4100930194B1E70499059F5E462A
:102150004346198016809FE0434600229B5E3B81E8
:102160003A69EFF3108372B611680029FCD0BFF30F
:102170005F8F02217A5E41460A807E803A69BFF312
:102180005F8F0021116083F3108885E03969EFF3D8
:10219000108372B60A68002AFCD0BFF35F8FB8883C
:1021A00000B201225242BA803A69BFF35F8F002128
:1021B000116083F310880500BC461CE004930022E4
:1021C0009A5E002A0EDB049B0021595E4B005B18CF
:1021D000DB0063449868D96834003D00241A8D41BF
:1021E000002DEBDA04995D46009B9C4644460D8029
:1021F0000023E55E2280002D12DB634658696C00E7
:102200006419E4000419A668E768614608310822E9
:102210009A5EAB46049163460093A0468446D0E79D
:1022200067463EE00023BB71390008310823F85EA1
:102230000EE001246442E5179460D56008243B5FFA
:10224000834204D00E8008243B5F13803881300025
:10225000431C29D07C6943001B18DB00E218E65EB2
:1022600053881BB2002BE4DB1100F0E722002B00A7
:1022700051461F48FFF79AFE1D4800F09FFA241AA6
:102280008D41002D22DC1FD0194B4A465A6308238A
:10229000FE5E002E00DBD7E6BB881BB2002B00DB06
:1022A00074E7BB79002BBDD10823FA5E002A0DDB51
:1022B000796953009B18DB00CB189C68DD68631CB0
:1022C000D4D16B1CD8D0D1E7002CDDD040BF07B0F3
:1022D000F0BCBB46B246A946A046F0BDFC2E00208D
:1022E0003C700540C89A001080A60010F49A0010B7
:1022F000004005400920001070B504000D001100D9
:102300000126AE4006622800FFF72EFC01212800BE
:10231000FFF702FC024B9C466444266070BDC04639
:1023200038200000F8B5CE46474680B506008946FD
:1023300090461F00C160FFF743FB154B9C4660446D
:102340008000306143463370BBB27381D0221206E5
:1023500012787270012252423281B2809B187380CF
:10236000002406E0621E736965002D19ED005A53C2
:102370000134BC42F6D3074B42469200D650064A7F
:1023800041464846FFF7B8FFC0BCB946B046F8BD65
:1023900040000034FC2E00200920001010B5064B30
:1023A0001B69002B01D0044810BD044B044A0548AA
:1023B000652102F043FEC046F81A0020349B00104D
:1023C00068A60010F49A0010F8B504000569EFF350
:1023D000108072B629680029FCD0BFF35F8F0221FC
:1023E000665E656971008919C9006D18002E02DBEF
:1023F0000027E95F61802169BFF35F8F00270F60CD
:1024000080F31088002E2CDB0699296107996961F9
:10241000AA60EB606B8801335B04590C002B00D180
:10242000012169803000FFF7D3FD2169EFF31083AC
:1024300072B60A68002AFCD0BFF35F8FA2882A8098
:10244000A6802269BFF35F8F0021116083F310889B
:10245000E368217801228A4003498C4663441A606C
:10246000F8BD01204042FBE73C20000070B582B07F
:10247000060014001D0008AB1B78002B07D100F0EC
:10248000CFF922002B00121A8B41002B0ADB079B8D
:102490000193069B009322002B003000FFF794FF6E
:1024A00002B070BD0020FBE7F0B5C64600B584B0B1
:1024B0000500884616001F000AAB1C78FFF76EFF68
:1024C0000294019700962A004346FFF7CFFF04B01D
:1024D00080BCB846F0BD000030B504000A14438942
:1024E0009A422EDA406953009B18DB00C318256915
:1024F000EFF3108272B628680028FCD0BFF35F8F1C
:10250000588885B20904090C884212D0002023693A
:10251000BFF35F8F0021196082F31088002811D06B
:10252000E368217801228A4007498C4663441A6097
:1025300008E00649294389B259800123A37101208B
:10254000E5E7002030BDC0463C2000000080FFFFD2
:1025500010B50400FFF722FF2100FFF7BDFF10BDFB
:1025600040787047F0B583B006000F00EFF30583A5
:10257000002B1AD106246442E517A4197D418D422F
:1025800002D803D1844201D90024002500F048F983
:1025900022002B00121A8B41002B0BDC08D03000DC
:1025A000390000F04FF903B0F0BD1648FFF798F975
:1025B000002AF4D0144A0023009320002900FFF7DA
:1025C00073FF002813DAEAE7104B1968EFF3108362
:1025D00072B60A68002AFCD0BFF35F8F0B4A1268FC
:1025E000BFF35F8F0021116083F3108820BF084B79
:1025F0005B6A9D42E8D80649896AA142CFD29D42D2
:10260000CDD1E1E7589B0010D91F001018310020F0
:102610000040054070B504000D0000F001F90019FC
:102620006941002902DBFFF79DFF70BD0120404298
:102630000049F8E7FFFFFF7F10B5FA229200002360
:10264000002101F035FAFFF7E5FF10BDF0B5CE46E9
:10265000474680B583B005000C00EFF30583002BDF
:1026600015D03F4B5B6A8B4209D33D4A926A824246
:102670000BD28B4201D0012002E0002000E00020BC
:1026800003B0C0BCB946B046F0BD0120F8E7FFF783
:1026900085FEC3689946037898462E002700484671
:1026A00000F08CF802000B00B61A9F414346043339
:1026B0009B004A469B581B1A0022BA420FDC0CD0E2
:1026C00020BF274B5B6A9C422DD8254A926AAA42BA
:1026D0002BD29C4225D00120D2E7B342F0D9214A27
:1026E0000023009328002100FFF7DEFE00281EDDF6
:1026F0001B4B5B6A9C4205D8194A926AAA4202D2D5
:102700009C4200D120BFFFF723FF154B5B6A9C4220
:1027100021D8134A926AAA421FD29C4219D00120A2
:10272000AEE70020ACE70020AAE70120A8E70C4BA9
:102730005B6A9C4209D80A4A926AAA4207D29C4222
:1027400001D001209CE700209AE7002098E70120B3
:1027500096E7002094E7002092E7012090E7C0462A
:1027600000400540D91F0010004870470040054058
:1027700010B50B4B1B69002B04D00A480A21FFF748
:10278000B7FB10BDFFF7F0FF0400032100F00CF8C9
:102790000348102303222100FFF7C4FDEDE7C046E4
:1027A000F81A00201831002010B5024A0248FFF73D
:1027B000C5F810BDA89B00106C2A00200200436AD7
:1027C000906A1900536A9942FAD17047416A00E051
:1027D000416A9942FCD300E0416A994202D1816A80
:1027E0009142F9D37047F0B5C64600B58046140053
:1027F0001D00FFF7E3FF06000F0022002B009219D7
:102800007B41994202D804D1904202D9012252421E
:10281000D3174046FFF7DAFF80BCB846F0BD000092
:1028200010B50248FFF7CAFF10BDC0460040054082
:1028300010B502000B000248FFF7D5FF10BDC046DF
:102840000040054010B502000B000248FFF7BEFF34
:1028500010BDC04600400540F8B5D646474680B595
:1028600006000D001700984644002418A400294BC8
:102870009C4664446368089A934200D26260331FA6
:10288000DBB29A46012B2ED980221201C0239B0174
:10289000E3181A60204BB200D158002907D05869BC
:1028A00000F0CAFA013043001B18033BFDD27F0140
:1028B00023685F40E0233B4080225201A21813604E
:1028C0005346012B1AD980239B01E3188022120161
:1028D0001A60089B6360104BB6004246F250C0BCC1
:1028E000BA46B046F8BD012DCED10322C0239B01CC
:1028F000E3181A60A368DB07FCD5D8E721686940B4
:1029000003230B401360A3680122AA401A42FAD0A5
:10291000D9E7C04600800040702A0020F0B583B09F
:1029200005000E0017001800089900F085FA030052
:10293000089A140200943A0031002800FFF78CFF37
:1029400003B0F0BD10B582B0802464000094FFF79E
:1029500083FF02B010BD0000014B8000C0587047DB
:10296000702A0020F0B5C64600B504000E0017001E
:102970001D00374800F060FA8046364BFA18364B97
:102980009A4239D80100380000F056FA0200103A95
:1029900098235B009A4235D86B1E062B38D8069BCD
:1029A000013B062B34D83F09474537D32D04069BFE
:1029B0001B031D432368002B36DB284B9C4244D06D
:1029C0000C2201239340264A1360264A1360264AAC
:1029D0001268190091430A1EF9D12660A060234BAA
:1029E000E31821321A602268002AFCDAE560082226
:1029F0001A6080BCB846F0BD1D4B1E4A1E4811210E
:102A000002F01CFB1D4B1B4A1B48192102F016FB50
:102A10001B4B184A18481C2102F010FB194B154A91
:102A20001548232102F00AFB22683F231340B342DA
:102A3000C3D1A3681B051B0D8342BED1E368EE2200
:102A4000D2021340AB42B8D1D3E70D22B9E7C0465A
:102A5000001BB70080E84BD380F8A93200C00240C9
:102A600000E0004000F0004008C0004004300000DA
:102A7000CC9B001098A600101C9C0010609C0010BD
:102A80007C9C0010C89C0010024B1A68024B5A60D4
:102A90007047C046D42E00200080054010B5184B6A
:102AA0008022D2051A60174B174A1A6000290AD0F3
:102AB000164BE022D2041A60002809D1134B802261
:102AC00012061A6010BD0E4BE022D2041A60F3E722
:102AD00043011B1A9B001A18D2000D490A601818EE
:102AE0000001086080235B04984201D3094A0A6010
:102AF000FFF7CAFF054B8022D2051A60E2E7C04605
:102B000000B0054008200140FCFF010000A0054086
:102B1000D42E0020FFFFFF0010B5030010000C4A68
:102B20008024E4051460002B0DD001221343094AD0
:102B3000094CD461094C5C401462516293620021DB
:102B4000FFF7ACFF10BD034B0022DA61F7E7C04688
:102B500000B0054000800540D3C007B02D3FF84FBE
:102B600080239B000B43014AD362704700800540DD
:102B700010B5010018231B8814221088984710BD37
:102B800010B5010018231B8816221088984710BD25
:102B9000F0B5C64600B507000E0000250123984693
:102BA00000E00135B5420AD2AC003C192068FFF7BD
:102BB000DFFF20600028F4D100239846F1E740466B
:102BC00080BCB846F0BD000070B504000D0006489A
:102BD000FFF7CEFF0300002C03DB0120A0402900FB
:102BE00098470020FBE7C04655420000074BAA2249
:102BF00012011A608D225200DA60054B054A1A60F4
:102C0000024B5B68002BFBDA7047C0460040024075
:102C10000060024000B0FA0010B5040001E008CCEA
:102C20009847024B9C42FAD310BDC0466C900010EE
:102C30007047000010B50248FFF7EEFF10BDC04618
:102C400030900010054B064A1A60064B064A1A607F
:102C5000064B1A68044B9343FAD1704700E00040DA
:102C6000BFCDFBFE00F00040FE7F3C0008C00040EE
:102C7000044BDB6C002B03D1034B8022D2021A6081
:102C80007047C046000011504C201150044B054ABB
:102C90001A60054B1B68DB43DB01FAD17047C04665
:102CA00000F00040FFFFFF0108C00040034B40223E
:102CB0009A675A671A67DA667047C04600F00140A3
:102CC00010B5FEF79DFE10BD70B5044DA968044C0B
:102CD000C022200001F068F8AC6070BD00ED00E09B
:102CE0000000002070B50420FFF736FE064900F012
:102CF000A3F805000024002C00DD70BDE0B229001F
:102D0000FFF72EFF0134F6E740420F0030B583B0E5
:102D1000274B00229A67FFF769FF264B01221A60B2
:102D2000234B5B6C012BFBD1234B03221A60204BFE
:102D30009B6B012BFBD10133009304331F4A01210C
:102D40001F48FFF70FFE052300931E4A01211E486E
:102D5000FFF708FE1D4B002202210420FFF7F2FDC1
:102D60001B4D2B00002201210520FFF7EBFD194C24
:102D70002300002200210720FFF7E4FD23000022AA
:102D800000210820FFF7DEFD8023DB0000932300F5
:102D9000002200210920FFF7C1FD2B0000220021A5
:102DA0000620FFF7CFFDFFF79DFF03B030BDC04603
:102DB000008000403CB0004030B00040002F685917
:102DC00000800240008C864700C00240001BB70014
:102DD00040597307006CDC0201480421014B18477D
:102DE000101B0020912B0010124A936F9B0815D2E4
:102DF0009066D166002905D0FFE7FFE7FFE7516F36
:102E0000106F704704B580210906C2175140002891
:102E100000D0C84306F0C4F8002104BDF0B5146E1C
:102E2000556E576F166FFFF7E3FF146655665767C9
:102E30001667F0BD000000D0114A936F9B0813D2B3
:102E400010665166002905D0FFE7FFE7FFE7516FE5
:102E5000106F704704B5002801D00020C04306F071
:102E60009FF8002104BDC046F0B5146E556E576F33
:102E7000166FFFF7E5FF1466556657671667F0BDD6
:102E8000000000D094464A4A926F9208624601D2EE
:102E900028E0C046F0B5464E346E756E776F366FDB
:102EA00000F020F89446424A146655665767166744
:102EB0006246F0BD94463E4A926F9208624601D245
:102EC00054E0C046F0B53A4E346E756E776F366F8B
:102ED00000F04CF89446364A1466556657671667F4
:102EE0006246F0BD002B24DB11D000293EDA00B58C
:102EF000C943404200D1013100F038F8C943404293
:102F000000D10131DB43524200D1013300BD002A20
:102F1000EBD1002801D1002905D00020C90FC90735
:102F200001D1C043410800B506F032F80022002369
:102F300000BD00B500290ADBDB43524200D101335A
:102F400000F014F8C943404200D1013100BDC9432B
:102F5000404200D10131DB43524200D1013300F045
:102F600005F8DB43524200D1013300BD002923D1D3
:102F7000002B18D1002A0CD0BC460D4F38667A665B
:102F800000210023FFE7FFE7FFE77A6F386F67460E
:102F90007047002801D00748010000B505F0F8FF90
:102FA0000022002300BD02000B000020002170471A
:102FB000000000D0FFFFFFFF002B00D0BFE0130C8C
:102FC00028D1002AE7D080B4114F39667A66FFE72E
:102FD000FFE730B4040C7B6F396F1B0423433B665F
:102FE0007A66FFE7FFE7FFE7C04684B27B6F3D6F7D
:102FF0001B0423433B667A66FFE7FFE7C0460023D6
:103000002C042D0C7A6F386F00196941B0BC7047E1
:10301000000000D0F0B594460025140E01D1120234
:103020000835140F01D112010435940F01D192001B
:103030000235D40F01D152000135D40B0134254F94
:103040007C66254C3C660E0C93B2FFE7FFE7FFE77A
:103050003C6F6643360C7703BE467343DF0B5B045D
:10306000C01AB941130C7343DB18C91ACE08664362
:10307000360CB64493B273431F0F1B01C01AB941FB
:10308000130C73431F0B1B05C01AB941860D8F0229
:103090003E436643360C092D24DB520A7243801AE4
:1030A0007703460A6643360C16235B1BDE40DF407F
:1030B000BF1964466643821B70460435063301001F
:1030C000D940A840C01900D30131A24206D2002342
:1030D000F0BD0000000000D0FFFFFFFF121B013019
:1030E000F3D3F1E709277F1BFE406446A2B2724387
:1030F000801A00D20139220C7243130C1204821A76
:1031000099410B007046043513370100F940A8407F
:10311000801900D30131002B02D1A2420AD2F0BDA6
:10312000013000D30131121BFAD2013BF8D1A24287
:1031300000D2F0BD013000D30131121BF7E7F0B52A
:103140001C0C00D080E00CB400251C0A04D11B022A
:10315000160E3343120208351C0B04D11B01160F47
:103160003343120104359C0B04D19B00960F33436B
:1031700092000235DC0B02D192185B4101351C0034
:10318000971864410134464F7C66464C3C660E0CF1
:10319000FFE7FFE7FFE7C0463C6F6643360C770367
:1031A000BE4697B27743C01B00D20139C01B00D284
:1031B00001399FB27743C91BC91B170C77437E04A3
:1031C000FF0B801BB941CE086643360C0C2D33DB58
:1031D000B644120B1F053A431B0B97B27743C01B33
:1031E00000D201399FB27743C91B170C77433E04C5
:1031F0003F0C801BB941860D8F023E436643292751
:103200007F1BFE400C3D7746AF40BF1930BCA2B2D9
:10321000ABB272437343801A9941220C7243130C70
:103220001204801A994102000B000137001BA941CA
:10323000F9D2781E0021F0BD0C277F1BFE40774697
:103240007F0BAF40FF19E0E700245D1C07D0144F4F
:103250007D663966FFE7FFE7FFE7FFE73C6F95B262
:103260009EB265436643401BB141150C1E0C65437D
:10327000664336042F0C3E432D04401BB141994256
:1032800004D202000B0020000021F0BD01D19042C9
:10329000F7D3801A994101349942F2D3F6E700003E
:1032A000000000D0FFFFFFFF48404140484018B4F5
:1032B0001B4B5B68FC46019308BD04DF833500109F
:1032C00018B4174B1B68FC46019308BD00DF8D3511
:1032D00000109446134A926F920809D2624618B4BD
:1032E0000F4BDB68FC46019308BD0CDF453800102E
:1032F0000C4AF0B5146E556E576F166F6246FFF7A5
:10330000EEFF084A1466556657671667F0BD18B495
:10331000034B9B68FC46019308BD08DFE9360010AB
:10332000142F0020000000D0FFB550404240504014
:1033300059404B40594000E0FFB5154F4C00640D1B
:1033400003D0BC4204D10C0314D80020090D090598
:103350005C00640D03D0BC4204D11C030AD80022D7
:103360001B0D1B0501264B4009D44B4003D58B4256
:1033700000D18242FFBD9942FCD19042FFBD0B4378
:10338000DB1803431343F5D0C9434918FFBD0000C0
:10339000FF07000000B5FFF7CFFF804100BDC0462A
:1033A00000B5FFF7C9FF01D9002000BD012000BD15
:1033B00000B5FFF7B9FF01D9002000BD012000BD15
:1033C00000B5FFF7B1FF804100BD012040054A0074
:1033D000121804D85A00121801D800207047012092
:1033E000704700000021002805D17047C1174840F0
:1033F000401AFAD0C90713B5064B1B6898470CBC96
:10340000441CA2401005120B0349091B090519436E
:10341000114310BD143000201F04000010B54C00F3
:10342000620D8023D218DB00D21A5B057E2A10DDE4
:103430009E3A13DACC170903490819435242D14086
:10344000640001341532202A05DAD0400843604375
:1034500010BD002010BD0846604310BDC80FC01845
:10346000013810BD18B4044B5B6AFC46019308BDDB
:1034700024DFF53900100000142F002070B513234D
:103480001C78012C12D0012C12DC214B214A9364B0
:103490002148FFF76DFB214B186070BD1C491D4A88
:1034A0009800815001331F2BF8D9ECE70023FAE78D
:1034B0001B48FFF765FB05001A48FFF761FB023860
:1034C00003789B007F2B09DD12488022290000F041
:1034D0006BFC022C08D0022CDADCD6E7124B134A24
:1034E0001348332101F0AAFD124B1A88B5231B02A1
:1034F0009A4209D1104B1A88104B9A4204D1104BB2
:103500001A88104B9A42E6D00020FEF7E9F9C0462F
:1035100049350010142F00204C33000014300020D7
:103520005344000053460000E49C0010A4A6001081
:10353000289D001054380000D8380000494600008B
:103540009C3800005946000007B56046002800D1AD
:1035500000BE01880A0A0230DF2AFAD1C9B2820805
:1035600004D3028840880004104300E00068024A47
:103570005050039007BD0000142F00200FB403BC6F
:103580000CBCF0B50124E407634000E0F0B50C0D7D
:10359000CF0F661E3605891B640503D3C94340421D
:1035A00000D30131640D03D0661CF60A07D0E41B7A
:1035B00000207F00791C89078912803C24031D0D9F
:1035C000DF0F6E1E36059B1B6D0503D3DB43524296
:1035D00000D301336D0D03D06E1CF60A07D0ED1B2E
:1035E00000227F007B1C9B079B12803D2D032F1B1D
:1035F000661B58D4A446202E46DA20371400BC405F
:103600001D00BD40F24033412A4380185941CB0F81
:1036100005D0C943C0430022644250415141624633
:103620004D0D28D10D0D07D100281FD02419404180
:103630004941013A0D0DF9D0640006D3013000D3A1
:103640000131002C01D140084000013A0BD4941CF8
:10365000E40A04D112051144DB071944F0BDD9076F
:10366000204B194300E0D9070020F0BD0029DDD12F
:10367000002CDBD1F0BD0132C6074008CD0728433E
:103680004908002EE1D0D9E73C2E29DA203E403708
:103690001400BC4000D00124F24014431A00BB4087
:1036A0001C43D317ACE7AC46202F08DA20360400C1
:1036B000B4400D00B540F84039412843A5E73C2F00
:1036C0000CDA203F40360400B44000D00124F8401A
:1036D00004430800B1400C43C117EAE71000190089
:1036E000002494E70000F07FF0B50C0D661E36054F
:1036F000891BE60A6405640D02D0651CED0A04D03E
:10370000002001210905803C2403A4461C0D671EEE
:103710003F05DB1BE70A6405640D02D0651CED0A5A
:1037200004D0002201231B05803C2403774064441D
:1037300097B484B296B27443070C7E43150C6F4362
:1037400080B26843361802D3012000043F183004C9
:10375000350C00197D41844688B29AB250430C0C56
:1037600062431F0C7C438EB27E43921902D3012622
:103770003604A4191604170C3618674101BC81B22F
:103780009AB25143040C62431B0C5C4380B2584311
:10379000121802D30120000424181004130C40183E
:1037A00063412D185E410020474106BC88B293B2A8
:1037B00058430C0C6343120C544389B251435B18B9
:1037C00002D301210904641819041A0C0918624172
:1037D0006D1856410020474118BCF902720D114383
:1037E000F0026A0D1043ED020A0D03D16D1940413C
:1037F0004941013B124E9B1B7600B3420ED26D0035
:1038000007D30130002671416646354301D1400897
:1038100040001B05C918E4072144F0BD0BDA013351
:1038200006D1013004D101314F0D01D04908F2E732
:10383000E1070020F0BD013631050020EBE7000074
:10384000FF030000F0B51C0D671E3F05DB1BE70AF8
:103850006405640D02D0661CF60A04D00022012320
:103860001B05803C2403D0252D060026F6432E663A
:103870001E096E66CE0FF619B44649004F0D02D0F0
:103880007E1CF60A03D000200021403F3F033E1B70
:10389000B600B444013F7F05C91B49082E6F0136AD
:1038A00076089C02950D25437543ED137543AD13C2
:1038B00001356D10F603761B0CB4CC02450D2C437C
:1038C000A2B2B3B25A43270C7B43350C6F43A4B268
:1038D0006C431B1902D3012424043F191C041D0C42
:1038E000A4187D4124196D41009A91B2ACB2614394
:1038F000170C7C432B0C5F4392B25A43A41802D39B
:1039000001221204BF182204230C52187B41019C8F
:103910006C431B19520ED9010A434401A01A81B20B
:10392000B2B2514303145A43360C734387B2774300
:10393000D617D21900277E4136049B191704160C9E
:103940007F185E417316ED18F30100268033754130
:10395000A90F06D16400690AE8055B0A184309D279
:103960002FE00422944480337541A90AA8059B0ADC
:10397000184326D3404149412404009A019B0D007D
:103980005543641B4343E41A95B286B27543170C42
:103990007E43030C5F4392B25A43B61802D301220E
:1039A0001204BF183204330C52197B4152429C411D
:1039B000002C02D40022013051414008CA071043B4
:1039C000490802B06246D7079210084BD218084B3C
:1039D0009A4203D212058918C919F0BD0020002AA5
:1039E00001DC3900F0BD01331905F5E7FD030000E6
:1039F000FE070000002200B5203200F004F80800A5
:103A000000BD000000220B150AD410B5944600F04A
:103A100031F81414013400DA0021CB17144C20477C
:103A20000020002170476244343A0CD40C2A07DA93
:103A300004009140904052422032D440214310BDB6
:103A4000D843D94310BD203207D40C46944052428B
:103A500020321141D040204310BD0800C917203248
:103A600003D452422032104110BD1800190010BD7D
:103A7000273A00100A0DCC0F531E1B05C91A520518
:103A800003D3C943404200D30131520D03D0531C2C
:103A9000DB0A07D0121B00206400611C8907891211
:103AA000803A1203014BD21A70470000FF03000056
:103AB00051434343C9188C46110C83B24B4310B495
:103AC000040C614392B280B2504362431C041B0C4D
:103AD000001910BC59411304120CC0185141614423
:103AE0007047000048404140484000239C46114B2D
:103AF0005B68184700239C460E4B1B6818470E4A0C
:103B0000936F9B0804D200239C460A4BDB6818473E
:103B1000F0B5146E556E576F166FFFF7F4FF064A37
:103B20001466556657671667F0BD00239C46014B27
:103B30009B68184718300020000000D007B54840A7
:103B40004140484001E0C04607B54200120E03D094
:103B5000FF2A03D1420218D8C00DC0054A00120E38
:103B600003D0FF2A03D14A020FD8C90DC90501228B
:103B7000414005D4414001D5814207BD884207BD7F
:103B80000143491801D0C043001807BD00B5FFF735
:103B9000DBFF804100BDC04600B5FFF7CFFF01D974
:103BA000002000BD012000BD00B5FFF7C7FF804128
:103BB00000BD491A002807D108467047C10FC90740
:103BC00000D54042002817D0F44603B40B4B1B68C5
:103BD000984706BC81409E384042803107D20B0690
:103BE00007D04900490AC005104308436047013027
:103BF000F8E7490A8902F5E7704700001430002011
:103C000000239C46014B5B6A1847000018300020D7
:103C1000034BDB6FFC4618477CDF553D001000006E
:103C20001830002070B513231E782A48FEF7A8FF2D
:103C30000500012E11D0012E09DDAB1E1B789B0063
:103C40007F2B40DD24488022290000F0ADF8234876
:103C5000FEF78EFF224B186070BD1F4854222900CA
:103C600000F0A2F81F4B1A881F4B9A421CD1A723C1
:103C70009B011A881D4B9A4216D11D4B1A881D4B69
:103C80009A4211D11C4B1A8894239B019A420BD162
:103C90001A4B1A881A4B9A4206D11A4B1A681A4BB9
:103CA0009A4201D1152307E01848FDF719FE184C78
:103CB000094A99008C5001331F2BF8D9144B064A3E
:103CC0001362D361B7E7134B134A1448422101F042
:103CD000B5F9C04653460000183000204C330000B0
:103CE00014300020EE290000C40F0000C20D0000B7
:103CF000962B0000C0B50000182B0000CC2A000055
:103D000010B50000FC2C000051ED87648495001074
:103D1000213D0010809D0010B8A60010B49D001039
:103D200007B56046002800D100BE01880A0A0230AB
:103D3000DF2AFAD1C9B2820804D30288408800047D
:103D4000104300E00068024A5050039007BD000095
:103D500018300020C30FDB0741000A0E07D0FF2AEE
:103D600008D00909054A8918194340077047190006
:103D7000002070470249C918FAE700000000003827
:103D80000000F07F10B504F099FE10BD0148042139
:103D9000014B1847201B0020912B0010014B1B6882
:103DA00018470000201B0020014B5B6818470000EB
:103DB000201B00209A4200D288547047704710B5EB
:103DC000002802D00B684968984710BD0100002008
:103DD00007E083001B185B00501C08601078C018B7
:103DE00030380A681378303BDBB2092BF1D97047C1
:103DF000F0B5DE4657464E464546E0B583B093469D
:103E00001F000C9B9A460D9C0E9B99460F9B9B078F
:103E100017D0B8460F00060022E0551C4B4641461D
:103E20002020B84701342A00B442F6D33D004F4663
:103E30005C46019B9B46B1464646B84637002E007D
:103E40000EE00192A34688464E46B9460700EBE7CE
:103E5000013C551C5346185D43463900B0472A00C3
:103E6000002CF5D135003E0047460F9B9B0711D42F
:103E7000100003B0F0BCBB46B246A946A046F0BD58
:103E8000541C4B4641462020B8472200531BB342E6
:103E9000F6D3EDE7B0464E46B9462F005D46F5E74E
:103EA000F0B5CE46474680B585B0944698460C9D01
:103EB0000D9C0EAB1B789946109A119B129EB7076A
:103EC0001CD4002B0CD0F7070AD54F46002F02D187
:103ED0000C37374204D0013B02E030272F55013424
:103EE000944201D21F2CF8D9F70707D59C4205D27E
:103EF0001F2C03D830272F550134F5E7F70612D5CC
:103F0000770505D4002C03D0944221D09C421FD0C9
:103F10000F9A102A2FD00F9A022A36D01F2C0AD8B7
:103F200030222A5501341F2C05D84A46002A32D0A7
:103F30002D222A550134039602930194009543469D
:103F40006246FFF755FF05B0C0BCB946B046F0BDAC
:103F5000621E012C17D00F9F102F0BD014000F9A48
:103F6000102AD8D1B206D6D51F2CD4D858222A551B
:103F70000134D3E7023CB206F1D41F2CEFD87822EB
:103F80002A550134CAE71400C2E71F2CD3D8603287
:103F90002A550134C2E7720703D52B222A55013472
:103FA000C9E73207C7D520222A550134C3E7F0B547
:103FB000DE4657464E464546E0B593B081468A46B2
:103FC000089209931CAB10CB1B789B461E9D219B2E
:103FD0009846002C03D1102342469A4390468023F2
:103FE000DB0046461E4042461A4218D0002C22D022
:103FF000002614E0424692061BD54121C918C9B2D9
:104000000A39C9B2771C0AAB995529002000FEF77E
:1040100013FFAC4210D31F2F0ED83E00040029001E
:104020002000FEF709FFCBB2092BE3D83033D9B219
:10403000E8E76121E2E7270043460693209B0593CA
:104040001F9B049303955B46029301970AAB009371
:10405000099B089A51464846FFF722FF13B0F0BC6F
:10406000BB46B246A946A046F0BDF0B5DE4657466F
:104070004E464546E0B597B00A900B910C929A4691
:10408000209B9946219F22AA13789B46249B099343
:10409000259C289B98464A463A4302D110329343C6
:1040A00098468022D20045461540434613420AD026
:1040B0004A463A4341D000252E0053460D934D46C3
:1040C000099B9A4621E02E0053460D934D46099BCD
:1040D0009A461AE04246920623D54122D218D2B21D
:1040E0000A3AD2B2731C99460EAB9A555246230037
:1040F00028003900FEF7DEFEBC4220D813D04B4624
:104100001F2B16D84E4605000F00524623002800EC
:104110003900FEF7CFFED3B2092BDBD83033DAB249
:10412000E0E76122DAE7AA45E9D94E460D9B9A46B7
:1041300008E04E460D9B9A4604E0002602E04E46FB
:104140000D9B9A4643460693279B0593269B049313
:10415000099B03935B46029301960EAB0093534673
:104160000C9A0B990A98FFF79BFE17B0F0BCBB4660
:10417000B246A946A046F0BDF0B5DE4657464E46CB
:104180004546E0B591B0804689460C929A461A9C05
:104190001B9D22002B0020002900FFF716F90028A4
:1041A00000D0F2E001225242D54B20002900FFF757
:1041B00007F9002800D0E8E001225242D14B20004C
:1041C0002900FFF7E7F8002800D0DEE000220023F6
:1041D00020002900FFF7DEF8002800D0EAE006946E
:1041E00007958023DB001E9A1A400D921E9A1A42F0
:1041F00001D106231C930698079902000B00089230
:10420000099303000A00024300D1DFE0080D4005D6
:10421000400DBD4EB4466044079E3203120B1E0093
:10422000BA4B13431F00FFF7E1F8B94AB94BFFF748
:104230006EF8B94AB94BFFF743F80890099100228C
:10424000B74B30003900FFF732F8B64AB64BFFF7EC
:104250005EF802000B0008980999FFF731F8FFF7A4
:10426000DDF88346FFF7C2F806000F00AF4AB04BF7
:10427000FFF74DF80022AF4BFFF722F8FFF7CEF81B
:104280000890AD4AAD4B30003900FFF740F806000A
:104290000F000898FFF7AAF8A94AAA4BFFF737F8CA
:1042A00002000B0030003900FFF701F806000F0094
:1042B00002000B00FFF72BF80A900B91089BA24A13
:1042C0009446634400210022089109921B0509933A
:1042D0000023089332003B0030003900FEF7F0FF66
:1042E0000E900F9132003B0000208021C905FEF79F
:1042F000DEFF06000F000022944B0A980B99FEF790
:10430000E8FF0022924BFEF7DBFF02000B000A9849
:104310000B99FEF7DEFF00228E4BFEF7D1FF020065
:104320000B000A980B99FEF7D4FF02000B00300037
:104330003900FEF7C5FF02000B000E980F99FEF73B
:10434000C8FF0022714BFEF7BBFF089A099BFEF7DE
:10435000DEFF06000F0008960997069A079BFFF7F5
:104360002FF800280BD001235B429C46E344002237
:10437000774B30003900FEF7ACFF089009915B469F
:104380006333C62B45D8042623E01E9B04931D9B54
:1043900003931C9B02930094019553460C9A494643
:1043A000404600F0FBF811B0F0BCBB46B246A9464F
:1043B000A046F0BD002100220691079206948023BA
:1043C0001B069C46AC44634607930AE700239B46C2
:1043D00004261E9B1B0528D5089A099B190011432A
:1043E0000FD05D4A5D4B06980799FEF7E1FF002864
:1043F0007AD000225A4B06980799FEF7CBFF002887
:1044000072D01C9B5B4506DD5A469B1A013B1C93F0
:1044100003E00526DDE700231C938023DB001E9AC2
:104420001A431E92002600239B461D9B9E4265D286
:104430009F1B02231E9A1A400A921E9A134202D010
:10444000002E00D000275B46002B07D0089A099B5E
:1044500006980799FEF73DFF06900791002200237A
:1044600020002900FEF796FF002800D07CE03D4B9D
:104470001E9A1340049303971C9B0293069B079C70
:104480000093019453460C9A4946404600F086F842
:10449000002E00D187E71E9B9B0671D54525441C45
:1044A0005346020049462800C0475A46D317D2183F
:1044B0005A4005230593013E0496002303930A33D3
:1044C00002935B46DB0F019300925346220049465C
:1044D0004046FFF76CFD0A9B002B00D163E702000A
:1044E00047460C9E1D9D53E01C9B002B9DD00D9BB1
:1044F000002B9AD01C9B013B1C9396E7002798E762
:10450000FFFFEF7FFFFFEFFF01FCFFFF0000F03F29
:10451000FB799F501344D33FB3C8608B288AC63FB2
:104520000000F83F61436F63A787D23F71A3790909
:104530004F930A400000E03F1655B5BBB16B0240F7
:10454000EF39FAFE422EE63FFF03000000002C4048
:1045500000002440000018402D431CEBE2361A3FB7
:1045600080842E41FFF7FFFF069C079D2200290053
:1045700080200006844661440B000692079376E78C
:1045800065258CE7541C534649462020B847220035
:10459000931BAB42F6D3100005E7C046F0B5DE46EC
:1045A00057464E464546E0B595B00690079193466E
:1045B0009946209F1E9A1F9B10001900FEF705FFC9
:1045C000002831D101225242BC4B1E981F99FEF7A0
:1045D000E1FE002837D101225242B94B1E981F99A3
:1045E000FEF7EEFE00283DD10022B64B1E981F9923
:1045F000FEF7E6FE00284AD10022B34B1E981F9911
:10460000FEF7C8FE002842D1002200231E981F9901
:10461000FEF7C0FE00284AD100239846229B5B0586
:1046200000D4B0E0002452E0229B0393219B02932C
:1046300003230193A54B00934B465A4607990698CE
:10464000FFF7D6FB08E1229B0393219B02930423EF
:1046500001939F4B00934B465A4607990698FFF7E4
:10466000C7FBF9E0229B5B070ED59A4B04222299E7
:10467000039121990291019200934B465A46079962
:104680000698FFF7B5FBE7E0934B0322EFE7229B89
:104690000493219B039302971E9B1F9C00930194FC
:1046A0004B465A4607990698FFF766FDD4E01E9AD6
:1046B0001F9B00200021FEF7FAFD1E901F91012391
:1046C0009846ABE70CAB30221A55013F01341F2C42
:1046D00001D8092FF6D81E981F99FEF79FFE0500F6
:1046E000FEF784FE02000B001E981F99FEF7DFFD07
:1046F0007A4BFA009B181A685B680A920B93FEF7D4
:1047000006FE08900991FEF7ADFE0600FEF76AFE70
:1047100002000B0008980999FEF7C9FD089009915D
:1047200000226F4BFEF74CFE00282ED001363000E1
:10473000FEF758FE02000B000A980B99FEF730FEB8
:10474000002801D001350026002F2CD12800FEF7CB
:104750004DFE02000B001E981F99FEF7A8FD0600F3
:104760000F0000225E4BFEF715FE002846D1002206
:104770005B4B30003900FEF723FE00283ED1EB07EB
:104780003CD501353AE006274CE70022544B089807
:104790000999FEF7FFFD0028D6D1002E01D0F307BE
:1047A000D2D50136D0E7AA461F2C11D8013F0A21E5
:1047B0003000FEF741FB651C30310CAB19550A2166
:1047C0003000FEF739FB092E0ED906002C00EBE76E
:1047D00055461F2C0CD87B1E002F09D00CAA302167
:1047E00011551F000134F4E72B0055461C00F0E77B
:1047F0001F2C03D80CAB2E221A5501341F2C10D8B5
:104800000A212800FEF7F0FA661C30310CAB19556E
:104810000A212800FEF7E8FA051E01D03400EDE772
:1048200034000323229A1340012B1CD01F2C06D8DE
:104830004346002B32D00CAB2D221A550134229B5B
:104840000393219B029301940CAB00934B465A4671
:1048500007990698FFF7CCFA15B0F0BCBB46B246F4
:10486000A946A046F0BD219B002B13D04346002B48
:1048700002D10C3313420FD0219B013B219319002D
:1048800003E00CAB30221A5501348C42CED21F2CDF
:10489000F7D9CBE72199F8E72199F6E7229B5B0747
:1048A00004D50CAB2B221A550134C8E7229B1B07F9
:1048B000C5D50CAB20221A550134C0E7FFFFEFFF2E
:1048C000FFFFEF7F65CDCD4165CDCDC1489E001086
:1048D0004C9E00103C9E0010449E0010C8A8001082
:1048E0000000E03FF0B5DE4657464E464546E0B58F
:1048F00093B007008A4693461193002900D12CE318
:10490000002508E06C1C5B462A005146B847119B05
:10491000013311932500119B1878002800D11EE364
:104920002528EFD1013311930023180020E0012343
:10493000184301321192012418E002231843013276
:104940001192012412E00423184301321192012430
:104950000CE00823184301321192012406E01023D1
:10496000184301321192012400E00024002C09D0E8
:10497000119A1378203BD9B21029F6D88B00C4497C
:10498000CB589F468146119B1A781300303BDBB20F
:10499000092B10D92A2A13D00B94119B1A782E2A8E
:1049A00020D0119A1378683BD9B2122965D88B00B0
:1049B000B849CB589F4611A8FFF708FA0B90ECE7CF
:1049C0001C9B1A1D1C921B68002B04DB0B93119B74
:1049D00001331193E1E702220100114389465B4252
:1049E0000B93F4E78022D2004946114389465A1CB2
:1049F00011925A781300303BDBB2092B0BD92A2ACB
:104A0000CFD11C9B1A1D1C921C68002C08DB119B2B
:104A100001331193C5E711A8FFF7D8F90400C0E7E7
:104A20000024F4E780235B0049460B43511C11919D
:104A300051786C2901D099461FE0C0239B0049465C
:104A4000194389460232119217E0802349460B43ED
:104A5000511C11915178682901D099460DE0C0236D
:104A60004946194389460232119206E080235B00D1
:104A700049461943894601321192119B18786728DB
:104A80001CD8252800D25EE20300253BDAB2422A78
:104A900000D958E29300804AD3589F4680239B0058
:104AA00049461943894601321192E6E780235B00AB
:104AB00049461943894601321192DEE7782800D928
:104AC00041E2692800D23EE20200693AD2B20123F3
:104AD0009340724A134210D11A0600D50CE25B05CE
:104AE00000D430E21C9B1A1D1C921E68002C00D0C2
:104AF000BAE101225242330096E16F2842D005D834
:104B0000582841D0622803D1022606E078283DD0FB
:104B100010234A469A4391460A26582838D06928D5
:104B200005D0642803D00C224B46934399464B464C
:104B30005A0502D501229343994669282DD064284D
:104B40002BD04B469A0500D5AAE0DA0500D5C2E085
:104B50005A0600D4D3E01C9A111D1C911168FF2243
:104B60000A404B4605930B9B049303940296002343
:104B7000019300925B462A0051463800FFF717FA6E
:104B800005002AE00826C8E71026C6E71026C4E775
:104B900020224B4613439946C1E74B469A0520D441
:104BA000DA0551D45A0666D51C9A111D1C9111685C
:104BB000FF220A40D017111841404B4605930B9B2A
:104BC000049303940296D20F019200915B462A004F
:104BD00051463800FFF7EBF90500119B01331193A3
:104BE00099E61C9A073207218A43110008311C916B
:104BF000116853689C46DB170C930D930C9A0D9B20
:104C0000100048400E900D9B61464B400F930E984C
:104C10000F990C9A0D9B801A99410E900F914B465B
:104C200008930B9B07930694049600230593634611
:104C3000DA0F0292009001915B462A00514638003B
:104C4000FFF713FA0500C8E71C9A111D1C911268A2
:104C5000D0171118414005930B9B049303940296BF
:104C6000D20F019200915B462A0051463800FFF7AF
:104C70009EF90500B1E71A0605D51C9A111D1C9175
:104C80000023D25E96E71C9A111D1C91126891E7D1
:104C90002CA7001070A70010BCA7001041900000C6
:104CA0001C9A073207218A43110008311C9108938E
:104CB0000B9B079306940496002305930293536875
:104CC0001268009201935B462A0051463800FFF7B4
:104CD000CCF9050081E71C9A111D1C9105930B9BD3
:104CE00004930394029600230193136800935B4698
:104CF0002A0051463800FFF75AF905006DE71A06F9
:104D000006D51C9A111D1C9112681204120C28E77A
:104D10001C9A111D1C91126823E746281AD01C9B6F
:104D20000733072293431A0008321C924A46049222
:104D30000B9A039202941A685B68009201935B4697
:104D40002A0051463800FFF729FC0500119B01336A
:104D50001193E0E520234A461A439146DFE767288E
:104D600001D0472804D180231B014A461A439146AB
:104D7000452801D0472803D120234A461A439146AB
:104D80001C9B0733072293431A0008321C924A46A1
:104D900004920B9A039202941A685B680092019342
:104DA0005B462A0051463800FFF7E6F90500119BE3
:104DB00001331193AFE502234E461E404A4613428B
:104DC0001ED001241C9B1A1D1C926A1C9046187848
:104DD0005B462A005146B847002E14D1119B01337F
:104DE0001193454697E5551C5B4651462020B84730
:104DF00023002A005C1C0B999942F4D81500E1E7C6
:104E000001232A00F6E7424606E0561C5B4651465F
:104E10002020B8472C003200651C0B9BA342F4D81D
:104E20009046DBE701330A001978002902D0511EB1
:104E3000002AF7D19B1B8022D200494611408846A8
:104E40004946114202D0A34200D92300022249461A
:104E50001140109149460A4208D02A00250099467F
:104E60003B004746984626E0220044E6A1462A0039
:104E70005146B2460E0006E0551C5B46310020202C
:104E8000B84723002A005C1C0B999942F4D81500FE
:104E900022004C46330056469A4691462A00250089
:104EA0003B004746984606E01D000136541C5B4611
:104EB0005146C04722003078002804D0002FF4D09B
:104EC0006B1E002DF0D115004B464746109A002A64
:104ED00003D1119B013311931DE50B9E2A0006E0BF
:104EE000551C5B4651462020B84723002A005C1C15
:104EF0009E42F5D81500ECE721234A461A431300D9
:104F00001C9A111D1C9112680593082304930394A5
:104F1000083302930023019300925B462A00514616
:104F20003800FFF744F80500119B01331193F2E4B8
:104F30006C1C5B462A0051462520B847119B013363
:104F400011932500E7E46C1C5B462A005146B847E4
:104F5000119B013311932500DDE40A4FD0E45D4538
:104F60000DD35B465A1E5B4651460020B8472800C9
:104F700013B0F0BCBB46B246A946A046F0BD2A001D
:104F8000F1E7C046BD3D00100CB430B585B00A0055
:104F900008AC08CC0394054D009401002800FFF7ED
:104FA000A1FC05B030BC08BC02B01847B53D0010EC
:104FB00010B582B0044C009313000A0001002000D9
:104FC000FFF790FC02B010BDB53D001010B584B0E5
:104FD0000C0002A902904C600124044800931300C5
:104FE0006242FFF77FFC04B010BDC046BF3D001019
:104FF00000BEFDE703000A4A1268002A08D0084AEA
:105000001068C318074A9A4206D3054A13607047CE
:10501000034A05491160F2E701204042F7E7C04624
:10502000D02A0020000004204031002000207047DA
:1050300001204042704710B5FFF7DAFF30B583B06A
:105040000D001900002A0BD0074B084C0192009369
:105050002B000200200000F0D3F90120FFF7C8FF69
:10506000034B1A00F1E7C046549E0010649E0010E6
:105070008495001010B5EFF30583002B00D000BE1F
:10508000FDF7D8FD034C01E008CC9847024B9C4249
:10509000FAD310BD6C9000107490001010B503008E
:1050A000080011001B68984710BD0000F8B5070004
:1050B0000D001600437D002B02D0002400200CE0E0
:1050C00003681100280098472DE03B7D10E03B6805
:1050D000154802219847601C0134B44214DA002CB0
:1050E000F3DD2B19013B1B780D3B5A425341DBB2D8
:1050F0002A5D0A2AF0D1002BEED1A042E7DA3B6804
:10510000211A28189847E2E7B04203DA3B68311ABF
:1051100028189847002E06DDAD19013D2B780D3B70
:105120005A4253413B75F8BD34A9001070B50500D3
:105130000368002B16D00C4B1C6805E0290004C93D
:105140002000FFF7B3FF2469002C09D02368002B4F
:10515000F9D0064B1B68002BF0D0A342F3D1EDE74A
:1051600000232B6070BDC046C02A0020CC2A00203E
:1051700070B505000C000B68802B05D023685A1C05
:105180002260E418257170BD0800FFF7CFFFF5E736
:1051900010B5FDF745FB074A002312184B41002BC1
:1051A00003DB054803F01CFF10BD01225242034BF4
:1051B000F7E7C04640420F00C8200020FFFFFF7FF6
:1051C00010B5024803F0DCFE10BDC046C820002028
:1051D000F0B5CE46474680B583B006000D00904638
:1051E0001C00FFF7D5FF81466B1C05D0002C08D0B2
:1051F000184F194B1C6807E0300003F02DFD050027
:10520000F4E7164FF5E72469002C17D02368002B2C
:10521000F9D0134B1B68002B01D0A342F3D12A0015
:1052200031002000B8474346002BECD06B46D91D17
:105230000A230B7001222000B847E4E74B46002BFD
:1052400005D1280003B0C0BCB946B046F0BDFFF799
:10525000B7FFF6E7AD500010C02A00209D500010A7
:10526000CC2A0020F0B583B006000F000192009315
:10527000164B1C6808E0A368002B04D039003000EE
:105280009847002820DC2469002C06D0104B1D68AC
:10529000002DF0D0A542F6D1EDE700990A000D4BA4
:1052A0005B6A994209D80B49896A0198814209D2FF
:1052B0009A4202D00220404206E001200021FDF780
:1052C000B7FAD5E70220404203B0F0BDC02A002063
:1052D000CC2A0020004005400A4A136802E01A0068
:1052E00010321B69002B09D013688342F7D10029C3
:1052F00007D1036913600023036102E0002900D095
:1053000010607047C02A002010B5064B1C6800E0F2
:105310002469002C04D06368002BF9D09847F7E784
:1053200010BDC046C02A002010B500F0FFF910BD26
:1053300030B583B004000025FDF772FA22002B007F
:1053400012184B41002B0ADB012101A8FFF78AFF4D
:10535000002802DB07D001AB187803B030BD012272
:105360005242044BF0E7044B044A04210448FF3145
:10537000FFF764FEFFFFFF7F949E001018A9001046
:10538000989E001010B582B004006B46D81D0470C2
:10539000012300220121FFF71BFF200002B010BDF6
:1053A00070B5050003F058FC040001230122010040
:1053B0002800FFF70DFFFFF7A7FF200070BD0000DA
:1053C000F0B5A3B004000E00FFF7E2FE050001AF48
:1053D000002301930948330022003900FFF7F6FD4E
:1053E00004003800FFF7A2FEFFF78EFF002D02D168
:1053F000200023B0F0BDFFF7E3FEF9E77151001084
:105400000FB400B583B004A901C90191FFF7D8FF1B
:1054100003B008BC04B0184770470000014B0022DD
:105420001A7070473B3100204B79FF2B0CD18B79E0
:10543000002B0BD1CB79012B0AD1082A0AD98A7803
:10544000054B1A70092000E0002070470020FCE79F
:105450000020FAE70020F8E73B31002001207047E8
:1054600010B5012927D1117953791B020B43134938
:1054700009788B4201D000201EE05378012B03D025
:10548000022B11D0002017E09178D3781B0219432A
:10549000DB0506D5480A8A05D20F7F231940FDF7A0
:1054A00093FB01204042F6E7642200210020FDF733
:1054B00033FB012000E0012010BDC0463B3100203D
:1054C0000048704700AA001010B51400012910D13F
:1054D0005378012B0FD1127963791B021343072BE9
:1054E00001D0002006E0054A9F33210001F058FB5F
:1054F00000E0012010BD0020FCE7C04658A90010C4
:10550000012303700048704738A9001010B50A78CD
:105510004B781B0213438A7812041A43CB781B067C
:1055200013439622D200934200D010BD01200022E6
:1055300011004042FDF748FB024B1860024B196016
:105540007047C046602A0020642A002010B5FDF78D
:1055500067F90E4A002312184B41002B12DB0C484E
:1055600003F03EFD00280CD001200021404201F054
:10557000E3F9002001F07CFC0028F5D1044803F099
:10558000FFFC10BD01225242024BE8E740420F00EF
:105590001C310020FFFFFF7F10B5024B1878FCF78D
:1055A000C5FA10BD3C3100200268EFF3108172B6DD
:1055B0001368002BFCD0BFF35F8F41607047000081
:1055C00070B5144B1B68002B1AD0124C2000FFF74B
:1055D000EBFF114B00221A7021686368BFF35F8FE5
:1055E0000A6083F31088002400250C4B1878FCF720
:1055F00079FA002808D1002400252000290070BD78
:10560000FA24A4000025F0E7044B1878FCF78EFA82
:10561000F3E7C046F42E00203D3100203C3100204D
:10562000F0B585B0060014001D000CAB1F78FDF727
:10563000F7F822002B0012184B41002B09DB0297D0
:105640000B9901910A9900913000FCF70FFF05B00A
:10565000F0BD01225242014BF1E7C046FFFFFF7F40
:10566000F0B5C64600B584B00500884616001F0098
:105670000AAB1C78FCF792FE0294019700962A0070
:105680004346FFF7CDFF04B080BCB846F0BD000034
:1056900010B582B01F48002103F08AFC002818D101
:1056A0001D4B1B68002B12D01B4C2000FFF77CFF0A
:1056B0001A4A1378DBB20121117021686268BFF3C6
:1056C0005F8F0020086082F31088002B17D002B093
:1056D00010BD01200021404201F02EF9002001F010
:1056E0009FFB04000B4803F04BFC002CEFD00C4B4D
:1056F0001B68002BEBD00B4A10689847E7E70A4A73
:10570000013300930023FA2080000021FFF7A8FF57
:10571000DDE7C0461C310020F42E00203D31002082
:10572000602A0020642A0020C155001010B582B004
:10573000D0231B061C68FCF731FEFCF711FFA042CA
:1057400030D1274B1B780021002002F053F8254B65
:105750001B68002B2CD00120FCF7B4FB224C2070DE
:105760002249FF231840FCF7FFF920780121FCF7BC
:10577000D3F90520FCF7EAF9041E1DD00120FCF73F
:105780002DF901001A4B1800FCF7FCFB1949002207
:105790000520FCF713FA18480121FFF79DFD2000B2
:1057A00002B010BD154B164A1648C121FFF746FC42
:1057B0000C48FCF7A5FBCEE70D4808220021FEF7B8
:1057C000EDFA114A012300930023FA208000002102
:1057D000FFF746FFC043C40F0028E0DADBE7C0460E
:1057E00070B100101C3100203C3100209156001097
:1057F000F42E002099550010301B0020DC9E001074
:1058000030AA0010E49E0010C155001010B5002011
:1058100001F0EAFA10BD000070B505000C00FFF7BA
:10582000F5FF002834D0002001F0FAFA002832D029
:10583000FCF7F6FF1B4A002312184B41002B19DB23
:10584000194803F0CDFB002828D0FFF7DFFF002820
:1058500004D0002001F0E4FA00280FD1012000213B
:10586000404201F069F8032464420F4803F088FBCA
:10587000200070BD012252420C4BE1E722002900BA
:10588000002001F0D9FA041EEFD103246442ECE7B2
:1058900003246442ECE703246442E9E703246442FE
:1058A000E6E7C04640420F001C310020FFFFFF7FAB
:1058B000F0B5C64600B580460C00FCF7B1FF314A92
:1058C000002312184B41002B07DB2F4803F088FB05
:1058D000002806D180BCB846F0BD012252422B4BB5
:1058E000F3E7FFF793FF002849D1294B002000215F
:1058F00018605960244803F043FBEBE701200021C6
:10590000404201F019F8002001F0B2FAFFF77EFFE3
:105910000028EFD0002001F027FB002820D0A5426E
:10592000E8DA661B002001F01FFB0200864200DC63
:105930003200002AE2D043465919002001F0F0FA63
:10594000060001200021404200F0F6FF002001F097
:105950008FFAAD19FCF764FF0D4B18605960DEE754
:10596000FCF75EFF0A4B1E685F680A4A0023921923
:105970007B419942BED8D2D19042D0D9BAE7002516
:10598000CDE7C04640420F001C310020FFFFFF7FE3
:105990005022002020A1070000487047ACAA001048
:1059A0000048704758AA001010B50400154B1B782A
:1059B000002B0ED0002C11D1134B144A5A80012316
:1059C00001335B009BB21048C02292001343038056
:1059D00010BD0C48112100F025F8EBE7052C0ED87E
:1059E0000B4BA400E4580023122BE9D8E15C0029FA
:1059F000E6D00133044A58008152DBB2F4E70020BC
:105A0000E6E7C04624310020982A0020090400005F
:105A100040AA001010B5024800F030F810BDC04692
:105A20000C2F002010B5002901D0002308E00F4BF7
:105A30000F4A10483531FFF701FB3732C2540133AA
:105A40004A1E9A420ED90F2B0CD85A080A4CA45C55
:105A500001229A43920014410F222240092AECDCD1
:105A60003032EBE7C0180023037010BD709F0010A8
:105A7000C0AA0010789F00100C2F002070B588B0CD
:105A8000040004AD0D2200212800FEF787F90D2245
:105A900000216846FEF782F94B232B700D226946E0
:105AA000280003F065FA002304E05A1D69468A5C69
:105AB000E2540133072BF8DD08B070BD70B582B039
:105AC0007F230340C509274C5E0076197601A4198F
:105AD000A0706842684160700020E0702183E27627
