:020000041000EA
:1000000000B5324B212058609868022188439860DF
:10001000D860186158612E4B002199600221596106
:100020000121F02299502B49196001219960352056
:1000300000F044F80222904214D00621196600F024
:1000400034F8196E01211966002018661A6600F04E
:100050002CF8196E196E196E052000F02FF8012189
:100060000842F9D1002199601B49196000215960AB
:100070001A491B48016001219960EB211966A021F2
:10008000196600F012F800219960164914480160C1
:100090000121996001BC002800D000471248134993
:1000A000086003C880F30888084703B5996A0420EC
:1000B0000142FBD001200142F8D103BD02B5186610
:1000C0001866FFF7F2FF186E186E02BD00000240BE
:1000D000000000180000070000035F00212200005C
:1000E000F4000018222000A00001001008ED00E03C
:1000F00000000000000000000000000074B24E7A12
:1001000000200420F7010010C3010010C5010010F9
:10011000C1010010C1010010C1010010C101001097
:10012000C1010010C1010010C1010010C701001081
:10013000C1010010C1010010C9010010CB01001065
:10014000CD010010CD010010CD010010CD01001037
:10015000CD010010CD010010CD010010CD01001027
:10016000CD010010CD010010CD010010CD01001017
:10017000CD010010CD010010CD010010CD01001007
:10018000CD010010CD010010CD010010CD010010F7
:10019000CD010010CD010010CD010010CD010010E7
:1001A000CD010010CD010010CD010010CD010010D7
:1001B000CD010010CD010010CD010010CD010010C7
:1001C00000BE00BE00BE00BE00BE00BEEFF3058054
:1001D000103800BEF2EB8871148F0110388F0110B7
:1001E0003802001090A31AE71E481F49086006C88D
:1001F00081F3088810471D480068002801D019487D
:10020000F3E70DA40ECC002902D000F012F8F9E7B4
:100210001749184A002000E001C19142FCD116495B
:100220008847164988471649884700BEFDE701C937
:1002300001C29A42FBD37047388F0110C0000020E2
:100240009821002010B001100000042000000420BC
:1002500010B0011000100420001004200000000065
:10026000704700000000000008ED00E0000000D032
:1002700098210020C0320020D96100100104001034
:1002800099610010F8B5C04606480749091A8B1055
:10029000C90FC91810B5491003D0044B002B00D06A
:1002A000984710BD982100209821002000000000F0
:1002B000054B10B5002B03D00449054800E000BFF2
:1002C000FFF7E2FF10BDC0460000000054300020E0
:1002D000284A011030B585B00500204806F012F913
:1002E0001F4806F00FF9002410E01E48210006F018
:1002F00039F90FE01C4806F035F9E217120FA11882
:100300000F230B409B1A0F2B1FD001347F2C20DCB6
:100310002307EAD078231A0022402342EAD0782A21
:10032000E8D0E1B228680023009301330F226A4429
:1003300009F0B6F9002804DB0C48210006F012F998
:10034000DBE70B4806F00EF9D7E70A2006F0CCF8F9
:10035000DBE7084806F0D6F805B030BD284A0110A2
:10036000404A0110744A01107C4A0110844A01106D
:10037000804A01108C4A011000B585B00068002346
:10038000009301330F226A4409F08AF9C043C00F79
:1003900005B000BDF0B5C64600B50C0016001D0046
:1003A000080000F080FE011C00230022300001F054
:1003B0000FFAA76FE36F9846F81804F03EFC0F4958
:1003C00004F0E1FB061CFE21890504F031FC002845
:1003D00001D0FE26B6058423E15C43463A0028009E
:1003E00001F08AFB2100280001F008FB311C2800E5
:1003F00001F0B4FB80BCB846F0BDC0460000C84266
:10040000F0B5E3B006F042F8E849E94806F0AAF88A
:10041000E84AE949E94806F0A5F8E94806F072F823
:10042000FA20C00003F04CF9E64DE74C290020000B
:1004300009F000F90321082002F05CF803210920EB
:1004400002F058F800220121082002F06DF8002285
:100450000121092002F068F8DC482B00092208215C
:1004600006F080F8619461AC2000FFF733FF27218C
:100470002000FFF781FF002820D0D548272106F073
:1004800071F8D1495FAC2722200000F0CFFAD148A3
:1004900006F038F8200000F03EFB200000F0AEFB34
:1004A000CD4806F02FF856AC0E230D220C2120006B
:1004B00001F0E2FB200001F0FBFB07E0C748272129
:1004C00006F050F8C64806F01DF8DAE7C5480E23D6
:1004D0000D220C2106F046F85FA955A800F058FE41
:1004E00055A800F069FE5FA94FA801F0B9F94FA81F
:1004F000BD4B436101F0D0F9BC4806F003F801237D
:100500000393F433FF330293FE239B0501930B23E4
:100510000093013B0022B6492BA800F091FC2BA8C8
:1005200000F04AFCB3480B220A2106F01BF8B2483F
:10053000FA235B0000930022B04B06F013F84FAB98
:1005400000932BAB22005FA90AA801F095FC0AA832
:1005500001F0C4FFAA4805F0D5FF5FA800F0D2FA69
:10056000002200215FA800F00DFB904AA5495FA87A
:1005700000F02FFB012200215FA800F003FBA2493D
:100580005FA800F019FB022200215FA800F0FAFA30
:100590002BAA8C23D35C002B0BD09C4B9C49019342
:1005A000FA235B0000930022944B5FA800F011FB3C
:1005B00001E0984BF2E74FA801F090FA03220021E6
:1005C0005FA800F0DFFA94495FA800F0F5FA9348BD
:1005D00005F098FF924803F073F8924805F092FFF7
:1005E000914805F08FFF914805F08CFF03E03D0036
:1005F00003F05AF902E000250026F9E7002909D0A6
:10060000FA229200002303F099FC04002BA800F0CA
:10061000B3FC05E0FA21890003F052FC0400F5E781
:1006200056A801F0ADFB56A801F08AFB002803D0C4
:100630000AAB5B7E002B07D00AAB5B7E002B0AD196
:10064000002005F027FF0DE0794805F05BFF0AA8C0
:1006500001F0B8FCF0E70AA801F014FF322003F023
:100660002FF8C5E74338332800D970E18000714B7B
:100670001B589F462BAB00225A616F4805F042FF82
:1006800065E161A8FFF726FE61E16C4805F03AFFDD
:100690006B4805F037FF6B4805F034FF6A4805F0FA
:1006A00031FF6A4805F02EFF694805F02BFF6948C5
:1006B00005F028FF684805F025FF684805F022FF8F
:1006C000674805F01FFF674805F01CFF664805F006
:1006D00019FF3CE12BA88C22835C01214B40835401
:1006E00000F06AFB2BAA8C23D35C002B04D0474973
:1006F0005E4805F037FF2AE14649F9E75C4805F016
:1007000001FF459804F0C8FA02000B00594805F0B3
:1007100029FF2BA800F0D8FC04F0BEFA02000B0061
:10072000554805F01FFF30492BA800F0E3FC04F00A
:10073000B3FA02000B00514805F014FF489804F08A
:10074000ABFA02000B004E4805F00CFF47994D48EC
:1007500005F008FF2BA800F0E5FC04F09DFA02006C
:100760000B00494805F0FEFE484805F0CBFE4999CC
:10077000474805F0F7FE4A99464805F0F3FE2BAAD4
:100780008423D35C002B04D04349444805F0EAFE9F
:1007900001E04349F9E72BAA8C23D35C002B00D15D
:1007A00084E04049404805F0DDFED0E0E44A011015
:1007B000EC4A0110144B0110204B01102C4B01107E
:1007C0003C4B0110801A0600181C0020584B0110E9
:1007D000904B0110204C0110444C0110B44B0110FF
:1007E000E44B0110644C011000002041A84C0110A2
:1007F00000002050D04C0110004D01100000F03FCF
:10080000304D0110544D0110644D01109C4A0110EF
:10081000784D0110A04A0110884D0110944D01102F
:10082000B80B0000C04D0110EC4D0110584E0110E6
:10083000A44E0110706D0110D84E0110F04E011041
:10084000044F0110204F0110344F0110504F011080
:10085000784F0110904F0110B04F0110D04F011090
:10086000E84F0110FC4F01101850011040500110CA
:100870005850011080500110A4500110B8500110C0
:10088000E0500110FC5001101451011030510110C2
:100890004C51011064510110A84A011080510110FF
:1008A000AC4A0110B04A01109C510110464979E749
:1008B000464805F027FE4649464805F053FE46499E
:1008C000464805F04FFE4649464805F04BFE46486F
:1008D00005F018FE454805F015FE38E02BA800F09D
:1008E0003FFC434805F00EFE31E0424805F00AFEA9
:1008F00056A801F061FA01003F4B180005F032FEE6
:1009000056AB19693D4805F02DFE56AB1B7D002BFB
:1009100004D03B493B4805F025FE01E03A49F9E7A0
:1009200056ABD969394805F01DFE0AAB5B7E002B3A
:1009300004D03749374805F015FE01E03649F9E79C
:10094000364805F0DFFD02E0354805F0DBFD309F5D
:10095000A31BBD4201D1632B08D94FAB55AA2BA9CC
:100960005FA8FFF717FDBD4204D12600012002F069
:10097000A7FE3CE62BA800F096FB04F08DF906904C
:1009800007912BADA86E04F087F908900991280013
:1009900000F09AFB234D0022234B0492059304F0B0
:1009A0007BF9029003910899099A00910192069AA5
:1009B000079B3900280005F0D5FD2600D6E756A88C
:1009C00001F06AF909F07AF8C04A0110A851011043
:1009D000E44A0110C8510110204B0110D8510110F8
:1009E000144B0110E8510110F85101103052011060
:1009F0006052011080520110A4520110B052011037
:100A0000D04A0110C0520110D84A0110CC52011036
:100A1000A84A0110E0520110AC4A0110F452011032
:100A2000245301105C53011000408F40016002719B
:100A300008234371704770B584B0040004230B434E
:100A40000F226A441370042399430E256D442970C4
:100A50000179006800260096033B08F015FE01208E
:100A6000002102F01BFE21792068009601232A0054
:100A700008F00AFE3220002102F010FE04B070BD22
:100A800030B585B0040043790B430F256D442B70BE
:100A9000017900680023009301332A0008F0F4FD77
:100AA00029782000FFF7C7FF05B030BDF0B585B04D
:100AB00004000F23080098430300134360790343A5
:100AC0000F256D442B7009010A4310430E266E4416
:100AD0003070217920680027009701232A0008F050
:100AE000D3FD29782000FFF7A6FF21792068009721
:100AF0000123320008F0C8FD31782000FFF79BFF8A
:100B000005B0F0BD10B500220121FFF7CFFF022094
:100B100002F0D6FD10BD10B50400322002F0D0FD69
:100B200030212000FFF7ACFF052002F0C9FD302185
:100B30002000FFF7A5FF6420002102F0AFFD302167
:100B40002000FFF79DFF6420002102F0A7FD202177
:100B50002000FFF795FF002228212000FFF7A6FFC5
:100B600000220C212000FFF7A1FF2000FFF7CAFFA1
:100B7000002206212000FFF799FF022002F0A0FDCD
:100B800010BD000000B583B00A4B0193032A00D9C1
:100B900003220F2900D90F2101AB9B5C5B18DBB24C
:100BA000802149421943C9B20022FFF77FFF03B0F9
:100BB00000BDC0460040145470B505000C0004E0B0
:100BC000013401222800FFF771FF21780029F7D1B5
:100BD00070BD0EB430B5A2B0040025AB04CB0193B8
:100BE00002AD8021280005F061FA29002000FFF7FE
:100BF000E3FF22B030BC08BC03B0184708234371A0
:100C0000704770B505001600CB003821194040230D
:100C1000194349B2C9B20022FFF748FF002405E09A
:100C2000315D01222800FFF741FF0134072CF7DD79
:100C300070BD10B50122FFF739FF10BDF0B50023DC
:100C40001360446801338B4023420CD0224C23684C
:100C50000133236044680D0008350123AB40234273
:100C6000F8D1AB001B580025002606E01A4F3B6860
:100C700001333B60194B1C70013544680F00083785
:100C80000123BB40234212D10F2D10D8BB001C58AA
:100C900003231C40114B1B78A342EDD09B00234340
:100CA000DBB20F4FFB56002BE0D0F618E2E70D4BFE
:100CB000996A0D4B1B68CB1A0C48834204D9064B2A
:100CC00000201860084B1960002E01D10020F0BDF3
:100CD00016600120FBE7C04640230020B53200200B
:100CE0007C6E01100040054044230020809698004F
:100CF000F0B5D6464F464646C0B586B00600884693
:100D000091461F0002AD10220021280004F0AEF829
:100D100080235B020293F8235B0203938023DB02B0
:100D20000493C0231B0304934B461A1DDB011203DB
:100D300013430393FB03F82212031340059380230C
:100D40001B0304931A4B04931A4BF418240DE4B2BA
:100D50000634E4B22100380001F0CCFB7B1C9A463B
:100D60002100180001F0C6FB0023009302333A0073
:100D70004146300008F06EFD00220121380001F0EC
:100D8000D3FB00220121504601F0CEFB2B004A4646
:100D90004146300008F0B8FD3368012241468A40E0
:100DA0001343336006B0E0BCBA46B146A846F0BD76
:100DB000000008800000E0AF70B582B004008C2312
:100DC000C35C002B0DD01D49406808F02BFD0200CC
:100DD000E368A168606824690094FFF789FF02B0A6
:100DE00070BDC06801F094FC206901F091FCE368DB
:100DF00001252A009A40D0263606B26223692A00CD
:100E00009A40B262E0680022012101F08DFB206966
:100E10000022012101F088FB2369726829009940B2
:100E20000B0013405A1E9341E16872688D401540D3
:100E30006A1E95415B001D432576D0E78C6E01103C
:100E400070B5040007A80078204D25606160A2609D
:100E5000E360049B2361002363612376059AE261CA
:100E6000069A22628C22A0540022A2666422A35415
:100E700002F01AFD002913D0FA229200002303F099
:100E80005DF88823E050E066002323670022626754
:100E9000A367E3678022A0500432A354002210E02D
:100EA000FA21890003F00CF8EBE7130008339B00EC
:100EB000E31800215960130010339B00E3185960B8
:100EC0000132072AF1DD200070BDC046646E0110BA
:100ED00030B56425435D1C000834A400041961602A
:100EE00019001031890041184A600133072213406C
:100EF000435530BD70B504000022002500200CE0F1
:100F0000130008339B00E3185B68C018130010330C
:100F10009B00E3185B68ED180132072AF0DD002D15
:100F20001AD003F08FFE061C280003F086FE011C79
:100F3000301C03F028FE0A4903F03BFE011CE06967
:100F400003F037FE051C206A03F077FE011C281C05
:100F500003F019FEA06670BD0023A366FBE7C04640
:100F600000007A44037E9B001943C9B2014B5856D6
:100F70007047C0466C6E0110F0B5C64600B582B031
:100F8000040002F091FC00291BD0FA2292000023F9
:100F900002F0D4FF0600636998468C23E35C002BC3
:100FA00037D00025A168606801AAFFF747FE002836
:100FB0000DD0092D0BD86269019B9B186361013527
:100FC000F0E7FA21890002F07BFF0600E3E7092D34
:100FD00005D9A36F0133A36784230122E254626819
:100FE000A168506801238B4003422FD0A36F0133C7
:100FF000A36702E0BB009B580135506808239C465C
:101000008C44073B6746BB4003421FD1042DF1D9F6
:101010001CE02269D0210906486801252B00934075
:101020001A000240501E8241E068496885400D4028
:101030006B1E9D4152001543237EAB4206D0290012
:101040002000FFF78FFF40446061257665694545C4
:1010500008D18823E6502000FFF74CFF02B080BC87
:10106000B846F0BD4346ED1A8823E258B21A29006B
:101070002000FFF72DFFE36EF31AFA22920093424D
:101080000AD3206F03F0D9FDFA21890503F091FD01
:10109000606700232367E666236FEA17AD185540A3
:1010A0005B192367D5E770B50400406903F0CAFDFA
:1010B000E16903F07EFD051C206A03F0BEFD011C02
:1010C000281C03F060FD70BD70B50400C5690021E7
:1010D000281C03F0ADFD002801D1002070BDA06EDA
:1010E000291C03F050FD024903F063FDF6E7C046FA
:1010F0000000704270B505000C1C0021201C03F09C
:1011000097FD002801D1002070BDA86E4000400866
:10111000211C03F038FD024903F04BFDF4E7C04603
:101120000000C84270B5046A002C15D0456F00213C
:10113000281C03F07DFD002801D100200DE00749A7
:10114000281C03F036FD051C200003F076FD011C71
:10115000281C03F018FD00E0002070BD0000704264
:1011600010B5040000238367C3678422835402F010
:101170009BFB002907D0FA229200002302F0DEFE3A
:101180008023E05010BDFA21890002F099FEF7E7B4
:101190000160704770B50500002407E02868E20090
:1011A000044BD218E1B2FFF72CFD0134072CF5DD1A
:1011B00070BDC046C86E011010B5FFF7EBFF10BD43
:1011C000F8B5CE46474680B5040016001D00092933
:1011D00040D88900DC4B5B589F4600682A003100EC
:1011E000FFF7D0FC20680021FFF723FD2068771C63
:1011F000FFB22A003900FFF7C5FC20680121FFF784
:1012000018FD20686B1CDBB298461A003100FFF70E
:10121000B9FC20680621FFF70CFD20684246390022
:10122000FFF7B0FC20680621FFF703FD20680235B8
:10123000EDB22A003100FFF7A5FC20680421FFF77A
:10124000F8FC20682A003900FFF79CFC2068052183
:10125000FFF7EFFCC0BCB946B046F8BD00682A00F5
:101260003100FFF78FFC2068B84B99461900FFF753
:10127000A3FC2068771CFFB22A003900FFF782FC2C
:1012800020680621FFF7D5FC20686B1CDBB298466E
:101290001A003100FFF776FC20684946FFF78CFC06
:1012A000206842463900FFF76DFC20680621FFF7F1
:1012B000C0FC20680235EDB22A003100FFF762FC65
:1012C00020684946FFF778FC20682A003900FFF7BC
:1012D00059FC20680621FFF7ACFCBBE700682A0038
:1012E0003100FFF74FFC20680021FFF7A2FC2068C7
:1012F000771CFFB22A003900FFF744FC2068012167
:10130000FFF797FC20686B1CDBB298461A0031008F
:10131000FFF738FC20680721FFF78BFC2068424666
:101320003900FFF72FFC20680221FFF782FC2068BC
:101330000235EDB22A003100FFF724FC20680621B7
:10134000FFF777FC20682A003900FFF71BFC2068B4
:101350000721FFF76EFC7DE700682A003100FFF7E8
:1013600011FC20680021FFF764FC2068771CFFB2A5
:101370002A003900FFF706FC20680121FFF759FC1D
:1013800020686B1CDBB298461A003100FFF7FAFBAD
:1013900020680721FFF74DFC206842463900FFF71F
:1013A000F1FB20680321FFF744FC20680235EDB211
:1013B0002A003100FFF7E6FB20680721FFF739FC20
:1013C00020682A003900FFF7DDFB20680521FFF7C0
:1013D00030FC3FE700682A003100FFF7D3FB2068AC
:1013E0000621FFF726FC2068771CFFB22A0039008F
:1013F000FFF7C8FB20680621FFF71BFC20686B1C69
:10140000DBB298461A003100FFF7BCFB20680421CC
:10141000FFF70FFC206842463900FFF7B3FB206856
:101420000321FFF706FC20680235EDB22A003100E7
:10143000FFF7A8FB20684549FFF7BEFB20682A009C
:101440003900FFF79FFB20680621FFF7F2FB01E759
:1014500000682A003100FFF795FB20680621FFF79E
:10146000E8FB2068771CFFB22A003900FFF78AFBEF
:1014700020680721FFF7DDFB20686B1CDBB2984674
:101480001A003100FFF77EFB20680221FFF7D1FB35
:10149000206842463900FFF775FB20680721FFF7F7
:1014A000C8FB20680235EDB22A003100FFF76AFB65
:1014B00020680721FFF7BDFB20682A003900FFF7ED
:1014C00061FB20680521FFF7B4FBC3E600682A0032
:1014D0003100FFF757FB20680021FFF7AAFB2068C7
:1014E000771CFFB22A003900FFF74CFB2068072168
:1014F000FFF79FFB20686B1CDBB298461A00310097
:10150000FFF740FB20680221FFF793FB206842466B
:101510003900FFF737FB20680121FFF78AFB2068BD
:101520000235EDB22A003100FFF72CFB20680421C0
:10153000FFF77FFB20682A003900FFF723FB2068B4
:101540000521FFF776FB85E6A06E0110F06701101C
:1015500000682A003100FFF715FB20680021FFF723
:1015600068FB2068771CFFB22A003900FFF70AFBEE
:1015700020680121FFF75DFB20686B1CDBB29846F9
:101580001A003100FFF7FEFA20684F4B9946190008
:10159000FFF712FB206842463900FFF7F3FA206894
:1015A0000621FFF746FB20680235EDB22A00310024
:1015B000FFF7E8FA20684946FFF7FEFA20682A009C
:1015C0003900FFF7DFFA20680621FFF732FB41E61A
:1015D00000682A003100FFF7D5FA20680021FFF7E4
:1015E00028FB2068771CFFB22A003900FFF7CAFAEF
:1015F00020680121FFF71DFB20686B1CDBB29846B9
:101600001A003100FFF7BEFA20680221FFF711FB34
:10161000206842463900FFF7B5FA20680321FFF73A
:1016200008FB20680235EDB22A003100FFF7AAFA64
:1016300020680421FFF7FDFA20682A003900FFF72F
:10164000A1FA20680521FFF7F4FA03E600682A00F2
:101650003100FFF797FA20680021FFF7EAFA2068C7
:10166000771CFFB22A003900FFF78CFA20680121AD
:10167000FFF7DFFA20686B1CDBB298461A003100D6
:10168000FFF780FA20680421FFF7D3FA206842466A
:101690003900FFF777FA20680321FFF7CAFA2068BC
:1016A0000235EDB22A003100FFF76CFA20680721FD
:1016B000FFF7BFFA20682A003900FFF763FA2068B5
:1016C0000521FFF7B6FAC5E5F0670110F8B5CE467B
:1016D000474680B504000E0015000068FFF752FA77
:1016E00020681E4B98461900FFF766FA2068771CA1
:1016F000FFB22A003900FFF745FA20684146FFF79C
:101700005BFA20686B1CDBB299461A003100FFF7C8
:1017100039FA20680721FFF78CFA20684A46390019
:10172000FFF730FA20680721FFF783FA20680235B7
:10173000EDB22A003100FFF725FA20684146FFF795
:101740003BFA20682A003900FFF71CFA206841465E
:10175000FFF732FAC0BCB946B046F8BDF0670110D9
:10176000F8B505000E0014000068FFF70BFA2868B2
:101770000C4F3900FFF720FA2868621CD2B2310002
:10178000FFF700FA28683900FFF716FA28680234D4
:10179000E2B23100FFF7F6F928680621FFF749FAAF
:1017A000F8BDC046F067011070B50500002409E0DF
:1017B0002868E2B20021FFF7E5F928680349FFF73E
:1017C000FBF90134022CF3DD70BDC046A4530110B7
:1017D000F0B5C64600B584B00600884614001F0068
:1017E000FFF7E2FF1D4D404603F056FA00900191CD
:1017F0002A00082102A804F045FC002504E0023478
:10180000E4B20F2C26D80135052D23DC02A9495D51
:101810002029F4D02D290DD02E2913D03039C9B26A
:101820000929EED83B0022003000FFF7C9FC023442
:10183000E4B2E6E73A0021003000FFF747FF023448
:10184000E4B2DEE73A0021003000FFF789FF0134FF
:10185000E4B2D6E704B080BCB846F0BDB85301107E
:10186000054B436101600023037183600023C36063
:10187000012303747047C0460000204110B50400E6
:10188000006803220021FFF77DF920680149FFF776
:1018900093F910BDC053011010B5FFF7EFFF10BD55
:1018A00070B504000E001500006803220421FFF744
:1018B00069F9002D0ED0002E22D02379022B1AD0E8
:1018C0000DD8002B12D0012B08D120681B49FFF73F
:1018D00073F903E020681A49FFF76EF970BD032B16
:1018E000FCD120681749FFF767F9F7E72068164928
:1018F000FFF762F9F2E720681349FFF75DF9EDE7BA
:101900002379022B15D008D8002B0DD0012BE5D15F
:1019100020680E49FFF750F9E0E7032BDED120687D
:101920000B49FFF749F9D9E720680A49FFF744F95D
:10193000D4E720680749FFF73FF9CFE7D8530110F4
:10194000D0530110E0530110D4530110E85301109B
:10195000F0530110E4530110F8B50600081C111CE7
:101960004000400803F00FF9051CFE21890503F033
:101970005FF9002801D0FE25AD051949281C03F0A8
:1019800018F903F081F9C7B2306803220921FFF783
:10199000F9F800240EE030681249FFF70DF908E06D
:1019A00030681149FFF708F903E030680F49FFF785
:1019B00003F90134062C12DCA742F6DD0C49281C81
:1019C00003F028F90028E6D10A49281C03F022F97F
:1019D0000028E5D030680849FFF7EEF8E9E7F8BDE0
:1019E0000000E0408C6B011018660110F0670110D8
:1019F0009A99993E3333333F004F0110F0B5C646F4
:101A000000B582B004000E0001F04EFF002958D04E
:101A1000FA229200002302F091FA0500B76E7800D6
:101A2000400801262A4903F003F9002800D10026C6
:101A3000F3B2984601260021381C03F0F1F8002883
:101A400000D10026F6B2A368EB1AC72B05D922797C
:101A50000132032313402371A560237CB34211D1CB
:101A6000E0684000400801236A46D371184903F03A
:101A7000DFF8002802D100236A46D3716B46DB7978
:101A8000434505D0424631002000FFF709FF267488
:101A9000E168381C03F06DF8400040080D4903F080
:101AA000C7F8002803D1A368ED1AC72D05D80A4A44
:101AB000391C2000FFF750FFE76002B080BCB84639
:101AC000F0BDFA21890002F0FBF90500A6E7C04647
:101AD0000AD7233CCDCCCC3D0000204110B50400FA
:101AE000006803220021FFF74DF820680149FFF745
:101AF00063F810BDA4530110F8B504000E001700E0
:101B00001D00006803220021FFF73CF8002E02D1DF
:101B10003B002B4314D020680C49FFF74DF8002FF1
:101B200002D1002D06D1F8BD206809493A00FFF71F
:101B300050F8F6E7206807492A00FFF74AF8F2E76D
:101B400020680549FFF738F8EDE7C046F853011063
:101B5000FC530110045401100C54011070B5050021
:101B60000C1C006803220D21FFF70CF81249201C01
:101B700003F050F8002810D11049201C03F04AF857
:101B800000280FD10E49201C03F044F800280ED085
:101B900028680C49FFF710F803E028680A49FFF7A6
:101BA0000BF870BD28680949FFF706F8F9E72868BF
:101BB0000749FFF701F8F4E79A99993E9A99193F76
:101BC000CDCC4C3F18540110105401101454011086
:101BD0007C4A011030B5244B1B68002B05D01A68D5
:101BE000824203D09A68824220D030BDD02424069D
:101BF000606801210D0095402A0002401000451E3A
:101C0000A841C0B25D686468A9402140002A07D19C
:101C10001A7B002A04D0002904D01A6901321A6103
:101C20001873E2E71A69013A1A61F9E70F49886AFD
:101C30009969411A0E4CA142D7D9D02109064C68A6
:101C4000012191402142D0D101221A7598611A6A6E
:101C5000821A08498A4204D8DA690132DA611862C4
:101C6000C3E70122DA61FAE72023002000400540A3
:101C70004FC300003F420F000160426083600023B9
:101C80000373036103758361C3610362014B1860D1
:101C90007047C04620230020044B1B68834200D0BD
:101CA0007047024B00221A60FAE7C046202300204A
:101CB00070B50400006800F02BFD606800F028FD9E
:101CC000A06800F025FD236801252A009A40D0264F
:101CD0003606B26263682A009A40B262A3682A009C
:101CE0009A40B26220680022012100F01DFC606869
:101CF0000022012100F018FCA0680022012100F060
:101D000013FC2068736885401D406B1E9D41EDB239
:101D10002573064B01220C2100F096FCA0680122DD
:101D2000042100F069FC012070BDC046D51B0010E5
:101D30000269024B1868101A1A6070474823002085
:101D40000C4B9B6AC269022A04D9026A9A1A0A4990
:101D50008A4208D9026A9B1A084A934207D900238B
:101D6000C361002070470023C3610120FAE700200F
:101D7000F8E7C046004005403F420F0040420F00D8
:101D80008368D0221206516801229A40084B9B6A50
:101D90000A4201D000220275026A9B1A054A934248
:101DA00004D9C369002B01D00023C3617047C0462A
:101DB0000040054040420F0010B582B00369027D2B
:101DC000002A0CD00749C069074A084C01900091CD
:101DD0006421200004F056F9200002B010BD04492F
:101DE000F1E7C0461C540110245401104C2300207C
:101DF00020540110002904D1002804DC05DB002058
:101E000070470320FCE70220FAE70120F8E7000012
:101E100010B596239B004362FE239B05836200233B
:101E20002C22835438320263342132244454013149
:101E30001E3444548263633A07314254013143549F
:101E40000B490164442143544533C254063383642F
:101E5000413BC364074B036503005433243016C869
:101E600016C316C816C316C816C316C816C310BDA7
:101E7000102700000000C84210B504000160426055
:101E80008360029BC3600023036143610376437652
:101E9000034AC2610362FFF7BBFF200010BDC046CA
:101EA00060EA000010B50400002343760361006877
:101EB000FEF728FE206800220021FEF763FE20685E
:101EC0000349FEF779FEFA20400001F0F9FB10BD4E
:101ED00040540110082913D889000B4B5B589F46CA
:101EE0000A4870470A48FCE70A48FAE70A48F8E750
:101EF0000A48F6E70A48F4E70A48F2E70A48F0E732
:101F00000A48EEE70A48ECE7086F01104C5401104C
:101F10006C54011078540110845401109054011035
:101F20009C540110AC540110B8540110C454011059
:101F30005C54011030B589B004000068FEF7E2FD82
:101F4000206800220021FEF71DFE20681949FEF7D7
:101F500033FE206801220021FEF714FE2068164996
:101F6000FEF72AFE256861692000FFF7B3FF010034
:101F70002800FEF721FE206802220021FEF702FE63
:101F800020680E49FEF718FE206803220021FEF7A4
:101F9000F9FD636901330A4A03AD092100910B3150
:101FA000280004F06FF820682900FEF705FE09B04C
:101FB00030BDC046CC540110D4680110E05401106B
:101FC000F454011010B50400437E002B00D010BD66
:101FD00001334376036100234361144B9B6A036220
:101FE0000068FEF78FFD206800220021FEF7CAFD81
:101FF00020680F49FEF7E0FD206801220021FEF76E
:10200000C1FD20680B49FEF7D7FD20680A49FEF79D
:10201000D3FD20680949FEF7CFFDFA20800001F0CA
:102020004FFB2000FFF786FFD1E7C0460040054088
:10203000CC540110FC540110E44A01100055011069
:1020400010B501230361024BC361FFF773FF10BD9D
:1020500060EA000010B5040004292FD00068FEF7E4
:1020600051FD206800220021FEF78CFD20681549F3
:10207000FEF7A2FD206801220021FEF783FD206803
:102080001149FEF799FD20681049FEF795FD20687B
:1020900002220021FEF776FD20680D49FEF78CFD37
:1020A00020680C49FEF788FD206803220021FEF716
:1020B00069FD20680849FEF77FFD10BDFFF7C0FFEE
:1020C000FBE7C0460C55011018550110E44A0110F9
:1020D00020550110204B01102855011010B50400A7
:1020E0000068FEF70FFD206800220021FEF74AFD80
:1020F00020680B49FEF760FD206801220021FEF7F1
:1021000041FD20680749FEF757FD206803220021A2
:10211000FEF738FD20680449FEF74EFD10BDC046AD
:1021200038550110405501102855011010B50023F5
:102130000376104BC3614369062B07D89B000E4AF8
:10214000D3589F4602230361FFF7C8FF10BD032346
:102150000361F9E704230361F6E705230361F3E76D
:1021600006230361F0E707230361EDE7082303611A
:10217000EAE7C046C0D401002C6F0110F0B5D64686
:102180004F464646C0B50400894692461F00089B4C
:102190009846166803E063681B7D002B55D12068C4
:1021A000FEF7B0FC206800220021FEF7EBFC20685F
:1021B0002D49FEF701FD20684946FEF7FDFC206829
:1021C00001220021FEF7DEFC20682849FEF7F4FC1E
:1021D0002068274D32002900FEF7FBFC2068022210
:1021E0000021FEF7CFFC20682249FEF7E5FC2068BD
:1021F0003A002900FEF7EDFC20681F49FEF7DCFCE1
:10220000206842462900FEF7E4FC206803220021F2
:10221000FEF7B8FC20681949FEF7CEFC642001F0F7
:102220004FFA6068FFF784FD051EB4D04346D81B03
:10223000642101F01DFE013068433618B74200DD0D
:102240003E004645A7DD4646A5E753461E6096205C
:10225000400001F035FA2000FFF740FFE0BCBA462D
:10226000B146A846F0BDC046545501105C5501105A
:102270006455011068550110705501107455011016
:1022800010B5042902D0FFF729FF10BDFFF7D8FED3
:10229000FBE710B5042902D0FFF720FF10BDFFF7C0
:1022A000CFFEFBE710B5042902D0FFF717FF10BDE2
:1022B000FFF7C6FEFBE710B5042902D0FFF70EFFBB
:1022C00010BDFFF7BDFEFBE710B5042902D0FFF7F4
:1022D00005FF10BDFFF7B4FEFBE7000010B50400DA
:1022E0000068FEF70FFC20680549FEF765FCFA2040
:1022F000800001F0E5F92000FFF7F0FE10BDC046B8
:102300008855011010B504000068FEF7FBFB20683B
:102310000549FEF751FCFA20800001F0D1F92000B8
:10232000FFF7DCFE10BDC0469C55011010B582B011
:102330000400032919D009DC01290CD002290FD18E
:10234000037E022B0CD80133037609E0042907D160
:10235000FFF776FE07E0037E002B01D0013B0376FA
:102360002000FFF7BBFE02B010BD037E022B24D07D
:102370000ED8002B18D0012BF2D1134B02002832BB
:1023800012490193124800902000FFF7A7FFE7E7EA
:10239000032BE5D1020030320E49FA239B00009353
:1023A0000A23FFF7EBFEDBE7020024320A490B4B5E
:1023B00000936423FFF7E2FED2E702002C320849C3
:1023C000FFF7A0FFCCE7C046CDCCCC3DBC550110FB
:1023D00000002041E0550110B05501101027000009
:1023E000CC55011010B50369082B35D89B00244A41
:1023F000D3589F4603291FD00BDC01290ED0022998
:102400002AD14369082B14D001334361FFF792FDB1
:1024100022E0042920D1FFF745FD1DE04369002B90
:1024200004D108334361FFF785FD15E0013B4361AB
:10243000F9E700234361E9E74369082B04D0072B40
:1024400005D0FFF773FE07E0FFF72CFD04E0FFF770
:1024500029FD01E0FFF76AFF10BDFFF711FFFBE761
:10246000FFF7F8FDF8E7FFF714FFF5E7FFF71AFFAE
:10247000F2E7FFF720FFEFE7FFF726FFECE7C046A4
:10248000486F011070B50400437E002B18D0114B2B
:102490009D6A026AAA1AC1694B015B1A9B005B180C
:1024A000DB009A420DD84068FFF742FC6368197D53
:1024B000C9B2FFF79FFC011E06D16068FFF760FC00
:1024C00070BDFFF7EFFCFBE725622000FFF78AFFF6
:1024D000F3E7C046004005400020704710B50400F7
:1024E000FFF7FAFF002801D0012010BD2000FFF700
:1024F0008FFCF9E710B58300084A9A181468402247
:10250000544080322240064CA44663441A60C00006
:10251000044B9C466044416010BDC04604C001406D
:1025200004D001400040014080000C4B9C466044B8
:1025300000290ED00823002A0DD00422134302687C
:1025400053400C22134080225201944660440360A1
:1025500070470023EFE70022F0E7C04604C00140C7
:1025600070B50400D0231B061D680D4BAA00D3587C
:10257000002B0AD0002803D0094BAD00EC5070BDF1
:1025800008490D2000F0A4FBF6E70028F7D0044B23
:10259000AD00E850034900220D2000F08DFAEEE76F
:1025A000CC2B002071260010072303409B00C0089D
:1025B00099403C308000014BC150704700400140C1
:1025C000F8B507000D0016001C00FFF7EDFFFB0833
:1025D0009B00E4180720384080008540002E05D07D
:1025E00080239B019C4664442560F8BDC0239B0169
:1025F0009C4664442560F8E770B506000D00141E83
:102600000BD1D0231B061B68002B11D0094B2200D5
:1026100029003000FFF7D4FF70BD0D2000F004FA50
:102620000028EED1044B054A0548BD2103F0B8FD52
:10263000044BECE7304101406C5601106C6F011007
:10264000245601100041014070B505000E00140031
:102650001800FFF785FF220031002800FFF7CCFFAC
:10266000002C00D170BD01210D2000F0C3F9F9E765
:10267000F0B5D6464F464646C0B5D0231B061F6868
:102680001F4BBA00D3589846002F03D01D4B9946D4
:10269000002626E01C4B9946FAE7EB40DB0714D5F1
:1026A00024090135002C1BD033000833AB4217D965
:1026B0000F231A00224092462342F1D0134BBA0056
:1026C000D358202DE9D40023E8E751462800FFF72E
:1026D0006BFF4346002BE3D051462800C047DFE79D
:1026E00008361D2E06D8F30808339B004A469C582E
:1026F0003500D7E7E0BCBA46B146A846F0BDC046B3
:10270000CC2B0020304101400041014084300020AA
:1027100010B501238340D0221206936293610521F4
:10272000FFF7E8FE10BD000010B58023DB05186838
:1027300003051B0D0B4A934207D10B4B034080222C
:102740009201934207D1000F10BD084B084A094877
:10275000222103F025FD084B054A0648232103F0FA
:102760001FFDC0462709000000F0FF0F985601101A
:10277000846F0110BC560110045701100FB400B54E
:1027800083B0084803F0BEFE049B002B07D005A9C8
:102790000191180003F0C6FE034803F0B3FE0120C8
:1027A00003F0A4FC18570110104B0110EFF3108038
:1027B00072B6034B1B68002BFBD0BFF35F8F7047D3
:1027C0002C0100D0BFF35F8F024B00221A6080F310
:1027D000108870472C0100D0F8B506000C001500D9
:1027E000FFF7E4FFE308F718F15C0722224001231A
:1027F00093400B4205D1DBB20B433B70FFF7E2FF86
:10280000F8BD21002800FFF7B9FFF0B583B006003E
:10281000019114001F00FFF7C9FF00E00134BC4222
:102820000CD8E308F518F35C0721214001228A4007
:102830001A42F3D1D2B21A432A7001E00124644251
:10284000FFF7C0FF002C02DB200003B0F0BD019BAE
:10285000002BF9D00898FFF791FF0000054A107887
:10286000431CDBB21370172B02D9130010221A700D
:102870007047C046541B002010B582B00100054CC3
:10288000054B00931F2318222000FFF7BEFF02B064
:1028900010BDC046DC2B002028570110002307E0A4
:1028A000054A9A189200BFF35F8F0021116001332F
:1028B0001F2BF5D97047C04640000034074B9B687A
:1028C000103080001950BFF35F8FBFF35F8F044B50
:1028D0000021196082F310887047C04600ED00E0C7
:1028E000240100D00048704700E400E010B5FFF775
:1028F000F9FF002302E0034A04C00133072BFAD991
:1029000010BDC0468080808010B50388DA0A1C2A7A
:1029100005D15B055B1502335B00C01810BD034B8E
:10292000034A16210348FF3103F03AFC44570110D3
:10293000E46F01105C57011010B5091A0B1F0A4A09
:1029400088180A4A904208D8C90706D45B105B056C
:102950005B0D0748184380B210BD064B064A08219C
:102960000648FF3103F01CFCFC070000FE0F0000CE
:1029700000E0FFFFA0570110D86F01105C57011055
:1029800010B5091A04394A08090B08D14905490D3F
:10299000064B0B430380064B1343438010BD054B8E
:1029A000054A10210548FF3103F0FAFB00F0FFFF54
:1029B00000F8FFFFD0570110B46F01105C570110F1
:1029C00001238340034A10681840431E9841C0B257
:1029D0007047C04600E100E0002A05D0044BC02249
:1029E0005200995019607047014A8023D150FAE78C
:1029F00000E100E010B50A001F23034001219940C7
:102A00004009FFF7E9FF10BD01238340014A13602D
:102A10007047C04600E200E0024B9B681030800027
:102A2000C058704700ED00E010B5FFF7F5FF002833
:102A300006D0044B984201D0012010BD0020FCE7D5
:102A40000020FAE7CD01001010B5FFF7E5FF044BB9
:102A5000C31A00202F229A424041C0B210BDC04686
:102A6000581B002070B504000D00EFF3108672B6FD
:102A70000C4B1B68002BFBD0BFF35F8F2000FFF7D0
:102A8000CBFF094B984201D0A84205D13200290062
:102A90002000FFF713FF70BD044B054A0548E721EE
:102AA00003F07EFB240100D0CD010010E05701109F
:102AB0000C7001105C570110F0B5DE4657464E46CB
:102AC0004546E0B589B0814601911500EFF3108BC2
:102AD00072B66F4B1B68002BFBD0BFF35F8F6D4B43
:102AE00000269E57002E40DB7400A419A4006A48FB
:102AF00024180622A256674B1A70684B9A684B46F8
:102B000010339B00D35898461B1A2F2B3BD9644B8C
:102B1000984531D105AF634B3B80634973009A46BA
:102B2000981980005C4B984640440230FFF704FF40
:102B300078805E4BBB80FF23BB71FD71019B0793C7
:102B4000330053449B00434407CF07C301231C4376
:102B5000A0465A4641464846FFF7B0FE09B0F0BCD1
:102B6000BB46B246A946A046F0BD514B514A74211E
:102B70005148FF3103F014FB504B4E4ABD214E48E3
:102B8000490003F00DFB012342469A439246101A76
:102B90000C2101F095F900290FD153460027DA796D
:102BA000AA4212D90621595600290DDB4A005218B3
:102BB000920039491F008B18F1E7414B3D4A8C21A7
:102BC0003D48FF3103F0ECFA1F00002F2ED005AB7B
:102BD0003C4A1A80813A5A800623FB560293002B06
:102BE00017DA394805AB9A469880029A9A71DD71D6
:102BF000019A0792381D2100FFF79EFEB880BE7132
:102C0000254B7200921992009B18524613CA13C3A7
:102C10009FE7381DFFF778FE0100700080198000E3
:102C20001D4BC0180430FFF787FEDBE705AF1D4BD7
:102C30003B801D49730002939B199B00164A9046E6
:102C40001A0042440392901CFFF776FE7880039AA4
:102C5000101D5146FFF770FEB8801C4B524641468E
:102C6000521A524153431B0DBB71FD71019A0792D9
:102C7000029B9B199B00434407CF07C3114B52464D
:102C80001380813B538001231C43A04661E7C0466B
:102C9000240100D0BB320020581B002000ED00E0D2
:102CA000CD01001000A1FFFF881B002001BDFFFF28
:102CB00018580110F46F01105C57011040580110B2
:102CC000685801100148000001BD0000AAAA0000D8
:102CD000F0B5CE46474680B583B006000D00EFF351
:102CE000108872B64F4B1B68002BFBD0BFF35F8F71
:102CF0004D4B9A6834001034A300D7584B4B9F4279
:102D000007D0AF4200D18AE00197494BFB1A2F2B25
:102D100009D9424639003000FFF7D0FD03B0C0BCEE
:102D2000B946B046F0BD3000FFF74AFE81460021AB
:102D30003000FFF75FFEBFF35F8FEFF305810029DF
:102D400001D08C4211D10123019C9C430020A36837
:102D50009D4212D00622A256002A0DDB53009B187A
:102D60009B00334A2000D418F1E7324B324AFA2153
:102D70003248FF3103F014FA20009D4249D1062564
:102D80006557002D2BDB2A4B6A00521992009B18C5
:102D90009A68A260DA79E2719B795BB2A371002B29
:102DA0000FDA2748A080224B6A00521992009B1824
:102DB000244A11789971157049463000FFF71AFEC0
:102DC000A7E7680040198000194BC0180430FFF7CE
:102DD0009BFD0100231D1800FFF7AEFDE2E700296F
:102DE00012D100280ED0FF238371174B8380154921
:102DF0000B78A3710E4A154BA41A644163431B0D53
:102E00000B70D9E7094FF2E71149201DFFF7B8FD14
:102E1000D2E7104B084A09480F4903F0C1F9034FA4
:102E200077E7C046240100D000ED00E0CD0100109E
:102E3000581B0020EC580110C46F01105C570110A2
:102E400001BD0000BB32002001BDFFFFAAAA0000A7
:102E5000921B0020205901103B020000F8B501220E
:102E600002432D4BD31A2F2B28D8EFF30583002BC9
:102E70002BD0EFF3108472B6284909680029FBD0E3
:102E8000BFF35F8F244D26490600761B76417143C0
:102E9000090D4DB2234989689B00C95891421AD047
:102EA0000021032931D81C4B4A00521892009B186C
:102EB0009B795BB2AB421ED00131F2E71A4B1B4A41
:102EC0009D211B48890003F06BF91A4B174A1848DB
:102ED000194903F065F9134A92681849D150184B03
:102EE0001A7882711D70BFF35F8F0C4B00221A603D
:102EF00084F31088F8BD084B4A005618B6009E1996
:102F0000FF27B7710F4AB280E9E70F4B074AA221AA
:102F10000748890003F044F9581B0020240100D021
:102F2000AAAA000000ED00E028590110986F0110D6
:102F30005C5701105059011077020000CD010010BC
:102F4000BB32002001BDFFFF5C59011010B582B0FB
:102F50000100074C074B0093052300222000FFF7D8
:102F600054FC002801DB1F23181A02B010BDC04614
:102F7000BF32002064590110024B9C466144890015
:102F8000016070474000003410B50400FFF766FC94
:102F900001002000FFF7F0FFFF232371BFF35F8FD5
:102FA00010BD10B50400FFF759FC01002000FFF729
:102FB000E3FFFF23237100236371BFF35F8F10BD15
:102FC00010B50D4C09E00D4B0D4A0E481A2103F0C7
:102FD000E7F82000FFF7D8FF08340B4B9C4209D2DA
:102FE0002368002BF5D0012BEDD12000FFF7D9FF8E
:102FF0000834F2E710BDC04690210020805901102E
:103000004C700110A059011098210020034B9C46E0
:10301000614489000160BFF35F8F70474000003456
:1030200010B504000120FFF727FC01002000FFF786
:10303000EDFF10BD30B5846A151B0B1D9B001B589E
:103040001B1B9D4204D3046A01238B40234202D1FF
:10305000043189000A5030BD000408437047000065
:103060000A4B1968EFF3108372B60A68002AFCD085
:10307000BFF35F8F054A1268BFF35F8F00211160B5
:1030800083F3108840BF0020002170479832002051
:10309000F0B5DE4657464E464546E0B587B0EFF3FD
:1030A000058303221A409246AE4B9200D7583B78D4
:1030B000534507D10123524693409946AA4B4A46AD
:1030C0001A6025E1A94BAA4AAA48922103F068F8A0
:1030D0007A6973009B19DB009046984443469C68CC
:1030E000DD68A54800F0AEFB001BA941002900DA0D
:1030F00016E1002D74DB43461B699B469F4B9B45A5
:103100004FD00823F85E4346598889B2FFF7A4FFE1
:1031100043465969D847029003910299039A0B00DC
:10312000100013435CD013000A00002847DAA41AE9
:103130009D41009401954346009C019D9C60DD608B
:103140000021595E002900DAEAE078694B005B183B
:10315000DB00C3189A68DB68A41A9D41002D00DAD1
:10316000DEE039813D000835844604912A00059748
:10317000B346009E019F049B002B2ADB0023D45EF4
:1031800063001B19DB0063449C68DD683000390074
:10319000001BA94100291CDB1A000021595E049183
:1031A000E9E743465B699B461B69584698470028F8
:1031B00016D05B461A685B6802920393ADE76E48CF
:1031C00000F040FB029B039C1B184C4100930194B0
:1031D000B1E70499059F5E464346198016809FE03B
:1031E000434600229B5E3B813A69EFF3108372B63F
:1031F00011680029FCD0BFF35F8F02217A5E41463F
:103200000A807E803A69BFF35F8F0021116083F3EB
:10321000108885E03969EFF3108372B60A68002AD6
:10322000FCD0BFF35F8FB88800B201225242BA804F
:103230003A69BFF35F8F0021116083F310880500A6
:10324000BC461CE0049300229A5E002A0EDB049B1D
:103250000021595E4B005B18DB0063449868D96815
:1032600034003D00241A8D41002DEBDA04995D46AF
:10327000009B9C4644460D800023E55E2280002D85
:1032800012DB634658696C006419E4000419A668EF
:10329000E7686146083108229A5EAB4604916346AE
:1032A0000093A0468446D0E767463EE00023BB710A
:1032B000390008310823F85E0EE001246442E51766
:1032C0009460D56008243B5F834204D00E800824BC
:1032D0003B5F138038813000431C29D07C69430058
:1032E0001B18DB00E218E65E53881BB2002BE4DB00
:1032F0001100F0E722002B0051461F48FFF79AFE0D
:103300001D4800F09FFA241A8D41002D22DC1FD0A9
:10331000194B4A465A630823FE5E002E00DBD7E6AF
:10332000BB881BB2002B00DB74E7BB79002BBDD13F
:103330000823FA5E002A0DDB796953009B18DB0035
:10334000CB189C68DD68631CD4D16B1CD8D0D1E746
:10335000002CDDD040BF07B0F0BCBB46B246A9464A
:10336000A046F0BD743000203C700540345A011076
:1033700078700110605A0110004005409130001033
:1033800070B504000D0011000126AE400662280051
:10339000FFF768FB01212800FFF72CFB024B9C463E
:1033A0006444266070BDC04638200000F8B5CE46A3
:1033B000474680B50600894690461F00C160FFF76A
:1033C0004DFA154B9C466044800030614346337093
:1033D000BBB27381D022120612787270012252425F
:1033E0003281B2809B187380002406E0621E7369EC
:1033F00065002D19ED005A530134BC42F6D3074B3A
:1034000042469200D650064A41464846FFF7B8FF6A
:10341000C0BCB946B046F8BD40000034743000204E
:103420009130001010B5064B1B69002B01D00448E9
:1034300010BD044B044A0548652102F0B1FEC046A8
:10344000A01B0020A05A011060700110605A0110EA
:10345000F8B504000569EFF3108072B629680029F9
:10346000FCD0BFF35F8F0221665E65697100891928
:10347000C9006D18002E02DB0027E95F6180216919
:10348000BFF35F8F00270F6080F31088002E2CDBC6
:103490000699296107996961AA60EB606B8801331D
:1034A0005B04590C002B00D1012169803000FFF72B
:1034B000D3FD2169EFF3108372B60A68002AFCD0AD
:1034C000BFF35F8FA2882A80A6802269BFF35F8F37
:1034D0000021116083F31088E368217801228A407B
:1034E00003498C4663441A60F8BD01204042FBE763
:1034F0003C20000070B582B0060014001D0008AB2F
:103500001B78002B07D100F0CFF922002B00121AF4
:103510008B41002B0ADB079B0193069B0093220043
:103520002B003000FFF794FF02B070BD0020FBE7D6
:10353000F0B5C64600B584B00500884616001F00E9
:103540000AAB1C78FFF76EFF0294019700962A00E1
:103550004346FFF7CFFF04B080BCB846F0BD000083
:1035600030B504000A1443899A422EDA40695300A8
:103570009B18DB00C3182569EFF3108272B6286828
:103580000028FCD0BFF35F8F588885B20904090C6E
:10359000884212D000202369BFF35F8F0021196099
:1035A00082F31088002811D0E368217801228A4034
:1035B00007498C4663441A6008E00649294389B2EA
:1035C00059800123A3710120E5E7002030BDC046EA
:1035D0003C2000000080FFFF10B50400FFF722FF31
:1035E0002100FFF7BDFF10BD40787047F0B583B0F4
:1035F00006000F00EFF30583002B1AD10624644266
:10360000E517A4197D418D4202D803D1844201D926
:103610000024002500F048F922002B00121A8B41EB
:10362000002B0BDC08D03000390000F04FF903B05C
:10363000F0BD1648FFF7A2F8002AF4D0144A002380
:10364000009320002900FFF773FF002813DAEAE750
:10365000104B1968EFF3108372B60A68002AFCD089
:10366000BFF35F8F0B4A1268BFF35F8F00211160B9
:1036700083F3108820BF084B5B6A9D42E8D8064957
:10368000896AA142CFD29D42CDD1E1E7C45A01104F
:1036900061300010983200200040054070B50400F1
:1036A0000D0000F001F900196941002902DBFFF764
:1036B0009DFF70BD012040420049F8E7FFFFFF7FFA
:1036C00010B5FA2292000023002101F035FAFFF72D
:1036D000E5FF10BDF0B5CE46474680B583B0050086
:1036E0000C00EFF30583002B15D03F4B5B6A8B4238
:1036F00009D33D4A926A82420BD28B4201D001200B
:1037000002E0002000E0002003B0C0BCB946B04693
:10371000F0BD0120F8E7FFF785FEC36899460378FE
:1037200098462E002700484600F08CF802000B0057
:10373000B61A9F41434604339B004A469B581B1AC6
:103740000022BA420FDC0CD020BF274B5B6A9C42A0
:103750002DD8254A926AAA422BD29C4225D001201C
:10376000D2E7B342F0D9214A002300932800210078
:10377000FFF7DEFE00281EDD1B4B5B6A9C4205D86E
:10378000194A926AAA4202D29C4200D120BFFFF796
:1037900023FF154B5B6A9C4221D8134A926AAA42C6
:1037A0001FD29C4219D00120AEE70020ACE70020D8
:1037B000AAE70120A8E70C4B5B6A9C4209D80A4A99
:1037C000926AAA4207D29C4201D001209CE70020C5
:1037D0009AE7002098E7012096E7002094E7002070
:1037E00092E7012090E7C04600400540613000109C
:1037F000004870470040054010B50B4B1B69002B7B
:1038000004D00A480A21FFF7B7FB10BDFFF7F0FF0D
:103810000400032100F00CF80348102303222100C8
:10382000FFF7C4FDEDE7C046A01B00209832002042
:1038300010B5024A0248FEF7CFFF10BD145B01101D
:10384000E02B00200200436A906A1900536A9942F3
:10385000FAD17047416A00E0416A9942FCD300E026
:10386000416A994202D1816A9142F9D37047F0B519
:10387000C64600B5804614001D00FFF7E3FF0600B2
:103880000F0022002B0092197B41994202D804D1EB
:10389000904202D901225242D3174046FFF7DAFF85
:1038A00080BCB846F0BD000010B50248FFF7CAFF63
:1038B00010BDC0460040054010B502000B00024894
:1038C000FFF7D5FF10BDC0460040054010B502000F
:1038D0000B000248FFF7BEFF10BDC0460040054088
:1038E000F8B5D646474680B506000D001700984645
:1038F00044002418A400294B9C4664446368089A39
:10390000934200D26260331FDBB29A46012B2ED95C
:1039100080221201C0239B01E3181A60204BB200E1
:10392000D158002907D0586900F0CAFA0130430085
:103930001B18033BFDD27F0123685F40E0233B401F
:1039400080225201A21813605346012B1AD98023FA
:103950009B01E318802212011A60089B6360104BE0
:10396000B6004246F250C0BCBA46B046F8BD012D82
:10397000CED10322C0239B01E3181A60A368DB07A2
:10398000FCD5D8E72168694003230B401360A36886
:103990000122AA401A42FAD0D9E7C046008000406E
:1039A000E42B0020F0B583B005000E0017001800CE
:1039B000089900F085FA0300089A140200943A006E
:1039C00031002800FFF78CFF03B0F0BD10B582B0C6
:1039D000802464000094FFF783FF02B010BD000054
:1039E000014B8000C0587047E42B0020F0B5C6465C
:1039F00000B504000E0017001D00374800F060FA03
:103A00008046364BFA18364B9A4239D801003800B6
:103A100000F056FA0200103A98235B009A4235D81B
:103A20006B1E062B38D8069B013B062B34D83F096A
:103A3000474537D32D04069B1B031D432368002BEA
:103A400036DB284B9C4244D00C2201239340264A6B
:103A50001360264A1360264A1268190091430A1E11
:103A6000F9D12660A060234BE31821321A60226846
:103A7000002AFCDAE56008221A6080BCB846F0BD76
:103A80001D4B1E4A1E48112102F08AFB1D4B1B4A8A
:103A90001B48192102F084FB1B4B184A18481C21B3
:103AA00002F07EFB194B154A1548232102F078FBE2
:103AB00022683F231340B342C3D1A3681B051B0DEB
:103AC0008342BED1E368EE22D2021340AB42B8D1AA
:103AD000D3E70D22B9E7C046001BB70080E84BD3FF
:103AE00080F8A93200C0024000E0004000F0004031
:103AF00008C0004004300000385B011098700110CD
:103B0000885B0110CC5B0110E85B0110345C011094
:103B1000024B1A68024B5A607047C0464C30002076
:103B20000080054010B5184B8022D2051A60174B53
:103B3000174A1A6000290AD0164BE022D2041A60F4
:103B4000002809D1134B802212061A6010BD0E4BBB
:103B5000E022D2041A60F3E743011B1A9B001A18F3
:103B6000D2000D490A6018180001086080235B0428
:103B7000984201D3094A0A60FFF7CAFF054B802229
:103B8000D2051A60E2E7C04600B0054008200140B7
:103B9000FCFF010000A005404C300020FFFFFF00AB
:103BA00010B5030010000C4A8024E4051460002BBB
:103BB0000DD001221343094A094CD461094C5C40E1
:103BC0001462516293620021FFF7ACFF10BD034BFA
:103BD0000022DA61F7E7C04600B0054000800540EA
:103BE000D3C007B02D3FF84F80239B000B43014A01
:103BF000D36270470080054010B5010018231B8870
:103C000014221088984710BD10B5010018231B8896
:103C100016221088984710BDF0B5C64600B50700BB
:103C20000E0000250123984600E00135B5420AD276
:103C3000AC003C192068FFF7DFFF20600028F4D1BA
:103C400000239846F1E7404680BCB846F0BD00002E
:103C500070B504000D000648FFF7CEFF0300002CEE
:103C600003DB0120A040290098470020FBE7C04665
:103C700055420000074BAA2212011A608D22520001
:103C8000DA60054B054A1A60024B5B68002BFBDAD1
:103C90007047C046004002400060024000B0FA0099
:103CA00010B5040001E008CC9847024B9C42FAD3BF
:103CB00010BDC0461C4A01107047000010B50248F4
:103CC000FFF7EEFF10BDC046E0490110054B064A64
:103CD0001A60064B064A1A60064B1A68044B934357
:103CE000FAD1704700E00040BFCDFBFE00F000407D
:103CF000FE7F3C0008C00040044BDB6C002B03D16E
:103D0000034B8022D2021A607047C0460000115057
:103D10004C201150044B054A1A60054B1B68DB43CD
:103D2000DB01FAD17047C04600F00040FFFFFF0101
:103D300008C00040034B40229A675A671A67DA6648
:103D40007047C04600F0014010B5FEF7A7FD10BD5A
:103D500070B5044DA968044CC022200001F08CF815
:103D6000AC6070BD00ED00E00000002070B50420E4
:103D7000FFF736FE064900F0A3F805000024002CEA
:103D800000DD70BDE0B22900FFF72EFF0134F6E739
:103D900040420F0030B583B0274B00229A67FFF7EF
:103DA00069FF264B01221A60234B5B6C012BFBD170
:103DB000234B03221A60204B9B6B012BFBD1013359
:103DC000009304331F4A01211F48FFF70FFE05230C
:103DD00000931E4A01211E48FFF708FE1D4B0022DA
:103DE00002210420FFF7F2FD1B4D2B0000220121D0
:103DF0000520FFF7EBFD194C2300002200210720CE
:103E0000FFF7E4FD2300002200210820FFF7DEFD7C
:103E10008023DB0000932300002200210920FFF70C
:103E2000C1FD2B00002200210620FFF7CFFDFFF788
:103E30009DFF03B030BDC046008000403CB0004054
:103E400030B00040002F685900800240008C864747
:103E500000C00240001BB70040597307006CDC0231
:103E600001480421014B1847C01B0020193C0010D9
:103E7000124A936F9B0815D29066D166002905D02F
:103E8000FFE7FFE7FFE7516F106F704704B5802130
:103E90000906C2175140002800D0C84310F020FD89
:103EA000002104BDF0B5146E556E576F166FFFF705
:103EB000E3FF1466556657671667F0BD000000D033
:103EC000114A936F9B0813D210665166002905D0E2
:103ED000FFE7FFE7FFE7516F106F704704B5002859
:103EE00001D00020C04310F0FBFC002104BDC046FF
:103EF000F0B5146E556E576F166FFFF7E5FF146639
:103F0000556657671667F0BD000000D094464A4AD0
:103F1000926F9208624601D228E0C046F0B5464E44
:103F2000346E756E776F366F00F020F89446424A13
:103F300014665566576716676246F0BD94463E4A5A
:103F4000926F9208624601D254E0C046F0B53A4EF4
:103F5000346E756E776F366F00F04CF89446364AC3
:103F600014665566576716676246F0BD002B24DB62
:103F700011D000293EDA00B5C943404200D10131D9
:103F800000F038F8C943404200D10131DB435242CE
:103F900000D1013300BD002AEBD1002801D1002956
:103FA00005D00020C90FC90701D1C043410800B5A1
:103FB00010F066FC0022002300BD00B500290ADBDA
:103FC000DB43524200D1013300F014F8C9434042B0
:103FD00000D1013100BDC943404200D10131DB4372
:103FE000524200D1013300F005F8DB43524200D1C8
:103FF000013300BD002923D1002B18D1002A0CD099
:10400000BC460D4F38667A6600210023FFE7FFE7C4
:10401000FFE77A6F386F67467047002801D007487E
:10402000010000B510F02CFC0022002300BD0200AE
:104030000B00002000217047000000D0FFFFFFFFB1
:10404000002B00D0BFE0130C28D1002AE7D080B4A9
:10405000114F39667A66FFE7FFE730B4040C7B6FD7
:10406000396F1B0423433B667A66FFE7FFE7FFE7F0
:10407000C04684B27B6F3D6F1B0423433B667A6668
:10408000FFE7FFE7C04600232C042D0C7A6F386F42
:1040900000196941B0BC7047000000D0F0B59446EB
:1040A0000025140E01D112020835140F01D112019E
:1040B0000435940F01D192000235D40F01D1520082
:1040C0000135D40B0134254F7C66254C3C660E0C23
:1040D00093B2FFE7FFE7FFE73C6F6643360C7703D9
:1040E000BE467343DF0B5B04C01AB941130C734324
:1040F000DB18C91ACE086643360CB64493B2734334
:104100001F0F1B01C01AB941130C73431F0B1B0572
:10411000C01AB941860D8F023E436643360C092D05
:1041200024DB520A7243801A7703460A6643360C30
:1041300016235B1BDE40DF40BF1964466643821BCB
:104140007046043506330100D940A840C01900D399
:104150000131A24206D20023F0BD0000000000D0D1
:10416000FFFFFFFF121B0130F3D3F1E709277F1B8D
:10417000FE406446A2B27243801A00D20139220C7A
:104180007243130C1204821A99410B0070460435D5
:1041900013370100F940A840801900D30131002BEA
:1041A00002D1A2420AD2F0BD013000D30131121B6C
:1041B000FAD2013BF8D1A24200D2F0BD013000D3C7
:1041C0000131121BF7E7F0B51C0C00D080E00CB4F5
:1041D00000251C0A04D11B02160E334312020835B7
:1041E0001C0B04D11B01160F3343120104359C0B29
:1041F00004D19B00960F334392000235DC0B02D1B1
:1042000092185B4101351C00971864410134464FF8
:104210007C66464C3C660E0CFFE7FFE7FFE7C046B6
:104220003C6F6643360C7703BE4697B27743C01B9C
:1042300000D20139C01B00D201399FB27743C91B9C
:10424000C91B170C77437E04FF0B801BB941CE08B6
:104250006643360C0C2D33DBB644120B1F053A4374
:104260001B0B97B27743C01B00D201399FB2774333
:10427000C91B170C77433E043F0C801BB941860DC8
:104280008F023E43664329277F1BFE400C3D774645
:10429000AF40BF1930BCA2B2ABB272437343801AB5
:1042A0009941220C7243130C1204801A99410200A6
:1042B0000B000137001BA941F9D2781E0021F0BD87
:1042C0000C277F1BFE4077467F0BAF40FF19E0E7CE
:1042D00000245D1C07D0144F7D663966FFE7FFE7B9
:1042E000FFE7FFE73C6F95B29EB265436643401B14
:1042F000B141150C1E0C6543664336042F0C3E433A
:104300002D04401BB141994204D202000B00200051
:104310000021F0BD01D19042F7D3801A99410134B8
:104320009942F2D3F6E70000000000D0FFFFFFFF44
:1043300048404140484018B41B4B5B68FC46019321
:1043400008BD04DF0B46001018B4174B1B68FC4671
:10435000019308BD00DF154600109446134A926F82
:10436000920809D2624618B40F4BDB68FC460193F1
:1043700008BD0CDFCD4800100C4AF0B5146E556E28
:10438000576F166F6246FFF7EEFF084A14665566D0
:1043900057671667F0BD18B4034B9B68FC46019342
:1043A00008BD08DF7147001094300020000000D0E5
:1043B000FFB550404240504059404B40594000E00A
:1043C000FFB5154F4C00640D03D0BC4204D10C0363
:1043D00014D80020090D09055C00640D03D0BC420F
:1043E00004D11C030AD800221B0D1B0501264B40DB
:1043F00009D44B4003D58B4200D18242FFBD994284
:10440000FCD19042FFBD0B43DB1803431343F5D0AF
:10441000C9434918FFBD0000FF07000000B5FFF7C2
:10442000CFFF804100BDC04600B5FFF7C9FF01D9ED
:10443000002000BD012000BD00B5FFF7B9FF01D984
:10444000002000BD012000BD00B5FFF7B1FF804195
:1044500000BD012040054A00121804D85A00121865
:1044600001D800207047012070470000002100287B
:1044700005D17047C1174840401AFAD0C90713B593
:10448000064B1B6898470CBC441CA2401005120B3D
:104490000349091B09051943114310BD943100203C
:1044A0001F04000010B54C00620D8023D218DB0001
:1044B000D21A5B057E2A10DD9E3A13DACC17090367
:1044C000490819435242D140640001341532202A70
:1044D00005DAD0400843604310BD002010BD0846F7
:1044E000604310BDC80FC018013810BD18B4044B8C
:1044F0005B6AFC46019308BD24DF7D4A0010000082
:104500009430002070B513231C78012C12D0012C9C
:1045100012DC214B214A93642148FFF76DFB214BAC
:10452000186070BD1C491D4A9800815001331F2B33
:10453000F8D9ECE70023FAE71B48FFF765FB050015
:104540001A48FFF761FB023803789B007F2B09DDD7
:1045500012488022290000F08FFC022C08D0022C87
:10456000DADCD6E7124B134A1348332101F018FE68
:10457000124B1A88B5231B029A4209D1104B1A8894
:10458000104B9A4204D1104B1A88104B9A42E6D035
:104590000020FEF7F3F8C046D1450010943000200B
:1045A0004C33000094310020534400005346000077
:1045B000505C0110A4700110945C0110543800008C
:1045C000D8380000494600009C38000059460000D9
:1045D00007B56046002800D100BE01880A0A0230F3
:1045E000DF2AFAD1C9B2820804D3028840880004C5
:1045F000104300E00068024A5050039007BD0000DD
:10460000943000200FB403BC0CBCF0B50124E407C7
:10461000634000E0F0B50C0DCF0F661E3605891B18
:10462000640503D3C943404200D30131640D03D074
:10463000661CF60A07D0E41B00207F00791C89075E
:104640008912803C24031D0DDF0F6E1E36059B1B57
:104650006D0503D3DB43524200D301336D0D03D00C
:104660006E1CF60A07D0ED1B00227F007B1C9B0707
:104670009B12803D2D032F1B661B58D4A446202E71
:1046800046DA20371400BC401D00BD40F2403341E3
:104690002A4380185941CB0F05D0C943C04300229B
:1046A00064425041514162464D0D28D10D0D07D154
:1046B00000281FD0241940414941013A0D0DF9D07D
:1046C000640006D3013000D30131002C01D1400831
:1046D0004000013A0BD4941CE40A04D112051144A1
:1046E000DB071944F0BDD907204B194300E0D90777
:1046F0000020F0BD0029DDD1002CDBD1F0BD01325E
:10470000C6074008CD0728434908002EE1D0D9E765
:104710003C2E29DA203E40371400BC4000D0012452
:10472000F24014431A00BB401C43D317ACE7AC461D
:10473000202F08DA20360400B4400D00B540F840C0
:1047400039412843A5E73C2F0CDA203F40360400CE
:10475000B44000D00124F84004430800B1400C43A9
:10476000C117EAE710001900002494E70000F07F69
:10477000F0B50C0D661E3605891BE60A6405640D4E
:1047800002D0651CED0A04D0002001210905803CFF
:104790002403A4461C0D671E3F05DB1BE70A6405C6
:1047A000640D02D0651CED0A04D0002201231B0514
:1047B000803C24037740644497B484B296B2744337
:1047C000070C7E43150C6F4380B26843361802D342
:1047D000012000043F183004350C00197D41844647
:1047E00088B29AB250430C0C62431F0C7C438EB2C9
:1047F0007E43921902D301263604A4191604170C1D
:104800003618674101BC81B29AB25143040C62432D
:104810001B0C5C4380B25843121802D301200004E1
:1048200024181004130C401863412D185E41002019
:10483000474106BC88B293B258430C0C6343120C38
:10484000544389B251435B1802D30121090464180F
:1048500019041A0C091862416D185641002047418D
:1048600018BCF902720D1143F0026A0D1043ED02FB
:104870000A0D03D16D1940414941013B124E9B1B6A
:104880007600B3420ED26D0007D30130002671418D
:104890006646354301D1400840001B05C918E407AE
:1048A0002144F0BD0BDA013306D1013004D10131CE
:1048B0004F0D01D04908F2E7E1070020F0BD0136B5
:1048C00031050020EBE70000FF030000F0B51C0DF0
:1048D000671E3F05DB1BE70A6405640D02D0661CFA
:1048E000F60A04D0002201231B05803C2403D025B6
:1048F0002D060026F6432E661E096E66CE0FF619AB
:10490000B44649004F0D02D07E1CF60A03D00020A9
:104910000021403F3F033E1BB600B444013F7F05EA
:10492000C91B49082E6F013676089C02950D254358
:104930007543ED137543AD1301356D10F603761B0A
:104940000CB4CC02450D2C43A2B2B3B25A43270C8F
:104950007B43350C6F43A4B26C431B1902D3012473
:1049600024043F191C041D0CA4187D4124196D4119
:10497000009A91B2ACB26143170C7C432B0C5F439D
:1049800092B25A43A41802D301221204BF1822047F
:10499000230C52187B41019C6C431B19520ED90108
:1049A0000A434401A01A81B2B2B2514303145A43DC
:1049B000360C734387B27743D617D21900277E414E
:1049C00036049B191704160C7F185E417316ED18F8
:1049D000F301002680337541A90F06D16400690AEE
:1049E000E8055B0A184309D22FE00422944480337F
:1049F0007541A90AA8059B0A184326D3404149419D
:104A00002404009A019B0D005543641B4343E41AA0
:104A100095B286B27543170C7E43030C5F4392B286
:104A20005A43B61802D301221204BF183204330CC1
:104A300052197B4152429C41002C02D40022013089
:104A400051414008CA071043490802B06246D707DF
:104A50009210084BD218084B9A4203D212058918BB
:104A6000C919F0BD0020002A01DC3900F0BD013376
:104A70001905F5E7FD030000FE070000002200B560
:104A8000203200F004F8080000BD000000220B15E1
:104A90000AD410B5944600F031F81414013400DA49
:104AA0000021CB17144C204700200021704762449E
:104AB000343A0CD40C2A07DA040091409040524258
:104AC0002032D440214310BDD843D94310BD2032F9
:104AD00007D40C469440524220321141D04020432A
:104AE00010BD0800C917203203D4524220321041B1
:104AF00010BD1800190010BDAF4A00100A0DCC0FF0
:104B0000531E1B05C91A520503D3C943404200D3A3
:104B10000131520D03D0531CDB0A07D0121B0020B9
:104B20006400611C89078912803A1203014BD21A72
:104B300070470000FF03000051434343C9188C46EF
:104B4000110C83B24B4310B4040C614392B280B297
:104B5000504362431C041B0C001910BC5941130440
:104B6000120CC01851416144704700004840414058
:104B7000484000239C46114B5B68184700239C4625
:104B80000E4B1B6818470E4A936F9B0804D20023F4
:104B90009C460A4BDB681847F0B5146E556E576F8C
:104BA000166FFFF7F4FF064A1466556657671667D7
:104BB000F0BD00239C46014B9B68184798310020AC
:104BC000000000D007B548404140484001E0C046E1
:104BD00007B54200120E03D0FF2A03D1420218D8B3
:104BE000C00DC0054A00120E03D0FF2A03D14A02AD
:104BF0000FD8C90DC9050122414005D4414001D556
:104C0000814207BD884207BD0143491801D0C04316
:104C1000001807BD00B5FFF7DBFF804100BDC046AF
:104C200000B5FFF7CFFF01D9002000BD012000BD76
:104C300000B5FFF7C7FF804100BD491A002807D122
:104C400008467047C10FC90700D54042002817D059
:104C5000F44603B40B4B1B68984706BC81409E3852
:104C60004042803107D20B0607D04900490AC005EF
:104C70001043084360470130F8E7490A8902F5E725
:104C8000704700009431002000239C46014B5B6A72
:104C90001847000098310020034BDB6FFC46184793
:104CA0007CDFDD4D001000009831002070B513232B
:104CB0001E782A48FEF7A8FF0500012E11D0012E0C
:104CC00009DDAB1E1B789B007F2B40DD2448802232
:104CD000290000F0D1F82348FEF78EFF224B186020
:104CE00070BD1F485422290000F0C6F81F4B1A88D7
:104CF0001F4B9A421CD1A7239B011A881D4B9A4235
:104D000016D11D4B1A881D4B9A4211D11C4B1A8883
:104D100094239B019A420BD11A4B1A881A4B9A4240
:104D200006D11A4B1A681A4B9A4201D1152307E093
:104D30001848FDF723FD184C094A99008C5001339F
:104D40001F2BF8D9144B064A1362D361B7E7134BF4
:104D5000134A1448422101F023FAC046534600008A
:104D6000983100204C33000094310020EE290000DF
:104D7000C40F0000C20D0000962B0000C0B500005B
:104D8000182B0000CC2A000010B50000FC2C0000FD
:104D900051ED8764DC500110A94D0010EC5C01104E
:104DA000B8700110205D011007B56046002800D1E1
:104DB00000BE01880A0A0230DF2AFAD1C9B282088D
:104DC00004D3028840880004104300E00068024ACF
:104DD0005050039007BD000098310020C30FDB073F
:104DE00041000A0E07D0FF2A08D00909054A891890
:104DF0001943400770471900002070470249C9183D
:104E0000FAE70000000000380000F07F10B500282D
:104E100004D04018034B984200D810BD0248FDF75B
:104E2000ADFCC04600000420745D011070B50500A3
:104E30000DF0E0FC04002900FFF7E8FF200070BD42
:104E400070B50D000DF0E0FF04002900FFF7DEFF54
:104E5000200070BD10B50DF0D7FC10BD0148042135
:104E6000014B1847D01B0020193C0010014B1B6858
:104E700018470000D01B0020014B5B68184700005A
:104E8000D01B00209A4200D288547047704710B55A
:104E9000002802D00B684968984710BD0100002027
:104EA00007E083001B185B00501C08601078C018D6
:104EB00030380A681378303BDBB2092BF1D97047E0
:104EC000F0B5DE4657464E464546E0B583B09346BC
:104ED0001F000C9B9A460D9C0E9B99460F9B9B07AF
:104EE00017D0B8460F00060022E0551C4B4641463D
:104EF0002020B84701342A00B442F6D33D004F4683
:104F00005C46019B9B46B1464646B84637002E009C
:104F10000EE00192A34688464E46B9460700EBE7ED
:104F2000013C551C5346185D43463900B0472A00E2
:104F3000002CF5D135003E0047460F9B9B0711D44E
:104F4000100003B0F0BCBB46B246A946A046F0BD77
:104F5000541C4B4641462020B8472200531BB34205
:104F6000F6D3EDE7B0464E46B9462F005D46F5E76D
:104F7000F0B5CE46474680B585B0944698460C9D20
:104F80000D9C0EAB1B789946109A119B129EB70789
:104F90001CD4002B0CD0F7070AD54F46002F02D1A6
:104FA0000C37374204D0013B02E030272F55013443
:104FB000944201D21F2CF8D9F70707D59C4205D29D
:104FC0001F2C03D830272F550134F5E7F70612D5EB
:104FD000770505D4002C03D0944221D09C421FD0E9
:104FE0000F9A102A2FD00F9A022A36D01F2C0AD8D7
:104FF00030222A5501341F2C05D84A46002A32D0C7
:105000002D222A55013403960293019400954346BC
:105010006246FFF755FF05B0C0BCB946B046F0BDCB
:10502000621E012C17D00F9F102F0BD014000F9A67
:10503000102AD8D1B206D6D51F2CD4D858222A553A
:105040000134D3E7023CB206F1D41F2CEFD878220A
:105050002A550134CAE71400C2E71F2CD3D86032A6
:105060002A550134C2E7720703D52B222A55013491
:10507000C9E73207C7D520222A550134C3E7F0B566
:10508000DE4657464E464546E0B593B081468A46D1
:10509000089209931CAB10CB1B789B461E9D219B4D
:1050A0009846002C03D1102342469A439046802311
:1050B000DB0046461E4042461A4218D0002C22D041
:1050C000002614E0424692061BD54121C918C9B2F8
:1050D0000A39C9B2771C0AAB995529002000FEF79E
:1050E000EFFEAC4210D31F2F0ED83E000400290063
:1050F0002000FEF7E5FECBB2092BE3D83033D9B25E
:10510000E8E76121E2E7270043460693209B0593E9
:105110001F9B049303955B46029301970AAB009390
:10512000099B089A51464846FFF722FF13B0F0BC8E
:10513000BB46B246A946A046F0BDF0B5DE4657468E
:105140004E464546E0B597B00A900B910C929A46B0
:10515000209B9946219F22AA13789B46249B099362
:10516000259C289B98464A463A4302D110329343E5
:1051700098468022D20045461540434613420AD045
:105180004A463A4341D000252E0053460D934D46E2
:10519000099B9A4621E02E0053460D934D46099BEC
:1051A0009A461AE04246920623D54122D218D2B23C
:1051B0000A3AD2B2731C99460EAB9A555246230056
:1051C00028003900FEF7BAFEBC4220D813D04B4667
:1051D0001F2B16D84E4605000F005246230028000C
:1051E0003900FEF7ABFED3B2092BDBD83033DAB28D
:1051F000E0E76122DAE7AA45E9D94E460D9B9A46D7
:1052000008E04E460D9B9A4604E0002602E04E461A
:105210000D9B9A4643460693279B0593269B049332
:10522000099B03935B46029301960EAB0093534692
:105230000C9A0B990A98FFF79BFE17B0F0BCBB467F
:10524000B246A946A046F0BDF0B5DE4657464E46EA
:105250004546E0B591B0804689460C929A461A9C24
:105260001B9D22002B0020002900FFF7F2F80028E8
:1052700000D0F2E001225242D54B20002900FFF776
:10528000E3F8002800D0E8E001225242D14B200090
:105290002900FFF7C3F8002800D0DEE00022002339
:1052A00020002900FFF7BAF8002800D0EAE00694B1
:1052B00007958023DB001E9A1A400D921E9A1A420F
:1052C00001D106231C930698079902000B0008924F
:1052D000099303000A00024300D1DFE0080D4005F6
:1052E000400DBD4EB4466044079E3203120B1E00B3
:1052F000BA4B13431F00FFF7BDF8B94AB94BFFF78C
:105300004AF8B94AB94BFFF71FF8089009910022F3
:10531000B74B30003900FFF70EF8B64AB64BFFF72F
:105320003AF802000B0008980999FFF70DF8FFF70B
:10533000B9F88346FFF79EF806000F00AF4AB04B5E
:10534000FFF729F80022AF4BFEF7FEFFFFF7AAF8A0
:105350000890AD4AAD4B30003900FFF71CF806004D
:105360000F000898FFF786F8A94AAA4BFFF713F831
:1053700002000B0030003900FEF7DDFF06000F00D1
:1053800002000B00FFF707F80A900B91089BA24A56
:105390009446634400210022089109921B05099359
:1053A0000023089332003B0030003900FEF7CCFFA9
:1053B0000E900F9132003B0000208021C905FEF7BE
:1053C000BAFF06000F000022944B0A980B99FEF7D3
:1053D000C4FF0022924BFEF7B7FF02000B000A98B1
:1053E0000B99FEF7BAFF00228E4BFEF7ADFF0200CD
:1053F0000B000A980B99FEF7B0FF02000B0030007B
:105400003900FEF7A1FF02000B000E980F99FEF77E
:10541000A4FF0022714BFEF797FF089A099BFEF745
:10542000BAFF06000F0008960997069A079BFFF738
:105430000BF800280BD001235B429C46E34400227A
:10544000774B30003900FEF788FF089009915B46E2
:105450006333C62B45D8042623E01E9B04931D9B73
:1054600003931C9B02930094019553460C9A494662
:10547000404600F0FBF811B0F0BCBB46B246A9466E
:10548000A046F0BD002100220691079206948023D9
:105490001B069C46AC44634607930AE700239B46E1
:1054A00004261E9B1B0528D5089A099B1900114349
:1054B0000FD05D4A5D4B06980799FEF7BDFF0028A7
:1054C0007AD000225A4B06980799FEF7A7FF0028CA
:1054D00072D01C9B5B4506DD5A469B1A013B1C9310
:1054E00003E00526DDE700231C938023DB001E9AE2
:1054F0001A431E92002600239B461D9B9E4265D2A6
:105500009F1B02231E9A1A400A921E9A134202D02F
:10551000002E00D000275B46002B07D0089A099B7D
:1055200006980799FEF719FF0690079100220023BD
:1055300020002900FEF772FF002800D07CE03D4BE0
:105540001E9A1340049303971C9B0293069B079C8F
:105550000093019453460C9A4946404600F086F861
:10556000002E00D187E71E9B9B0671D54525441C64
:105570005346020049462800C0475A46D317D2185E
:105580005A4005230593013E0496002303930A33F2
:1055900002935B46DB0F019300925346220049467B
:1055A0004046FFF76CFD0A9B002B00D163E7020029
:1055B00047460C9E1D9D53E01C9B002B9DD00D9BD0
:1055C000002B9AD01C9B013B1C9396E7002798E781
:1055D000FFFFEF7FFFFFEFFF01FCFFFF0000F03F49
:1055E000FB799F501344D33FB3C8608B288AC63FD2
:1055F0000000F83F61436F63A787D23F71A3790929
:105600004F930A400000E03F1655B5BBB16B024016
:10561000EF39FAFE422EE63FFF03000000002C4067
:1056200000002440000018402D431CEBE2361A3FD6
:1056300080842E41FFF7FFFF069C079D2200290072
:1056400080200006844661440B000692079376E7AB
:1056500065258CE7541C534649462020B847220054
:10566000931BAB42F6D3100005E7C046F0B5DE460B
:1056700057464E464546E0B595B00690079193468D
:105680009946209F1E9A1F9B10001900FEF7E1FE0D
:10569000002831D101225242BC4B1E981F99FEF7BF
:1056A000BDFE002837D101225242B94B1E981F99E6
:1056B000FEF7CAFE00283DD10022B64B1E981F9966
:1056C000FEF7C2FE00284AD10022B34B1E981F9954
:1056D000FEF7A4FE002842D1002200231E981F9945
:1056E000FEF79CFE00284AD100239846229B5B05CA
:1056F00000D4B0E0002452E0229B0393219B02934C
:1057000003230193A54B00934B465A4607990698ED
:10571000FFF7D6FB08E1229B0393219B029304230E
:1057200001939F4B00934B465A4607990698FFF703
:10573000C7FBF9E0229B5B070ED59A4B0422229906
:10574000039121990291019200934B465A46079981
:105750000698FFF7B5FBE7E0934B0322EFE7229BA8
:105760000493219B039302971E9B1F9C009301941B
:105770004B465A4607990698FFF766FDD4E01E9AF5
:105780001F9B00200021FEF7D6FD1E901F910123D4
:105790009846ABE70CAB30221A55013F01341F2C61
:1057A00001D8092FF6D81E981F99FEF77BFE050039
:1057B000FEF760FE02000B001E981F99FEF7BBFD6E
:1057C0007A4BFA009B181A685B680A920B93FEF7F3
:1057D000E2FD08900991FEF789FE0600FEF746FEFD
:1057E00002000B0008980999FEF7A5FD08900991A1
:1057F00000226F4BFEF728FE00282ED00136300025
:10580000FEF734FE02000B000A980B99FEF70CFE1F
:10581000002801D001350026002F2CD12800FEF7EA
:1058200029FE02000B001E981F99FEF784FD06005A
:105830000F0000225E4BFEF7F1FD002846D100224A
:105840005B4B30003900FEF7FFFD00283ED1EB072F
:105850003CD501353AE006274CE70022544B089826
:105860000999FEF7DBFD0028D6D1002E01D0F30701
:10587000D2D50136D0E7AA461F2C11D8013F0A2104
:105880003000FEF71DFB651C30310CAB19550A21A9
:105890003000FEF715FB092E0ED906002C00EBE7B1
:1058A00055461F2C0CD87B1E002F09D00CAA302186
:1058B00011551F000134F4E72B0055461C00F0E79A
:1058C0001F2C03D80CAB2E221A5501341F2C10D8D4
:1058D0000A212800FEF7CCFA661C30310CAB1955B2
:1058E0000A212800FEF7C4FA051E01D03400EDE7B6
:1058F00034000323229A1340012B1CD01F2C06D8FE
:105900004346002B32D00CAB2D221A550134229B7A
:105910000393219B029301940CAB00934B465A4690
:1059200007990698FFF7CCFA15B0F0BCBB46B24613
:10593000A946A046F0BD219B002B13D04346002B67
:1059400002D10C3313420FD0219B013B219319004C
:1059500003E00CAB30221A5501348C42CED21F2CFE
:10596000F7D9CBE72199F8E72199F6E7229B5B0766
:1059700004D50CAB2B221A550134C8E7229B1B0718
:10598000C5D50CAB20221A550134C0E7FFFFEFFF4D
:10599000FFFFEF7F65CDCD4165CDCDC1C45D011069
:1059A000C85D0110B85D0110C05D0110C872011022
:1059B0000000E03FF0B5DE4657464E464546E0B5AE
:1059C00093B007008A4693461193002900D12CE337
:1059D000002508E06C1C5B462A005146B847119B25
:1059E000013311932500119B1878002800D11EE384
:1059F0002528EFD1013311930023180020E0012363
:105A0000184301321192012418E002231843013295
:105A10001192012412E0042318430132119201244F
:105A20000CE00823184301321192012406E01023F0
:105A3000184301321192012400E00024002C09D007
:105A4000119A1378203BD9B21029F6D88B00C4499B
:105A5000CB589F468146119B1A781300303BDBB22E
:105A6000092B10D92A2A13D00B94119B1A782E2AAD
:105A700020D0119A1378683BD9B2122965D88B00CF
:105A8000B849CB589F4611A8FFF708FA0B90ECE7EE
:105A90001C9B1A1D1C921B68002B04DB0B93119B93
:105AA00001331193E1E702220100114389465B4271
:105AB0000B93F4E78022D2004946114389465A1CD1
:105AC00011925A781300303BDBB2092B0BD92A2AEA
:105AD000CFD11C9B1A1D1C921C68002C08DB119B4B
