:020000041000EA
:1000000000B5324B212058609868022188439860DF
:10001000D860186158612E4B002199600221596106
:100020000121F02299502B49196001219960352056
:1000300000F044F80222904214D00621196600F024
:1000400034F8196E01211966002018661A6600F04E
:100050002CF8196E196E196E052000F02FF8012189
:100060000842F9D1002199601B49196000215960AB
:100070001A491B48016001219960EB211966A021F2
:10008000196600F012F800219960164914480160C1
:100090000121996001BC002800D000471248134993
:1000A000086003C880F30888084703B5996A0420EC
:1000B0000142FBD001200142F8D103BD02B5186610
:1000C0001866FFF7F2FF186E186E02BD00000240BE
:1000D000000000180000070000035F00212200005C
:1000E000F4000018222000A00001001008ED00E03C
:1000F00000000000000000000000000074B24E7A12
:1001000000200420F7010010C3010010C5010010F9
:10011000C1010010C1010010C1010010C101001097
:10012000C1010010C1010010C1010010C701001081
:10013000C1010010C1010010C9010010CB01001065
:10014000CD010010CD010010CD010010CD01001037
:10015000CD010010CD010010CD010010CD01001027
:10016000CD010010CD010010CD010010CD01001017
:10017000CD010010CD010010CD010010CD01001007
:10018000CD010010CD010010CD010010CD010010F7
:10019000CD010010CD010010CD010010CD010010E7
:1001A000CD010010CD010010CD010010CD010010D7
:1001B000CD010010CD010010CD010010CD010010C7
:1001C00000BE00BE00BE00BE00BE00BEEFF3058054
:1001D000103800BEF2EB8871EC27001014280010D4
:1001E0003802001090A31AE71E481F49086006C88D
:1001F00081F3088810471D480068002801D019487D
:10020000F3E70DA40ECC002902D000F012F8F9E7B4
:100210001749184A002000E001C19142FCD116495B
:100220008847164988471649884700BEFDE701C937
:1002300001C29A42FBD3704714280010C00000206E
:10024000B0120020043A0010000004200000042036
:10025000043A0010001004200010042000000000E8
:10026000704700000000000008ED00E0000000D032
:10027000B0120020E8170020251D0010D502001044
:100280001D1D0010F8B5C04606480749091A8B1015
:10029000C90FC91810B5491003D0044B002B00D06A
:1002A000984710BDB0120020B012002000000000DE
:1002B000054B10B5002B03D00449054800E000BFF2
:1002C000FFF7E2FF10BDC04600000000AC170020A1
:1002D0009025001010B582B001F030FEFA20C00069
:1002E00000F08EFF1C4C1D49200002F067F803212E
:1002F000042000F033FA0321052000F02FFA002239
:100300000121042000F044FA00220121052000F020
:100310003FFA27222100684600F026F8684600F0E0
:1003200097F8684600F016FA00220021684600F0AF
:1003300077F968460A4900F08FF9002168460122E2
:1003400000F06EF96846074900F086F9FA2080004F
:1003500000F056FFFAE7C04658110020801A060048
:10036000902500109C250010082301600271437144
:100370007047C046F0B5D6464F464646C0B54379AD
:1003800004001A4308000F23984303000D2700259B
:1003900084B0090103AE6F4413430A4333703A70CB
:1003A0002179320020680123009502F02FF80E22F7
:1003B0006A4490460422914692464A464146337822
:1003C0000F261A430A7052466E44934333704246D6
:1003D000217901232068009502F018F801200021FE
:1003E00000F098FE3200217901232068009502F088
:1003F0000DF83220002100F08DFE21793A002068AE
:100400000123009502F002F84A4641463B782068F5
:100410001A430A70524693433370424621790123AE
:10042000009501F0F3FF0120002100F073FE217917
:10043000012332002068009501F0E8FF32200021FE
:1004400000F068FE04B0E0BCBA46B146A846F0BD74
:10045000F0B5DE4657464E464546E0B5040085B049
:10046000322000F0CDFE30239B460D265A46002553
:1004700063796E441343337021793200206801237D
:10048000009501F0C3FF0E226A4490460422914673
:1004900092464A46414633780F271A430A7052461D
:1004A0006F4493433B7042462179012320680095B5
:1004B00001F0ACFF0120002100F02CFE3A000123E6
:1004C00021792068009501F0A1FF0021322000F081
:1004D00021FE052000F094FE5A46637920681343FC
:1004E0003370217932000123009501F08FFF4A46D5
:1004F0004146337820681A430A70524693433B7052
:10050000424621790123009501F080FF012000215E
:1005100000F000FE3A00012321792068009501F0E7
:1005200075FF3220002100F0F5FD6420002100F06D
:10053000F1FD5A4663792068134333702179320004
:100540000123009501F062FF4A4641463378206856
:100550001A430A70524693433B7042462179012365
:10056000009501F053FF0120002100F0D3FD3A0077
:10057000012321792068009501F048FF32200021F5
:1005800000F0C8FD6420002100F0C4FD2022637942
:10059000206813433370217932000123009501F064
:1005A00035FF4B4641463278206813430B70534663
:1005B0009A433A7021794246033B009501F026FFA9
:1005C0000120002100F0A6FD01233A0021792068D6
:1005D000009501F01BFF3220002100F09BFD200060
:1005E00000222821FFF7C6FE200000220C21FFF781
:1005F000C1FE002201212000FFF7BCFE022000F016
:10060000FFFD002206212000FFF7B4FE022000F0CB
:10061000F7FD05B0F0BCBB46B246A946A046F0BD0A
:1006200000B50C4B83B00193131C032A00D903239C
:10063000DBB20A1C0F2900D90F2201A9CB5C802153
:100640009B18494219430022C9B2FFF793FE03B039
:1006500000BDC04600401454F0B5DE4657464E4635
:100660004546E0B58B460978040085B000296AD07C
:1006700003AB9A460D236B4499460E230F276B4418
:10068000984600256F4401230A000F2056469C46D9
:10069000637982431A430E38024332704A46090195
:1006A0000B430343137021790123524620680095C0
:1006B000E34401F0ABFE337804261A00414632438E
:1006C0000A70042293433B7042460123217920683B
:1006D000009501F09BFE0120002100F01BFD01238D
:1006E0003A0021792068009501F090FE3220002127
:1006F00000F010FD217901234A462068009501F0A1
:1007000085FE4B46042241461B7820681E439343D6
:100710003B700E70012342462179009501F076FE70
:100720000120002100F0F6FC012321793A00206825
:10073000009501F06BFE0021322000F0EBFC5B46DF
:10074000197800299FD105B0F0BCBB46B246A94636
:10075000A046F0BD082343717047C046094A830094
:100760009A1810B514684022544080322240064C3A
:10077000C000A44663441A60044B9C466044416038
:1007800010BDC04604C0014004D0014000400140FB
:10079000074B8000C3181B68C90092000A435A40E7
:1007A0000C231340034A9446604403607047C046DC
:1007B00004C0014004D001400FB400B5084883B024
:1007C00001F00CFC049B002B07D005A91800019137
:1007D00001F084FA034801F001FC012001F096FACF
:1007E000A8250010B825001070B5EFF3108C72B674
:1007F0000D4D2B68002BFCD0BFF35F8F0724CB0877
:10080000C618C05C01230C40A3401C0004400342F6
:1008100007D118433070BFF35F8F2C608CF31088C2
:1008200070BD1000FFF7C8FF2C0100D0044A1078FB
:10083000431CDBB2172B00D9102313707047C0463E
:10084000B41000200021044B044ABFF35F8F02C3A1
:100850009342FAD17047C046000100D0800100D019
:10086000054B064A1360064A136053609360D360D9
:1008700013615361936170478080808000E400E0E1
:1008800004E400E01F2318401E3B8340002905D0EC
:10089000C021044A49005350136070478022014927
:1008A0008B50FAE700E100E070B50D00EFF3108621
:1008B00072B60F4A1368002BFCD0BFF35F8F0D4B4D
:1008C00010309B6884001B590B4A934203D09D4211
:1008D00001D001F01FF8074B9B681D51BFF35F8FDC
:1008E000BFF35F8F0022024B1A6086F3108870BD41
:1008F000240100D000ED00E0CD010010F0B5DE468F
:1009000057464E464546E0B50C0083B0EFF31088DD
:1009100072B6634A1368002BFCD0BFF35F8F614B44
:1009200061499A68030010339F00D55901938D42A5
:1009300043D0A54254D05D4EAA1B2F2A3DD85C4B14
:100940009B461B68994601231A009C4682404B46F1
:1009500013401F2299466346024093409A468022E4
:100960005B4650469850BFF35F8FEFF305839B467D
:10097000002B37D0019B5B4501D000F0CBFF01235A
:100980002A009A439068844208D176E04B005B18B5
:100990009B00F3189868844236D01A0006215156FD
:1009A0000029F3DA844254D04B46002B27D0C022D2
:1009B00051463F4B5200995019603A4B9B68DD51AC
:1009C000BFF35F8FBFF35F8F0022354B1A6088F350
:1009D000108803B0F0BCBB46B246A946A046F0BDA5
:1009E0000D00EAE72A0063469A4390688442D5D115
:1009F00006201056130000280ADA0D0031E080238B
:100A000051462B4AD150D8E706201856002821DB42
:100A100042001118890074188B46A1689960E17929
:100A2000D971062161569971002924DBA488F11A35
:100A3000640524155C44091909051E4C490D214320
:100A4000998013181C4A9B001178F3189971107043
:100A5000AAE713005946002914D1FF3191711749B3
:100A6000918015490A789A71154A9B1B5B415A433C
:100A7000120D0A7098E71149E2E70620105613009C
:100A80000028C5DA0F4A1049D21A083A5002400D20
:100A9000014399800D4952080A43DA8084E7C04631
:100AA000240100D000ED00E0CD010010B8100020BE
:100AB00000E100E000E0FFFFE417002001BDFFFFC0
:100AC000AAAA0000F210002000F0FFFF00F8FFFFCC
:100AD00070B501240443EFF30581EFF3108C72B677
:100AE000214A1368002BFCD0BFF35F8F1F4B05001A
:100AF0001F4AED1A6D416A43120D1E4D8900AE6802
:100B000052B27658A6421CD00621595691421CD0AA
:100B100012215956914222D01E215956914220D07D
:100B20002A2159560324914210D0134B19781A7078
:100B30008171BFF35F8F00220B4B1A608CF310881A
:100B400070BDAB680D4C5C50EFE7002461000919E3
:100B500089005B18FF21997109499980E5E7012413
:100B6000F4E70224F2E7C046240100D0B8100020C8
:100B7000AAAA000000ED00E0E4170020CD0100105B
:100B800001BDFFFF024B9C46614489000160704734
:100B90004000003470B5114C114DAC420FD2FF260D
:100BA0002368002B0CD0FFF741FE01002000FFF767
:100BB000E9FFA680BFF35F8F0834AC42F0D370BD6D
:100BC000FFF734FE01002000FFF7DCFF2671BFF3C2
:100BD0005F8F0834AC42E3D3F1E7C046A81200208F
:100BE000B01200200A4B1968EFF3108072B60A6841
:100BF000002AFCD0BFF35F8F1B68BFF35F8F00221A
:100C00001A6080F3108840BF002000217047C04662
:100C1000D8170020F0B5DE4657464E464546E0B5AB
:100C200087B0EFF30583032201251A409540910018
:100C30008846A946B34B03925C58B34B1D60B34B37
:100C400004934B46B24843630823E55E002D37DA30
:100C5000A3881BB2002B00DBADE0A379002B00D0F2
:100C6000EEE00823E05E002820DB430062691B18E9
:100C7000DB00D3189E68DD68731C00D111E1A44825
:100C800001004144826A0B69B71A9B1A9F4215D32F
:100C90000123026A039883401A420FD09C4800F057
:100CA000BDFB8D4202DCCCD18642CAD940BF07B021
:100CB000F0BCBB46B246A946A046F0BD0E61EDE7CA
:100CC00062696B0092465B19DB009A4453469E684A
:100CD000DF6800F0A3FB8F42BADC00D103E1002FF4
:100CE00000DAE8E05246534652691B699346049A7B
:100CF000934200D1D9E052460821605E5288000438
:100D0000594610439847009001910099019A0B00B1
:100D10001000134300D1CEE013000A00B61A9F4121
:100D2000002806DB7A4800F079FB009E019F361808
:100D30004F4153469E60DF6000229A5E002A00DA2F
:100D400086E7530099186069C900411802938B68BF
:100D5000C9689B46B94200DD7AE702D1B34200D9A7
:100D600076E708239C46A444059565462281A4465F
:100D7000029B2C0006E053009918C90041188D68A9
:100D8000C968AB469B18DB00C318B94206DC00D12A
:100D9000B3E01C000023E25E002AECDA2300644684
:100DA0009C4653461A806346059D1D80A3881BB24E
:100DB000002B00DA51E72269EFF3108172B6136855
:100DC000002BFCD0BFF35F8F0123A7885B42A38079
:100DD0003FB22369BFF35F8F00221A6081F310884E
:100DE000002F00DA39E72300083322009A466669AB
:100DF0007B00DB19DB00F318996850468C46082409
:100E0000115FDD68002910DB029306E0AB4244D09D
:100E10000023E15E2000002906DB4C006418E4009A
:100E20003419E368AB42F1DD029B078000201F5EAE
:100E30001980002FDCDA1400A379002B00D110E711
:100E40000023A37126000823E15E08364B1C00D165
:100E50002CE70800A246656902E03E004B1C1AD050
:100E60004B005B18DB00EF180A008C46E95E7B88BC
:100E70001BB2002BF1DA01235B42DC17BB60FC6084
:100E8000824205D0534631801B893B8053461A81EC
:100E900060464B1CE4D15446E5E6A3686345B7D9E8
:100EA000C2E76B1C00D0EAE6F8E65B4658461B69D1
:100EB000984700281BD153461B8822692381EFF3F2
:100EC000108372B611680029FCD0BFF35F8F5146C2
:100ED00062880A8022696580BFF35F8F00211160FC
:100EE00083F31088B4E6864200D8F8E6B0E65B46A5
:100EF0001A685B680092019307E7B34500D848E79A
:100F00004CE7C046C41700203C700540150C00108B
:100F10000040054070B52E4C2569002D04D00A21F3
:100F20002C48FFF72FFE70BD2B4E0321300000F040
:100F30006BFAE660FFF77AFC284B03229C46D0232D
:100F400022701B061B6801216370254B6044A3605F
:100F50000F23800020610220638063694942A180E1
:100F600019800231198647311D83585218315A525F
:100F700075325C3999521832013199521832013167
:100F80009952183201319952083518329D52023166
:100F9000183299521832013199521832013199524E
:100FA00018320131995218320131995218320131F7
:100FB00099520C4B0C49DC6001303562FFF774FC30
:100FC00001210320FFF75EFC084B1D60A7E7C04628
:100FD00000110020D81700200040054040000034D8
:100FE000FFFF1000C4170020150C001038600540EA
:100FF00070B501000469EFF3108C72B62068002808
:10100000FCD0BFF35F8F02200D5E4C696800401971
:10101000C00024180869002D36DB26884E80BFF3F7
:101020005F8F002606608CF31088E3606388049865
:10103000013320615B0405985B0CA26060611A1C9F
:10104000002B1FD093B22804628018430A69EFF383
:10105000108C72B61368002BFCD0BFF35F8F8B88A7
:1010600023808D800B69BFF35F8F00221A608CF3A1
:1010700010880B7801329A40CB6808498C4663444B
:101080001A6070BD0122DDE7BFF35F8F00230360AC
:101090008CF3108801204042F3E7C0463C2000005A
:1010A00010B543890A1493421ADD53009B18426914
:1010B000DB00D3180469EFF3108C72B62268002AA3
:1010C000FCD0BFF35F8F5A88090494B2090C8A429E
:1010D00008D00369BFF35F8F00221A608CF3108879
:1010E000002010BD8022120214435C80012302699B
:1010F0008371BFF35F8F002111608CF31088044966
:1011000002788C469340C268012062441360E8E78D
:101110003C200000F0B5C64600B582B004000D00CA
:1011200000F084F924184D41002D02DA01242F4DDE
:10113000644206267642F71736196F41AF4214D83B
:1011400011D000F073F932003B00121A8B41002BD2
:1011500015DC002B46D02000290000F0A5F902B0D4
:1011600080BCB846F0BDA642EBD90026002700F0AF
:101170005DF932003B00121A8B41002BE9DD00F0D3
:1011800055F932003B00121A8B41002B0ADB002379
:101190000193174B3200009316483B00FFF728FFDE
:1011A0000130D8D000233900B0469C46124A13487B
:1011B000536A994204D8966A4645CCD29942CAD11C
:1011C0000668EFF3108772B63368002BFCD0BFF3CC
:1011D0005F8F0368BFF35F8F66461E6087F31088DA
:1011E00020BFE5E7002AB6D0C9E7C046FFFFFF7F72
:1011F000E50B00100011002000400540D81700202A
:10120000F0B5C64600B582B0040000F00FF9FA222E
:1012100006000F00200000230021920000F0E6FCF1
:101220008019794104000D1E02DA01242E4D64421A
:1012300006267642F71736196F41AF4214D811D0FF
:1012400000F0F4F832003B00121A8B41002B15DC41
:10125000002B46D02000290000F026F902B080BC07
:10126000B846F0BDA642EBD90026002700F0DEF814
:1012700032003B00121A8B41002BE9DD00F0D6F85A
:1012800032003B00121A8B41002B0ADB0023019332
:10129000164B3200009316483B00FFF7A9FE0130C1
:1012A000D8D000233900B0469C46124A1248536AEF
:1012B000994204D8966A4645CCD29942CAD106686A
:1012C000EFF3108772B63368002BFCD0BFF35F8F4B
:1012D0000368BFF35F8F66461E6087F3108820BFE8
:1012E000E5E7002AB6D0C9E7FFFFFF7FE50B001056
:1012F0000011002000400540D8170020F0B55746E7
:101300004E46DE464546E0B506000F0085B0EFF3D9
:10131000058399468B46002B12D0384900204B6A32
:10132000BB4206D38A6ADB1B591E8B41B242404145
:10133000184305B0F0BCBB46B246A946A046F0BD76
:101340002F4B9A46DB68984653461B7840460393DA
:1013500000F064F84246039B040004339B009B5852
:101360000D001B1A39003000001BA941894510DC13
:101370000DD020BF214A0020536A5B45D9D3926A21
:10138000DB1B591E8B41B24240411843D1E78342D7
:10139000EFD900F04BF832003B00121A8B41002BC2
:1013A0001ADB00230193174B3200009350463B0099
:1013B000FFF71EFE011E0FDD104B5A6A5A451BD364
:1013C0009B6AB34216D35046FFF76AFE0B4A0020D1
:1013D000536A5B45ADD3D2E7084A0020536A5B45A8
:1013E000A7D30020926ADB1BB24240415A1E9341B0
:1013F00018439EE75A45E6D120BFE4E70040054088
:1014000000110020E50B001010B5024A0248FFF75A
:10141000EBF910BDBC250010701700200300416AD5
:101420000A00986A596A8A42FAD17047034B596A8E
:101430000A00986A596A9142FAD170470040054003
:1014400070B504000D00174A536A1900966A536A72
:101450008B42FAD13000190024184D41AB4216D806
:1014600013D0104B2A005B6A9D4203D90D494B6A89
:101470009342FCD3934207D10A4A02E0516A99424F
:1014800002D1916AA142F9D370BDA642E9D9054BB8
:101490005B6A1C005A1CEFD0012201246442E5174C
:1014A0005242E3E700400540064A536A9942FCD89D
:1014B00007D1044B02E05A6A914202D19A6A9042E3
:1014C000F9D8704700400540F8B5040006200D002B
:1014D00000F078F9002844D0374B3849E3185A1EF9
:1014E00093418022120494465B429B0D344A9B0533
:1014F00063441360334A136018000A689043FBD1B9
:101500002D4B314AE31859424B4180215B00490081
:101510000620995200F056F92900C00000F0D8FAD0
:101520000130C3091ED1402701226262A362266BEB
:10153000F30722D4E36A254B0620E51800232B602D
:10154000266300F03FF93900800000F0C1FA7023F3
:10155000E26A5A400E3313402B601D4B2363032372
:10156000A364F8BD1B4A93421ED900231A4A1B4F9D
:101570006262A362266BF307DCD5194B144AE318A9
:101580001A60656AA36A0620AD01ED1800F01AF929
:10159000144900F09DFAAD020100280000F098FA0D
:1015A0000021FFF74DFFC5E74006800E9F011A009E
:1015B0003F180300B9E7C0460080FCBF08C00040E8
:1015C00000E0004000F00040DC1700202C1000007C
:1015D00001030000FEFF0000FFFF0000C0FF3F000E
:1015E000303000004E0E0000F8B5DE464E4657463D
:1015F0004546E0B58B4605000A991800160000F034
:1016000067FA0A9B6C001F02324B64199C46A400C7
:101610006444636881469F4200D967602B1FDBB238
:101620009846012B30D9C02380229B01E318120178
:101630001A60294BAD0059599A4600291BD17301F4
:10164000E026226853401E40802342465B01E31897
:101650001E60012A30D9802380229B01E3181201E9
:101660001A6053464A4667605A51F0BCBB46B246C0
:10167000A946A046F8BD586900F02AFA0130430097
:101680001B18033BFDD2DAE75B46012BCBD1C0230D
:1016900003229B01E3181A60023AA3681A42FCD0A5
:1016A0007301E0262268AD0053401E4080230A4AA1
:1016B0005B019246E3181E605A462168514003229E
:1016C0000A401A6001225B469A40A3681A42FCD085
:1016D000C1E7C0460080004074170020F0B54646C0
:1016E0004F46D646C0B51F00344B44009C462418D4
:1016F000A4006444636888461600FF2B02D8802348
:101700005B006360031FDBB29A46012B30D9C02314
:1017100080229B01E31812011A60294B8500595958
:10172000994600291BD17301E026226853401E40D0
:10173000802352465B01E3181E60012A30D98023C2
:1017400080229B01E31812011A6080235B00636012
:101750004B465F51E0BCBA46B146A846F0BD586959
:1017600000F0B6F9013043001B18033BFDD2DAE765
:101770004346012BCBD1C02303229B01E3181A60FF
:10178000023AA3681A42FCD07301E0262268850061
:1017900053401E4080230A4A5B019146E3181E60B5
:1017A00042462168514003220A401A600123424602
:1017B0009340A2681342FCD0C1E7C04600800040BD
:1017C00074170020014B8000C05870477417002028
:1017D000F8B5040021481E0017000D0000F078F94C
:1017E0000100380000F074F9069B36041B031E4309
:1017F0002368002B20DB1A4B1A49E3185A1E934129
:101800008022920194465B421B0B174A1B036344E0
:101810001360164A13601F000A689743FBD1144BEC
:101820002560E2182123A06013602368002BFCDAF6
:101830000823E6601360F8BD3F2322681340AB42E3
:10184000D9D1A3681B051B0D8342D4D1EE22E368D6
:10185000D2021340B342CED1EDE7C046001BB70021
:101860000040FDBF08C0004000E0004000F0004024
:10187000043000008023024A9B000B43D362704770
:1018800000800540002310B50100988A1B8B984703
:1018900010BDC046162310B50100188802331B88FE
:1018A000984710BDF8B54746CE4680B50F1E18D0F4
:1018B00014239946043304000025012698464B461C
:1018C0001888434621681B88984701C4431E9841E5
:1018D00001350640AF42F2D13000C0BCB946B04637
:1018E000F8BD0126F8E7C046AA23064A1B0113608B
:1018F0008D235B00D3600449044B19605368002BAF
:10190000FCDA70470040024000B0FA00006002407C
:101910007047C04610B50148FEF74EFFE0250010A5
:1019200070B5074D074EB54209D20024013E761B23
:10193000B60808CD984723000134B342F9D170BDF1
:10194000502500108C250010054B064A06491A60E8
:10195000064A074B1A6010000B689843FBD170478A
:1019600000E00040BFCDFBFE08C00040FE7F3C0011
:1019700000F00040044BDB6C002B03D18022034BB2
:10198000D2021A607047C046000011504C2011501E
:10199000044A054B1A60054A1368DB018033FBD10A
:1019A0007047C046FFFFFF0100F0004008C0004044
:1019B0004022034B9A675A671A67DA667047C04637
:1019C00000F0014010B5FEF73DFF10BD70B5044DAD
:1019D000044CA968C022200000F072F9AC6070BD10
:1019E00000ED00E000000020002310B5294C82B07B
:1019F000A367FFF779FF0122274B1A60636C012B65
:101A0000FCD10322254B1A60224A936B012BFCD197
:101A1000013300930121224A22480433FFF7D8FE04
:101A2000052301210093204A2048FFF7D1FE002220
:101A3000022104201E4BFFF751FE00220121052048
:101A40001C4BFFF74BFE0022002107201A4BFFF72B
:101A500045FE002200210820174BFFF73FFE8023A0
:101A6000DB000093002200210920134BFFF7BCFD8F
:101A70000022104B00210620FFF730FE0420FFF764
:101A8000A1FE0E4900F024F801000020FFF7F2FE4D
:101A900002B010BD008000403CB0004030B00040BB
:101AA000002F685900800240008C864700C0024029
:101AB000001BB70040597307006CDC0240420F0066
:101AC00001480421014B184720110020A5180010DF
:101AD000114A936F9B0813D210665166002905D0F6
:101AE000FFE7FFE7FFE7516F106F704704B500286D
:101AF00001D00020C04300F01BFD002104BDC04602
:101B0000F0B5146E556E576F166FFFF7E5FF14664C
:101B1000556657671667F0BD000000D0132370B5F7
:101B20001D78012D19D014DD1F48FFF7B3FE060004
:101B30001E48FFF7AFFE1E4C80223100200000F04F
:101B4000BFF8022D2DD01B48FFF79CFE1A4B1860E2
:101B500070BD1A4B164CA364F5E7184B144C236068
:101B60006360A360E36023616361A361E361236257
:101B70006362A362E36223636363A363E363236437
:101B80006364A364E36423656365A365E365236617
:101B90006366A366E36623676367A367E367A3647B
:101BA000D1E7064BA364CEE7534400005346000040
:101BB000301400204C330000D4170020C11B00104B
:101BC00007B5604601880A0A0230DF2AFAD1C9B295
:101BD000820804D3028840880004104300E00068B3
:101BE000014A5050039007BD301400205143434335
:101BF000C9188C46110C83B24B4310B4040C6143DA
:101C000092B280B2504362431C041B0C001910BCFA
:101C100059411304120CC01851416144704700002F
:101C2000132310B512481C78FFF734FE0100012C75
:101C30000AD003DD80220F4800F042F80E48FFF77B
:101C400021FE0E4B186010BD0A4C5422200000F0FB
:101C500037F80B4B6365A365E36523666366A3668C
:101C6000E36623676367A367E3672362E361E5E7EE
:101C700053460000301500204C330000D4170020DC
:101C8000851C001007B5604601880A0A0230DF2A69
:101C9000FAD1C9B2820804D30288408800041043F4
:101CA00000E00068014A5050039007BD3015002045
:101CB00001480421014B184730110020A5180010DD
:101CC000014B5B68184700003011002010B5002858
:101CD00000D110BD00F038F9FBE7C04610B5094A45
:101CE0000300146884B0002C08D00122009106483B
:101CF000524203A9A047012004B010BD00F06EF9C4
:101D00000020F9E7A8170020CD1C001000BEFDE759
:101D100000207047012040427047C04610B5FFF7D1
:101D2000F5FFC04670B5FFF7FBFD074D074EB54206
:101D300009D20024013E761BB60808CD984723003F
:101D40000134B342F9D170BD8C25001090250010EC
:101D5000030010B5080011001B68984710BDC0466D
:101D6000F0B5C64600B5437D07000C001600002BF9
:101D700046D0002A17DD0B780A2B24D00023984682
:101D8000012E13D001252900635C01350A2B26D0D2
:101D9000B542F8D1464509DCA419013C23780D3B36
:101DA0005A4253413B7580BCB846F0BD4346E018EB
:101DB000A419F11A013C3B68984723780D3B5A421D
:101DC00053413B75EFE7037D002BD7D102210F482C
:101DD0003B689847012EDFD001239846D2E7631E67
:101DE0005B5C0D2BD4D0884504DA4346C91AE01851
:101DF0003B689847022105483B68A8469847C7E7D3
:101E00000368110020009847CDE7C046AC260010BB
:101E1000F0B54546DE464E465746E0B583B091469E
:101E20001C0080460D00FFF701FB0023304A12180A
:101E30004B41002B02DA01222E4B52422E49080060
:101E40008A4600F07DFB07006B1C03D1404600F082
:101E500035FB0500002C27D0284E294B1C68002C90
:101E600018D04B46002B21D1264B994602E024691D
:101E7000002C0FD02368002BF9D04B461B68002B99
:101E800001D09C42F3D120002A004146B04724698A
:101E9000002CEFD1002F26D1280003B0F0BCBB46A8
:101EA000B246A946A046F0BD174ED6E7154B994657
:101EB0000A239B4602E02469002CEBD02368002B08
:101EC000F9D04B461B68002B01D0A342F3D12A0066
:101ED00041462000B0476B465A462000DA71D91DB2
:101EE0000122B047E7E7504600F01AFBD4E7C046AE
:101EF00040420F00FFFFFF7FA8120020611D00106D
:101F00009C170020A4170020511D00100A4A1368D6
:101F1000002B05D10CE01A001B691032002B07D0F2
:101F20008342F8D1002902D1186910601961704705
:101F30000029FCD01060FAE79C17002010B500F0D3
:101F400039F9012010BDC046F0B5CE46474680B5F0
:101F500083B06B460600DD1D2870FFF767FA00238B
:101F6000194A12184B41002B02DA0122174B524238
:101F700017490800884600F0E3FA164B81461C68B2
:101F8000002C14D0144F02E02469002C0FD02368D9
:101F9000002BF9D03B68002B01D09C42F4D12000EB
:101FA00001222900FFF7DCFE2469002CEFD14B460B
:101FB000002B05D1300003B0C0BCB946B046F0BD1F
:101FC000404600F0ADFAF5E740420F00FFFFFF7F0B
:101FD000A81200209C170020A417002070B5040050
:101FE00000F06CFA01230100050001222000FFF738
:101FF0000FFF084B1C68002C06D06368002B05D02F
:1020000098472469002CF8D1280070BD2469002C61
:10201000F3D1F9E79C170020F0B5002915DD0E4B30
:102020000D271A680D4B0E4CD3185D426B414518B5
:1020300020215B001E5F0478A64207D093691942F5
:10204000FCD101301460A842F5D1F0BD936919426A
:10205000FCD11760F2E7C046E01700200080FCBF0B
:10206000DC170020204B70B504000D1E1E682ADD11
:10207000002010211D4B013C1A689369194214D1AC
:10208000013093691942FCD1136823548542F4D17D
:10209000002E08D050239363516B183B0B4014491A
:1020A0008C4662441360280070BD002E08D0502377
:1020B0009363516B183B0B400D498C46624413608F
:1020C0000028F1D10CE0002E0AD05022074B1B68EB
:1020D0009A63596B183A0A4005498C4663441A6062
:1020E00003204042E0E7C04668170020E0170020C8
:1020F00034100000064B10B51B68002B06D00021E1
:10210000044A12689163044A1068984710BDC0469B
:1021100068170020E01700206C1700200822034BEE
:1021200019688B691A42FCD17047C046E01700203D
:10213000F8B51A4F1A4B3A680500D3185842434174
:10214000184E14331C003368002D02D0002B0FD022
:10215000F8BD002BFCD0002120009563FEF792FB18
:1021600020001149FEF7CAFB104B35601D60EFE7F8
:102170000E4B200019600C493560FEF795FB0121DC
:102180002000FEF77FFB50223B689A63596B183A98
:102190000A4007498C4663441A60D9E7E0170020DB
:1021A0000080FCBF68170020F52000106C1700208D
:1021B000341000000D4B10B51B780D4B0D4C1B78E7
:1021C0000D4B02211B780D4B00202360FEF7C6FA51
:1021D00002210120FEF7C2FAE12120684902FFF73F
:1021E00073F901210648FFF791FE10BD1028001079
:1021F0000C280010E01700200828001000400340C1
:1022000040110020F0B5DE4657464E464546904602
:102210000022E0B585B01E000EAB1B7807009B4680
:102220000368DA6601325960DA66002E60DD0279F1
:1022300059469202924601224A4052029446802216
:1022400091465A46802403926246BB4600201021E4
:102250004746B446751EA4000192421B1600724206
:102260007241019E5242164002963E5CB04656466E
:10227000424616433200029E16431E61019E5A6B6F
:102280001142FCD04A469A5801969246002A0AD139
:10229000A84228D00022013092468445DDD1039B1C
:1022A0005F469B4616E05A6D012290465A6B2242C9
:1022B000FCD01A6E42460196002AEBD0039B5F4683
:1022C0009B465346002B15D05346DB0712D453468A
:1022D0001B070FD55B463B7105B0F0BCBB46B24651
:1022E000A946A046F0BD039A002AD3D19046DDE767
:1022F0000020EFE701204042ECE7C046F8B5DE469B
:1023000057464E4645468346E0B505200C00FFF78C
:1023100059FA0600600821008019FFF7D9FB430035
:1023200098468044070005214046FFF7D1FB3B1A41
:102330009A461E4B8146700080199C4231D81C4938
:10234000FFF7C6FB451C5B461C680023E36622685A
:1023500004335A400233134080225201A218136002
:102360005346E3614B462362434601204F2B03D97A
:1023700050214046FFF7ACFBA023E050E36F39004B
:102380005D400C4B2D042D0CE3181D600123300023
:10239000E366FFF79DFBF0BCBB46B246A946A046EC
:1023A000F8BD0549FFF794FB451CCCE73F420F0001
:1023B000809698007C10000040787D010F4A70B52F
:1023C000821A531E9A410E4BD20008321A600D4BEE
:1023D0000D4C1A60150023689D432B1EFAD166240C
:1023E0000268FF340571D5661460633C8833FF3C96
:1023F000D5639563D450FFF781FF70BD581100205D
:1024000000E0004000F0004008C0004010B582B07D
:102410006C46247C0094FFF7F5FE02B010BDC04668
:10242000062010B500F004F80120FFF76FFCC0464D
:10243000154B70B504001D681F281FD89C235B0036
:10244000EB58002B0DD082009B181A68002A08D088
:10245000012A04D0511C0DD00021196090470020A2
:1024600007E0280000F026F822000100280000F014
:102470000DF870BD162301202B60FAE7162301200A
:102480002B604042F5E7C04660110020002370B584
:10249000074D0400080011002B60FFF73BFC431CB4
:1024A00000D070BD2B68002BFBD02360F9E7C0463D
:1024B000A017002010B5FFF72BFC10BD10B5830747
:1024C0000AD00300032102E001330B4205D01A7841
:1024D000002AF9D1181A10BD030019680C4A0D4CD6
:1024E0008A188A4322420FD15968094A04338A184C
:1024F0008A43224208D15968054A04338A188A431C
:102500002242F1D000E001331A78002AFBD1E1E742
:10251000FFFEFEFE80808080F8B5C046000000000F
:1025200001B40248844601BC604700BF5901002045
:1025300001B40248844601BC604700BF810100200D
:1025400001B40248844601BC604700BFC1000020BE
:102550004919001075190010C11A0010B11C0010A3
:102560001D1B0010211C0010E9190010911900100A
:10257000B1190010C5190010950B0010CD190010ED
:10258000150F00101119001061080010B1020010A1
:102590004C43442054455354204F4B004144445233
:1025A0003A203078323700000A2A2A2A2050414E39
:1025B0004943202A2A2A0A000A000000486172645E
:1025C0007761726520616C61726D20256420616C99
:1025D000726561647920636C61696D6564000000F7
:1025E00048617264206173736572740052656C6532
:1025F00061736500626F6F74325F773235713038A6
:1026000030000000322E312E310000007069636FFF
:10261000000000006C63645F746573740000000068
:1026200041756720323020323032350055415254E6
:1026300020737464696E00005541525420737464B1
:102640006F7574005541525420737464696E202F65
:10265000207374646F75740006005250D3F0754295
:10266000EC25001006005250E182887FF42500100E
:1026700006005250ABB360530426001006005250BF
:10268000BBFF3CB60C26001006005250861C03020D
:1026900014260010060052505422A29D202600103D
:1026A00005005250DE65F468043A00100D0A00007F
:1026B0000600525053B4F4A14426001008005250B2
:0C26C000120000000800525092100000B0
:1026CC0080030181B0B0AB70000000008004018178
:1026DC00B0B0ABF00000000080040181B0B0ABF0F2
:1026EC000000000076B20181B0ABF0800000000069
:1026FC000FB20181B0AB108000000000800A018194
:10270C00B0B0ABF0000000003F010181B0AB7080B5
:10271C000000000080040181B0B0ABF000000000AC
:10272C00A8DBFF7FB0A8018034DCFF7F0100000034
:10273C0038DCFF7F8CFFFF7F0CDDFF7F90FFFF7F7E
:10274C00D4DEFF7F0084028004DFFF7F8CFFFF7FDD
:10275C00F8DFFF7F01000000D0DAFF0FB0A9048082
:10276C005CDBFF0FB0B0A880B0DBFF0F01000000F6
:10277C00B8DBFF0FB0B0AA80ECDBFF0F68FFFF7F68
:10278C00BCDCFF0FAB3F3A8008DDFF0FB0B0A88078
:10279C0014DDFF0FB0B0AA8054DDFF0FB0B0A880DD
:1027AC0068DDFF0F0100000018DEFF0F44FFFF7F04
:1027BC0088DEFF0F48FFFF7F58E1FF0FB0B0A88005
:1027CC0074E1FF0F44FFFF7F18E4FF0F01000000CE
:1027DC0088E5FF0F40FFFF7F74E8FF0F010000004A
:1027EC005826001064260010702600107C2600105D
:1027FC008826001094260010A0260010C426001075
:08280C00BC260010B0260010EC
:10281400F0B5C646150000B504001E000268EFF3CB
:10282400108172B61368002BFCD0BFF35F8F0423B2
:10283400E3562268002B2BDBBFF35F8F0020106070
:1028440081F31088D02212061278002752B29046E3
:102854009A420ED1002080BCB846F0BDBFF35F8F12
:10286400176081F310882800310000F09DFF0028D4
:10287400F0D12268EFF3108172B61368002BFCD0FC
:10288400BFF35F8F237922687F2BE7D9434602E0A9
:10289400D0231B061B682371BFF35F8F00231360D3
:1028A40081F310880120D6E70268EFF3108172B635
:1028B4001368002BFCD0BFF35F8FFF230371036801
:1028C400BFF35F8F00221A6081F3108840BF704706
:1028D4007047C04603685A0004D580221206134389
:1028E400C01870475B005B08FAE7C046F8B54E466F
:1028F4004546DE46574680469146E0B500292AD033
:102904004B1E9B469A4600275346FB18DC0FE418DF
:1029140043466410E5005E193000FFF7DBFFA34572
:1029240010D0484509D8083528004044FFF7D2FFA5
:102934000138484508D2671CE6E7A7420BD0631E5E
:102944009A46E1E74845F8D83000F0BCBB46B246A9
:10295400A946A046F8BD0026F6E7C04603000128B4
:1029640008D0022804D00020002B00D10248704770
:102974000248FCE70248FAE71D0900203509002057
:102984002909002030B5214B050085B08C1E002B91
:1029940026D0200003A900E000BF00281DD0039921
:1029A4002200FFF7A3FF041E17D0FFF793FF63680D
:1029B400A864012B27D0201D002B22DBFFF78AFF00
:1029C40000232B650368E864002B0FDBFFF782FF0D
:1029D400030000202B6105B030BD00230920F9E776
:1029E4000B4B0C481B1AD9100391D9E71801000F9F
:1029F400FFF7B4FF03005A425A41092052421040E3
:102A0400E8E70123DDE700230520E3E700000000F9
:102A1400EC2700102C270010036810B50400DA0717
:102A240005D49B070AD5503000F0A2FC23685A074E
:102A34000AD51A070FD5DB0615D510BD503000F0A6
:102A440093FC23685A07F4D42000D83000F094FC97
:102A540023681A07EFD420005930FF3000F090FCAF
:102A64002368DB06E9D42000D930FF3000F08CFC69
:102A7400E3E7C04603000068002800D0C018704790
:102A84007047C04670B504000D002000296CFFF7A4
:102A940079FF002811D12B6C2A00636121000120E9
:102AA400236998470828F0D0072806D10020296C0C
:102AB400FFF7E6FF281D00F041FC00F085FEC0464C
:102AC400F0B5DE464E4657464546E0B5C368314C40
:102AD4009946A5448369050016000431402203A8E1
:102AE4009A4600F069FE002302937CAB9B4602AC3D
:102AF40023E0F422236C21006B615200584600F05D
:102B04005BFE5A4629002B69404698475B469B6BFF
:102B14000700A36453462A00019331002B000120CF
:102B24000094C84700282CD1F422594620005200B2
:102B340000F042FE0026082F21D12800216CFFF767
:102B440021FF0936F3B2071E9846D2D0A36B102199
:102B5400A36443460B43190053462A000193012002
:102B64002B000094C84700280BD13800F7239B00A2
:102B74009D44F0BCBB46B246A946A046F0BD072F13
:102B840001D00927F1E73000216CFFF779FF03A892
:102B940000F0D4FB24FCFFFFF0B5CB6BFBB00500C9
:102BA4000B640F004022043101A800F005FE01234C
:102BB4005B426E46009306E0320029002B69984779
:102BC4000400082808D12800316CFFF7DBFE002838
:102BD400F2D009207BB0F0BD3000FFF71DFF062CBA
:102BE400F7D139002800FFF74DFFC04610B58261C8
:102BF400DA6BC1601A6419000022FFF761FF10BD8F
:102C0400436970B50B64C36804000D00002B13D135
:102C14000A000369010002209847072805D0082804
:102C24000FD129002000FFF72DFF0020296CFFF7AA
:102C340027FF281D00F082FB0122FFF741FF00F06F
:102C4400C3FD00F0C1FDC046C36810B5002B05D01C
:102C5400CB6B00220B64FFF733FF10BDFFF79CFF23
:102C64000920FAE7042908D802291AD800290BD028
:102C7400481E431E98410130704705290FD1436C0B
:102C8400009A00201360F7E7002B08D10F2A06D81A
:102C9400920080184368009A00201360ECE7022039
:102CA400EAE70120E8E7C04600B585B003AB0A00B7
:102CB400009300210023FFF7D5FF039805B000BD62
:102CC400042908D802291AD800290BD0481E431E0B
:102CD40098410130704705290FD1009B1B6843645C
:102CE4000020F7E7002B08D10F2A06D8009B92009A
:102CF4001B68801843600020ECE70220EAE701200B
:102D0400E8E7C04600B585B003AB039200930A0020
:102D140000230021FFF7D4FF05B000BDF0B5C6467F
:102D240000B51B4CD36BA544070013640E0017A811
:102D3400111D402200F040FD01235B426D461693B5
:102D440016AC13E00C2120002A00FFF7DBFF310052
:102D54002000B84700280FD1220029002B69083031
:102D640098478046052809D0092805D02800216CF9
:102D7400FFF708FE0028E5D0092398462000FFF756
:102D84004BFE404690239B009D4480BCB846F0BD5A
:102D9400C0FDFFFFF0B5454657464E46DE46E0B55A
:102DA4000D000321EC6C8BB0160004CC07AF9446E5
:102DB400B84601400894002B21D0170C42465772A4
:102DC400624612040792FF223A409200A41802229B
:102DD40047463A72022900D1AC6B2A6DD20713D54B
:102DE4004146300000F066FB002800D0D6E0082001
:102DF4000BB0F0BCBB46B246A946A046F0BD1202D9
:102E040007927B720322E3E722689346002AE7D005
:102E140008220240039200220127AA46B1460492E6
:102E240002910193019B022B48D0238865889B461D
:102E3400043453462E009B6C0F214846BE43F618BB
:102E4400FFF732FF0023864205D85B46BB439B193C
:102E540098429B415B4202226D0015405A463A401B
:102E64001543012D44D0022D2BD0002D00D095E028
:102E7400029A002A02D0002B00D0B8E00434236860
:102E84009B46002BCED14E464146300000F012FB4B
:102E9400002800D082E0049B002BA8D00F21300032
:102EA400FFF702FF0E2102003000FFF72BFF300076
:102EB4000F216D4AFFF726FF072099E7656808345C
:102EC400B7E725686A0052089346029A002A49D156
:102ED400002B05D0039B002B62D05B46002B5FD0F8
:102EE400002D00DA04345B4601339B00E418C6E786
:102EF400029A002A19D1002B15D025686368ED0FBA
:102F04009A1C4BD0524658320692013300D19AE0B3
:102F1400201DFFF7AFFD2A00010006AB504600E07C
:102F240000BF002877D10834A9E753460D2148464D
:102F34001D6AFFF7B9FE8542F5D153469B6A9C4250
:102F4400F1D155464E462000FFF7C4FC0F21020084
:102F54003000FFF7D7FE30002A000021FFF7D2FE31
:102F6400072045E753460D2148461E6AFFF79CFE9D
:102F74008642B5D153469B6A9C42B1D153465A46C8
:102F84009A6252460023D36204331363231D5363AE
:102F94002368002B61DB01230493A4E7092027E7BE
:102FA4005823534405935B46261DA34600251C0065
:102FB4000EE0059B30000693FFF75CFD0022010044
:102FC40006AB504600E000BF01350436002835D179
:102FD400A542EED14E460D213000FFF765FE554661
:102FE4005C46069B28626B620620AC6200E7200008
:102FF400FFF770FC554604340700AC6328004E46C6
:1030040000E000BF0028C9D030003A000F21FFF7CC
:1030140079FE0720ECE64E4681460D213000FFF78D
:1030240043FE55464B46069F2862022B02D1EF62AF
:103034002F002C3706206F62AC62D9E623005C4671
:103044009B4625684CE74E460D2130005546924676
:10305400FFF72AFE57462862ECE758460130800005
:1030640055464E4620186FE70000000010B50023B7
:10307400FFF790FE10BDC04610B50123FFF78AFE8E
:1030840010BDC04610B50223FFF784FE10BDC04634
:10309400F0B54646D6464F46C0B5050014001E009E
:1030A400C2B0052907D8A44B89005B589F461B1959
:1030B400102B00D8B2E0022042B0E0BCBA46B146C0
:1030C400A846F0BD836B002AF5D104CB4264836328
:1030D4000020F1E7002EEED1002301271604826BB5
:1030E400360C011D38009840064201D001CA086020
:1030F40001330431102BF5D1A404E9D40020AA63D0
:10310400DAE7032ED7D11404160C240C3319102B30
:10311400D1D8082203681A4200D0D6E020AF380084
:1031240000F030F9AB6B61009C46F6004A1E0029A2
:103134000AD0F61A043EBE191800006804339851E8
:10314400013AF9D2E400A44463463800AB6300F0CA
:1031540017F90020B0E7130C14049846240C012E30
:10316400A5D0052EA7D11F19202FA4D80F2B00D826
:103174008CE0002CACD004220368A2461A4204D08E
:1031840093430360D83000F0F9F8E946684600F04C
:10319400F5F8A96B534647465C00102F00D2102760
:1031A400013C22000023103FFF004F44C858F85050
:1031B4000433013AFAD20431A400091920AF012ED4
:1031C40000D1A5E04346A9630F2B00D8A7E04846E9
:1031D40000F0D2F800206FE7002E00D06BE7102A31
:1031E40000D968E7102203681A4267D120AF38007B
:1031F40000F0CCF8012639000023AA6B3000984077
:10320400044201D001CA086001330431042BF5D112
:103214003800AA6300F0B8F800204DE74346102BAD
:1032240000D148E703681E4206D0032228009343D6
:103234002B60503000F09AF820AF380000F096F878
:10324400A96B002C64D000239A4643466200DC003C
:10325400531E99461A0000233C19C858E050043301
:10326400013AFAD24B4604319B0059185346E946B9
:10327400002B8FD1012E4BD04346A9630F2B00D9CD
:1032840026E7380000F074F8002015E70122110049
:1032940003681940102F1FD8002907D09343022236
:1032A400280013432B60503000F064F820AF38003E
:1032B40000F060F8002CE4D0A96BC4E793430360EA
:1032C400D930FF3000F062F890E79343036059303F
:1032D400FF3000F057F821E7002907D0934302227A
:1032E40013430360503000F045F82B685A071AD492
:1032F40010235B429A46BA4420AF380000F03AF8F3
:10330400684600F03BF810244346A96BE41A9CE796
:1033140004313800A96300F027F80020CCE620A887
:1033240000F026F853E70422280093432B60D8309A
:1033340000F024F8DCE7C046881000200100343196
:1033440038C9043B9C461D60A646010020313CC997
:1033540090469946A246AB4601000831FCC9416833
:103364000068E54600BDC0467047C0467047C04689
:103374007047C0467047C0467047C0467047C04655
:103384007047C0467047C0467047C0467047C04645
:1033940001B401A801B585B0FFB408A841464A4666
:1033A40053465C4665463EC001A83EC80F9800904F
:1033B40000230CB401A9FFF7EFFB109B12B01847D0
:1033C40001B401A801B585B0FFB408A841464A4636
:1033D40053465C4665463EC001A83EC80F9800901F
:1033E40000230CB401A9FFF70BFC109B12B0184783
:1033F40001B401A801B585B0FFB408A841464A4606
:1034040053465C4665463EC001A83EC80F980090EE
:1034140000230CB401A9FFF717FC109B12B0184746
:1034240001B401A801B585B0FFB408A841464A46D5
:1034340053465C4665463EC001A83EC80F980090BE
:1034440000230CB401ABFFF7D1FB109B12B018475B
:1034540001B401A801B585B0FFB408A841464A46A5
:1034640053465C4665463EC001A83EC80F9800908E
:1034740000230CB401AAFFF751FC109B12B01847AB
:10348400027A0300002A0BD1427A002A0FD0013AB3
:1034940042724268111D416003211268017202E008
:1034A400013A02720268100E12021A607047B020CC
:1034B400FCE7C046F0B50023454657464E46DE4677
:1034C4009846E0B506000D000F2785B02800FFF7E9
:1034D400D7FF0400B02800D128E1030637D5030044
:1034E400BB43DBB2A02B00D18DE012D8802B69D076
:1034F400902B24D10D2303400D2B20D00F2202AC9E
:1035040002400023002130000094FFF7ABFB00943D
:1035140033E0B02B6DD0C02B39D007220300934386
:10352400DBB2D02B0BD18023024001321B031A43A0
:10353400012105233000FFF7ABFD0028C6D0092088
:1035440005B0F0BCBB46B246A946A046F0BDFF2379
:103554008200134004339A4602AB0D22009399462D
:10356400002100233000FFF77DFB5346029A9B188D
:10357400640609D402934B46009300230D220021D4
:103584003000FFF79DFBA1E75346D31AF2E7C628A4
:1035940000D1ACE0C72800D1CDE0F8230340C02B14
:1035A40000D1DAE0C82800D1DDE0C928C7D128005D
:1035B400FFF766FFF0220303120313400F220240B9
:1035C4000132B4E704022800FFF75AFF80230443C2
:1035D4001B029C42B3D02405002300213000220C9E
:1035E400FFF756FD0028AAD14346E40F234398462B
:1035F4006CE703004F33DBB2042B00D98BE0694A3C
:103604009B00D3589F46FF21072309010A008343E7
:103614001A410A40240702D58023DB011A43002300
:1036240000213000FFF734FD002800D14EE786E783
:103634000023002205213000FFF72AFD002800D1D5
:1036440044E77CE72800FFF71BFFF0220303120383
:1036540013400F22024001321A430121012330009A
:10366400FFF716FD002800D130E768E702AB0D2212
:1036740000210093994630000023FFF7F3FA280055
:10368400FFF7FEFE43B2029C002B00DB87E002231F
:103694009A467D339B465B46184053469840072321
:1036A4009C46241828000294E244FFF7E9FE43B242
:1036B400002BF0DB5346984081239B009C464B46ED
:1036C400644400190290009357E72800FFF7D8FEDE
:1036D400431EDBB202000E2BA1D930E703AB0093EB
:1036E4000D22002300213000FFF7BCFAEEE628008B
:1036F400FFF7C6FEF0220303120313400F22024019
:1037040001321A43032103233000FFF7C1FC0028D0
:1037140000D1DBE613E7FC230340B42B00D10EE712
:103724000723802203400133120395E74346002B0D
:1037340025D0002004E72800FFF7A2FE431EDBB2D9
:1037440002000E2B00D9FAE6002304213000FFF713
:103754009FFC002800D1B9E6F1E6A022B13B03406A
:1037640001331203CDE72800FFF78AFE0F2302007E
:103774009A43D2B21032034012030133D7E602ACAB
:103784000E22002130000094FFF76CFA00230F2270
:10379400002130000094FFF793FA0020D0E60223C2
:1037A4009A4687E7A010002001B40248844601BC71
:1037B400604700BFFD12001001B40248844601BCFA
:1037C400604700BFC11C001001B40248844601BC1C
:1037D400604700BF2124001084090020060A00204D
:1037E40066090020B2090020880A0020740900201C
:1037F4007A0F00201C0F0020F40E0020E00E0020A1
:103804008C0F0020100000000000000000000100E8
:1038140000000000000000000000020000000000A2
:103824000000000000000300000000000000000091
:103834000000FF000000000001B5486801318E4619
:103844000047704609380149884701BDD10A001074
:103854000000000000000000000000000000000064
:1038640000000000B0120020000000000000000072
:10387400503300004C330000543300005233000036
:103884004D5300004D430000533400004334000006
:10389400192000101D210010652000103121001096
:1038A400000000000001000000400440000000008F
:1038B4006811002000000000000000003016002005
:1038C40098160020001700200000000000000000EF
:1038D40000000000000000000000000000000000E4
:1038E40000000000000000000000000000000000D4
:1038F40000000000000000000000000000000000C4
:1039040000000000000000000000000000000000B3
:1039140000000000000000000000000000000000A3
:103924000000000000000000000000000000000093
:103934000000000000000000000000000000000083
:103944000000000000000000000000000000000073
:1039540001000000000000000E33CDAB34126DE610
:10396400ECDE05000B000000000000000000000079
:103974000000000000000000000000000000000043
:103984000000000000000000000000000000000033
:103994000000000000000000000000000000000023
:1039A4000000000000000000000000000000000013
:1039B4000000000000000000000000000000000003
:1039C40000000000000000000000000000000000F3
:1039D40000000000000000000000000000000000E3
:1039E40000000000000000000000000000000000D3
:1039F40000000000000000000000000000000000C3
:04000005100001E9FD
:00000001FF
