:020000041000EA
:1000000000B5324B212058609868022188439860DF
:10001000D860186158612E4B002199600221596106
:100020000121F02299502B49196001219960352056
:1000300000F044F80222904214D00621196600F024
:1000400034F8196E01211966002018661A6600F04E
:100050002CF8196E196E196E052000F02FF8012189
:100060000842F9D1002199601B49196000215960AB
:100070001A491B48016001219960EB211966A021F2
:10008000196600F012F800219960164914480160C1
:100090000121996001BC002800D000471248134993
:1000A000086003C880F30888084703B5996A0420EC
:1000B0000142FBD001200142F8D103BD02B5186610
:1000C0001866FFF7F2FF186E186E02BD00000240BE
:1000D000000000180000070000035F00212200005C
:1000E000F4000018222000A00001001008ED00E03C
:1000F00000000000000000000000000074B24E7A12
:1001000000200420F7010010C3010010C5010010F9
:10011000C1010010C1010010C1010010C101001097
:10012000C1010010C1010010C1010010C701001081
:10013000C1010010C1010010C9010010CB01001065
:10014000CD010010CD010010CD010010CD01001037
:10015000CD010010CD010010CD010010CD01001027
:10016000CD010010CD010010CD010010CD01001017
:10017000CD010010CD010010CD010010CD01001007
:10018000CD010010CD010010CD010010CD010010F7
:10019000CD010010CD010010CD010010CD010010E7
:1001A000CD010010CD010010CD010010CD010010D7
:1001B000CD010010CD010010CD010010CD010010C7
:1001C00000BE00BE00BE00BE00BE00BEEFF3058054
:1001D000103800BEF2EB8871289C01104C9C011075
:1001E0003802001090A31AE71E481F49086006C88D
:1001F00081F3088810471D480068002801D019487D
:10020000F3E70DA40ECC002902D000F012F8F9E7B4
:100210001749184A002000E001C19142FCD116495B
:100220008847164988471649884700BEFDE701C937
:1002300001C29A42FBD370474C9C0110C0000020C1
:10024000A825002034C10110000004200000042073
:1002500034C1011000100420001004200000000030
:10026000704700000000000008ED00E0000000D032
:10027000A8250020E8360020E17F0010B10300101F
:10028000D97F0010F8B5C04606480749091A8B10F7
:10029000C90FC91810B5491003D0044B002B00D06A
:1002A000984710BDA8250020A825002000000000C8
:1002B000054B10B5002B03D00449054800E000BFF2
:1002C000FFF7E2FF10BDC0460000000078360020B6
:1002D000A0620110F0B5D6464F464646C0B50700AD
:1002E00084B02C4808F096F82B4808F093F82B4B74
:1002F000002499462A4B9A462A4B98460F23782584
:100300001E0025402640234214D0002D2DD0782DEC
:1003100016D1404608F002F90F2E36D00134802C59
:10032000ECD1214808F076F804B0E0BCBA46B146FA
:10033000A846F0BD21001D4808F0F0F8002D1ED0A1
:1003400000230F223868E1B200936A4401330AF0B7
:100350001FFE00280FDB2100484608F0DFF80F2EB3
:10036000DCD10A2008F00CF8D8E70E4D280008F080
:10037000D5F80134C2E7504608F0D0F8EFE7094D50
:100380000124280008F0CAF8F0E70A2007F0F8FF77
:10039000C7E7C046A0620110B8620110FC620110FC
:1003A000F8620110F462011004630110EC620110A4
:1003B000F0B5DE46454657464E46E0B5F7B007F085
:1003C0008FFFEF4BEF4819000D9308F0A7F8EE48A8
:1003D00008F020F8ED4BEE4A1900EE480E920F930C
:1003E00008F09CF8EC4808F015F8FA20C00004F07A
:1003F00015FDEA4BEA499B4618000AF097FD0321D8
:10040000082003F0C9FC0321092003F0C5FC0022E9
:100410000121082003F0DAFC00220121092003F069
:10042000D5FCDF4B09220821DE4808F077F82722A7
:10043000594614A800F0A6FBDB4D280007F0EAFFA0
:1004400014A800F013FC14A800F026FED74807F00B
:10045000E1FF14A916A803F029F916A803F02CF956
:1004600016A803F05FF90022D14916A803F0ACF9F1
:100470005B4612A81293FFF72DFF0023272100935C
:10048000584601334DAA0AF083FD002800DA07E33D
:100490002721C84808F042F80122C74916A803F0EE
:1004A00051FAC64C1422210016A803F08DF9280039
:1004B00007F0B0FF14A800F0D9FB14A800F0ECFD81
:1004C0001422210016A803F07FF91FAB98460D22D5
:1004D0000E230C21404601F08FFE404601F0A6FE9F
:1004E0000E230D220C21B64808F018F80122B54958
:1004F00016A803F027FA2822B34916A803F064F9D6
:1005000014A913A801F0B6F913A801F0B5F914A9BC
:1005100019A801F051FCAD4B19A81E9301F05AFC2B
:10052000AB4807F077FF0122AA4916A803F00AFAA0
:100530003C22A94916A803F047F901230393F43399
:10054000FF330293FE239B0501930B2328AD0093F9
:1005500000222800A149013B01F0DAF8280000F050
:100560009BFE0B220A219E4807F0D8FFFA235B006E
:10057000009300229B489C4B07F0D0FF01229B492F
:1005800016A803F0DFF99A4C5022210016A803F0B8
:100590001BF919AB009342462B0014A94DA801F09A
:1005A000EFFE4DA801F036FF924807F033FF01221D
:1005B000210016A803F0C6F964228F4916A803F09B
:1005C00003F916A803F00EFA8C4807F023FF8C48B5
:1005D00007F020FF8B4807F01DFF002306930C93C4
:1005E000894B0A9304F030FD002900D127E2FA225A
:1005F0000023920005F0B0F80990280000F0D2FE28
:10060000404601F077FE404601F056FE002813D028
:100610002A220AABFF329B181B78002B06D04DA86C
:1006200002F0B0FF322004F0F9FBDBE7774807F077
:10063000F1FE4DA802F0E4FB2A220AABFF329B1820
:100640001B78002BEBD1002007F04EFE43383328F7
:1006500056D86F4B80001B589F466E4807F0DAFE55
:10066000A86E05F005FF02000B006B4807F056FF6F
:10067000280001F09DF805F0FBFE02000B00674822
:1006800007F04CFF2800514901F0A8F805F0F0FEF2
:1006900002000B00624807F041FF686F05F0E8FEBA
:1006A00002000B005F4807F039FF296F5E4807F032
:1006B00035FF280001F0AAF805F0DAFE02000B0071
:1006C0005A4807F02BFF5A4807F0A4FEA96F594873
:1006D00007F024FFE96F584807F020FF8423EB5C04
:1006E000002B00D1DAE15549554807F017FF8C235C
:1006F000EB5C002B00D1CFE15249534807F00EFFCD
:100700006B699946069B4B4504D1099B0C9A9B1A31
:10071000632B2ED9280001F039F8011C0023002298
:1007200013A801F0D5FAAE6FEF6FF01905F073FE64
:10073000464905F01AFEFE218905041C05F066FEF7
:10074000002801D0FE24A40584233200E95C19A806
:100750003B0001F091FC290019A801F027FC211CA5
:1007600019A801F0B9FC069B4B4500D06DE1099B2F
:100770000C93012004F052FB4B46069332E7C0462F
:100780005C6301106463011078630110A8630110B9
:100790009C630110B4630110C46301102820002081
:1007A000801A0600E0630110186401103C64011017
:1007B0005C6401106C64011090640110006501100C
:1007C0000C650110506501106065011000002041AA
:1007D0007065011098650110A4650110000020509B
:1007E000B4650110E46501100000F03F14660110CB
:1007F000246601103066011054660110686601100D
:100800009466011000670110FC6201104C67011032
:10081000887D011000690110286901104C690110E0
:100820006069011088690110A4690110BC69011098
:10083000D8690110F46901100C6A011020630110DD
:10084000286A011028630110446A01100000C842A0
:100850009C4807F0DFFD9C4807F0DCFD9B4B002126
:1008600018009A4607F05AFE994B1800994607F06F
:1008700055FE012601247827964B0B933B0023401D
:10088000274210D0782B1DD1484607F047FE0F2E87
:1008900000D1CDE00134802C2CD00F263B00264027
:1008A00023402742EED1484607F038FE0F2E25D0D0
:1008B00001340F231E0026402342DFD12100504681
:1008C00007F02CFE0AA8002384461F2200935846F6
:1008D000E1B2013362440AF05BFB002800DA9DE0DC
:1008E00021000A9807F01AFE0F2E00D19CE0013477
:1008F000802CDED1784807F08DFD01E70A2007F053
:100900003FFDD5E7002375486B6107F083FDF7E6EF
:10091000734807F07FFD734807F07CFD72480D991E
:1009200007F0FCFD71480F9907F0F8FD70480E992B
:1009300007F0F4FD6F4807F06DFD6F4807F06AFDA2
:10094000DEE66E4807F066FD6D4807F063FD6D4812
:1009500007F060FD6C4807F05DFD6C4807F05AFD3C
:100960006B4807F057FD6B4807F054FD6A4807F0E5
:1009700051FD6A4807F04EFD694807F04BFD694894
:1009800007F048FD684807F045FDB9E6674807F0FD
:1009900041FDB5E6280000F055FF654807F03AFD37
:1009A000AEE68C220121AB5C28004B40AB5400F03A
:1009B00073FC8C23EB5C002B68D05E495E4807F02B
:1009C000ADFD9DE65D4807F025FD404601F0AEFC1B
:1009D0005B4B0100180007F0A1FD43465948196917
:1009E00007F09CFD43461B7D002B53D056495748CA
:1009F00007F094FD43465648D96907F08FFD2A2237
:100A00000AABFF329B181B78002B41D0514952484A
:100A100007F084FD514807F0FDFC71E60B9807F0E4
:100A20007DFD0F2E00D062E70A2007F0A9FC5EE7EB
:100A30000A2007F0A5FC284807F0ECFC60E6FA2144
:100A4000890004F04BFE0990D7E5280000F09EFED7
:100A500005F00EFD06900791A86E05F009FD060051
:100A600028000F0000F0A4FE00223D4B3D4C0492F4
:100A7000059305F0FDFC069A079B029003910096F2
:100A800001974946200007F049FD70E6364995E791
:100A90003649BCE73649AAE736492EE6334923E60C
:100AA0002721354807F03AFD344807F0B3FC00220F
:100AB000334916A802F046FFF3E4404601F0ACFBD0
:100AC0000AF014FCA0620110B8620110EC6201107F
:100AD000F4620110F86201100463011080670110D4
:100AE000506A0110746A0110A06A0110B06A011006
:100AF000C06A0110D06A01100C6B011098670110D8
:100B0000AC670110C8670110DC670110F8670110BD
:100B100020680110386801105868011078680110C9
:100B200090680110A4680110C06801100C6C0110DD
:100B3000486B011014630110E8680110686B011024
:100B40008C6B0110986B011048630110A86B0110A9
:100B5000B46B011020630110C86B0110DC6B011035
:100B600000408F40446C0110186301102463011091
:100B7000506301103863011094640110C4640110C3
:100B80009064011008230160027143717047C046F0
:100B9000F0B5D6464F464646C0B5437904001A43E1
:100BA00008000F23984303000D27002584B0090196
:100BB00003AE6F4413430A4333703A702179320015
:100BC0002068012300950AF0D9F90E226A44904664
:100BD0000422914692464A46414633780F261A43EC
:100BE0000A7052466E449343337042462179012382
:100BF000206800950AF0C2F90120002104F098F85D
:100C0000320021790123206800950AF0B7F93220DB
:100C1000002104F08DF821793A0020680123009525
:100C20000AF0ACF94A4641463B7820681A430A70FC
:100C300052469343337042462179012300950AF0CE
:100C40009DF90120002104F073F82179012332007D
:100C5000206800950AF092F93220002104F068F82B
:100C600004B0E0BCBA46B146A846F0BDF0B5DE46D9
:100C700057464E464546E0B5040085B0322004F0A4
:100C8000CDF830239B460D265A46002563796E44E5
:100C900013433370217932002068012300950AF054
:100CA0006DF90E226A4490460422914692464A46C5
:100CB000414633780F271A430A7052466F449343D4
:100CC0003B70424621790123206800950AF056F9CD
:100CD0000120002104F02CF83A000123217920683A
:100CE00000950AF04BF90021322004F021F805208C
:100CF00004F094F85A4663792068134333702179DD
:100D00003200012300950AF039F94A46414633780A
:100D100020681A430A70524693433B704246217939
:100D2000012300950AF02AF90120002104F000F8BF
:100D30003A0001232179206800950AF01FF932203A
:100D4000002103F0F5FF6420002103F0F1FF5A4673
:100D500063792068134333702179320001230095B1
:100D60000AF00CF94A464146337820681A430A7063
:100D7000524693433B7042462179012300950AF085
:100D8000FDF80120002103F0D3FF3A00012321796F
:100D9000206800950AF0F2F83220002103F0C8FF25
:100DA0006420002103F0C4FF2022637920681343EC
:100DB000337021793200012300950AF0DFF84B46A9
:100DC00041463278206813430B7053469A433A7079
:100DD00021794246033B00950AF0D0F8012000211A
:100DE00003F0A6FF01233A002179206800950AF05C
:100DF000C5F83220002103F09BFF200000222821AB
:100E0000FFF7C6FE200000220C21FFF7C1FE0022E2
:100E100001212000FFF7BCFE022003F0FFFF0022AB
:100E200006212000FFF7B4FE022003F0F7FF05B013
:100E3000F0BCBB46B246A946A046F0BD10B50022A4
:100E40000121FFF7A5FE022003F0E8FF10BDC04618
:100E500000B50C4B83B00193131C032A00D9032364
:100E6000DBB20A1C0F2900D90F2201A9CB5C80211B
:100E70009B18494219430022C9B2FFF789FE03B00B
:100E800000BDC04600401454F0B5DE4657464E46FD
:100E90004546E0B58B460978040085B000296AD044
:100EA00003AB9A460D236B4499460E230F276B44E0
:100EB000984600256F4401230A000F2056469C46A1
:100EC000637982431A430E38024332704A4609015D
:100ED0000B43034313702179012352462068009588
:100EE000E3440AF04BF8337804261A0041463243B3
:100EF0000A70042293433B70424601232179206803
:100F000000950AF03BF80120002103F011FF0123B6
:100F10003A002179206800950AF030F8322000214B
:100F200003F006FF217901234A46206800950AF064
:100F300025F84B46042241461B7820681E43934304
:100F40003B700E7001234246217900950AF016F895
:100F50000120002103F0ECFE012321793A002068F2
:100F600000950AF00BF80021322003F0E1FE5B4609
:100F7000197800299FD105B0F0BCBB46B246A946FE
:100F8000A046F0BD0EB4F0B5DE46454657464E4687
:100F9000E0B5A4B02DAB04CB04AD04008021280043
:100FA000039306F089FF2A78002A6BD002AB9A4699
:100FB00009236B449B460A230B276B44A94698469A
:100FC00000256F44012311000F209C466379814363
:100FD00012015646194313435A460E380143034340
:100FE0001370317021790123524620680095E14445
:100FF00009F0C4FF337804261A00414632430A70D0
:10100000042293433B7042460123217920680095D6
:1010100009F0B4FF0120002103F08AFE01233A0009
:1010200021792068009509F0A9FF3220002103F002
:101030007FFE217901235A462068009509F09EFF22
:101040005B46042241461B7820681E4393433B7055
:101050000E70012342462179009509F08FFF01208F
:10106000002103F065FE01233A00217920680095F4
:1010700009F084FF3220002103F05AFE4B461A7813
:10108000002A9FD124B0F0BCBB46B246A946A04678
:10109000F0BC08BC03B01847082343717047C04632
:1010A000CB003821F0B5DE46574645464E4619403E
:1010B0004023E0B5194387B0170000220400FFF772
:1010C00067FD08239C46BC44634602AA039305AB14
:1010D00094469A460D2363449B460E2363449946E7
:1010E0000F2363449846002539780F200A0056469E
:1010F000637982431A430E38024332705A4609011B
:101100000B43034313702179012352462068009555
:1011100009F034FF337804261A00494632430A7036
:101120000422414693430B704A46012321792068EB
:10113000009509F023FF0120002103F0F9FD0123B0
:10114000424621792068009509F018FF32200021DD
:1011500003F0EEFD217901235A462068009509F03D
:101160000DFF5B4604221B7849461E4393434246CB
:101170000E701370217901234A462068009509F00A
:10118000FDFE0120002103F0D3FD01232179424619
:101190002068009509F0F2FE3220002103F0C8FD1E
:1011A000039B0137BB429FD107B0F0BCBB46B246A0
:1011B000A946A046F0BDC046F0B5D6464F464646C5
:1011C000C0B5040043790F220800904302000D26A9
:1011D00001200025090184B01A430B4303AF6E447C
:1011E000024303433A70337021793A0020680123A7
:1011F000009509F0C3FE0E226A44904604229146EF
:1012000092464A4641463B780F271A430A70524697
:101210006F4493433B704246217901232068009537
:1012200009F0ACFE0120002103F082FD3A00217993
:1012300001232068009509F0A1FE3220002103F06F
:1012400077FD2179320020680123009509F096FE90
:101250004A464146337820681A430A7052469343FF
:101260003B70424621790123009509F087FE012059
:10127000002103F05DFD217901233A0020680095EB
:1012800009F07CFE3220002103F052FD04B0E0BCE6
:10129000BA46B146A846F0BDF0B5CE4647468C23C7
:1012A00080B5C35C040087B0002B4AD03A4940683F
:1012B00009F078FEE368C201984680235B0202933E
:1012C000031D1B0313430393F82243461203DB035E
:1012D00013400593314B65680493314BA668EC18B5
:1012E000240D0634E4B207002100404602F054FD0C
:1012F0000123434418002100994602F04DFD0023CC
:101300004246310000932800023309F0C7FE002254
:101310000121404602F05AFD00220121484602F018
:1013200055FD3A0002AB3100280009F011FF0123FE
:10133000B3402A6813432B6007B0C0BCB946B0461F
:10134000F0BD0125C06802F0E9FD206902F0E6FD6C
:101350002B00E068D02683402A003606B36223695A
:1013600001219A40B262002202F030FD00220121E8
:10137000206902F02BFD2800216972688840024034
:10138000511E8A41E16873688D402B40591E8B4184
:10139000520013432376CFE7947E011000000880AB
:1013A0000000E0AFF0B54546DE4657464E46E0B594
:1013B00091B0050003F048FE002900D148E1FA226F
:1013C0000023920004F0C8F90C906B690B938C23F6
:1013D000EB5C9846002B00D119E101263000C44B8C
:1013E000AA681F6890400E970B9F0F9203970E9F5D
:1013F000083204970027BA460797019705970337E5
:10140000BC46BC4F08901000BB464746BA4C9640BD
:10141000226869689146B94A80000D921278099451
:101420000A934B68089C1C4207D001239846C1448C
:101430004B683342FCD1435801974B681C00344041
:101440000294334200D032E10023102498460695DE
:101450001300624645582A409A4209D05D469B00D7
:101460001343DBB2EB56002B00D1BAE09844BA46E6
:101470004B68334202D1013C002CE9D1A04B049CC3
:101480009B6A069D1C1B06939E4B9C4200D9B9E0AB
:101490004B4602934346002B00D0A7E00798099CD7
:1014A0000A9B002801D0049818605346002B01D0F5
:1014B0000D9B1A70019B002B01D0029B2360059BA2
:1014C0000A2B00D1E5E04B68089A1A4225D0AB6F91
:1014D0000133AB674B6833421FD1059804281CD8F1
:1014E0000F9B9B00CB181A6A4A68324215D1042818
:1014F00013D01A6A4A6832420FD103280DD01A6AF3
:101500004A68324209D1022807D01A6A4A68324230
:1015100003D1002801D11B6A4B680B9B039A9342AD
:101520001BD06420D41A8823E9582B5C0C9E9A00A7
:10153000AA18711A54625164072201331340FA2227
:101540002B54EB6E286FF31A9200934200D385E080
:10155000E317E4185C4024182C6788230C9AAC6CC1
:10156000EA506B6C0020E418EB6CE4182B6DE41867
:101570006B6DE418AB6DE418EB6DE4182B6EE4189A
:10158000002C26D06B6AA86AC018EB6AC0182B6BB7
:10159000C0186B6BC018AB6BC018EB6BC0182B6C12
:1015A000C01804F03DFF061C200004F034FF011CAD
:1015B000301C04F0DAFE544904F0EBFEE96904F053
:1015C000E8FE041C286A04F026FF011C201C04F01D
:1015D000CCFEA86611B0F0BCBB46B246A946A046F8
:1015E000F0BD01239A460197D14440E7059B0A2BA1
:1015F0003ED0039C01330593029B444499460394D7
:101600006C610EE7069B07970493019742E701215F
:101610000C00D02328691B0684405A685B6822406E
:10162000501E8241E868520081400B40591E8B4198
:1016300013432A7E9A4290D0920034491A43D2B280
:101640008A560B992B768C46624403926A6164E752
:10165000FA21890004F042F80C90B6E604F0DBFEB3
:10166000FA21890504F095FEEE66686700206FE7B1
:101670000798099C0A9B002801D0049818605346DB
:10168000002B01D00D9B1A70019B002B01D0029BF7
:101690002360AB6F01220133AB678423EA547A3BAA
:1016A0000593089A4B681A4200D136E70FE707986E
:1016B000099C0A9B002817D00498186050460028FF
:1016C00001D00D980270019A002A01D04A4622608A
:1016D0000B4A0498926A171A0A48874200D8EEE625
:1016E00000201A602060EAE60E980490E6E7C04603
:1016F00064290020847E011060290020D936002052
:10170000004005408096980000007A44847E0110D5
:1017100070B50400A260059AE360E261049B069A3A
:1017200068462361226200238C22007F164D61608F
:10173000256063612376A0540022A2666422A3542C
:1017400003F082FC002919D0FA220023920004F051
:1017500003F888230022E050002362678022E066BD
:101760002367A367E367A05020000432A35400213D
:10177000443A243004F016FF200070BDFA2189009D
:1017800003F0ACFFE5E7C0467C7E011070B50400B5
:10179000406904F045FEE16904F0FBFD051C206A88
:1017A00004F039FE011C281C04F0DFFD70BDC046AA
:1017B00070B5C56904000021281C04F027FE00282C
:1017C00001D1002070BD291CA06E04F0CEFD02499D
:1017D00004F0DFFDF6E7C0460000704270B50C1C57
:1017E00005000021201C04F011FE002801D100207A
:1017F00070BDA86E211C4000400804F0B6FD0249EF
:1018000004F0C7FDF4E7C0460000C84270B5046AA2
:10181000002C06D0456F0021281C04F0F7FD00289D
:1018200001D1002070BD0649281C04F0B2FD051C42
:10183000200004F0F0FD011C281C04F096FDF1E7E7
:10184000000070420023842210B58367C36783546D
:10185000040003F0F9FB002907D0FA2200239200CC
:1018600003F07AFF8023E05010BDFA21890003F0D5
:1018700035FFF7E70160704770B506000024054D9D
:101880002A00E1B230680134FFF70AFC0835082C61
:10189000F6D170BDD07E0110F8B5CE4647460400A3
:1018A00016001D0080B5092940D8E24B89005B581D
:1018B0002A00310000689F46771CFFF7C9FAFFB283
:1018C00000212068FFF778FC2A0039002068FFF724
:1018D000BFFA01212068FFF76FFC6B1CDBB2984652
:1018E0001A0031002068FFF7B3FA02212068FFF7E1
:1018F00063FC390020684246FFF7AAFA03212068FA
:101900000235EDB2FFF758FC310020682A00FFF7DE
:101910009FFA04212068FFF74FFC390020682A0055
:10192000FFF796FA05212068FFF746FCC0BCB946D0
:10193000B046F8BD771CFFF78BFAFFB20021206894
:10194000FFF73AFC2A0039002068FFF781FA0121ED
:101950002068FFF731FC6B1CDBB2310020681A00F5
:101960009846FFF775FA04212068FFF725FC390037
:1019700020684246FFF76CFA032120680235EDB279
:10198000FFF71AFC310020682A00FFF761FA0721EF
:101990002068C0E7771CFFF75BFAFFB200212068E0
:1019A000FFF70AFC2A0039002068FFF751FA0121ED
:1019B0002068FFF701FC6B1CDBB298461A0031006F
:1019C0002068FFF745FA06212068FFF7F5FB39008C
:1019D00020684246FFF73CFA0621206890E7FFF7AF
:1019E00037FA954B771C19002068FFB29846FFF72D
:1019F0004BFA2A0039002068FFF72AFA06212068EE
:101A0000FFF7DAFB6B1CDBB220681A003100994645
:101A1000FFF71EFA20684146FFF736FA02354A46BC
:101A200039002068FFF714FAEDB206212068FFF7AD
:101A3000C3FB310020682A00FFF70AFA41462068FC
:101A4000FFF722FA390020682A00FFF701FA062181
:101A50002068FFF7B1FB69E7771CFFF7F9F9FFB2E0
:101A600020680021FFF7A8FB2A0039002068FFF753
:101A7000EFF920680121FFF79FFB6B1CDBB2984652
:101A80001A0031002068FFF7E3F920680721FFF70B
:101A900093FB0235424639002068FFF7D9F9EDB2D1
:101AA00020680221FFF788FB2A0031002068FFF739
:101AB000CFF920680621FFF77FFB390020682A0054
:101AC000FFF7C6F907212068FFF776FB2EE7771CA2
:101AD000FFF7BEF9FFB200212068FFF76DFB2A0077
:101AE00039002068FFF7B4F901212068FFF764FB93
:101AF0006B1CDBB2310020681A009846FFF7A8F98A
:101B00000721206831E7771CFFF7A2F9FFB2062111
:101B10002068FFF751FB2A0039002068FFF798F989
:101B200006212068FFF748FB6B1CDBB298461A00C1
:101B300031002068FFF78CF904212068FFF73CFB97
:101B40000235424639002068FFF782F9EDB20321E1
:101B50002068FFF731FB310020682A00FFF778F991
:101B6000354920686CE7771CFFF772F9FFB2062150
:101B70002068FFF721FB2A0039002068FFF768F989
:101B800007212068FFF718FB6B1CDBB298461A0090
:101B900031002068FFF75CF902212068FFF70CFB99
:101BA000390020684246FFF753F907212068E5E62F
:101BB000771CFFF74DF9FFB200212068FFF7FCFA10
:101BC0002A0039002068FFF743F907212068FFF752
:101BD000F3FA6B1CDBB298461A0031002068FFF75D
:101BE00037F902212068FFF7E7FA390020684246FA
:101BF000FFF72EF90121206882E6771CFFF728F90C
:101C0000FFB200212068FFF7D7FA2A0039002068C8
:101C1000FFF71EF901212068FFF7CEFA6B1CDBB23B
:101C20001A00206831009946FFF712F9024B20682C
:101C30009846F0E6A87E01108C6C0110F8B5CE46EF
:101C40004746040080B50F0015000068FFF700F953
:101C50001E4E20683100FFF717F97B1CDBB22A000B
:101C6000190020689846FFF7F3F831002068FFF765
:101C70000BF96B1CDBB299461A0039002068FFF79C
:101C8000E7F820680721FFF797FA02354A464146F0
:101C90002068FFF7DDF8EDB220680721FFF78CFA26
:101CA0002A0039002068FFF7D3F831002068FFF7D9
:101CB000EBF82A0041462068FFF7CAF83100206897
:101CC000FFF7E2F8C0BCB946B046F8BD8C6C011015
:101CD000F0B54746CE4680B51F00344B0600884617
:101CE00014000025994685B0EAB200213068FFF75C
:101CF000AFF8013549463068FFF7C6F8032DF3D138
:101D0000404604F0B5FB2A4D009001912A000821BD
:101D100002A806F0BDF80E236B44984602AD297860
:101D2000202916D02D2917D02E291DD03039C9B21F
:101D3000092909D90F2C02D801354545EFD105B045
:101D4000C0BCB946B046F0BD3B0022003000FFF7F2
:101D5000A3FD0234E4B2EDE721003A003000023482
:101D6000FFF76CFFE4B2E5E73A0021003068FFF7C7
:101D70006FF8104B306899461900FFF785F87A1C08
:101D80002100D2B23068FFF763F849463068FFF7A8
:101D90007BF8BA1C21003068D2B2FFF759F8013441
:101DA00006213068FFF708FAE4B2C3E7906C01102F
:101DB000A46C01108C6C0110054B01604361002381
:101DC000037183600023C360012303747047C0461E
:101DD0000000204110B50400032200210068FFF735
:101DE00037F802492068FFF74FF810BDAC6C0110BE
:101DF00070B5150004000E00032204210068FFF7EF
:101E000027F8002D15D020682379002E08D0022B4A
:101E100020D019D8002B1DD01249FFF735F80CE05F
:101E2000022B1BD00AD8002B18D00F49FFF72CF833
:101E300003E00E492068FFF727F870BD032BFCD1A3
:101E40000B49FFF721F8F8E7032BF6D10949FFF713
:101E50001BF8F2E70849FFF717F8EEE70749FFF725
:101E600013F8EAE7C46C0110D46C0110BC6C0110CB
:101E7000DC6C0110CC6C0110C06C0110D06C011036
:101E8000F0B5C6460400081C400000B5111C40080F
:101E900004F06BFAFE218905051C04F0B7FA00284E
:101EA00001D0FE25AD05032209212068FEF7D0FFF1
:101EB0003749281C04F06DFA04F0D4FA3549C6B24B
:101EC000281C04F095FA00283BD13349281C04F063
:101ED0008FFA00281BD1002E53D03700072E4ADC82
:101EE0002E4B00259846414620680135FEF7CCFF71
:101EF000BD42F8DB062E07DC294D2900206801379A
:101F0000FEF7C2FF072FF8D180BCB846F0BD002E07
:101F100039D03700072E30DC224B00259846414649
:101F200020680135FEF7B0FFBD42F8DB062EEBDC82
:101F30001B4D290020680137FEF7A6FF072FF8D1B7
:101F4000E2E7002E21D03700072E18DC164B0025C3
:101F50009846414620680135FEF796FFBD42F8DB02
:101F6000062ED1DC0E4D290020680137FEF78CFFCC
:101F7000072FF8D1C8E70727B2E70727CCE70727DD
:101F8000E4E70027B8E70027D2E70027EAE7C046E2
:101F90000000E0409A99993E3333333F10760110A8
:101FA0008C6C0110E46C0110E86C0110F8B5CE46A1
:101FB000474680B504000E0003F046F800294ED0D5
:101FC000FA220023920003F0C7FB0500B76E2749F1
:101FD0007800400804F01AFA431E98410021804618
:101FE000381C04F00BFA431E9841A3680600EB1A54
:101FF000C72B05D903232279A56001321340237131
:10200000237CB3420AD1E368184958004008994636
:1020100004F0FCF9431E9841404507D04246310088
:102020002000FFF7E5FEE368267499464946381C10
:1020300004F095F940000E49400804F0E7F9002843
:1020400003D1A368ED1AC72D05D82000094A391C11
:10205000FFF716FFE760C0BCB946B046F8BDFA21ED
:10206000890003F03BFB0500B0E7C0460AD7233CDC
:10207000CDCCCC3D00002041F8B504000E00006836
:102080001700002103221D00FEF7E2FE2068002E4B
:1020900002D13B002B4307D00B49FEF7F5FE002F82
:1020A0000CD1002D04D1F8BD0849FEF7EDFEFAE78A
:1020B0002A0007492068FEF765FFF4E73A00054962
:1020C0002068FEF75FFFECE7EC6C0110006D01107B
:1020D000F86C0110F06C011070B505000C1C006864
:1020E0000D210322FEF7B4FE1349201C2D6804F0D5
:1020F0007FF9002815D11149201C04F079F9002836
:102100000AD10F49201C04F073F900280ED02800D2
:102110000C49FEF7B9FE70BD28000B49FEF7B4FE6E
:10212000F9E728000949FEF7AFFEF4E7280008495F
:10213000FEF7AAFEEFE7C0469A99993E9A99193F91
:10214000CDCC4C3F0C6D0110086D0110046D0110D9
:10215000F4620110244B30B51B68002B05D01A68BF
:10216000824203D09A6882421BD030BD01242500F0
:102170009540D0202A000006416840680A401100BE
:102180004D1EA941C9B2002A09D11A7B002A06D0E6
:102190005A6894401A6920421ED001321A6119739C
:1021A000E3E71249124C886A9969411AA142DCD9C5
:1021B000D02109064C6801210D0095402C42D4D154
:1021C000197598611A6A0B4C821AA24208D8DA690A
:1021D0000132DA611862C8E7013A1A611973C4E77B
:1021E000D9611862C1E7C04640290020004005407F
:1021F0004FC300003F420F0083600023037303615D
:1022000003758361C3610362024B01604260186021
:102210007047C04640290020034B1A68824200D014
:10222000704700221A60FBE74029002070B50400C7
:102230000125006801F072FE606801F06FFEA06881
:1022400001F06CFE2B002068D02683402A00360661
:10225000B362636801219A40B2622A00A3689A407F
:10226000B262002201F0B2FD60680022012101F09B
:10227000ADFD0022A068012101F0A8FD206873686F
:1022800085402B405A1E9341DBB223730122054B3C
:102290000C2101F0DBFDA0680122042101F0AAFD60
:1022A000012070BD55210010024B026918681A60A8
:1022B000101A7047682900200B4B9B6AC269022ADA
:1022C00004D9026A09499A1A8A4209D9026A9B1AF0
:1022D000074A934201D8002070470023C361FAE700
:1022E0000023C3610120F7E7004005403F420F0093
:1022F00040420F000122D02310B584681B06A24083
:102300005968084B9B6A114201D000220275026A8B
:102310009B1A054A934204D9C369002B01D00023BC
:10232000C36110BD0040054040420F0010B5036975
:10233000027D82B0002A0CD00749C069074C019089
:10234000009120006421064A05F0A2FD200002B0A1
:1023500010BD0449F1E7C046106D01106C29002042
:10236000186D0110146D0110002906D1002802DC3F
:10237000431E984170470220FCE70320FAE7C0465D
:1023800070B5426083601E4A049B0025C3600262F0
:10239000002398220561456185618583456201605E
:1023A00083540432855004328354164A0400028553
:1023B00096229200C262FE22920502633422835466
:1023C000114A64238287012283630364203BC25243
:1023D0000E4B210083644C23FF32C252013B036544
:1023E000413B43650A4B28318365CC3A5C3004F0AD
:1023F000DFF89023E55004332000E55070BDC0465F
:1024000060EA0000D20400003250000010270000F3
:102410000000C842134B10B5038596239B00C3628E
:10242000FE239B05036300223423C2540E4A30333B
:102430008287012283630364203BC2520B4B01005D
:1024400083644C23FF32C252013B0365413B436529
:10245000074B28318365CC3A5C3004F0A9F80120A1
:1024600010BDC046D204000032500000102700000A
:102470000000C84210B5040088B00068FEF7DEFC1A
:10248000002200212068FEF7E3FC1A492068FEF7CD
:10249000FBFC012200212068FEF7DAFC20681649C7
:1024A000FEF7F2FC63692068092B21D8134A9B00D0
:1024B0009958FEF7E9FC022220680021FEF7C8FCCB
:1024C00020680F49FEF7E0FC206803220021FEF798
:1024D000BFFC0A2163690B4A0133009103A80A314A
:1024E00005F0D6FC206803A9FEF7CEFC08B010BDAD
:1024F0000549DEE73C6D0110486D0110747F011045
:102500004C6D01107C6F0110346D0110002310B56B
:1025100003771C4B040003624369072B23D81A4A34
:102520009B00D3589F46052323612068FEF786FC55
:10253000002200212068FEF78BFC14492068FEF77A
:10254000A3FC012200212068FEF782FC10492068CC
:10255000FEF79AFC002120680322FEF779FC0D4962
:102560002068FEF791FC10BD0423DDE70723DBE7BD
:102570000823D9E70623D7E70A23D5E70923D3E7BA
:102580000C23D1E7C0D40100107F0110606D011051
:10259000686D01107C6D011010B504008AB004292B
:1025A00032D00068FEF74AFC002200212068FEF7C6
:1025B0004FFC19492068FEF767FC012200212068C2
:1025C000FEF746FC154A1649684605F04BFC69467D
:1025D0002068FEF759FC022200212068FEF738FC33
:1025E000104A114905A805F03DFC206805A9FEF731
:1025F0004BFC002120680322FEF72AFC0B492068CF
:10260000FEF742FC0AB010BD03230361084B0362CE
:10261000FFF730FFF6E7C0468C6D01105C630110D8
:10262000986D0110A8630110A06D01107C6D011060
:1026300060EA0000F0B5DE4657464E464546E0B536
:102640008FB0189F019104006421F81A1E00904673
:10265000156803F01BF8431C03933F4B9B463F4B0D
:102660009A463F4B99463F4B02932068FEF7E6FBA4
:10267000002200212068FEF7EBFB59462068FEF798
:1026800003FC20680199FEF7FFFB0122002120686E
:10269000FEF7DEFB2A00514604A805F0E3FB2068A4
:1026A00004A9FEF7F1FB022200212068FEF7D0FB0F
:1026B0003B003200494609A805F0D4FB206809A96F
:1026C000FEF7E2FB032200212068FEF7C1FB206831
:1026D0000299FEF7D9FB642002F0A0FB6068FFF7C7
:1026E000E3FD002808D0039B58434519B54200DAA2
:1026F0003500BD4200DD3D0063681B7D002BB4D07A
:10270000434696201D60400002F088FB2068FEF7DB
:1027100095FB002220680021FEF79AFB20681249F1
:10272000FEF7B2FB012220680021FEF791FB206832
:102730000E49FEF7A9FB032220680021FEF788FB63
:102740000B492068FEF7A0FB0FB0F0BCBB46B246B9
:10275000A946A046F0BDC046AC6D0110B46D011095
:10276000C06D0110D06D0110606D0110686D011019
:102770007C6D0110F0B5040083B0032933D028DC50
:10278000012963D0022902D1037F022B67D9444F6C
:10279000444E454D2068FEF751FB00222068002181
:1027A000FEF756FB39002068FEF76EFB0122206819
:1027B0000021FEF74DFB31002068FEF765FB206825
:1027C00003220021FEF744FB29002068FEF75CFB92
:1027D00007E00429DBD103230361344B0362FFF7D5
:1027E00049FE03B0F0BD037F022B4CD03DD8002B37
:1027F0004ED00068FEF722FB2D492068FEF744FB0F
:10280000FA20800002F00AFB2068FEF717FB002286
:1028100020680021FEF71CFB214F20683900FEF7DD
:1028200033FB012220680021FEF712FB1D4E2068B9
:102830003100FEF729FB206803220021FEF708FB88
:10284000194D20682900FEF71FFBA3E7037F002B2B
:102850009DD0013B124F134E134D03779AE701337E
:102860000F4F104E104D037794E7032B00D08EE7E7
:10287000FA2302009B0000930A230E4938322000FD
:10288000FFF7D8FE83E70068FEF7D8FA0A49B4E7F5
:1028900002000A4B0A4900932C326423EFE7C0463A
:1028A000606D0110686D01107C6D011060EA000020
:1028B000F06D0110186E0110046E01101027000059
:1028C000E46D0110F0B5D6464F464646C0B5060049
:1028D00088B0012200210068FEF7BAFA3149306859
:1028E000FEF7D2FA1422002103A803F05BFE2E4B60
:1028F000370098462D4B002499462D4B90379A4629
:1029000001AD6300FA5A9823F35CA34218D0414604
:10291000280005F0A7FA032C3FD0280012F0DEFEB5
:1029200002224946281803F043FE0134290003A877
:1029300012F01AFD6300FA5A9823F35CA342E6D121
:102940005146280005F08EFA0134290003A812F040
:102950000BFD042CD5D1306803A9FEF795FA154B71
:102960001549986A9C23F3581E24C01A02F0B6FE3B
:102970000122241A0F213068FEF76AFA220028008B
:102980000E4905F06FFA29003068FEF77DFA08B0AD
:10299000E0BCBA46B146A846F0BD290003A812F033
:1029A000E3FCD8E73C6E01104C6E01108C6C0110FA
:1029B000446E01100040054040420F00506E01106F
:1029C000F0B5DE4657464E464546E0B506008BB0AC
:1029D0001F0014AB1C7800688A469146FEF72EFA59
:1029E000306800220021FEF733FA3068002C52D004
:1029F00000254B49FEF748FA012200213068FEF716
:102A000027FA48493068FEF73FFA05AB1800142250
:102A10000021984603F0C6FD434B03AC9A46434B56
:102A20009B46434B01934A466B00D25ABD4217D096
:102A30005146200005F016FA032D27D0200012F091
:102A40004DFE02225946201803F0B2FD21004046F7
:102A500012F08AFC4A4601356B00D25ABD42E7D1DA
:102A60000199200005F0FEF901352100404612F0E1
:102A70007BFC042DD7D141463068FEF705FA0BB038
:102A8000F0BCBB46B246A946A046F0BD2100404678
:102A900012F06AFCEFE700252649FEF7F5F901225E
:102AA00000213068FEF7D4F91E493068FEF7ECF9D2
:102AB00005AB180014220021984603F073FD1A4B51
:102AC00003AC9946194B9B46194B019352466B0038
:102AD000D25ABD4217D04946200005F0C3F9032D54
:102AE000D4D0200012F0FAFD02225946201803F03B
:102AF0005FFD2100404612F037FC524601356B0065
:102B0000D25ABD42E7D10199200005F0ABF9013559
:102B10002100404612F028FC042DD7D1ABE7C04677
:102B2000746E01103C6E01104C6E01108C6C011023
:102B3000446E0110846E0110F0B5D6464F464646ED
:102B4000C0B505000C0082B0032935D01EDC012978
:102B50004AD0022914D17B4B1A787B4B1B78002A70
:102B600053D17A4E5800315A002900D06EE0093115
:102B7000774F3152009231003A002800FFF720FFD2
:102B800002B0E0BCBA46B146A846F0BD0429F7D170
:102B90006D4A6C4913780878002B54D1002800D175
:102BA0009AE00B700321280011700093684A0323F8
:102BB0006649FFF705FFE3E7634B624A98461B78D7
:102BC00091461078022B33D9002843D1012313708A
:102BD000424610705E4A5D491060506000932800C4
:102BE0000023FFF7EDFECBE7564B1A78564B1B78C8
:102BF000002A13D0564F5800395A013189B2092999
:102C000000D90021514E3952B4E7514F5800395A7A
:102C1000002969D109314D4E3952ABE74B4E58006E
:102C2000315A013189B2092911D9494F3252A1E7EC
:102C300042460133DBB2137044490090444A2800F5
:102C4000FFF7BEFE9CE7013BDBB2F4E70139404FE2
:102C500031528FE73D4E3E4F33883A8892469A4232
:102C600046D17A88738894469A4241D1B288BB880B
:102C700093423DD1F188FA8828688A4239D1FA21F5
:102C8000564689006746714364267E438919521867
:102C900099005B185B00D2182A85FEF7CFF8002256
:102CA00028680021FEF7D4F828682A49FEF7ECF8D6
:102CB000012228680021FEF7CBF827492868FEF793
:102CC000E3F8FA20C00002F0A9F8244B28002C6198
:102CD0002B62FFF7CFFB53E703232B611F4B280029
:102CE0002B62FFF7C7FB4BE70139184E395241E71A
:102CF0002868FEF7A3F8002228680021FEF7A8F84C
:102D000028681749FEF7C0F8012228680021FEF75D
:102D10009FF814492868FEF7B7F8FA20C00002F0BF
:102D20007DF800234A461370424633601370736087
:102D30003B607B603A00310028000093FFF740FEC3
:102D40001EE7C046DB360020DA360020A82500202A
:102D5000B0250020906E0110A46E011060EA000002
:102D6000B46E0110C86E011010B5040088B0006880
:102D7000FEF764F8002200212068FEF769F81A497E
:102D80002068FEF781F8012200212068FEF760F834
:102D900020681649FEF778F8A3692068032B21D82C
:102DA000134A9B009958FEF76FF802222068002111
:102DB000FEF74EF820680F49FEF766F820680322F8
:102DC0000021FEF745F80421A3690B4A0133009165
:102DD00003A8103105F05CF8206803A9FEF754F849
:102DE00008B010BD0549DEE7DC6E0110486D01102A
:102DF000647F01104C6D01107C6F0110346D011067
:102E000010B5437F040086B0002B01D006B010BD82
:102E100001228361134B42779B6A0261436200681F
:102E2000FEF70CF8002220680021FEF711F8206858
:102E30000D49FEF729F8206801220021FEF708F865
:102E40000A4A0B4901A805F00DF8206801A9FEF710
:102E50001BF8FA20800001F0E1FF2000FFF784FF5B
:102E6000D4E7C04600400540E86E01105C630110E5
:102E7000F86E0110F0B5D6464F464646C0B5040080
:102E800086B0032925D019DC012900D171E002297F
:102E90000ED198239022C35C09215B00C3189A5A73
:102EA000002A00D078E0902220009952FFF70AFD16
:102EB00006B0E0BCBA46B146A846F0BD0429F7D139
:102EC0009822835C002B6FD0013B8354FFF7FAFC00
:102ED000EEE79825435D022B00D88AE09027FA227E
:102EE000E35B92005343904692226426A25A006804
:102EF00072439B189622A25A9B1894229246A25A79
:102F00009600B446624452009B18228D9BB29A42AE
:102F100074D0A02399464A46E35C0133A354FDF7DD
:102F20008DFF002200212068FDF792FF6049206894
:102F3000FDF7AAFF012200212068FDF789FF4B461B
:102F4000E25C022A00D985E003235A4901A804F073
:102F500089FF206801A9FDF797FF574801F05EFF40
:102F60000023524663552000E351A350FFF7AAFC0B
:102F70009EE79823C25C0925520082189020002108
:102F8000135A01339BB29D42494149420B401352AF
:102F90002000FFF797FC8BE7013A91B290222000C6
:102FA0009952FFF78FFC83E7012283610261006879
:102FB000FDF744FF002220680021FDF749FF20684B
:102FC0003E49FDF761FF206801220021FDF740FF27
:102FD0003B4A3C4901A804F045FF206801A9FDF7E0
:102FE00053FFFA20800001F019FF2000FFF7BCFE1C
:102FF0005EE701334355FFF765FC59E70023216184
:103000006361FDF71BFF002220680021FDF720FF10
:1030100020682D49FDF738FF012220680021FDF7C7
:1030200017FF20682949FDF72FFF206802220021A1
:10303000FDF70EFF224A264901A804F013FF20687D
:1030400001A9FDF721FF1C4801F0E8FE2000FFF771
:1030500011FA2DE71F492068FDF716FFFA20C0007E
:1030600001F0DCFE0123236100232068A361FDF74A
:10307000E5FE002220680021FDF7EAFE20680F49E6
:10308000FDF702FF206801220021FDF7E1FE0C4A56
:103090000C4901A804F0E6FE206801A9FDF7F4FE42
:1030A000404601F0BBFE2000FFF75EFE00E7C04691
:1030B000506F0110746F0110DC050000E86E011004
:1030C0005C630110F86E0110206F0110306F011069
:1030D000446F0110646F0110F8B504000068FDF73B
:1030E000ADFE002200212068FDF7B2FE41492068B4
:1030F000FDF7CAFE012200212068FDF7A9FE3E4926
:103100002068FDF7C1FE022200212068FDF7A0FE25
:103110003A492068FDF7B8FE394D032200212068A6
:10312000FDF796FE37492068FDF7AEFE364EAF6AD2
:10313000AB6ADB1BB34211D86068FFF7DBF860684D
:10314000037D002B1BD1FFF7AFF8002837D13230B9
:1031500001F064FEAB6ADB1BB342EDD92068FDF7DA
:103160006DFE002220680021FDF772FE20682749CD
:10317000FDF78AFEFA20800001F050FE32E00022C6
:10318000A36820685A61FDF759FE002200212068DB
:10319000FDF75EFE1E492068FDF776FE0122002144
:1031A0002068FDF755FE1B492068FDF76DFE1A48A3
:1031B00001F034FE6068FFF777F8002816D0206829
:1031C000FDF73CFE002200212068FDF741FE134977
:1031D0002068FDF759FEFA20800001F01FFE322022
:1031E00001F01CFE2000FFF7BFFDF8BD322001F00A
:1031F00015FEF7E7846F0110946F0110A46F0110A2
:1032000000400540B46F01103F4B4C00EC6F0110C3
:10321000C46F0110D46F0110DC050000DC6F0110D9
:10322000F0B54F464646D646394BC0B59A46394B5F
:1032300004009946384B0F0016001500984690B0D0
:103240002068FDF7FBFD002200212068FDF700FE4D
:1032500039002068FDF718FE012200212068FDF7E3
:10326000F7FD3200514601A804F0FCFD206801A9D9
:10327000FDF70AFE022200212068FDF7E9FD2A0081
:10328000494606A804F0EEFD206806A9FDF7FCFDFE
:10329000032200212068FDF7DBFD41462068FDF791
:1032A000F3FD642001F0BAFD6068FEF7FDFF2D1804
:1032B0006068037D002B02D1FFF71CF8C0E7A3680C
:1032C00020685D61FDF7BAFD002220680021FDF74E
:1032D000BFFD20681149FDF7D7FD206801220021BC
:1032E000FDF7B6FD2A000E490BA804F0BBFD0BA9A3
:1032F0002068FDF7C9FD0B4801F090FD6068FEF7FE
:10330000F9FF10B0E0BCBA46B146A846F0BDC046D1
:10331000FC6F01100C700110187001102C7001105E
:103320003C700110DC05000010B5040003292DD00D
:103330000CDC012920D002291DD18369032B36D052
:1033400001332000A361FFF70FFD14E0042912D11F
:103350000023206863772361FDF770FD00220021C0
:103360002068FDF775FD20682949FDF78DFDFA20DD
:10337000400001F053FD10BD82690323002AE0D014
:10338000531E2000A361FFF7EFFCF4E78369022BD3
:1033900012D00EDC002B37D0012BECD183681D49F5
:1033A0005A69FFF73DFF2000FFF7DEFCE3E700234B
:1033B000C7E7032BCCD0DEE70361A02200238354B0
:1033C000154A916A9821435408394350926A04314E
:1033D00043509C33C2500068FDF730FD0022206846
:1033E0000021FDF735FD20680C49FDF74DFD012258
:1033F00020680021FDF72CFD20680949FDF744FDF8
:103400002000FFF75FFAB6E7FFF766FEB3E7C046B6
:10341000306E01104070011000400540546E0110E4
:10342000646E011010B50369040086B00C2B23D81C
:103430004B4A9B00D3589F4604293ED00068FDF7B5
:10344000FDFC002200212068FDF702FD45492068AF
:10345000FDF71AFD012200212068FDF7F9FC424921
:103460002068FDF711FD002120680322FDF7F0FC24
:103470003E492068FDF708FD06B010BDFFF77AF958
:10348000FAE7FFF789F8F7E7FFF756FBF4E7FFF7EE
:103490004BFFF1E7FFF7EEFCEEE703293CD013DC2E
:1034A000012941D00229E7D14369092B56D00133C4
:1034B00020006361FEF7DEFFDEE7032303612C4B90
:1034C0000362FEF7D7FFD7E70429D5D101230361B3
:1034D000002383610068FDF7B1FC00222068002111
:1034E000FDF7B6FC20682349FDF7CEFC20680122D9
:1034F0000021FDF7ADFC204A204901A804F0B2FCF0
:10350000206801A9FDF7C0FCFA20800001F086FCCC
:103510002000FFF729FCAFE74369092B0AD0082BED
:1035200008D0FEF7F3FFA7E742690923002ABFD0BE
:10353000531EBDE70023206863772361FDF77EFCFF
:10354000002220680021FDF783FC20680C49FDF76C
:103550009BFCFA20400001F061FC8DE70023A7E707
:10356000307F0110606D0110686D01107C6D0110DD
:1035700060EA0000E86E01105C630110F86E011053
:10358000306E011030B5437F040087B0002B1BD094
:103590003D4B9D6A0369022B18D0216A626A4B0178
:1035A0005B1A9B005B18AA1ADB009A4252D860682B
:1035B000FEF77AFE6368197DC9B2FEF7D5FE011EDB
:1035C0005CD16068FEF796FE07B030BD9A33C358F1
:1035D0002E4AEB1A9342E0D90068FDF72FFC002237
:1035E00020680021FDF734FC20682949FDF74CFCD8
:1035F000012220680021FDF72BFC26492068FDF7F9
:1036000043FC254801F00AFC0123236100232068C4
:10361000A361FDF713FC002220680021FDF718FCD0
:1036200020681E49FDF730FC206801220021FDF7CB
:103630000FFC1B4A1B4901A804F014FC206801A9D7
:10364000FDF722FCFA20800001F0E8FB2000FFF7E4
:103650008BFBB9E70023206863772361FDF7EEFB5E
:10366000002220680021FDF7F3FB20680E49FDF7DA
:103670000BFCFA20400001F0D1FBA5E720006562B9
:10368000FFF7D0FE9DE7C0460040054080C3C9015A
:10369000FC6E0110106F0110DC050000E86E0110D7
:1036A0005C630110F86E0110306E011000230160A0
:1036B000037183607047C04670B504000068FDF771
:1036C000BDFB002220680021FDF7C2FB114D2068E0
:1036D0002900FDF7D9FB012220680021FDF7B8FB86
:1036E00020680D49FDF7D0FB022220680021FDF77C
:1036F000AFFB29002068FDF7C7FB032220680021EB
:10370000FDF7A6FB05492068FDF7BEFB044801F064
:1037100085FB70BD087101103471011050710110EA
:10372000DC05000030B504008BB00068FDF786FBB7
:10373000002220680321FDF78BFB20681C49FDF760
:10374000A3FB1C4A1C49684604F08CFB684611F038
:10375000C5FF1425291A491001222068C9B2FDF7B6
:1037600077FB69462068FDF78FFB144A144905A8CA
:1037700004F078FB05A811F0B1FF291A49100222C4
:103780002068C9B2FDF764FB206805A9FDF77CFB42
:10379000032220680221FDF75BFB0A492068FDF740
:1037A00073FBFA20C00001F039FB0BB030BDC046FE
:1037B000647101105C63011074710110A863011041
:1037C000807101108C710110F0B5D64646464F4607
:1037D00004000D00C0B500688CB01600FDF72EFB8C
:1037E000002203212068FDF733FB4C492068FDF7D8
:1037F0004BFB012200212068FDF72AFB2A004849E3
:1038000006A804F02FFB206806A9FDF73DFBFA216E
:10381000444B8900986A01F061FFA368C31AC72B63
:1038200005D903232279A0600132134023710122BC
:1038300010212068FDF70CFB3B4B227919682068AA
:103840008918FDF721FB002120680222FDF700FB0B
:1038500036492068FDF718FB632E30D90025344F18
:10386000013539002068EDB2FDF70EFB122DF7D1BE
:1038700020683049FDF708FB206803220021FDF78E
:10388000E7FA32002C4901A804F0ECFA01A811F083
:1038900025FF1421091A491003222068C9B2FDF737
:1038A000D7FA206801A9FDF7EFFA9620400001F051
:1038B000B5FA0CB0E0BCBA46B146A846F0BDF0007F
:1038C00080196421400001F0E1FEC3B29846002552
:1038D000002818D1194B1A4F9A46012343449946A0
:1038E00006E001353900EDB2FDF7CEFA122DBFD05A
:1038F0002068A845F5D15146FDF7C6FA4B46DDB222
:10390000122DF5D1B4E70A4F013539002068EDB228
:10391000FDF7BAFAA845F7D84546DBE79C710110D8
:10392000AC710110004005405C1F0020B471011013
:10393000E46C0110B8710110BC710110486D0110E8
:103940008C6C0110F0B5160004000D0087B0012248
:1039500000210068FDF77CFA002E0FD01C492A00D8
:1039600068461C4B04F07EFA69462068FDF78CFA25
:10397000FA20400001F052FA07B0F0BD2A000325FA
:10398000154B1349684604F06DFA69462068FDF747
:103990007BFA124F124E012213212068FDF758FACC
:1039A00039002068FDF770FAC82001F037FA0122CB
:1039B00013212068FDF74CFA31002068FDF764FA06
:1039C000013DC82001F02AFA002DE4D1D0E7C0461D
:1039D000CC710110006D0110D8710110EC6C011058
:1039E0008C6C0110F8B5CE464746040080B50068DF
:1039F000FDF724FA002204212068FDF729FA304B54
:103A0000206819009946FDF73FFA0122022120683B
:103A1000FDF71EFA2B4B206819009846FDF734FA83
:103A2000022203212068FDF713FA274F206839008E
:103A3000FDF72AFA032203212068FDF709FA234E35
:103A400020683100FDF720FA02259620400001F0A1
:103A5000E5F92068FDF7F2F9C82001F0DFF900224E
:103A600004212068FDF7F4F949462068FDF70CFAB7
:103A7000012202212068FDF7EBF941462068FDF79D
:103A800003FA022203212068FDF7E2F939002068D9
:103A9000FDF7FAF9032120680322FDF7D9F9310077
:103AA0002068FDF7F1F9012D07D1FA20800001F01F
:103AB000B5F9C0BCB946B046F8BD0125C5E7C0465A
:103AC000E0710110EC710110FC7101100C72011019
:103AD000D0231B061B68AC4A9900F0B5DE468B4626
:103AE00051585A4253412F2257464E4645465B4253
:103AF00093439A46A54BE0B59C4683B000260191BE
:103B0000E244002938D0A24B99465246F3080833C4
:103B10009B009D580123340098460836002D22D082
:103B20000F212000294001342D09002919D04B46CE
:103B30005A469A580300C240203BDB1713404246C6
:103B400013420CD107220F000240920097403A0026
:103B5000C308904F3C339B00DA51019B9847002DDE
:103B600001D0B442DCD3202ECFD103B0F0BCBB4691
:103B7000B246A946A046F0BD854E5F4600210F2300
:103B8000B346CC0822005046083292001258002A50
:103B900000D1D0E0180010408046100913421AD01E
:103BA0005D46ED59A94620256D42AC468C446546DC
:103BB000ED17AC464D46CD40A94665464E463540CC
:103BC0000126354204D14646724D3C34A40066516C
:103BD000002800D1AFE01C000440A446140A0342B0
:103BE0001AD0481C80465846C059464681464D4624
:103BF0000800F5401F38C01728400125284208D189
:103C000065462D01AC46F0086646624D3C308000AA
:103C10004651002C00D18EE0180020408446100B45
:103C2000234211D08C1CA0465C46E4594646A1466E
:103C30004D460C00F5401E3CE4172C4001252C425B
:103C400000D182E0002876D01C000440A446140C69
:103C5000034210D0C81C80465846C059464681468B
:103C60004D460800F5401D38C01728400125284260
:103C700075D0002C5FD0180020408046100D2342E4
:103C80000ED00C1DA4466546414CE459EC40A146BB
:103C90000C004D461C3CE40F2C426AD000284AD050
:103CA0001C000440A446140E034218D0481D804650
:103CB00045463748C059E840814608004D461B3804
:103CC000C00F284209D165462D05AC4640466646E0
:103CD000C008304D3C3080004651002C2BD01800DD
:103CE00020408446120F23422AD029488C1D814649
:103CF000C059E0408046080045461A38C00F2842A7
:103D000006D1E0086446234D3C302406800044512F
:103D1000002A10D04846C059CC1DE0408446080017
:103D200065461938C00F284205D1E0083C30194CCF
:103D30001207800002510831202900D021E714E742
:103D4000002AF8D012488146E4E765462D02AC46C9
:103D5000F40866460F4D3C34A400665172E7654690
:103D60002D03AC46F00866460A4D3C3080004651B3
:103D70007FE745462D04A84664464646E408054DBF
:103D80003C34A400665189E7EC3100203041014009
:103D9000A836002000400140094A83009A1810B557
:103DA00014684022544080322240064CC000A44691
:103DB00063441A60044B9C466044416010BDC04699
:103DC00004C0014004D0014000400140074B800086
:103DD000C3181B68C90092000A435A400C231340C1
:103DE000034A9446604403607047C04604C00140E3
:103DF00004D00140D0231B061B6830B50500584293
:103E000043412F205B4283430E48EC088446072041
:103E100028408000814020000B4D3C3063448000EE
:103E2000A40041511B19002A05D08022920194461A
:103E30006344196030BDC022920194466344196006
:103E4000F8E7C0463041014000400140F8B5454622
:103E50009846D0231B06DE461C689B462B4B5746D4
:103E60009A46A3004E469946E0B5534616004A4688
:103E70009B5807000D00002B34D04346002B3FD049
:103E800053464A4641469950D0231B061C6863425C
:103E90005C412F220720634293431D4A38409446D9
:103EA000FA081100800085403C311A4863448900BB
:103EB00092000D509B18002E0ED080229201944645
:103EC000634401210D201D6000F020F9F0BCBB46C9
:103ED000B246A946A046F8BDC0229201944663446A
:103EE0001D60F3E74346002BD1D0534641460D20D9
:103EF00099500022084900F06BF95B461C68C6E740
:103F00000D20054900F05EFABAE7C046EC3100200A
:103F10003041014000400140D13A00100123D0223D
:103F20008340120693629361094A83009A181168CC
:103F30004022514080320A400649C0008C4663440A
:103F40001A60054B9C460523604443607047C04699
:103F500004C0014004D00140004001408023DB0543
:103F60001868000F7047C0460FB400B5084883B00A
:103F700004F050FA049B002B07D005A9180001910A
:103F800003F0BAFF034804F045FA012003F0CCFF28
:103F90002472011034720110EFF3108072B6034ADC
:103FA0001368002BFCD0BFF35F8F70472C0100D04B
:103FB000BFF35F8F0022024B1A6080F310887047B6
:103FC0002C0100D070B5EFF3108C72B60D4D2B683C
:103FD000002BFCD0BFF35F8F0724CB08C618C05C52
:103FE00001230C40A3401C000440034207D11843A6
:103FF0003070BFF35F8F2C608CF3108870BD1000A1
:10400000FFF7B2FF2C0100D0F8B54746CE468846F0
:1040100080B5EFF3108C72B61C4D2C68002CFCD0D0
:10402000BFF35F8F9A4222D807210126894602E01A
:104030000132934218D34D4637001540AF40D408A3
:104040000119045D2742F3D110003C430C70BFF30B
:104050005F8F00220D4B1A608CF3108800280EDB56
:10406000C0BCB946B046F8BD01204042EFE7BFF3FF
:104070005F8F00232B608CF3108801204042434661
:10408000002BEDD00898FFF76FFFC0462C0100D041
:10409000044A1078431CDBB2172B00D9102313708D
:1040A0007047C046601F002010B5064B064C82B01A
:1040B0000100009318221F232000FFF7A5FF02B084
:1040C00010BDC04638720110FC3100200021044BA5
:1040D000044ABFF35F8F02C39342FAD17047C046D0
:1040E000000100D0800100D0054B064A1360064A4B
:1040F000136053609360D3601361536193617047A1
:104100008080808000E400E004E400E01F23184089
:104110001E3B8340002905D0C021044A490053506A
:1041200013607047802201498B50FAE700E100E0FC
:1041300001228240034B1B6813405A1E9341D8B2A0
:104140007047C04600E100E001238340014A13604C
:104150007047C04600E200E0064B10309B688000CC
:10416000C358054A00209B1A2F229A424041C0B2F0
:104170007047C04600ED00E0641F002070B50D00E0
:10418000EFF3108672B60F4A1368002BFCD0BFF312
:104190005F8F0D4B10309B6884001B590B4A934274
:1041A00003D09D4201D001F093F9074B9B681D514C
:1041B000BFF35F8FBFF35F8F0022024B1A6086F35D
:1041C000108870BD240100D000ED00E0CD0100108A
:1041D000F0B557464E46DE464546E0B585B006008A
:1041E00000911700EFF3108B72B66A4A1368002B28
:1041F000FCD0BFF35F8F0025674B5D579A46002DBB
:1042000000DAA9E06B00654C01935B199B009846AE
:10421000A146C1444B4652469B7910361370604B01
:10422000B6009B6899590B1B2F2B33D95D4B9942D4
:1042300000D0ACE0019B42469C465B4B6544AD0020
:1042400063535A4B0232A218043B9B1A1B05584A6F
:104250005B0D651913436B80564B0121AB80FF2327
:10426000AB71009BEF71AB604B460B4319004C4B9D
:104270009B689951BFF35F8FBFF35F8F0022454B5F
:104280001A608BF3108805B0F0BCBB46B246A94655
:10429000A046F0BD01200A008243D3798C46BB4280
:1042A00031D84546130044491B1B5B415943090D56
:1042B0003D4B63533D4B02356519043B5B1B1B05AE
:1042C0003B4D5B0D2B43AA464D466B800425AC4607
:1042D0005546E044131F44441B1B1B055B0D1D4347
:1042E0004B46997100999D8099604946DF71334B27
:1042F00001431360BBE75800C01880002018C17943
:10430000B9422FD902000623D356002BF3DA0293C9
:104310002B4B61460393131D9A4604235B429C4634
:10432000E14450464B461B1A1B055B0D9C46204B37
:10433000957198466346404603439380019B5A1902
:104340009200039BA418A380029B1C4AA371009BAC
:104350002260E771A3608AE701F0BAF800255346AE
:104360005D574FE7908802934005131D9A46031549
:1043700061469C464046D444634604302018181ACF
:10438000E0230005400D1B0218430390C5E701F030
:104390009FF84FE7240100D0E1360020641F002081
:1043A00000ED00E0CD01001000A1FFFF941F0020F0
:1043B00000E0FFFF01BDFFFFAAAA000001488047FF
:1043C00001BD0000F0B5DE4657464E464546E0B515
:1043D0000C0083B0EFF3108872B6634A1368002BA9
:1043E000FCD0BFF35F8F614B61499A6803001033C3
:1043F0009F00D55901938D4243D0A54254D05D4EC4
:10440000AA1B2F2A3DD85C4B9B461B68994601236B
:104410001A009C4682404B4613401F229946634631
:10442000024093409A4680225B4650469850BFF324
:104430005F8FEFF305839B46002B37D0019B5B45D5
:1044400001D001F045F801232A009A439068844284
:1044500008D176E04B005B189B00F3189868844203
:1044600036D01A00062151560029F3DA844254D07E
:104470004B46002B27D0C02251463F4B520099504B
:1044800019603A4B9B68DD51BFF35F8FBFF35F8FBD
:104490000022354B1A6088F3108803B0F0BCBB468D
:1044A000B246A946A046F0BD0D00EAE72A006346E1
:1044B0009A4390688442D5D10620105613000028F4
:1044C0000ADA0D0031E0802351462B4AD150D8E75B
:1044D00006201856002821DB4200111889007418A4
:1044E0008B46A1689960E179D9710621615699716D
:1044F000002924DBA488F11A640524155C440919F9
:1045000009051E4C490D2143998013181C4A9B0034
:104510001178F31899711070AAE713005946002911
:1045200014D1FF3191711749918015490A789A7118
:10453000154A9B1B5B415A43120D0A7098E71149BB
:10454000E2E70620105613000028C5DA0F4A10498A
:10455000D21A083A5002400D014399800D49520881
:104560000A43DA8084E7C046240100D000ED00E071
:10457000CD010010641F002000E100E000E0FFFF1B
:10458000E136002001BDFFFFAAAA00009E1F002007
:1045900000F0FFFF00F8FFFF70B501240443EFF3C4
:1045A0000581EFF3108C72B6214A1368002BFCD002
:1045B000BFF35F8F1F4B05001F4AED1A6D416A4321
:1045C000120D1E4D8900AE6852B27658A6421CD01C
:1045D0000621595691421CD012215956914222D09F
:1045E0001E215956914220D02A2159560324914226
:1045F00010D0134B19781A708171BFF35F8F0022AE
:104600000B4B1A608CF3108870BDAB680D4C5C507E
:10461000EFE700246100091989005B18FF219971F7
:1046200009499980E5E70124F4E70224F2E7C0464E
:10463000240100D0641F0020AAAA000000ED00E0C1
:10464000E1360020CD01001001BDFFFF10B5084B81
:10465000084C82B001000093002205232000FFF7E0
:10466000D3FC002801DB1F23181A02B010BDC0467E
:1046700054720110E5360020024B9C4661448900CB
:10468000016070474000003470B5114C114DAC42D0
:104690000FD2FF262368002B0CD0FFF7F9FC010096
:1046A0002000FFF7E9FFA680BFF35F8F0834AC421C
:1046B000F0D370BDFFF7ECFC01002000FFF7DCFF3A
:1046C0002671BFF35F8F0834AC42E3D3F1E7C046F5
:1046D000A0250020A825002010B50400FFF7D8FC75
:1046E00001002000FFF7C8FFFF232371BFF35F8F96
:1046F00010BDC04610B504000120FFF7D5FC034BE8
:10470000C3189B002360BFF35F8F10BD40000034CF
:10471000034B9C46614489000160BFF35F8F704783
:10472000400000340A4B1968EFF3108072B60A6833
:10473000002AFCD0BFF35F8F1B68BFF35F8F00229E
:104740001A6080F3108840BF002000217047C046E7
:10475000BC360020F0B5DE4657464E464546E0B52D
:1047600087B0EFF30583032201251A40954091009D
:104770008846A946B34B03925C58B34B1D60B34BBC
:1047800004934B46B24843630823E55E002D37DAB5
:10479000A3881BB2002B00DBADE0A379002B00D077
:1047A000EEE00823E05E002820DB430062691B186E
:1047B000DB00D3189E68DD68731C00D111E1A448AA
:1047C00001004144826A0B69B71A9B1A9F4215D3B4
:1047D0000123026A039883401A420FD09C4800F0DC
:1047E0002BFC8D4202DCCCD18642CAD940BF07B037
:1047F000F0BCBB46B246A946A046F0BD0E61EDE74F
:1048000062696B0092465B19DB009A4453469E68CE
:10481000DF6800F011FC8F42BADC00D103E1002F09
:1048200000DAE8E05246534652691B699346049AFF
:10483000934200D1D9E052460821605E52880004BC
:10484000594610439847009001910099019A0B0036
:104850001000134300D1CEE013000A00B61A9F41A6
:10486000002806DB7A4800F0E7FB009E019F36181F
:104870004F4153469E60DF6000229A5E002A00DAB4
:1048800086E7530099186069C900411802938B6844
:10489000C9689B46B94200DD7AE702D1B34200D92C
:1048A00076E708239C46A444059565462281A446E4
:1048B000029B2C0006E053009918C90041188D682E
:1048C000C968AB469B18DB00C318B94206DC00D1AF
:1048D000B3E01C000023E25E002AECDA2300644609
:1048E0009C4653461A806346059D1D80A3881BB2D3
:1048F000002B00DA51E72269EFF3108172B61368DA
:10490000002BFCD0BFF35F8F0123A7885B42A380FD
:104910003FB22369BFF35F8F00221A6081F31088D2
:10492000002F00DA39E72300083322009A4666692F
:104930007B00DB19DB00F318996850468C4608248D
:10494000115FDD68002910DB029306E0AB4244D022
:104950000023E15E2000002906DB4C006418E4001F
:104960003419E368AB42F1DD029B078000201F5E33
:104970001980002FDCDA1400A379002B00D110E796
:104980000023A37126000823E15E08364B1C00D1EA
:104990002CE70800A246656902E03E004B1C1AD0D5
:1049A0004B005B18DB00EF180A008C46E95E7B8841
:1049B0001BB2002BF1DA01235B42DC17BB60FC6009
:1049C000824205D0534631801B893B8053461A8171
:1049D00060464B1CE4D15446E5E6A3686345B7D96D
:1049E000C2E76B1C00D0EAE6F8E65B4658461B6956
:1049F000984700281BD153461B8822692381EFF377
:104A0000108372B611680029FCD0BFF35F8F514646
:104A100062880A8022696580BFF35F8F0021116080
:104A200083F31088B4E6864200D8F8E6B0E65B4629
:104A30001A685B680092019307E7B34500D848E71E
:104A40004CE7C046983600203C70054055470010A2
:104A50000040054070B52E4C2569002D04D00A2178
:104A60002C48FFF709FE70BD2B4E0321300000F0EB
:104A7000D9FAE660FFF70CFB284B03229C46D023B3
:104A800022701B061B6801216370254B6044A360E4
:104A90000F23800020610220638063694942A18066
:104AA00019800231198647311D83585218315A52E4
:104AB00075325C39995218320131995218320131EC
:104AC0009952183201319952083518329D520231EB
:104AD00018329952183201319952183201319952D3
:104AE000183201319952183201319952183201317C
:104AF00099520C4B0C49DC6001303562FFF73EFBEC
:104B000001210320FFF702FB084B1D60A7E7C04609
:104B1000AC1F0020BC36002000400540400000349F
:104B2000FFFF100098360020554700103860054000
:104B300000487047AC1F0020F8B51F0008AB1B7879
:104B400004001600002B08D100F07EFA32003B0072
:104B5000121A8B41002B00DA52E02269EFF3108029
:104B600072B61368002BFCD0BFF35F8F0223E15EA7
:104B700063694A005218D2009B182269002936DB6B
:104B80001D886580BFF35F8F0025156080F3108856
:104B9000069A9E60DF601A61079A5A615A8801324C
:104BA0005204520C101C002A1FD082B258800804F4
:104BB00010432669EFF3108772B63268002AFCD0E2
:104BC000BFF35F8FA2881A80A1802369BFF35F8F34
:104BD00000221A6087F310880A4923788C46013234
:104BE0009A40E36863441A60F8BD0120DDE7BFF333
:104BF0005F8F0023136080F3108801204042F3E7A9
:104C00000020F1E73C20000070B501000469EFF3DB
:104C1000108C72B620680028FCD0BFF35F8F022092
:104C20000D5E4C6968004019C00024180869002D09
:104C300036DB26884E80BFF35F8F002606608CF33C
:104C40001088E36063880498013320615B04059851
:104C50005B0CA26060611A1C002B1FD093B2280469
:104C6000628018430A69EFF3108C72B61368002B48
:104C7000FCD0BFF35F8F8B8823808D800B69BFF3DF
:104C80005F8F00221A608CF310880B7801329A40F3
:104C9000CB6808498C4663441A6070BD0122DDE789
:104CA000BFF35F8F002303608CF310880120404224
:104CB000F3E7C0463C20000010B543890A14934234
:104CC0001ADD53009B184269DB00D3180469EFF327
:104CD000108C72B62268002AFCD0BFF35F8F5A880E
:104CE000090494B2090C8A4208D00369BFF35F8FAC
:104CF00000221A608CF31088002010BD802212025E
:104D000014435C80012302698371BFF35F8F00212C
:104D100011608CF31088044902788C469340C26875
:104D2000012062441360E8E73C20000040787047AF
:104D3000F0B5C64600B582B004000D0000F084F95D
:104D400024184D41002D02DA01242F4D644206261D
:104D50007642F71736196F41AF4214D811D000F0E0
:104D600073F932003B00121A8B41002B15DC002B2B
:104D700046D02000290000F0A5F902B080BCB8465A
:104D8000F0BDA642EBD90026002700F05DF9320005
:104D90003B00121A8B41002BE9DD00F055F932007F
:104DA0003B00121A8B41002B0ADB00230193174BA7
:104DB0003200009316483B00FFF726FF0130D8D0A1
:104DC00000233900B0469C46124A1348536A994260
:104DD00004D8966A4645CCD29942CAD10668EFF308
:104DE000108772B63368002BFCD0BFF35F8F036867
:104DF000BFF35F8F66461E6087F3108820BFE5E72C
:104E0000002AB6D0C9E7C046FFFFFF7F2547001044
:104E1000AC1F002000400540BC360020F0B5C6465F
:104E200000B582B0040000F00FF9FA2206000F006E
:104E3000200000230021920001F074FA80197941CA
:104E400004000D1E02DA01242E4D6442062676422D
:104E5000F71736196F41AF4214D811D000F0F4F8AB
:104E600032003B00121A8B41002B15DC002B46D080
:104E70002000290000F026F902B080BCB846F0BD41
:104E8000A642EBD90026002700F0DEF832003B00F6
:104E9000121A8B41002BE9DD00F0D6F832003B00FE
:104EA000121A8B41002B0ADB00230193164B3200B0
:104EB000009316483B00FFF7A7FE0130D8D000232F
:104EC0003900B0469C46124A1248536A994204D8A7
:104ED000966A4645CCD29942CAD10668EFF310874C
:104EE00072B63368002BFCD0BFF35F8F0368BFF34B
:104EF0005F8F66461E6087F3108820BFE5E7002AB3
:104F0000B6D0C9E7FFFFFF7F25470010AC1F002088
:104F100000400540BC360020F0B557464E46DE4600
:104F20004546E0B506000F0085B0EFF305839946CE
:104F30008B46002B12D0384900204B6ABB4206D367
:104F40008A6ADB1B591E8B41B2424041184305B0AF
:104F5000F0BCBB46B246A946A046F0BD2F4B9A46D0
:104F6000DB68984653461B784046039300F064F88C
:104F70004246039B040004339B009B580D001B1A00
:104F800039003000001BA941894510DC0DD020BF3D
:104F9000214A0020536A5B45D9D3926ADB1B591E14
:104FA0008B41B24240411843D1E78342EFD900F030
:104FB0004BF832003B00121A8B41002B1ADB002306
:104FC0000193174B3200009350463B00FFF71CFE45
:104FD000011E0FDD104B5A6A5A451BD39B6AB34220
:104FE00016D35046FFF768FE0B4A0020536A5B4514
:104FF000ADD3D2E7084A0020536A5B45A7D300200F
:10500000926ADB1BB24240415A1E934118439EE70D
:105010005A45E6D120BFE4E700400540AC1F002020
:105020002547001010B5024A0248FEF7CBFF10BD1D
:1050300070720110003200200300416A0A00986A71
:10504000596A8A42FAD17047034B596A0A00986A32
:10505000596A9142FAD170470040054070B504008A
:105060000D00174A536A1900966A536A8B42FAD1A7
:105070003000190024184D41AB4216D813D0104B04
:105080002A005B6A9D4203D90D494B6A9342FCD3C7
:10509000934207D10A4A02E0516A994202D1916AC9
:1050A000A142F9D370BDA642E9D9054B5B6A1C0049
:1050B0005A1CEFD0012201246442E5175242E3E773
:1050C00000400540064A536A9942FCD807D1044B78
:1050D00002E05A6A914202D19A6A9042F9D8704726
:1050E00000400540F8B5DE464E4657464546E0B519
:1050F0008B4605000A991800160000F0EFFA0A9B8B
:105100006C001F02324B64199C46A400644463681F
:1051100081469F4200D967602B1FDBB29846012B66
:1051200030D9C02380229B01E31812011A60294B59
:10513000AD0059599A4600291BD17301E026226817
:1051400053401E40802342465B01E3181E60012A43
:1051500030D9802380229B01E31812011A60534644
:105160004A4667605A51F0BCBB46B246A946A046C3
:10517000F8BD586900F0B2FA013043001B18033B38
:10518000FDD2DAE75B46012BCBD1C02303229B0182
:10519000E3181A60023AA3681A42FCD07301E026B1
:1051A0002268AD0053401E4080230A4A5B019246AC
:1051B000E3181E605A462168514003220A401A60D3
:1051C00001225B469A40A3681A42FCD0C1E7C04660
:1051D0000080004004320020F0B546464F46D646D7
:1051E000C0B51F00344B44009C462418A4006444FE
:1051F000636888461600FF2B02D880235B0063603B
:10520000031FDBB29A46012B30D9C02380229B01B9
:10521000E31812011A60294B850059599946002953
:105220001BD17301E026226853401E408023524662
:105230005B01E3181E60012A30D9802380229B0184
:10524000E31812011A6080235B0063604B465F51D4
:10525000E0BCBA46B146A846F0BD586900F03EFA37
:10526000013043001B18033BFDD2DAE74346012B14
:10527000CBD1C02303229B01E3181A60023AA36832
:105280001A42FCD07301E0262268850053401E407C
:1052900080230A4A5B019146E3181E60424621685A
:1052A000514003220A401A60012342469340A268FB
:1052B0001342FCD0C1E7C046008000400432002009
:1052C000014B8000C058704704320020F8B504003C
:1052D00021481E0017000D0000F000FA0100380000
:1052E00000F0FCF9069B36041B031E432368002BC9
:1052F00020DB1A4B1A49E3185A1E9341802292016F
:1053000094465B421B0B174A1B0363441360164A07
:1053100013601F000A689743FBD1144B2560E21805
:105320002123A06013602368002BFCDA0823E660C9
:105330001360F8BD3F2322681340AB42D9D1A36864
:105340001B051B0D8342D4D1EE22E368D202134029
:10535000B342CED1EDE7C046001BB7000040FDBF11
:1053600008C0004000E0004000F0004004300000B1
:1053700010B580241C4BE4051C6000281AD00123C2
:105380001A4C18431A4BDC611A4C44401C62596297
:1053900098628021144BC9051960174817490860A5
:1053A000E021C9041960002A07D18022144B12069B
:1053B0001A6010BD0E4BD861EBE753019B1A9B009E
:1053C0009A18802312015B049A4209D213000D49F6
:1053D0000B60074B5A608022094BD2051A60E8E740
:1053E000094B1A00F3E7C04600B00540D3C007B030
:1053F000008005402D3FF84FFCFF010008200140D0
:1054000000A0054070360020FFFFFF008023024A05
:105410009B000B43D362704700800540002310B50A
:105420000100988A1B8B984710BDC046162310B503
:105430000100188802331B88984710BDF8B547460D
:10544000CE4680B50F1E18D01423994604330400AD
:105450000025012698464B461888434621681B883C
:10546000984701C4431E984101350640AF42F2D12E
:105470003000C0BCB946B046F8BD0126F8E7C046CA
:10548000002370B504000D00988A05491B8B9847CE
:1054900003000020002C01DB0130A04029009847C8
:1054A00055420000AA23064A1B0113608D235B00AE
:1054B000D3600449044B19605368002BFCDA704731
:1054C0000040024000B0FA00006002407047C04651
:1054D00010B50148FEF748FD9472011070B5074DF4
:1054E000074EB54209D20024013E761BB60808CD0E
:1054F000984723000134B342F9D170BD58620110BE
:1055000094620110054B064A06491A60064A074B89
:105510001A6010000B689843FBD1704700E0004010
:10552000BFCDFBFE08C00040FE7F3C0000F0004005
:10553000044BDB6C002B03D18022034BD2021A6098
:105540007047C046000011504C201150044A054BD2
:105550001A60054A1368DB018033FBD17047C046EF
:10556000FFFFFF0100F0004008C000404022034B55
:105570009A675A671A67DA667047C04600F00140BA
:1055800010B5FEF7A3FD10BD70B5044D044CA9681D
:10559000C022200001F00CF8AC6070BD00ED00E00E
:1055A00000000020002310B5294C82B0A367FFF74C
:1055B00079FF0122274B1A60636C012BFCD1032277
:1055C000254B1A60224A936B012BFCD101330093C7
:1055D0000121224A22480433FFF778FE05230121E6
:1055E0000093204A2048FFF771FE00220221042088
:1055F0001E4BFFF7F1FD0022012105201C4BFFF798
:10560000EBFD0022002107201A4BFFF7E5FD0022E9
:1056100000210820174BFFF7DFFD8023DB000093FC
:10562000002200210920134BFFF75CFD0022104BE4
:1056300000210620FFF7D0FD0420FFF741FE0E49B0
:1056400000F04CF801000020FFF7E0FE02B010BDB2
:10565000008000403CB0004030B00040002F68594E
:1056600000800240008C864700C00240001BB7004B
:1056700040597307006CDC0240420F0001480421CE
:10568000014B1847D01F00203D540010124A936F61
:105690009B0815D29066D166002905D0FFE7FFE789
:1056A000FFE7516F106F704704B580210906C217DC
:1056B0005140002800D0C84310F04EFD002104BD29
:1056C000F0B5146E556E576F166FFFF7E3FF146653
:1056D000556657671667F0BD000000D0114A936FFA
:1056E0009B0813D210665166002905D0FFE7FFE73B
:1056F000FFE7516F106F704704B5002801D00020FC
:10570000C04310F029FD002104BDC046F0B5146E61
:10571000556E576F166FFFF7E5FF146655665767AE
:105720001667F0BD000000D094464A4A926F920876
:10573000624601D228E0C046F0B5464E346E756E22
:10574000776F366F00F020F89446424A146655662B
:10575000576716676246F0BD94463E4A926F9208BC
:10576000624601D254E0C046F0B53A4E346E756ED2
:10577000776F366F00F04CF89446364A14665566DB
:10578000576716676246F0BD002B24DB11D0002955
:105790003EDA00B5C943404200D1013100F038F88B
:1057A000C943404200D10131DB43524200D10133B1
:1057B00000BD002AEBD1002801D1002905D000202E
:1057C000C90FC90701D1C043410800B510F09CFCC6
:1057D0000022002300BD00B500290ADBDB43524252
:1057E00000D1013300F014F8C943404200D1013127
:1057F00000BDC943404200D10131DB43524200D1D8
:10580000013300F005F8DB43524200D1013300BD03
:10581000002923D1002B18D1002A0CD0BC460D4FF3
:1058200038667A6600210023FFE7FFE7FFE77A6F1B
:10583000386F67467047002801D00748010000B55F
:1058400010F062FC0022002300BD02000B000020CB
:1058500000217047000000D0FFFFFFFF002B00D0A9
:10586000BFE0130C28D1002AE7D080B4114F39666D
:105870007A66FFE7FFE730B4040C7B6F396F1B04D7
:1058800023433B667A66FFE7FFE7FFE7C04684B243
:105890007B6F3D6F1B0423433B667A66FFE7FFE7A0
:1058A000C04600232C042D0C7A6F386F0019694113
:1058B000B0BC7047000000D0F0B594460025140E2F
:1058C00001D112020835140F01D112010435940FD1
:1058D00001D192000235D40F01D152000135D40B11
:1058E0000134254F7C66254C3C660E0C93B2FFE7D5
:1058F000FFE7FFE73C6F6643360C7703BE46734312
:10590000DF0B5B04C01AB941130C7343DB18C91ACF
:10591000CE086643360CB64493B273431F0F1B0187
:10592000C01AB941130C73431F0B1B05C01AB941B0
:10593000860D8F023E436643360C092D24DB520A46
:105940007243801A7703460A6643360C16235B1BA4
:10595000DE40DF40BF1964466643821B7046043553
:1059600006330100D940A840C01900D30131A2423A
:1059700006D20023F0BD0000000000D0FFFFFFFFB3
:10598000121B0130F3D3F1E709277F1BFE40644669
:10599000A2B27243801A00D20139220C7243130C56
:1059A0001204821A99410B00704604351337010026
:1059B000F940A840801900D30131002B02D1A24246
:1059C0000AD2F0BD013000D30131121BFAD2013BE3
:1059D000F8D1A24200D2F0BD013000D30131121B38
:1059E000F7E7F0B51C0C00D080E00CB400251C0AD1
:1059F00004D11B02160E3343120208351C0B04D1CE
:105A00001B01160F3343120104359C0B04D19B007C
:105A1000960F334392000235DC0B02D192185B41A2
:105A200001351C00971864410134464F7C66464C92
:105A30003C660E0CFFE7FFE7FFE7C0463C6F66439E
:105A4000360C7703BE4697B27743C01B00D20139AC
:105A5000C01B00D201399FB27743C91BC91B170C69
:105A600077437E04FF0B801BB941CE086643360C9A
:105A70000C2D33DBB644120B1F053A431B0B97B2B8
:105A80007743C01B00D201399FB27743C91B170C63
:105A900077433E043F0C801BB941860D8F023E4385
:105AA000664329277F1BFE400C3D7746AF40BF1958
:105AB00030BCA2B2ABB272437343801A9941220C3C
:105AC0007243130C1204801A994102000B00013733
:105AD000001BA941F9D2781E0021F0BD0C277F1BC5
