:020000041000EA
:1000000000B5324B212058609868022188439860DF
:10001000D860186158612E4B002199600221596106
:100020000121F02299502B49196001219960352056
:1000300000F044F80222904214D00621196600F024
:1000400034F8196E01211966002018661A6600F04E
:100050002CF8196E196E196E052000F02FF8012189
:100060000842F9D1002199601B49196000215960AB
:100070001A491B48016001219960EB211966A021F2
:10008000196600F012F800219960164914480160C1
:100090000121996001BC002800D000471248134993
:1000A000086003C880F30888084703B5996A0420EC
:1000B0000142FBD001200142F8D103BD02B5186610
:1000C0001866FFF7F2FF186E186E02BD00000240BE
:1000D000000000180000070000035F00212200005C
:1000E000F4000018222000A00001001008ED00E03C
:1000F00000000000000000000000000074B24E7A12
:1001000000200420F7010010C3010010C5010010F9
:10011000C1010010C1010010C1010010C101001097
:10012000C1010010C1010010C1010010C701001081
:10013000C1010010C1010010C9010010CB01001065
:10014000CD010010CD010010CD010010CD01001037
:10015000CD010010CD010010CD010010CD01001027
:10016000CD010010CD010010CD010010CD01001017
:10017000CD010010CD010010CD010010CD01001007
:10018000CD010010CD010010CD010010CD010010F7
:10019000CD010010CD010010CD010010CD010010E7
:1001A000CD010010CD010010CD010010CD010010D7
:1001B000CD010010CD010010CD010010CD010010C7
:1001C00000BE00BE00BE00BE00BE00BEEFF3058054
:1001D000103800BEF2EB887158CD01107CCD0110B3
:1001E0003802001090A31AE71E481F49086006C88D
:1001F00081F3088810471D480068002801D019487D
:10020000F3E70DA40ECC002902D000F012F8F9E7B4
:100210001749184A002000E001C19142FCD116495B
:100220008847164988471649884700BEFDE701C937
:1002300001C29A42FBD370477CCD0110C000002060
:10024000702300202CF00110000004200000042086
:100250002CF0011000100420001004200000000009
:10026000704700000000000008ED00E0000000D032
:1002700070230020083800207587001095030010B7
:1002800035870010F8B5C04606480749091A8B1093
:10029000C90FC91810B5491003D0044B002B00D06A
:1002A000984710BD7023002070230020000000003C
:1002B000054B10B5002B03D00449054800E000BFF2
:1002C000FFF7E2FF10BDC04600000000903500209F
:1002D000FC71011030B585B00500204808F0E0FB46
:1002E0001F4808F0DDFB002410E01E48210008F044
:1002F00007FC0FE01C4808F003FCE217120FA118DE
:100300000F230B409B1A0F2B1FD001347F2C20DCB6
:100310002307EAD078231A0022402342EAD0782A21
:10032000E8D0E1B228680023009301330F226A4429
:100330000BF012FD002804DB0C48210008F0E0FB64
:10034000DBE70B4808F0DCFBD7E70A2008F09AFB54
:10035000DBE7084808F0A4FB05B030BD00720110CF
:10036000187201104C720110547201105C7201106D
:10037000587201106472011000B585B00068002346
:10038000009301330F226A440BF0E6FCC043C00F18
:1003900005B000BDF0B5DBB008F046FBE049E14830
:1003A00008F0AEFBE04808F07BFBE04AE049E1489A
:1003B00008F0A6FBE04808F073FBFA26F6003000D0
:1003C00005F0ECFBDD4CDE4D210028000BF08EFC2F
:1003D0000321042004F0FCFA0321052004F0F8FABC
:1003E00000220121042004F00DFB00220121052040
:1003F00004F008FBD34823000522042108F080FB09
:1004000058AC27222900200000F0F6FBCE4808F067
:1004100047FB200000F065FC200000F0C0FC00223B
:100420000021200000F094FCC849200000F0AAFC44
:10043000300005F0B3FBC64808F032FBC54804F0B5
:100440006BFA002842D1C44808F02AFBC34808F0E0
:1004500027FB58A955A803F0B9FDBE4B3C229B5C75
:10046000002B37D1B64B549354AC2000FFF732FF2A
:1004700027212000FFF780FF002847D0B848272118
:1004800008F03EFBB34B3C229B5C002B38D1B14BB8
:100490003C229B5C002B4BD1AB4808F001FB58ACD5
:1004A000200000F01EFC200000F079FCA94B3C224B
:1004B0009B5C002B42D14AAC0E230D220C21200064
:1004C00001F090F9200001F0A9F93DE0A54808F0FD
:1004D000E7FABBE755AC200003F07EFD200003F0F7
:1004E0002BFEA1490A22200003F0DCFEFA20400086
:1004F00005F054FB9D491422200003F0D3FEB1E720
:100500009B493B3A55A803F09DFDC0E79948272138
:1005100008F0F6FA984808F0C3FA8E4B3C229B5C30
:10052000002BB4D09249002255A803F08BFDAEE712
:1005300092491E3A55A803F0B5FEADE78F491E3A21
:1005400055A803F0AFFEB6E7824B3C229B5C002B24
:1005500009D08B493B3A55A803F074FD89492822FC
:1005600055A803F09FFE58A949A800F0E5FE49A848
:1005700000F0F6FE58A943A801F054F843A8824BB6
:10058000436101F06BF8814808F08AFA714B3C2214
:100590009B5C002B09D07E493B3A55A803F052FDE5
:1005A0007C493C2255A803F07DFE7B480CF052FAB2
:1005B000002812D0674B1A6AD96924201B5C77483F
:1005C0000393029101920B230093013B0022744993
:1005D00000F00AFD70480CF05DFA704800F0C0FCB5
:1005E000704804F03FFF70480BF0B2F9594B3C22C1
:1005F0009B5C002B09D06D493B3A55A803F022FDC6
:100600006B49502255A803F04DFE644B43AA00925B
:100610004AAA58A904A802F073F904A801F0F8FC4A
:10062000644808F03DFA4B4B3C229B5C002B0CD0FD
:100630005F493B3A55A803F005FD5F49642255A880
:1006400003F030FE55A803F0AFFD5C4808F028FA2F
:100650005B4808F025FA5B4808F022FA002405F010
:1006600091FB002909D0FA229200002305F0DCFE5C
:100670000500384804F01CF805E0FA21890005F06F
:1006800095FE0500F5E74AA801F036F94AA801F001
:1006900013F9002803D004AB1B7F002B14D04AAB06
:1006A0001B7DDEB2002B16D1474B00221A60474B50
:1006B0001A70370004AB1B7F002B00D197E008991C
:1006C000434808F01DFA8DE0424808F0E9F904A813
:1006D00003F05AFCE3E73C4B1B68002B04D13A4B78
:1006E0001D603A4B00221A70374B1B68002B75D0E7
:1006F000364A1778002F73D1ED1AFA239B009D42DA
:10070000D8D9130001221A7004AB1F7F002FD1D15A
:10071000314808F0C5F904A802F066FA3700C9E7C5
:10072000B8720110C0720110D4720110F872011079
:10073000047301101073011020730110801A060059
:10074000E81D00203C7301107473011098730110B0
:10075000A0730110DC2F0020C87301103C7401103D
:100760007C7401100C7401105C7401106C74011025
:10077000A0740110A4740110D4740110107501103C
:100780001C7501102C750110000020413C750110F2
:100790006475011070750110F824002044250020B4
:1007A0000000205028250020F10B0010807501105A
:1007B000907501109C750110C0750110D475011061
:1007C000007601106C76011040250020F4370020DF
:1007D0001C770110B8760110F0760110002769E748
:1007E000002767E73A00310004A803F075FA0020FB
:1007F00008F01EF94238342800D924E18000A84BC3
:100800001B589F46A74808F04BF9642005F0C6F92D
:100810000122A549002005F031FCFEE7A34816F0AF
:10082000B7FCA34B00225A61A24B1A60A24B0022D4
:100830001A609E4816F0F4FBA04808F031F902E176
:1008400054A8FFF747FDFEE09D4808F029F99D48B0
:1008500008F026F99C4808F023F99C4808F020F994
:100860009B4808F01DF99B4808F01AF99A4808F0CF
:1008700017F99A4808F014F9994808F011F99948BD
:1008800008F00EF9984808F00BF9984808F008F9B4
:10089000D9E0864816F07CFC85488C22835C0121D7
:1008A0004B40835400F05CFB804816F0B9FB804B52
:1008B0008C229B5C002B04D08D498E4808F020F9D7
:1008C000C1E08D49F9E7794816F062FC8B4808F0E1
:1008D000E7F8774B986E06F089FC02000B00884819
:1008E00008F00EF9724800F0C3FC06F07FFC02002D
:1008F0000B00844808F004F96D48834900F0CEFCF1
:1009000006F074FC02000B00804808F0F9F8684B10
:10091000586F06F06BFC02000B007D4808F0F0F801
:10092000634B196F7B4808F0EBF8614800F0CEFC90
:1009300006F05CFC02000B00774808F0E1F877480D
:1009400008F0AEF8764B1968764808F0D9F8764B7F
:100950001968764808F0D4F8554B84229B5C002B2C
:1009600004D07349734808F0CBF801E07249F9E705
:100970004F4B8C229B5C002B04D07049704808F0D0
:10098000BFF801E06F49F9E7484816F049FB5AE023
:100990006D4808F085F86D4808F082F86C496D489C
:1009A00008F0AEF86C496D4808F0AAF86C496D483B
:1009B00008F0A6F86C4808F073F86C4808F070F876
:1009C00041E03A4816F0E4FB394800F09DFC544BF6
:1009D00000221A60544B1A60344816F021FB644818
:1009E00008F05EF82FE0634808F05AF84AA800F0D3
:1009F000A1FF0100604B180008F082F84E995F4893
:100A000008F07EF84AAB1B7D002B04D05C495D48A2
:100A100008F076F801E05C49F9E751995B4808F085
:100A20006FF804AB1B7F002B04D04149584808F0F5
:100A300067F801E04049F9E7564808F031F802E06C
:100A4000554808F02DF8194816F0A2FB194B1D68FF
:100A5000194B1E68324B1B68334B1B68134816F04A
:100A6000DFFAAC4203D004AB1B7F002B03D0012084
:100A700005F094F8F3E549A800F09AFC0023002261
:100A8000311C49A800F086FD2C00F0E743480BF02C
:100A9000FDFF4AA800F0B6FE0BF06CFBF9E7C0467C
:100AA000A0A8011050770110002004202825002064
:100AB00044250020382500203025002070770110C3
:100AC000887701109C770110B8770110CC7701105E
:100AD000E87701101078011028780110487801108B
:100AE000687801108078011094780110B0780110B6
:100AF00074720110D878011078720110F07801102A
:100B0000187901103C790110000020415079011042
:100B10007879011094790110AC790110C87901102D
:100B200034250020E47901103C250020FC790110D7
:100B300080720110187A0110488701108472011028
:100B4000347A011094720110407A0110647A011015
:100B5000B8720110907A011004730110A07A01108C
:100B6000F8720110B07A0110C07A0110FC7A0110FD
:100B7000387B0110587B01107C7B0110887B0110B1
:100B8000A4720110987B0110AC720110A47B0110BB
:100B9000B87B0110CC7B0110FC7B0110F8240020F5
:100BA00070B50D4C200000F0BBFA0C4D280016F07B
:100BB000EFFA62690A4B1A60200000F048FB094B0B
:100BC0001860A26F084B1A60E26F084B1A60280089
:100BD00016F026FAE5E7C046442500202825002027
:100BE0003825002030250020342500203C25002019
:100BF00010B50020FFF7D4FF016002710823437194
:100C0000704770B584B0040004230B430F226A447C
:100C10001370042399430E256D44297001790068EF
:100C200000260096033B0BF08BF80120002104F016
:100C3000A3FF21792068009601232A000BF080F899
:100C40003220002104F098FF04B070BD30B585B0AB
:100C5000040043790B430F256D442B700179006824
:100C60000023009301332A000BF06AF82978200052
:100C7000FFF7C7FF05B030BDF0B585B004000F2306
:100C80000800984303001343607903430F256D4424
:100C90002B7009010A4310430E266E4430702179EF
:100CA00020680027009701232A000BF049F82978D3
:100CB0002000FFF7A6FF217920680097012332006A
:100CC0000BF03EF831782000FFF79BFF05B0F0BD38
:100CD00010B500220121FFF7CFFF022004F05EFFD4
:100CE00010BD10B50400322004F058FF3021200060
:100CF000FFF7ACFF052004F051FF30212000FFF783
:100D0000A5FF6420002104F037FF30212000FFF709
:100D10009DFF6420002104F02FFF20212000FFF719
:100D200095FF002228212000FFF7A6FF00220C21BA
:100D30002000FFF7A1FF2000FFF7CAFF00220621D5
:100D40002000FFF799FF022004F028FF10BD0000EB
:100D500000B583B00A4B0193032A00D903220F295F
:100D600000D90F2101AB9B5C5B18DBB280214942AB
:100D70001943C9B20022FFF77FFF03B000BDC04690
:100D80000040145470B505000C0004E00134012249
:100D90002800FFF771FF21780029F7D170BD0823E3
:100DA0004371704770B505001600CB00382119401B
:100DB0004023194349B2C9B20022FFF75DFF002466
:100DC00005E0315D01222800FFF756FF0134072CB2
:100DD000F7DD70BD10B50122FFF74EFF10BD00001A
:100DE000F0B500231360446801338B4023420CD0DC
:100DF000224C23680133236044680D000835012329
:100E0000AB402342F8D1AB001B580025002606E07A
:100E10001A4F3B6801333B60194B1C700135446825
:100E20000F0008370123BB40234212D10F2D10D8E9
:100E3000BB001C5803231C40114B1B78A342EDD070
:100E40009B002343DBB20F4FFB56002BE0D0F6187C
:100E5000E2E70D4B996A0D4B1B68CB1A0C48834295
:100E600004D9064B00201860084B1960002E01D1F0
:100E70000020F0BD16600120FBE7C046D42500200D
:100E8000F5370020B0A9011000400540D82500200A
:100E900080969800F0B5D6464F464646C0B586B017
:100EA0000600884691461F0002AD1022002128004E
:100EB00006F0B8FA80235B020293F8235B020393E7
:100EC0008023DB020493C0231B0304934A460932A8
:100ED0004B46DB01120313430393FB03F822120377
:100EE0001340059380231B0304931B4B04931B4B5C
:100EF000F418240DE4B20634E4B22100380003F003
:100F000067FD7B1C9A462100180003F061FD002359
:100F1000009302333A00414630000AF0F7FF002206
:100F20000121380003F06EFD00220121504603F03C
:100F300069FD2B004A46414630000BF041F833680A
:100F4000012241468A401343336006B0E0BCBA46F2
:100F5000B146A846F0BDC046000008800000E0AFE2
:100F600070B582B004008C23C35C002B0DD01D49EA
:100F700040680AF0B3FF0200E368A1686068246972
:100F80000094FFF787FF02B070BDC06803F02EFE2B
:100F9000206903F02BFEE36801252A009A40D02641
:100FA0003606B26223692A009A40B262E0680022E3
:100FB000012103F027FD20690022012103F022FD19
:100FC00023697268290099400B0013405A1E93410F
:100FD000E16872688D4015406A1E95415B001D43B3
:100FE0002576D0E7C0A9011070B5040007A80078E5
:100FF000204D25606160A260E360049B23610023B3
:1010000063612376059AE261069A22628C22A054DB
:101010000022A2666422A35404F0B4FE002913D077
:10102000FA229200002305F0FFF98823E050E066E1
:101030000023236700226267A367E3678022A05032
:101040000432A354002210E0FA21890005F0AEF921
:10105000EBE7130008339B00E318002159601300ED
:1010600010339B00E31859600132072AF1DD20009C
:1010700070BDC04698A9011030B56425435D1C00C1
:101080000834A40004196160190010318900411866
:101090004A60013307221340435530BD70B5040048
:1010A0000022002500200CE0130008339B00E31809
:1010B0005B68C018130010339B00E3185B68ED18E1
:1010C0000132072AF0DD002D1AD006F033F8061C95
:1010D000280006F02AF8011C301C05F0CAFF0A4956
:1010E00005F0DDFF011CE06905F0D9FF051C206A51
:1010F00006F01BF8011C281C05F0BBFFA06670BDA4
:101100000023A366FBE7C04600007A44037E9B00F1
:101110001943C9B2014B58567047C046A0A90110E7
:10112000F0B5C64600B582B0040004F02BFE0029DD
:101130001BD0FA229200002305F076F906006369BD
:1011400098468C23E35C002B37D00025A1686068AB
:1011500001AAFFF745FE00280DD0092D0BD86269C2
:10116000019B9B1863610135F0E7FA21890005F0C6
:101170001DF90600E3E7092D05D9A36F0133A36725
:1011800084230122E2546268A168506801238B40E5
:1011900003422FD0A36F0133A36702E0BB009B582B
:1011A0000135506808239C468C44073B6746BB408A
:1011B00003421FD1042DF1D91CE02269D021090678
:1011C000486801252B0093401A000240501E8241BE
:1011D000E068496885400D406B1E9D4152001543F3
:1011E000237EAB4206D029002000FFF78FFF40444A
:1011F000606125766569454508D18823E650200061
:10120000FFF74CFF02B080BCB846F0BD4346ED1A74
:101210008823E258B21A29002000FFF72DFFE36E61
:10122000F31AFA22920093420AD3206F05F07DFF51
:10123000FA21890505F033FF606700232367E6661E
:10124000236FEA17AD1855405B192367D5E770B5D2
:101250000400406905F06EFFE16905F020FF051C00
:10126000206A05F062FF011C281C05F002FF70BD1A
:1012700070B50400C5690021281C05F051FF002845
:1012800001D1002070BDA06E291C05F0F2FE0249BC
:1012900005F005FFF6E7C0460000704270B5050096
:1012A0000C1C0021201C05F03BFF002801D1002070
:1012B00070BDA86E40004008211C05F0DAFE02490E
:1012C00005F0EDFEF4E7C0460000C84270B5046AC0
:1012D000002C15D0456F0021281C05F021FF0028A7
:1012E00001D100200DE00749281C05F0D8FE051C9F
:1012F000200005F01AFF011C281C05F0BAFE00E0D2
:10130000002070BD0000704210B504000023836708
:10131000C3678422835404F035FD002907D0FA22E4
:101320009200002305F080F88023E05010BDFA21E0
:10133000890005F03BF8F7E70160704770B50500DC
:10134000002407E02868E200044BD218E1B2FFF75E
:1013500029FD0134072CF5DD70BDC04624AA01101B
:1013600010B5FFF7EBFF10BD10B5040000680132A7
:10137000D2B2FFF7EDFC20680721FFF72BFD10BD6F
:1013800070B505000C0000680232D6B23200FFF7DB
:10139000DFFC28680721FFF71DFD28680134E1B252
:1013A0003200FFF7D5FC28680721FFF713FD70BD59
:1013B00070B50500002409E02868E2B20021FFF7BB
:1013C000C7FC28680349FFF7DDFC0134022CF3DD7C
:1013D00070BDC0463C7C0110F8B505000F0016003A
:1013E00000240AE028683219D2B23900FFF7B0FCB5
:1013F00028680349FFF7C6FC0134022CF2DDF8BD72
:1014000054720110F0B5D6464F464646C0B50400AA
:101410000E0017001D00092900D980E01A003900CC
:10142000FFF7DAFFF3009E1B584BF61820682A00DE
:101430003900FFF78DFC7379002B00D178E020682C
:101440000521FFF7C7FC20687B1CDBB299462A0008
:101450001900FFF77DFC3378002B6ED02068002147
:10146000FFF7B8FC2068BB1CDBB298462A001900C5
:10147000FFF76EFC7378002B64D020680121FFF722
:10148000A9FC20686B1CDBB29A461A003900FFF7F2
:101490005FFC7379002B5AD020680521FFF79AFC76
:1014A000206852464946FFF753FCB379002B53D0CE
:1014B00020680621FFF78EFC206852464146FFF760
:1014C00047FC7378002B4CD020680121FFF782FC89
:1014D00020680235EDB22A003900FFF739FC337974
:1014E000002B43D020680421FFF774FC20682A00F9
:1014F0004946FFF72DFCF378002B3CD020680321F0
:10150000FFF768FC20682A004146FFF721FCB3780A
:10151000002B35D020680221FFF75CFC03E01A00A5
:101520003900FFF759FFE0BCBA46B146A846F0BD06
:1015300020681749FFF726FC85E720681449FFF764
:1015400021FC8FE720681249FFF71CFC99E720680F
:101550000F49FFF717FCA3E720680D49FFF712FCBE
:10156000AAE720680A49FFF70DFCB1E7206808499F
:10157000FFF708FCBAE720680549FFF703FCC1E75D
:1015800020680349FFF7FEFBCDE7C046DCA9011048
:1015900074890110F0B5C64600B584B006008846CF
:1015A00014001F00FFF704FF1D4D404605F01EFE0E
:1015B000009001912A00082102A807F03FF80025B9
:1015C00004E00434E4B20F2C26D80135052D23DCC9
:1015D00002A9495D2029F4D02D290DD02E2913D040
:1015E0003039C9B20929EED83B0022003000FFF79C
:1015F00009FF0434E4B2E6E73A0021003000FFF7C7
:10160000B3FE0434E4B2DEE73A0021003000FFF715
:10161000B7FE0234E4B2D6E704B080BCB846F0BDF1
:10162000347C0110054B436101600023037183602A
:101630000023C360012303747047C04600002041AB
:1016400010B50400006803220021FFF781FB206829
:101650000149FFF797FB10BD547C011010B5FFF74F
:10166000EFFF10BD70B50400534B1B681A7D002AB4
:1016700007D19968D0231B065A6801238B40134277
:101680000AD04D4B1B68002B05D01A68A24207D028
:101690009B68A34243D070BD484807F001FAF0E7C9
:1016A000474807F0FDF9474B9C6A434B1B685A6A51
:1016B000A21A45498A4222D91968D0252D066868A0
:1016C000012216008E40310001400800461EB04144
:1016D000C0B25E686D68B2402A40002908D1197B0B
:1016E000002905D0002A16D01A6901321A615C62FD
:1016F00018731969DA69354807F002FACBE71868F8
:10170000D02212065168012282400A40511E8A41AD
:10171000D2B21A73BFE71A69013A1A61E7E72C4897
:1017200007F0BEF9274B9C6A234B1A689068D023B8
:101730001B065968012383400B4212D11068D02345
:101740001B065968012383400B4207D05068D02301
:101750001B065968012383400B4213D11D4807F033
:101760009FF9154B1A689068D0231B06596801230E
:1017700083400B4201D0002313750122042103F0A2
:10178000A9F988E79369E31A13498B42E9D9012340
:1017900013759461136AE31A10498B4208D8D36910
:1017A0000133D3611462D1690D4807F0A9F9D8E774
:1017B0000123D361F6E7C04608250020647C0110B0
:1017C0007C7C011000400540B70B0000A07C01109C
:1017D000D47C0110F87C01101F4E00003F420F0026
:1017E0003C7D01100160426083600023037303614C
:1017F00003758361C36103624362014B18607047E4
:1018000008250020044B1B68834200D07047024B20
:1018100000221A60FAE7C0460825002070B50400CF
:1018200081681F4807F06CF9206803F0DFF96068F1
:1018300003F0DCF9A06803F0D9F9236801252A0038
:101840009A40D0263606B26263682A009A40B26295
:10185000A3682A009A40B26220680022012103F0A6
:10186000D1F860680022012103F0CCF8A0680022C2
:10187000012103F0C7F82068736885401D406B1E86
:101880009D41EDB22573074B01220C2103F04AF96B
:10189000A0680122042103F01DF9012070BDC0469B
:1018A000647D0110651600100269024B1868101A59
:1018B0001A607047DC2500200C4B9B6AC269022A23
:1018C00004D9026A9A1A0A498A4208D9026A9B1AFA
:1018D000084A934207D90023C361002070470023C0
:1018E000C3610120FAE70020F8E7C0460040054048
:1018F0003F420F0040420F008368D0221206516819
:1019000001229A40094B9B6A0A4204D0027D002AB8
:1019100001D000220275026A9B1A054A934204D93B
:10192000C369002B01D00023C3617047004005400C
:1019300040420F0010B582B00369027D002A0CD02E
:101940000749C069074A084C0190009164212000B2
:1019500006F074FE200002B010BD0449F1E7C04655
:10196000887D0110907D0110E42600208C7D0110FF
:10197000014B01221A707047F1370020034BBFF36F
:101980005B8F1868BFF35B8F7047C046002500204F
:10199000054BBFF35B8F1878BFF35B8FC0B2431E5C
:1019A0009841C0B27047C046FC240020034BBFF3EF
:1019B0005B8F1868BFF35B8F7047C046042500201B
:1019C000F0B589B004000E1C0068FFF781F92068AB
:1019D00000220021FFF7BCF920681649FFF7D2F971
:1019E000206801220021FFF7B3F920681249FFF7B0
:1019F000C9F9206802220021FFF7AAF90F4D03AFB1
:101A0000301C05F0F3FB009001912A0014213800EE
:101A100006F014FE20683900FFF7B4F920680322AD
:101A20000021FFF795F920680549FFF7ABF909B0E8
:101A3000F0BDC046AC7D0110C07D0110D47D011009
:101A4000DC7D011010B504000068FFF741F9206843
:101A500000220021FFF77CF920680B49FFF792F97B
:101A6000206801220021FFF773F920680749FFF77A
:101A700089F9206802220021FFF76AF920680449E9
:101A8000FFF780F910BDC046F07D0110007E011007
:101A9000107E0110F0B589B004000E1C0068FFF73D
:101AA00017F9206800220021FFF752F92068164933
:101AB000FFF768F9206801220021FFF749F9206843
:101AC0001249FFF75FF9206802220021FFF740F971
:101AD0000F4D03AF301C05F089FB009001912A00E7
:101AE0001421380006F0AAFD20683900FFF74AF9F2
:101AF000206803220021FFF72BF920680549FFF732
:101B000041F909B0F0BDC046207E0110C07D011032
:101B1000D47D0110DC7D011070B58AB0040000682E
:101B2000FFF7D6F8206800220021FFF711F920689E
:101B30001649FFF727F9206801220021FFF708F96D
:101B400020681349FFF71EF9206802220021FFF7E1
:101B5000FFF8A823E0580F4D02AE05F047FB0090B8
:101B600001912A002021300006F068FD2068310034
:101B7000FFF708F9206803220021FFF7E9F8206841
:101B80000549FFF7FFF80AB070BDC046347E01106A
:101B9000487E0110587E0110647E011070B58AB035
:101BA00004000068FFF794F8206800220021FFF786
:101BB000CFF820681149FFF7E5F8206801220021DD
:101BC000FFF7C6F8A823E0580D4D02AE05F00EFB56
:101BD000009001912A002021300006F02FFD20689E
:101BE0003100FFF7CFF8206802220021FFF7B0F89C
:101BF00020680449FFF7C6F80AB070BD787E01106E
:101C0000587E01108C7E011070B504000D00006834
:101C1000FFF75EF8206800220021FFF799F8002DF9
:101C20000DD020680849FFF7ADF820680122002197
:101C3000FFF78EF820680549FFF7A4F870BD20680B
:101C40000349FFF79FF8F0E7A47E0110D07E011052
:101C5000B87E011030B591B004000068FFF738F885
:101C6000206800220021FFF773F820681849FFF769
:101C700089F8206801220021FFF76AF8154B164AFF
:101C800008AD2021280006F0D9FC20682900FFF7C4
:101C900079F8206802220021FFF75AF80F4B104A0A
:101CA0002021684606F0CAFC20686946FFF76AF8FA
:101CB000206803220021FFF74BF820680949FFF74D
:101CC00061F8FA20C00003F069FF11B030BDC046D2
:101CD000E07E011004730110F07E0110B872011053
:101CE000FC7E0110047F011010B50100154B038527
:101CF00096239B00C362FE239B05036300233422CB
:101D00008354303282633C2032240C5401301E3420
:101D10000C540A64633A07300A5401300B540A48E1
:101D200088644C200B544D33CA54023B0B65413B35
:101D30004B65064B8B6508005C302831333205F06B
:101D400077FB10BDD2040000102700000000C8423D
:101D500010B504000068FEF7BBFF206800220021D8
:101D6000FEF7F6FF20680F49FFF70CF82068012204
:101D70000021FEF7EDFF20680B49FFF703F820680C
:101D800002220021FEF7E4FF20680849FEF7FAFF6F
:101D9000206803220021FEF7DBFF20680449FEF7DC
:101DA000F1FF10BD147F0110207F0110307F011062
:101DB000447F0110F0B5C64600B506000F0001686B
:101DC000364806F09DFE3068FEF782FF306800223C
:101DD0000021FEF7BDFF30683149FEF7D3FF7B1EBF
:101DE00005D49846072B04DD0723984601E000231D
:101DF0009846002509E030682A49FEF7C3FF16E03F
:101E000030682949FEF7BEFF0135022D42DC43460A
:101E10005C19092C3EDC30686A1CD2B20021FEF746
:101E200097FFA742E7D030682049FEF7ABFF092CA7
:101E3000EAD8A4001E4B1B599F4630681D49FEF787
:101E4000A1FFE1E730681C49FEF79CFFDCE7306842
:101E50001A49FEF797FFD7E730681949FEF792FF56
:101E6000D2E730681749FEF78DFFCDE73068164995
:101E7000FEF788FFC8E730681449FEF783FFC3E721
:101E800030681349FEF77EFFBEE730681149FEF760
:101E900079FFB9E780BCB846F0BDC046547F011059
:101EA0008C7F01109C7F0110A47F0110A07F011086
:101EB00064AA0110B87F0110CC7F0110D87F0110F7
:101EC000E47F0110F07F0110FC7F01100C800110F5
:101ED0001C80011028800110F0B58BB005000E00A9
:101EE00005A8214B0200190091C991C211C911C264
:101EF00014336A4691CB91C203CB03C22868FEF724
:101F0000E7FE286800220021FEF722FF2868174913
:101F1000FEF738FF00240AE028681549FEF732FF73
:101F20002868A20005ABD158FEF72CFF0134042C21
:101F30000CDC2868621CD2B20021FEF709FFB44213
:101F4000EAD028680B49FEF71DFFE9E7286804225C
:101F50000021FEF7FDFE2868B6006B46F158FEF73B
:101F600011FF0BB0F0BDC04684AB011034800110EE
:101F70009C7F0110A07F011010B50400002303779F
:101F800003610068FEF7A4FE206800220021FEF72E
:101F9000DFFE20680349FEF7F5FEFA20400003F05B
:101FA000FDFD10BDAC800110012905D0022905D02E
:101FB000002905D1034802E0034800E003487047C8
:101FC0000348FCE7F0800110008101100881011036
:101FD000C880011010B504000068FEF779FE206883
:101FE00000220021FEF7B4FE20680649FEF7CAFE73
:101FF000206802220021FEF7ABFE20680249FEF7AE
:10200000C1FE10BD14810110248101100020704711
:1020100010B50400FFF7FAFF002801D0012010BD21
:102020002000FFF761FEF9E7F0B5C64600B50400F1
:1020300003F0A8FE00292ED0FA229200002304F01B
:10204000F3F9050063681F69C423E658AE1B043327
:10205000E058381A322E1BD905F06CF81E4905F0ED
:102060001EF88046300005F060F8011C404605F07F
:1020700000F8460076081949301C05F051F8002890
:102080000FD0CC23164AE250C423E5500433E75066
:1020900080BCB846F0BDFA21890004F087F905003C
:1020A000D0E70F49301C05F03BF8002803D0CC23C3
:1020B0000C4AE250E8E70B49301C05F031F80028E3
:1020C00004D0CC238022D205E250DDE7CC23FE22CF
:1020D0009205E250D8E7C04600007A440000A041D3
:1020E000000020410000A04010B504009023C35C14
:1020F000002B00D110BD03F045FE00291DD0FA22AF
:102100009200002304F090F9B423E358C31AFA2292
:102110005200934207D93D3AFF3AA35C01214B405C
:10212000A354B423E0509423E358042B01D0082B8C
:10213000E0D12000FFF778FFDCE7FA21890004F006
:1021400035F9E1E770B594B004000068FEF7C0FD12
:10215000206800220021FEF7FBFD20684249FEF7BF
:1021600011FE206801220021FEF7F2FDAC23E058A9
:1021700005F03CF802000B003C490FAD280006F0CA
:1021800047FA20682900FEF7FDFD206802220021A1
:10219000FEF7DEFDA823E05805F028F802000B004A
:1021A00033490AAD280006F033FA20682900FEF70B
:1021B000E9FD206803220021FEF7CAFDB025605921
:1021C00005F014F802000B002A4905AE300006F0B5
:1021D0001FFA20683100FEF7D5FD6559A423E058A9
:1021E000083BE15804F03BFF011C281C04F041FFB0
:1021F00040004008204904F052FF051C1F4803F02E
:10220000CDFC2068FEF764FD206800220021FEF767
:102210009FFD20681A49FEF7B5FD206801220021C4
:10222000FEF796FD281C04F0E1FF02000B001549A3
:10223000684606F0EDF920686946FEF7A3FD2068C0
:1022400002220021FEF784FD20680F49FEF79AFD67
:10225000206803220021FEF77BFD20680B49FEF772
:1022600091FD14B070BDC046348101104881011049
:1022700054810110608101100000C842B80B0000B9
:102280006C8101107C8101108C8101109C810110F6
:1022900070B58AB004000068FEF71AFD9423E35875
:1022A0000D2B2ED89B00E84AD3589F462068002269
:1022B0000021FEF74DFD2068E449FEF763FD20682C
:1022C00001220021FEF744FD2068E149FEF75AFD96
:1022D000206802220021FEF73BFDE36ADD4A05ADDE
:1022E0001421280006F0AAF920682900FEF74AFD0B
:1022F000206803220021FEF72BFD2068D649FEF757
:1023000041FD0AB070BD206800220021FEF720FDCB
:102310002068D249FEF736FD206801220021FEF731
:1023200017FD2068CE49FEF72DFDEAE72068002260
:102330000021FEF70DFD2068CA49FEF723FD206845
:1023400001220021FEF704FD2068C749FEF71AFDAF
:10235000D7E7206800220021FEF7FAFC2068C34975
:10236000FEF710FD206801220021FEF7F1FCCC23CE
:10237000E05804F03BFF02000B00BD49684606F040
:1023800047F920686946FEF7FDFC2068022200211B
:10239000FEF7DEFCA3685A69B64905AD280006F0D1
:1023A00037F920682900FEF7EDFC206803220021A0
:1023B000FEF7CEFC2068B049FEF7E4FCA1E72068F8
:1023C00000220021FEF7C4FC2068AC49FEF7DAFCCD
:1023D000206801220021FEF7BBFC9C23E05804F09A
:1023E00005FF02000B00A64905AD280006F010F914
:1023F00020682900FEF7C6FCB823E35C002B12D04E
:10240000280014F0F7F8C023E35CC1180439002B4E
:1024100000D1C11F2068C9B20122FEF799FC2068D3
:102420009849FEF7AFFC206802220021FEF790FCDD
:1024300020689549FEF7A6FC206803220021FEF7DC
:1024400087FC20689149FEF79DFC5AE7206800222E
:102450000021FEF77DFC20688D49FEF793FC206883
:1024600001220021FEF774FC20688A49FEF78AFCED
:10247000206802220021FEF76BFC20688649FEF7E7
:1024800081FC206803220021FEF762FC2068764967
:10249000FEF778FC35E7206800220021FEF758FCA3
:1024A00020687E49FEF76EFC206801220021FEF7BD
:1024B0004FFCA3685A699823E358D21AD317D2184D
:1024C0005A40774905AD280006F0A2F82068290097
:1024D000FEF758FC206802220021FEF739FC206834
:1024E0007049FEF74FFC0CE7206800220021FEF740
:1024F0002FFC20686C49FEF745FC20680122002172
:10250000FEF726FCCC23E05804F070FE02000B001E
:102510005749684606F07CF820686946FEF732FCA9
:10252000206802220021FEF713FCA3685A69514972
:1025300005AD280006F06CF820682900FEF722FCA3
:10254000206803220021FEF703FC20684A49FEF7B9
:1025500019FCD6E6206800220021FEF7F9FB20686E
:102560004649FEF70FFC206801220021FEF7F0FB30
:10257000A423E05804F03AFE02000B0040496846EC
:1025800006F046F820686946FEF7FCFBB823E35CDA
:10259000002B12D0684614F02DF8C023E35CC1185C
:1025A0000439002B00D1C11F2068C9B20122FEF7F7
:1025B000CFFB20683349FEF7E5FB206802220021AB
:1025C000FEF7C6FBA423E058083BE15804F047FDA2
:1025D00045006D08281C04F009FE02000B00334979
:1025E00005AE300006F014F820683100FEF7CAFB93
:1025F000206803220021FEF7ABFB2D49281C04F0C4
:1026000087FD002804D020682A49FEF7BBFB78E646
:1026100020682949FEF7B6FB73E6206800220021F6
:10262000FEF796FB20682549FEF7ACFB20680122E7
:102630000021FEF78DFB20682149FEF7A3FB60E631
:102640002000FFF77FFD5CE68CAA0110147F0110CB
:10265000AC810110C0810110D0810110E481011012
:10266000F4810110088201101C82011030820110D7
:1026700044820110548201106082011074820110A2
:10268000848201108C82011090820110A0820110BE
:10269000B4820110C4820110D4820110E4820110BE
:1026A000F88201100C8301101C8301102C8301108F
:1026B0000000C8424083011050830110487E011081
:1026C00060830110206800220021FEF741FB206892
:1026D0001E49FEF757FB206801220021FEF738FB58
:1026E00020681B49FEF74EFB0BE620680022002104
:1026F000FEF72EFB20681749FEF744FB20680122F5
:102700000021FEF725FB20681349FEF73BFB2068FC
:1027100002220021FEF71CFBA823E05804F066FD0E
:1027200002000B000D4905AD280005F071FF20687F
:102730002900FEF727FB206803220021FEF708FB93
:1027400020680749FEF71EFBDBE5C0466C830110DD
:102750007C830110E47F01108C83011098830110A9
:10276000A483011010B50400012390228354043285
:10277000835020320021815004328354CB33FE2217
:102780009205C25003F0FEFA002916D0FA229200F8
:10279000002303F049FEC423E05063681A69C8238C
:1027A000E250226B1C3BE250FFF7E2F82068FEF794
:1027B0008FFA2000FFF76CFD10BDFA21890003F0AD
:1027C000F5FDE8E70023902283540432835004325D
:1027D0008350083283500023043A835008328350D8
:1027E0000432835008328350CC23FE229205C2501B
:1027F000704710B5010028305C31342204F018FE17
:1028000010BD000030B583B00400254806F048F93B
:102810002068FEF75DFA206800220021FEF798FA92
:1028200020682049FEF7AEFA206801220021FEF759
:102830008FFA20681C49FEF7A5FA206802220021C1
:10284000FEF786FA002510E06319DD331B78174A7E
:10285000042101A805F0F2FE206801A9FEF792FA12
:1028600020681349FEF78EFA0135032D0CDCD423C2
:10287000E35CAB42E8D06319DD331B780D4A0421D9
:1028800001A805F0DBFEE7E7206803220021FEF740
:102890005FFA20680349FEF775FA03B030BDC04601
:1028A000B883011074790110DC830110EC830110EE
:1028B00074890110F483011082B0094B0193002345
:1028C000032B08DCC218DD32117801AAD25C9142D8
:1028D00004D10133F4E7012002B070470020FBE788
:1028E00001020304D4230022C254002304E0C218CE
:1028F000DD32002111700133032BF8DD7047000039
:1029000010B50400016042608360029BC360002335
:102910000361436183610377114A02624362D022FB
:10292000835004328354043283500432835404E0CD
:10293000E218DD32002111700133032BF8DD200095
:10294000FFF7D2F92000FFF7CDFF6068002801D023
:10295000FEF7D2FF2000FFF735FF200010BDC04674
:1029600060EA000010B50400FFF7BCFFD42300228A
:10297000E254D03B2361114B9A6AD823E250104BAA
:1029800001221A702068FEF7A3F9206800220021B6
:10299000FEF7DEF920680B49FEF7F4F92068012202
:1029A0000021FEF7D5F920680749FEF7EBF9074843
:1029B00006F076F82000FFF725FF10BD0040054027
:1029C000F3370020FC8301100C8401101C840110DB
:1029D00010B504000068FEF77BF920680022002192
:1029E000FEF7B6F920680949FEF7CCF92068012204
:1029F0000021FEF7ADF920680549FEF7C3F9054847
:102A000003F0CCF800232377236110BD608401100C
:102A100074840110DC050000F0B5C64600B588B02E
:102A200005000F0090461E000EAB1C780068FEF7F4
:102A30004FF9286800220021FEF78AF9002C3ED0C9
:102A400028683C49FEF79EF9286801220021FEF71C
:102A50007FF928683849FEF795F91422002103A868
:102A600004F0E0FC00240BE0630042469A5A33492C
:102A700001A805F0CDFD01A903A813F001FC013464
:102A8000032C14DCA642EFD0630042469A5A2C492C
:102A900001A805F0BDFD022CEDDC01AF380013F0FC
:102AA000A9FD38182749022204F0C2FCE3E7286890
:102AB00003A9FEF767F908B080BCB846F0BD2868E6
:102AC0002149FEF75FF9286801220021FEF740F94D
:102AD00028681949FEF756F91422002103A804F0CA
:102AE000A1FC00240AE06300DA5B144901A805F0A8
:102AF0008FFD01A903A813F0C3FB0134032C14DCE0
:102B0000A642F0D06300DA5B0D4901A805F080FD14
:102B1000022CEEDC01AB9846180013F06BFD40442C
:102B20000849022204F084FCE3E7286803A9FEF7C1
:102B300029F9C0E78484011094840110EC8301100A
:102B400018860110748901109C84011030B589B079
:102B5000040001681F4805F0D3FF2068FEF7B8F8AD
:102B6000206800220021FEF7F3F820681A49FEF7DA
:102B700009F9206801220021FEF7EAF820681749C8
:102B8000FEF700F92568A1692000FFF70DFA0100A2
:102B90002800FEF7F7F8206802220021FEF7D8F897
:102BA00020680F49FEF7EEF8206803220021FEF7A7
:102BB000CFF8A36901330B4A03AD03210091113112
:102BC000280005F03BFD20682900FEF7DBF809B07E
:102BD00030BDC046A8840110D48401100CA401109B
:102BE000DC8001100C87011030B587B00400164856
:102BF00005F056FF0123237723610023A36120689A
:102C0000FEF766F8206800220021FEF7A1F8206890
:102C10000E49FEF7B7F8206801220021FEF798F868
:102C20000B4A0C4901AD280005F0F2FC2068290090
:102C3000FEF7A8F8FA20800002F0B0FF2000FFF7AE
:102C400085FF07B030BDC046E08401101C8501102F
:102C5000B87201102C85011010B5040003291CD096
:102C60000BDC012911D002290BD1234B1B68082B47
:102C700007DC0133204A136003E0042901D1FFF788
:102C8000B3FF2369052B31D010BD1B4B1B68002BF4
:102C9000F7DD013B184A1360F3E7174B1A68092A5E
:102CA000EFD89300154AD3589F460B2303610021A8
:102CB00000F0A6F9E5E70C230361E2E70E230361C8
:102CC000DFE70F230361DCE710230361D9E711235A
:102CD0000361D6E715230361D3E712230361D0E72D
:102CE00014230361CDE7FFF77FFFCAE7024B1968A2
:102CF0002000FFF75FF8C7E7D0260020C4AA011024
:102D000070B505000C00894B1A68052A07D8930096
:102D1000874AD3589F46032902D004290ED070BD9C
:102D2000824B01221A609C23C158824B1960436870
:102D30001A69814B1A60FEF743FEF0E77B4B0022D5
:102D40001A60052303610021FFF786FFE7E7436868
:102D50001A69794B1868101A1A6004F0EBF9774970
:102D600004F09DF9734E316804F07EF93060012C57
:102D70000BD0022C0ED0032C12D0042C1FD06D4B84
:102D800019682800FEF71CFEC9E76C4904F06CF9CD
:102D90003060F0E7674E694904F061F93060EAE7B6
:102DA000AB685A699823EA50624B1A689C23EA5030
:102DB0005E4B02221A602800FEF744FEAFE75B4B31
:102DC00000221A602800FEF7C3FFA8E7032909D0F4
:102DD0000429A4D1554B01221A60564B1968FEF7FD
:102DE000EFFD9CE7514B03221A60A423C158544BBA
:102DF000196043681A69504B1A60FEF74BFE8EE764
:102E000043681A694C4B1868101A1A6004F092F95A
:102E10004A4904F044F94A4E316804F025F930601B
:102E2000012C0BD0022C0ED0032C12D0042C1FD05E
:102E3000434B19682800FEF72DFE70E73F4904F068
:102E400013F93060F0E73E4E3C4904F008F9306079
:102E5000EAE7AB685A69A023EA50394B1A68A42301
:102E6000EA50324B04221A602800FEF755FE56E75E
:102E70002E4B02221A602800FEF7E4FD4FE70329DB
:102E80000AD0042900D04AE7284B03221A602C4BB1
:102E90001968FEF7FFFD42E7A423C058083BE95834
:102EA00004F0DDF8041CA023EA58083BEB58D01AC4
:102EB0009A420ED004F03EF9011C201C04F0D9F80F
:102EC000A823E850194B05221A602800FEF766FE79
:102ED00025E70020F4E7032913D0042900D01EE7DA
:102EE0000021FEF791FEFA20800002F057FE0F4B02
:102EF00000221A6005232B6100212800FFF7ACFE99
:102F00000DE7A823C35803630121FEF77DFEFA20D5
:102F1000800002F043FE054B00221A6005232B615E
:102F200000212800FFF798FEF9E6C046C4260020DD
:102F3000ECAA0110C8260020C02600200AD7233C96
:102F4000CC26002010B50400224B1B78002B04D0A7
:102F500003291BD0042934D010BD0068FDF7B8FE4A
:102F6000206800220021FDF7F3FE20681A49FDF7D2
:102F700009FF206801220021FDF7EAFE20681749B9
:102F8000FDF700FF134B01221A70E5E7FFF731FC54
:102F90002068FDF79DFE206800220021FDF7D8FE85
:102FA00020680F49FDF7EEFE0E4802F0F7FD094BD1
:102FB00000221A700523236100212000FFF74CFE38
:102FC000CAE7044B00221A70052303610021FFF7B2
:102FD00043FEC1E7F9370020308501104885011014
:102FE0005C850110DC05000010B505230361034B6F
:102FF00003620021FFF730FE10BDC04660EA00000A
:10300000F0B5C64600B588B00400002924D0B44B02
:1030100000221A7004292DD0032940D0032900D1A1
:1030200098E048DC012949D002292ED1AD4B1B780C
:10303000002B00D186E0AC4B1B68022B7CD069DCF6
:10304000002B71D0012B20D1A84B1B68012B1CDD5C
:10305000A64A013B136018E0A14B1B78002BDBD084
:10306000A14A002313609F4A1370A04A13609C4A30
:103070001370D1E79A4B01221A709A4B1B78002BE0
:1030800000D1C6E0974B00221A70974B1F68013F92
:1030900000D5D5E0022F00DCD3E00227D1E0914B30
:1030A0001B78002BBAD1904B1B68042BB6D18C4BEC
:1030B00001221A70B2E70429DFD0E6E7894B1B78BA
:1030C000002B1FD0884B1B68022B15D008DC002B6F
:1030D0000DD0012BD9D1854A136801331360D4E791
:1030E000032BD2D1814A13680A331360CDE77F4A9C
:1030F00013680A331360C8E77C4A136859424B418E
:103100001360C2E7784B1B68002BBEDD764A013B9B
:103110001360BAE7032BB8D1744B1B680A2BB4DDDC
:10312000724A0A3B1360B0E7704B1B680A2BACDD98
:103130006E4A0A3B1360A8E76C4A136859424B4138
:103140001360A2E7684B1B68032B9EDC664A0133C1
:1031500013609AE7634B1B78002B34D1624B1B68DA
:10316000042B12D05F4A01211170022B21D015DCF3
:10317000002B1AD0012B88D1206B5D4903F08FFF03
:1031800003F0FAFF594B18607FE7574B00221A6093
:10319000544B1A702000FFF727FF1FE1032B00D0CC
:1031A00073E7A26B514B1A606FE7E26A4F4B1A60EC
:1031B0006BE73423E35C002B03D001224B4B1A60F6
:1031C00063E70022FAE7484B1B68022B1AD00CDC9D
:1031D000002B10D0012B11D1444B186803F0AAFF2B
:1031E000434903F046FF206308E0032B06D13F4B21
:1031F0001B68A36302E03D4B1B68E362394B00226E
:103200001A7042E7394B1B685A1E93413422A3546B
:10321000F4E7354B1B68042B09D0334B04221A60AA
:10322000304B00221A702000FFF7DEFED6E02E4B56
:1032300000221A602B4B1A702000FFF7D5FECDE05C
:1032400000272068FDF744FD206800220021FDF7DB
:103250007FFD20682749FDF795FD002523E02649DD
:10326000FDF790FD042E1DD8B300244AD3589F4685
:103270002349F5E720682349FDF784FDF2E7194B60
:103280001B78002B03D0184B1B68B34225D0E36A90
:103290001D4A03AE1421300005F0D0F9206831003A
:1032A000FDF770FD0135022D00DD8FE07E19042E43
:1032B00000DD8BE020686A1CD2B20021FDF748FDDA
:1032C000094B1B68B342D5D12068064B1B78002BF5
:1032D000C5D0032ECCDD0849C2E7044B1B68D7E7F5
:1032E000181D0020F6370020A8260020A426002064
:1032F0000000C842508001109C7F011004AB0110F7
:1033000040800110A07F0110608001103A4B1B78B3
:10331000002B03D0394B1B68B34211D0206B384EC1
:1033200003AB984603F062FF009001913200142134
:10333000404605F083F920684146FDF723FDB1E7DB
:10334000304B186803F0F6FE2F4903F092FEE6E7D3
:1033500020682E49FDF716FD274B1B78002B03D064
:10336000264B1B68B34206D020683423E35C002B55
:103370000CD027490BE02068224B1B68002B03D0A0
:103380002349FDF7FFFC8DE72249FAE72149FDF7C4
:10339000F9FC87E7184B1B78002B03D0174B1B68F1
:1033A000B3420BD0A36B1C4A03AE1421300005F0CE
:1033B00045F920683100FDF7E5FC73E7114B1B6808
:1033C000F1E720681549FDF7DDFC6BE70A4B1B7838
:1033D000002B03D0094B1B68032B03DD08B080BC16
:1033E000B846F0BD206804220021FDF7B1FC20683A
:1033F0000B49FDF7C7FCF1E7F6370020A8260020AF
:1034000068800110A42600200000C84274800110CA
:1034100044800110488001107C80011088800110D8
:103420009080011030B58BB00400042933D00068BF
:10343000FDF74EFC206800220021FDF789FC206882
:103440001649FDF79FFC206801220021FDF780FC52
:10345000134A144905AD280005F0DAF82068290060
:10346000FDF790FC206802220021FDF771FC0E4A56
:103470000E49684605F0CCF820686946FDF782FCE5
:10348000206803220021FDF763FC20680849FDF74E
:1034900079FC0BB030BDFFF7A7FDFAE7708501108E
:1034A000B8720110FC7E0110047301107C850110BC
:1034B00024810110F0B587B00400033901294AD9ED
:1034C0002B4B1B78002B05D13C33C25C294B1B686E
:1034D0009A4246D02068FDF7FBFB206800220021BD
:1034E000FDF736FC20682449FDF74CFC20680122DA
:1034F0000021FDF72DFC3C27E35D204A01AD14219E
:10350000280005F09BF820682900FDF73BFC2068A7
:1035100002220021FDF71CFC3D26A35D184A142160
:10352000280005F08BF820682900FDF72BFC2068A7
:1035300003220021FDF70CFC20681249FDF722FC54
:10354000E25D0C4B1A60A25D0F4B1A60084B002223
:103550001A7007B0F0BD064B01221A70FFF744FD48
:10356000F7E73D23C25C084B1B689A42B2D1F0E7F3
:103570000C1D0020141D0020888501109C85011061
:10358000AC85011024810110101D002010B504002D
:1035900003291ED00BDC012913D002290BD1204BAB
:1035A0001B68032B07DC1E4A0133136003E0042968
:1035B00001D1052303611A4B19682000FEF78CFC2A
:1035C00010BD174B1B68002BF5DD154A013B13603E
:1035D000F1E7134B1A68042AEDD89300114AD35827
:1035E0009F460021FFF70CFDE5E70021FFF762FF92
:1035F000E1E70068FDF76CFB206800220021FDF781
:10360000A7FB20680849FDF7BDFBFA20800002F007
:10361000C5FAD0E715230361CDE705230361CAE7A7
:10362000BC26002018AB0110BC85011030B587B056
:10363000040004292BD00369042B26D00068FDF771
:1036400047FB206800220021FDF782FB2068124919
:10365000FDF798FB206801220021FDF779FBA368A4
:10366000002B17D05B690D4A01AD1421280004F02E
:10367000E5FF20682900FDF785FB20680222002174
:10368000FDF766FBFA2002F089FA07B030BDFFF7BC
:10369000ABFCFAE70023E6E7D8850110E4850110CA
:1036A00030B587B00400042935D00068FDF710FB61
:1036B000206800220021FDF74BFB20681749FDF729
:1036C00061FB206801220021FDF742FB236D144AB3
:1036D00001AD1421280004F0B1FF20682900FDF796
:1036E00051FB206802220021FDF732FB636D0D4A79
:1036F0001421280004F0A2FF20682900FDF742FBF6
:10370000206803220021FDF723FB20680649FDF70E
:1037100039FB07B030BDFFF767FCFAE7F085011011
:10372000FC8501100C8601102481011030B583B096
:103730000400032900D17DE018DC012930D00229E2
:1037400046D18D4B187800285ED08C4B1B788C4A64
:1037500059008A5A002A52D1894A09258D52884A2D
:10376000884900902000FFF757F931E004292FD154
:10377000824B1B78002B00D0EEE07F4B1B78002B98
:1037800000D1F6E07C4B002018707C4B03221A70AD
:103790007B4A7C49009003232000FFF73DF917E0A6
:1037A000754B1878002815D0744B1B7874495D0050
:1037B0006A5A013292B26A52092A03D90A002900D0
:1037C00000258D526E4A6F4900902000FFF724F9C2
:1037D00003B030BD694B1B786A495D006A5A0132FB
:1037E00092B26A52092A03D90A00290000258D5293
:1037F000634A644900902000FFF70EF9E8E760494A
:103800005D00013A6A52AAE75C4B1B785D4A590099
:103810008A5A002A09D15B4A09258D52584A5949CA
:1038200000902000FFF7F8F8D2E756495D00013A12
:103830006A52F3E7514B1B78022B0FD94E4B1D7880
:10384000002D18D00023032B23DC4E4A5900885A40
:103850004B4A8A5A90421BD10133F4E70133DBB261
:10386000464A1370464A4749434800780090200072
:10387000FFF7D2F8ACE701201870404B00221A7015
:103880003F4A4049009000232000FFF7C5F89FE71A
:103890000025002D2FD03B490A884888FA239B0039
:1038A0005343642242439B189BB28A8890001218AB
:1038B00052009B189BB2CA889B1823852068FDF78D
:1038C00007FA206800220021FDF742FA20682E49FD
:1038D000FDF758FA206801220021FDF739FA206827
:1038E0002A49FDF74FFAFA20C00002F057F92000EC
:1038F000FFF77AFB6CE72068FDF7EAF92068002201
:103900000021FDF725FA20682149FDF73BFA2068E0
:1039100001220021FDF71CFA20681E49FDF732FA4A
:10392000FA20C00002F03AF9134B00221A70134B30
:103930001A70002306E0134A590000208852104AEA
:1039400088520133032BF6DD0D4A0E490023009304
:103950002000FFF761F83BE7013BDBB2074A137039
:10396000074A08490448007800902000FFF754F8FF
:103970002EE7FFF739FB2BE7F8370020F737002059
:10398000B4260020AC2600201C86011030860110D1
:10399000408601105486011010B59023C35C002BA3
:1039A00005D1032904D0042905D0FEF713FB10BD6F
:1039B000FEF7D8FEFBE7FFF717FBF8E730B587B057
:1039C00004000D006C4B1B78002B08D04368002BC3
:1039D00002D01B7D002B2BD1674B00221A70674B46
:1039E0001B78002B08D06368002B02D01B7D002BB6
:1039F0001ED1624B00221A70D423E25C6048290079
:103A000005F07EF8032D35D014DC6B1E012B0FD88A
:103A1000012D1DD0D423E35CE218DD321278002A98
:103A200023D1E318DD3309321A702000FEF7EAFED5
:103A300007B030BD042DFBD1D423E35C002B00D1B3
:103A400096E0013BD422A3542000FEF7DBFEEFE713
:103A5000D423E15C6218DD3213780133DBB21370DA
:103A6000092BE2D900231370DFE7E318DD33013AB5
:103A70001A70DAE7414B01221A70D423E35C022B5F
:103A800034D9032BD4D12000FEF716FF002834D000
:103A9000052323612068FDF71BF92068002200211F
:103AA000FDF756F920683749FDF76CF920680122C7
:103AB0000021FDF74DF920683349FDF763F92068CF
:103AC00002220021FDF744F9304A314901AD2800B6
:103AD00004F09EFD20682900FDF754F92D4802F0FE
:103AE0005DF800212000FFF7B7F8A1E70133D332DA
:103AF000A3542000FEF786FE9AE7DC25635D0133C0
:103B000063552068FDF7E4F8206800220021FDF7E6
:103B10001FF920682049FDF735F9206801220021AE
:103B2000FDF716F9625D022A16D81C4901AD032380
:103B3000280004F06DFD20682900FDF723F91548E1
:103B400002F02CF82000FEF7CDFED4230022E25430
:103B50002000FEF757FE6BE720681149FDF712F9C8
:103B6000FA20C00002F01AF82000FFF73DF85FE7E6
:103B70002000FFF739F85BE7F3370020F237002029
:103B800068860110B0860110C0860110B87201105D
:103B9000D4860110DC050000E086011004870110C6
:103BA000F486011010B504000068FDF791F8206854
:103BB00000220021FDF7CCF820680F49FDF7E2F85C
:103BC000206801220021FDF7C3F820680B49FDF7AA
:103BD000D9F8206802220021FDF7BAF820680849C8
:103BE000FDF7D0F8206803220021FDF7B1F8206826
:103BF0000449FDF7C7F810BD14870110288701108C
:103C0000308701104087011010B503291FD00BDC4D
:103C100001290ED0022913D18369022B14D001335C
:103C20008361FEF793FF0BE0042909D1FEF7A4F9A5
:103C300006E08369002B04D102338361FEF786FF1F
:103C400010BD013B8361F9E700238361E9E78369E4
:103C5000012B08D0022B09D0002BF1D102330361D4
:103C6000FFF7A0FFECE7FDF7F5FFE9E7FEF784F9C2
:103C7000E6E7000010B50369152B05D89B00154A2F
:103C8000D3589F46FFF79AFE10BDFFF7BDFFFBE735
:103C9000FEF7E2FFF8E7FFF779FCF5E7FFF730F80A
:103CA000F2E7FFF743FDEFE7FFF7AAF9ECE7FFF7CD
:103CB00001FCE9E7FFF7B6FBE6E7FFF7B7FCE3E750
:103CC000FFF76AFEE0E7FFF7EBFCDDE7FFF73AF905
:103CD000DAE7C0462CAB0110F0B5C64600B582B09D
:103CE00004000D001600017F0269994804F008FFE6
:103CF000237F002B03D102B080BCB846F0BD216900
:103D0000944804F0FDFE944B9F6A9023E35C002BE3
:103D10003ED12369042B3FD06068FDF7C5FD2369C0
:103D2000042B43D000284DDD01250B2B5AD08B4AA4
:103D300000211160052B00D1A1E0894A002111600A
:103D40000F2B00D1CFE0874B00221A60864B1B68F7
:103D5000002B07D1804B986AFA21890002F026FBDC
:103D6000814B1860002D00D0E5E07B4B986AFA216A
:103D7000890002F01BFB7C4B1B68C01A7B4B9842EE
:103D8000B9D92000FEF7F8F8774B00221A60B2E7A5
:103D90002000FEF7A9F9BCE7D433E358FF1A744BAF
:103DA0009F42B9D92000FEF713FEB5E7002D11D1CF
:103DB000002E11D1002801DD0125B6E70028B4DA74
:103DC0000225B2E7002809DB002D09D1002EACD076
:103DD0000425AAE70325A8E71D00A6E70225A4E716
:103DE0000325A2E75C4B986AFA21890002F0DEFA0B
:103DF00006005A4B1B68002B01D1584B1860002D50
:103E000017D0564B1E6029002000FFF733FF594B97
:103E1000012252421A60514B1B68F61A564B9E42C1
:103E200000D868E72000FFF7DFF84C4B00221A604B
:103E300061E7FDF7A3FD0700FDF7AAFD050001906E
:103E4000FDF7B4FD80464B4B1B68BB4204D14B4B86
:103E50001B78019A93420BD000212000FFF7D0F885
:103E6000444B1F60454B1D70454B42461A60D2E7DC
:103E7000002AD0D0424B1B688342EDD1CBE7364BB2
:103E8000986AFA21890002F091FA0600344B1B6807
:103E9000002B01D1324B1860002D12D16569394BCE
:103EA0001B68AB4218D12E4B1B68F61A2F4B9E4253
:103EB00000D820E72000FEF75FF8294B00221A60A7
:103EC00019E7274B1E6029002000FFF7D3FE2D4B7A
:103ED000012252421A60E6E700212000FEF7BCFEF4
:103EE000284B1D60DFE71C4B986AFA21890002F01D
:103EF0005DFA06001B4B1B68002B01D1194B1860A3
:103F0000002D13D0174B1E6029002000FFF7B2FED2
:103F1000144B1B68F61A154B9E4200D8EBE62000A6
:103F2000FEF72AF80F4B00221A60E4E60021200079
:103F3000FFF77CFBECE7084B986AFA21890002F056
:103F400035FA094B186029002000FFF793FED2E6EE
:103F50004C8701109887011000400540D4260020AE
:103F6000DC260020E0260020D82600203075000046
:103F700080C3C901241D0020204E0000FA37002014
:103F8000201D00201C1D002010B504000B4804F06B
:103F900087FD0B4804F084FD01232377033323615D
:103FA000D8330022E254074B9A6AD823E2500648DD
:103FB00004F076FD2000FEF7D5FC10BDD48701107B
:103FC000188801100040054044880110016000235A
:103FD000037183607047000070B504000068FCF74F
:103FE00077FE206800220021FCF7B2FE2068114D08
:103FF0002900FCF7C7FE206801220021FCF7A8FE7B
:1040000020680D49FCF7BEFE206802220021FCF763
:104010009FFE20682900FCF7B5FE206803220021DE
:10402000FCF796FE20680549FCF7ACFE044801F059
:10403000B5FD70BD1C89011048890110648901100B
:10404000DC050000F0B587B004000E001500006824
:1040500001220021FCF77CFE002D11D0174B1849DE
:104060003200684604F0D4FA20686946FCF78AFEFC
:10407000002D20D0FA20400001F090FD07B0F0BDE7
:10408000104BECE7206801221321FCF761FE206849
:104090000D49FCF777FEC82001F080FD2068012261
:1040A0001321FCF755FE20680849FCF76BFEC82079
:1040B00001F074FD0135022DE4DDDBE778890110A4
:1040C000848901107C890110948301107489011086
:1040D00010B50400084B986AFA21890002F066F9CD
:1040E000A368C31AC72B05D92279013203231340D1
:1040F0002371A06010BDC0460040054070B50500AA
:104100000C001600080012F075FAC3B2132B10D879
:10411000FF22024014239B1AD90FC9184910C9B2B3
:1041200028683200FCF714FE28682100FCF72AFEFC
:1041300070BD0021F4E7000030B58BB004000068CA
:10414000FCF7C6FD124900222000FFF7D7FF114AF5
:10415000114905AD280004F05BFA01222900200076
:10416000FFF7CCFF0D4A0E49684604F051FA0222CF
:1041700069462000FFF7C2FF0A4903222000FFF72B
:10418000BDFFFA20C00001F009FD0BB030BDC046F4
:1041900090890110B8720110A089011004730110F8
:1041A000AC890110B889011070B504000068FCF7F3
:1041B0008FFD1B4900222000FFF7A0FF19490122B3
:1041C0002000FFF79BFF184902222000FFF796FF0F
:1041D000164903222000FFF791FF002519E09620E1
:1041E000400001F0DBFC2068FCF772FDC82001F004
:1041F000D5FC0B4900222000FFF780FF094901226E
:104200002000FFF77BFF084902222000FFF776FF1E
:104210000135012DE3DDFA20800001F0BFFC70BD07
:10422000C8890110D4890110E4890110F4890110B2
:10423000F8B506000F0000680021FCF789FD306822
:104240001349FCF79FFDF800C0194000642102F0FB
:1042500085F8C5B200240AE030680E49FCF792FDEB
:1042600003E030680C49FCF78DFD0134E4B2112CF9
:1042700009D8AC42F0D3F4D1632FF2D830680749A3
:10428000FCF780FDF1E730680549FCF77BFDF8BDE0
:10429000048A011098770110748901100CA4011090
:1042A0001CA60110F0B58DB004000E0015000068CA
:1042B000FCF70EFD1E4900222000FFF71FFF2068BB
:1042C00001220021FCF744FD1A4906AF32003800F4
:1042D00004F09EF920683900FCF754FD2000FFF738
:1042E000F7FE206801221021FCF732FD20682379B7
:1042F000114A1168C918FCF745FD02222900200067
:10430000FFF796FF206803220021FCF721FD0B49EF
:1043100001AE2A00300004F07BF9032231002000B6
:10432000FFF7ECFE9620400001F038FC0DB0F0BD28
:10433000088A0110188A0110281D0020208A011007
:1043400030B5050000240A480BE040080133072B74
:1043500006DCC207F9D54008064A504080B2F5E7AE
:1043600001348C4203D22B5D58400023EFE730BD6F
:10437000FFFF000001A0FFFF70B50C000621200028
:10438000FFF7DEFF050020000830BC21FFF7D8FF53
:10439000684080B270BD0000F8B504000600C43665
:1043A000C4220021300003F03DF8C423244AE25027
:1043B00004330822FF32E2521833ED32E250FE2776
:1043C000BF050433E75001250433E554843B093A23
:1043D000FF3AA35004328021A1540132A554033284
:1043E0001849A15004321849A15204321749A1506A
:1043F0000432A5540432A350A433E5540A23FF33F6
:10440000E55420000D30FF30E43A002103F00AF8B3
:104410009C235B00E7503E23FF33E55403330C4AF3
:10442000E25004330222E25431002000FFF7A4FFDF
:10443000CA23E052C4223100200002F0F9FFF8BD87
:104440004C52455030750000D204000060EA000074
:10445000E093040010B504000023C42252008354EA
:104460008A22FF3283540332835004328350043251
:10447000835004328350043201218154043283502A
:10448000FFF78AFF200010BD10B50248FFF7E2FFDA
:1044900010BDC046DC2F002070B50D001400EFF3F6
:1044A000108672B680214901100012F019FEC42254
:1044B0002900200012F0D4FD86F31088012070BD81
:1044C00010B5080080235B05D118C42202F0B0FFAC
:1044D000012010BD413108037047000010B50400F1
:1044E0001C4804F0DDFAA3680133A3601A4804F005
:1044F000D7FA01F047FC002926D0FA2292000023C7
:1045000001F092FFE060154804F0CAFA2369013314
:104510002361134804F0C4FA21002000FFF72CFFA8
:10452000E080104804F0BCFA0F4804F0B9FA802289
:10453000D20221002000FFF7AFFF04000B4821004A
:1045400004F0DEFA200010BDFA21890001F02EFFF0
:10455000D8E7C046388A01106C8A0110AC8A011075
:10456000E88A0110308B0110708B0110B08B0110A4
:1045700010B5040001F006FC00290DD0FA229200CB
:10458000002301F051FFCA235B00E050CC2252000F
:10459000A3580133A35010BDFA21890001F006FF92
:1045A000F1E710B50400CC235B00C358002B04D006
:1045B0008A23FF33C35C002B00D110BDFFF78EFFB1
:1045C000CC235B000022E250F7E7F0B5C1B0040055
:1045D0000D0083680133836001F0D4FB002925D0EE
:1045E000FA229200002301F01FFFE060210020006A
:1045F000FFF7C2FEE08080277F003A00FF21684677
:1046000002F010FFC4222100684602F011FFEFF310
:10461000108472B6F0231B06E8183A00694612F0BF
:104620001FFD84F31088012041B0F0BDFA218900FC
:1046300001F0BCFED9E70000F8B50400C4235B001C
:10464000C35C002B04D0CE235B00C35C002B00D1E5
:10465000F8BD01F097FB002922D0FA229200002336
:1046600001F0E2FE0500A369EB1A104A9342EFD96C
:10467000237D013303271F403E004036360380214F
:10468000F0231B06F018490112F02AFD2775A561D9
:1046900023690133236131002000FFF796FFD7E73C
:1046A000FA21890001F082FE0500DCE77FEE36008A
:1046B00070B5040001F066FB002937D0FA229200A1
:1046C000002301F0B1FE0500CC235B00E358002B72
:1046D00007D0CA235B00E358EB1AFA22D2009342B8
:1046E0002AD2CE235B00E35C002B04D0D0235B00F6
:1046F000E358AB4224D9C4235B00E35C002B14D005
:104700007923E35C002B10D08A23FF33E35C002B7A
:1047100004D19933FF33E358002B06D0C6235B0046
:10472000E358ED1AE36F9D4213D270BDFA21890060
:1047300001F03CFE0500C7E72000FFF732FFD0E79D
:104740002000FFF779FFD0225200044BEB18A35052
:10475000D1E72000FFF7C2FEE7E7C046C027090007
:1047600064380023024A82425B41D8B27047C04697
:10477000AC26000010B5041C074902F0C9FC002853
:1047800007D00649201C02F0BBFC002802D0012003
:1047900000E0002010BDC046CDCCCC3D000048421A
:1047A0000A380023024A82425B41D8B27047C046B1
:1047B000DE030000013883B20020024A9A424041E1
:1047C000C0B270470E27000010B50C000A68174BE6
:1047D0009A421FD18A8884235B009A421CD2FFF739
:1047E000CBFDE388834219D1E069FFF7B9FF0028C8
:1047F00016D0206AFFF7BEFF002813D0A06AFFF78B
:10480000CFFF002810D0A08EFFF7D4FF002802D1E0
:10481000002000E0002010BD0020FCE70020FAE7A7
:104820000020F8E70020F6E70020F4E74C5245505E
:1048300070B506002E4804F033F92E4804F030F924
:1048400080222D49D2023000FFF73AFE002805D021
:1048500029493000FFF7B8FF051E04D1274804F0AE
:104860001FF900240AE0264804F01AF92249C4225C
:10487000300002F0DDFD38E00134E4B2022C30D823
:1048800021003000FFF726FE05001E482A00210007
:1048900004F036F91C48210004F032F916492A00C8
:1048A0003000FFF70DFE050018482A00210004F033
:1048B00027F9002DE0D010493000FFF785FF051ED5
:1048C000DAD01348210004F01BF90B49C422300050
:1048D00002F0AEFD8022D20231003000FFF7DCFD95
:1048E00003E00C4804F0DCF80025280070BDC04649
:1048F000F48B0110248C0110E0250020C08C0110E5
:10490000648C0110F88C01103C8D01108C8D01100D
:10491000E48D01101C8E011070B50400224804F0D3
:10492000BFF82000FFF738FD204804F0B9F8200058
:10493000FFF77EFF051E21D01D4804F0B1F8C42307
:104940005B000122E2548A23FF330022E25420005C
:10495000FFF70EFE174804F0A3F8CE235B00E35CDC
:10496000002B04D1144804F09BF8280070BD1348B4
:1049700004F096F82000FFF75FFEF3E7104804F01C
:104980008FF82000FFF708FD0123C4225200A35432
:104990008A22FF32A3542000FFF7A0FD010005008A
:1049A000084804F0ADF8E0E75C8E0110948E011029
:1049B000CC8E0110088F0110888F0110488F0110D4
:1049C000B88F01102C90011010B5FFF75DFD10BDE0
:1049D00010B58300084A9A18146840225440803267
:1049E0002240064CA44663441A60C000044B9C4617
:1049F0006044416010BDC04604C0014004D0014085
:104A00000040014080000C4B9C46604400290ED0C1
:104A10000823002A0DD004221343026853400C22BD
:104A20001340802252019446604403607047002383
:104A3000EFE70022F0E7C04604C0014070B5040073
:104A4000D0231B061D680D4BAA00D358002B0AD09B
:104A5000002803D0094BAD00EC5070BD08490D2073
:104A600000F0A4FBF6E70028F7D0044BAD00E850B7
:104A7000034900220D2000F08DFAEEE7642F00209C
:104A80004D4B0010072303409B00C00899403C3069
:104A90008000014BC150704700400140F8B507004D
:104AA0000D0016001C00FFF7EDFFFB089B00E4184B
:104AB0000720384080008540002E05D080239B01D0
:104AC0009C4664442560F8BDC0239B019C46644419
:104AD0002560F8E770B506000D00141E0BD1D02339
:104AE0001B061B68002B11D0094B22002900300047
:104AF000FFF7D4FF70BD0D2000F004FA0028EED1BE
:104B0000044B054A0548BD2103F018FE044BECE7B1
:104B100030410140FC900110ACAB0110B490011089
:104B20000041014070B505000E0014001800FFF7A9
:104B300085FF220031002800FFF7CCFF002C00D1B8
:104B400070BD01210D2000F0C3F9F9E7F0B5D6469C
:104B50004F464646C0B5D0231B061F681F4BBA0000
:104B6000D3589846002F03D01D4B9946002626E0C7
:104B70001C4B9946FAE7EB40DB0714D524090135B5
:104B8000002C1BD033000833AB4217D90F231A0077
:104B9000224092462342F1D0134BBA00D358202D25
:104BA000E9D40023E8E751462800FFF76BFF4346AE
:104BB000002BE3D051462800C047DFE708361D2E02
:104BC00006D8F30808339B004A469C583500D7E7BF
:104BD000E0BCBA46B146A846F0BDC046642F0020EE
:104BE0003041014000410140C035002010B5012393
:104BF0008340D0221206936293610521FFF7E8FEFD
:104C000010BD000010B58023DB05186803051B0DDF
:104C10000B4A934207D10B4B0340802292019342EF
:104C200007D1000F10BD084B084A0948222103F0A4
:104C300085FD084B054A0648232103F07FFDC04649
:104C40002709000000F0FF0F28910110C4AB0110EC
:104C50004C910110949101100FB400B583B0084835
:104C600003F01EFF049B002B07D005A9019118003B
:104C700003F026FF034803F013FF012003F004FDB7
:104C8000A8910110388D0110EFF3108072B6034B1C
:104C90001B68002BFBD0BFF35F8F70472C0100D047
:104CA000BFF35F8F024B00221A6080F310887047B9
:104CB0002C0100D0F8B506000C001500FFF7E4FF4A
:104CC000E308F718F15C07222240012393400B42CE
:104CD00005D1DBB20B433B70FFF7E2FFF8BD2100CB
:104CE0002800FFF7B9FFF0B583B00600019114006A
:104CF0001F00FFF7C9FF00E00134BC420CD8E308F5
:104D0000F518F35C0721214001228A401A42F3D1B1
:104D1000D2B21A432A7001E001246442FFF7C0FFB7
:104D2000002C02DB200003B0F0BD019B002BF9D06A
:104D30000898FFF791FF0000054A1078431CDBB28A
:104D40001370172B02D9130010221A707047C04637
:104D50002C1D002010B582B00100054C054B0093BE
:104D60001F2318222000FFF7BEFF02B010BDC0466F
:104D7000742F0020B8910110002307E0054A9A180B
:104D80009200BFF35F8F0021116001331F2BF5D913
:104D90007047C04640000034074B9B6810308000CD
:104DA0001950BFF35F8FBFF35F8F044B0021196071
:104DB00082F310887047C04600ED00E0240100D067
:104DC0000048704700E400E010B5FFF7F9FF00234A
:104DD00002E0034A04C00133072BFAD910BDC046D4
:104DE0008080808010B50388DA0A1C2A05D15B0513
:104DF0005B1502335B00C01810BD034B034A16213C
:104E00000348FF3103F09AFCD491011024AC011047
:104E1000EC91011010B5091A0B1F0A4A88180A4AAA
:104E2000904208D8C90706D45B105B055B0D0748A4
:104E3000184380B210BD064B064A08210648FF31D0
:104E400003F07CFCFC070000FE0F000000E0FFFF09
:104E50003492011018AC0110EC91011010B5091A30
:104E600004394A08090B08D14905490D064B0B4383
:104E70000380064B1343438010BD054B054A1021A8
:104E80000548FF3103F05AFC00F0FFFF00F8FFFF78
:104E900064920110F4AB0110EC91011001238340E6
:104EA000034A10681840431E9841C0B27047C0467C
:104EB00000E100E0002A05D0044BC02252009950C6
:104EC00019607047014A8023D150FAE700E100E001
:104ED00010B50A001F230340012199404009FFF744
:104EE000E9FF10BD01238340014A13607047C046AB
:104EF00000E200E0024B9B6810308000C058704711
:104F000000ED00E010B5FFF7F5FF002806D0044BD8
:104F1000984201D0012010BD0020FCE70020FAE7F4
:104F2000CD01001010B5FFF7E5FF044BC31A0020B8
:104F30002F229A424041C0B210BDC046301D002011
:104F400070B504000D00EFF3108672B60C4B1B68B1
:104F5000002BFBD0BFF35F8F2000FFF7CBFF094B87
:104F6000984201D0A84205D1320029002000FFF765
:104F700013FF70BD044B054A0548E72103F0DEFB33
:104F8000240100D0CD010010749201104CAC01102E
:104F9000EC910110F0B5DE4657464E464546E0B569
:104FA00089B0814601911500EFF3108B72B66F4BFB
:104FB0001B68002BFBD0BFF35F8F6D4B00269E5705
:104FC000002E40DB7400A419A4006A4824180622AD
:104FD000A256674B1A70684B9A684B4610339B0079
:104FE000D35898461B1A2F2B3BD9644B984531D187
:104FF00005AF634B3B80634973009A469819800064
:105000005C4B984640440230FFF704FF78805E4BCB
:10501000BB80FF23BB71FD71019B07933300534499
:105020009B00434407CF07C301231C43A0465A46B5
:1050300041464846FFF7B0FE09B0F0BCBB46B24659
:10504000A946A046F0BD514B514A74215148FF3149
:1050500003F074FB504B4E4ABD214E48490003F00B
:105060006DFB012342469A439246101A0C2101F02F
:105070009DF900290FD153460027DA79AA4212D9A7
:105080000621595600290DDB4A0052189200394971
:105090001F008B18F1E7414B3D4A8C213D48FF3101
:1050A00003F04CFB1F00002F2ED005AB3C4A1A80AA
:1050B000813A5A800623FB560293002B17DA3948AF
:1050C00005AB9A469880029A9A71DD71019A07920F
:1050D000381D2100FFF79EFEB880BE71254B72007F
:1050E000921992009B18524613CA13C39FE7381DAA
:1050F000FFF778FE01007000801980001D4BC0187A
:105100000430FFF787FEDBE705AF1D4B3B801D49F1
:10511000730002939B199B00164A90461A00424462
:105120000392901CFFF776FE7880039A101D51467B
:10513000FFF770FEB8801C4B52464146521A52414E
:1051400053431B0DBB71FD71019A0792029B9B1982
:105150009B00434407CF07C3114B52461380813B4A
:10516000538001231C43A04661E7C046240100D0C0
:1051700000380020301D002000ED00E0CD010010BF
:1051800000A1FFFF601D002001BDFFFFAC920110D8
:1051900034AC0110EC910110D4920110FC9201107A
:1051A0000148000001BD0000AAAA0000F0B5CE46EB
:1051B000474680B583B006000D00EFF3108872B645
:1051C0004F4B1B68002BFBD0BFF35F8F4D4B9A6892
:1051D00034001034A300D7584B4B9F4207D0AF4246
:1051E00000D18AE00197494BFB1A2F2B09D942467F
:1051F00039003000FFF7D0FD03B0C0BCB946B0465F
:10520000F0BD3000FFF74AFE814600213000FFF775
:105210005FFEBFF35F8FEFF30581002901D08C4261
:1052200011D10123019C9C430020A3689D4212D010
:105230000622A256002A0DDB53009B189B00334A1E
:105240002000D418F1E7324B324AFA213248FF31BC
:1052500003F074FA20009D4249D106256557002DC0
:105260002BDB2A4B6A00521992009B189A68A260A5
:10527000DA79E2719B795BB2A371002B0FDA2748D0
:10528000A080224B6A00521992009B18244A117880
:105290009971157049463000FFF71AFEA7E76800BC
:1052A00040198000194BC0180430FFF79BFD010026
:1052B000231D1800FFF7AEFDE2E7002912D10028F8
:1052C0000ED0FF238371174B838015490B78A37190
:1052D0000E4A154BA41A644163431B0D0B70D9E7AA
:1052E000094FF2E71149201DFFF7B8FDD2E7104B37
:1052F000084A09480F4903F021FA034F77E7C046EF
:10530000240100D000ED00E0CD010010301D002090
:105310008093011004AC0110EC91011001BD00005C
:105320000038002001BDFFFFAAAA00006A1D00206E
:10533000B49301103B020000F8B5012202432D4B4B
:10534000D31A2F2B28D8EFF30583002B2BD0EFF3A4
:10535000108472B6284909680029FBD0BFF35F8F1B
:10536000244D26490600761B76417143090D4DB246
:10537000234989689B00C95891421AD0002103290A
:1053800031D81C4B4A00521892009B189B795BB293
:10539000AB421ED00131F2E71A4B1B4A9D211B483C
:1053A000890003F0CBF91A4B174A1848194903F042
:1053B000C5F9134A92681849D150184B1A7882716E
:1053C0001D70BFF35F8F0C4B00221A6084F31088AE
:1053D000F8BD084B4A005618B6009E19FF27B77152
:1053E0000F4AB280E9E70F4B074AA221074889001C
:1053F00003F0A4F9301D0020240100D0AAAA000067
:1054000000ED00E0BC930110D8AB0110EC9101104D
:10541000E493011077020000CD0100100038002055
:1054200001BDFFFFF093011010B582B00100074CE1
:10543000074B0093052300222000FFF754FC0028AF
:1054400001DB1F23181A02B010BDC046043800202B
:10545000F8930110024B9C4661448900016070473B
:105460004000003410B50400FFF766FC0100200086
:10547000FFF7F0FFFF232371BFF35F8F10BD10B55F
:105480000400FFF759FC01002000FFF7E3FFFF23B2
:10549000237100236371BFF35F8F10BD10B50D4CF6
:1054A00009E00D4B0D4A0E481A2103F047F9200080
:1054B000FFF7D8FF08340B4B9C4209D22368002B1E
:1054C000F5D0012BEDD12000FFF7D9FF0834F2E72A
:1054D00010BDC04660230020149401108CAC011054
:1054E0003494011070230020034B9C4661448900D2
:1054F0000160BFF35F8F70474000003410B50400B7
:105500000120FFF727FC01002000FFF7EDFF10BD91
:1055100030B5846A151B0B1D9B001B581B1B9D423D
:1055200004D3046A01238B40234202D10431890051
:105530000A5030BD00040843704700000A4B196848
:10554000EFF3108372B60A68002AFCD0BFF35F8FB6
:10555000054A1268BFF35F8F0021116083F3108842
:1055600040BF002000217047D4370020F0B5DE4650
:1055700057464E464546E0B587B0EFF30583032214
:105580001A409246AE4B9200D7583B78534507D10C
:105590000123524693409946AA4B4A461A6025E198
:1055A000A94BAA4AAA48922103F0C8F87A69730065
:1055B0009B19DB009046984443469C68DD68A548EB
:1055C00000F0AEFB001BA941002900DA16E1002D16
:1055D00074DB43461B699B469F4B9B454FD008237A
:1055E000F85E4346598889B2FFF7A4FF43465969DC
:1055F000D847029003910299039A0B0010001343BD
:105600005CD013000A00002847DAA41A9D410094D8
:1056100001954346009C019D9C60DD600021595E20
:10562000002900DAEAE078694B005B18DB00C31858
:105630009A68DB68A41A9D41002D00DADEE039810A
:105640003D000835844604912A000597B346009E24
:10565000019F049B002B2ADB0023D45E63001B19EF
:10566000DB0063449C68DD6830003900001BA94101
:1056700000291CDB1A000021595E0491E9E743462A
:105680005B699B461B6958469847002816D05B46C5
:105690001A685B6802920393ADE76E4800F040FB26
:1056A000029B039C1B184C4100930194B1E70499A1
:1056B000059F5E464346198016809FE043460022C0
:1056C0009B5E3B813A69EFF3108372B61168002943
:1056D000FCD0BFF35F8F02217A5E41460A807E8054
:1056E0003A69BFF35F8F0021116083F3108885E072
:1056F0003969EFF3108372B60A68002AFCD0BFF351
:105700005F8FB88800B201225242BA803A69BFF373
:105710005F8F0021116083F310880500BC461CE0F8
:10572000049300229A5E002A0EDB049B0021595E3E
:105730004B005B18DB0063449868D96834003D0077
:10574000241A8D41002DEBDA04995D46009B9C469E
:1057500044460D800023E55E2280002D12DB634667
:1057600058696C006419E4000419A668E76861468A
:10577000083108229A5EAB46049163460093A04626
:105780008446D0E767463EE00023BB71390008310C
:105790000823F85E0EE001246442E5179460D560AA
:1057A00008243B5F834204D00E8008243B5F1380B3
:1057B00038813000431C29D07C6943001B18DB0072
:1057C000E218E65E53881BB2002BE4DB1100F0E721
:1057D00022002B0051461F48FFF79AFE1D4800F09B
:1057E0009FFA241A8D41002D22DC1FD0194B4A4606
:1057F0005A630823FE5E002E00DBD7E6BB881BB28F
:10580000002B00DB74E7BB79002BBDD10823FA5EC7
:10581000002A0DDB796953009B18DB00CB189C68CC
:10582000DD68631CD4D16B1CD8D0D1E7002CDDD04F
:1058300040BF07B0F0BCBB46B246A946A046F0BD8B
:10584000B03500203C700540C8940110B8AC011080
:10585000F4940110004005406D55001070B504002F
:105860000D0011000126AE4006622800FFF768FB1C
:1058700001212800FFF72CFB024B9C466444266064
:1058800070BDC04638200000F8B5CE46474680B50A
:105890000600894690461F00C160FFF74DFA154B80
:1058A0009C4660448000306143463370BBB27381D4
:1058B000D022120612787270012252423281B280D6
:1058C0009B187380002406E0621E736965002D1921
:1058D000ED005A530134BC42F6D3074B42469200C6
:1058E000D650064A41464846FFF7B8FFC0BCB94605
:1058F000B046F8BD40000034B03500206D550010B2
:1059000010B5064B1B69002B01D0044810BD044B99
:10591000044A0548652102F011FFC046781D0020A9
:1059200034950110A0AC0110F4940110F8B50400F6
:105930000569EFF3108072B629680029FCD0BFF327
:105940005F8F0221665E656971008919C9006D1853
:10595000002E02DB0027E95F61802169BFF35F8FC2
:1059600000270F6080F31088002E2CDB0699296138
:1059700007996961AA60EB606B8801335B04590C7D
:10598000002B00D1012169803000FFF7D3FD216990
:10599000EFF3108372B60A68002AFCD0BFF35F8F62
:1059A000A2882A80A6802269BFF35F8F0021116040
:1059B00083F31088E368217801228A4003498C46EA
:1059C00063441A60F8BD01204042FBE73C20000020
:1059D00070B582B0060014001D0008AB1B78002BC8
:1059E00007D100F0CFF922002B00121A8B41002BB7
:1059F0000ADB079B0193069B009322002B003000DB
:105A0000FFF794FF02B070BD0020FBE7F0B5C6467B
:105A100000B584B00500884616001F000AAB1C784C
:105A2000FFF76EFF0294019700962A004346FFF7A6
:105A3000CFFF04B080BCB846F0BD000030B5040014
:105A40000A1443899A422EDA406953009B18DB00FE
:105A5000C3182569EFF3108272B628680028FCD0BD
:105A6000BFF35F8F588885B20904090C884212D0B1
:105A700000202369BFF35F8F0021196082F3108833
:105A8000002811D0E368217801228A4007498C461A
:105A900063441A6008E00649294389B2598001230A
:105AA000A3710120E5E7002030BDC0463C20000086
:105AB0000080FFFF10B50400FFF722FF2100FFF771
:105AC000BDFF10BD40787047F0B583B006000F00F1
:105AD000EFF30583002B1AD106246442E517A419BD
