:020000041000EA
:1000000000B5324B212058609868022188439860DF
:10001000D860186158612E4B002199600221596106
:100020000121F02299502B49196001219960352056
:1000300000F044F80222904214D00621196600F024
:1000400034F8196E01211966002018661A6600F04E
:100050002CF8196E196E196E052000F02FF8012189
:100060000842F9D1002199601B49196000215960AB
:100070001A491B48016001219960EB211966A021F2
:10008000196600F012F800219960164914480160C1
:100090000121996001BC002800D000471248134993
:1000A000086003C880F30888084703B5996A0420EC
:1000B0000142FBD001200142F8D103BD02B5186610
:1000C0001866FFF7F2FF186E186E02BD00000240BE
:1000D000000000180000070000035F00212200005C
:1000E000F4000018222000A00001001008ED00E03C
:1000F00000000000000000000000000074B24E7A12
:1001000000200420F7010010C3010010C5010010F9
:10011000C1010010C1010010C1010010C101001097
:10012000C1010010C1010010C1010010C701001081
:10013000C1010010C1010010C9010010CB01001065
:10014000CD010010CD010010CD010010CD01001037
:10015000CD010010CD010010CD010010CD01001027
:10016000CD010010CD010010CD010010CD01001017
:10017000CD010010CD010010CD010010CD01001007
:10018000CD010010CD010010CD010010CD010010F7
:10019000CD010010CD010010CD010010CD010010E7
:1001A000CD010010CD010010CD010010CD010010D7
:1001B000CD010010CD010010CD010010CD010010C7
:1001C00000BE00BE00BE00BE00BE00BEEFF3058054
:1001D000103800BEF2EB887134C9011058C9011003
:1001E0003802001090A31AE71E481F49086006C88D
:1001F00081F3088810471D480068002801D019487D
:10020000F3E70DA40ECC002902D000F012F8F9E7B4
:100210001749184A002000E001C19142FCD116495B
:100220008847164988471649884700BEFDE701C937
:1002300001C29A42FBD3704758C90110C000002088
:1002400020270020B8EF0110000004200000042047
:10025000B8EF01100010042000100420000000007E
:10026000704700000000000008ED00E0000000D032
:1002700020270020B83B0020019B0010B103001094
:10028000F99A0010F8B5C04606480749091A8B10BC
:10029000C90FC91810B5491003D0044B002B00D06A
:1002A000984710BD202700202027002000000000D4
:1002B000054B10B5002B03D00449054800E000BFF2
:1002C000FFF7E2FF10BDC04600000000443B0020E5
:1002D0007C7F0110F0B5D6464F464646C0B50700B4
:1002E00084B02C4809F026FE2B4809F023FE2B4B46
:1002F000002499462A4B9A462A4B98460F23782584
:100300001E0025402640234214D0002D2DD0782DEC
:1003100016D1404609F092FE0F2E36D00134802CC3
:10032000ECD1214809F006FE04B0E0BCBA46B14663
:10033000A846F0BD21001D4809F080FE002D1ED00A
:1003400000230F223868E1B200936A4401330CF0B5
:1003500029FC00280FDB2100484609F06FFE0F2E14
:10036000DCD10A2009F09CFDD8E70E4D280009F0E9
:1003700065FE0134C2E7504609F060FEEFE7094D23
:100380000124280009F05AFEF0E70A2009F088FD50
:10039000C7E7C046807F0110987F0110DC7F011005
:1003A000D87F0110D47F0110E47F0110CC7F0110B1
:1003B000F0B5DE46574645464E46E0B5E5B009F095
:1003C0001FFDB74BB7481900079309F037FEB64831
:1003D00009F0B0FDB54BB64A1900B648099308922A
:1003E00009F02CFEB44809F0A5FDFA20C00006F083
:1003F00039FAB24CB24920000CF0A2FB03210420D0
:1004000005F0EEF90321052005F0EAF900220121AB
:10041000042005F0FFF900220121052005F0FAF97A
:10042000A74B05220421A74809F008FE2722210036
:100430000CA800F033FCA44D280009F07BFD0CA8AB
:1004400000F0A0FC0CA800F029FE002200210CA85E
:1004500000F08AFD9D490CA800F0A2FDFA20C00022
:1004600006F000FA9A4809F065FD9A4B18009A4682
:1004700004F05EFD002800D009E3974809F05AFD1A
:10048000964809F057FD0CA90EA803F0F1FE3C2395
:100490005246D35C002B00D094E30AA80A94FFF7DD
:1004A00019FF002325AE00933200272120000133DD
:1004B0000CF078FB002800DAEDE22721884809F0EB
:1004C000BDFD3C235246D35C002B00D095E32800B1
:1004D00009F030FD0CA800F055FC0CA800F0DEFD82
:1004E0003C235246D35C002B00D080E31BAD0E238F
:1004F0000D220C21280001F041FA280001F058FAE1
:100500003C235246D35C002B09D0012275490EA82A
:1005100003F0FAFF282274490EA803F037FF0CA954
:100520000BA801F03BF90BA801F03AF915AC20003B
:100530000CA901F045F96D4B2000636101F04EF903
:100540006B4809F0F7FC3C235246D35C002B09D0E2
:10055000012268490EA803F0D7FF3C2266490EA885
:1005600003F014FF654F38000DF03AF9644B9B46D9
:10057000002812D052462423D35C58460393D369F3
:1005800060490293136A002201930B230093013BFD
:1005900001F052F838000DF043F9584600F00EFE15
:1005A000594B1800984605F0BBFD58480CF074F9FB
:1005B0003C235246D35C002B09D0012254490EA89B
:1005C00003F0A2FF502253490EA803F0DFFE5B4662
:1005D0002A00300000940CA901F002FC300001F068
:1005E00063FC4D4809F0A6FC3C235246D35C002B2B
:1005F0000CD0012247490EA803F086FF6422474928
:100600000EA803F0C3FE0EA803F0CEFF53469B6A6C
:100610004348069309F08EFC424809F08BFC42489F
:1006200009F088FC00230493059306F031FA0029B1
:1006300000D1CBE1FA220023920006F0C5FD0400B0
:10064000504604F0B7FE280001F01CFA280001F023
:10065000FBF9337F002800D1AAE1002B00D1A0E1F3
:100660002B7DDFB2002B00D0E6E1304B1F60304B1A
:100670001F700023994631692E4809F0DFFC4A4675
:100680003900300003F0C0FA002009F0BDFB423809
:10069000342800D9B2E0284B80001B589F46C04642
:1006A000448001104C800110608001109080011086
:1006B000848001109C800110AC80011098210020E2
:1006C000801A0600C88001100081011024810110E9
:1006D0002C8101108C35002054810110C88101103B
:1006E00008820110A8820110B88201100000204188
:1006F000C8820110F0820110FC820110B82A00208B
:10070000042B002000002050E82A0020410C00109B
:100710000C8301101C830110288301104C830110ED
:10072000608301108C830110F8830110002B0020DE
:10073000A73B0020A88401104CA90110404617F0E7
:10074000DFFBDE4809F0F6FB5B46986E07F0FCFB2A
:1007500002000B00DA4809F071FC584600F0BCFFBB
:1007600007F0F2FB02000B00D64809F067FC584680
:10077000D54900F0C7FF07F0E7FB02000B00D348A4
:1007800009F05CFC5B46586F07F0DEFB02000B00D3
:10079000CF4809F053FC5B46CE48196F09F04EFC78
:1007A000584600F0C7FF07F0CFFB02000B00CA4815
:1007B00009F044FCC94809F0BDFBC94BC948196898
:1007C00009F03CFCC84BC948196809F037FC842380
:1007D0005A46D35CC649002B00D0C649C64809F02A
:1007E0002DFC8C235A46D35CC449002B00D0C4494D
:1007F000C44809F023FC404617F0D2FA404617F0EF
:100800007FFBC14B40461F68C04B1B689946B44BE9
:100810001B68B54B1B6817F0C3FA049BBB4200D1A1
:10082000E7E0337F002B00D1EDE0012006F01AF85D
:10083000FBE60AA8FFF74EFDE0E7404617F060FB35
:1008400000235A465361B04A404613600022AF4B22
:100850001A6017F0A5FAAE4809F06CFBCEE74046E7
:1008600017F04EFB8C225B4601219B5C58464B40A7
:1008700059468B5400F0A2FC404617F091FA8C23A5
:100880005A46D35CA349002B00D0A349A34809F0E2
:10089000D5FBB3E7A24809F04DFB280001F012F99F
:1008A000A04B0100180009F0C9FB29699E4809F016
:1008B000C5FB2B7D9D49002B00D09D499D4809F02B
:1008C000BDFBE9699C4809F0B9FB337F8849002BDF
:1008D00000D08849994809F0B1FB994809F02AFBF2
:1008E0008CE7984809F026FB974809F023FB9748C6
:1008F000079909F0A3FB9648099909F09FFB9548D1
:10090000089909F09BFB944809F014FB934809F0FF
:1009100011FB73E7924809F00DFB924809F00AFBBE
:10092000914809F007FB914809F004FB904809F051
:1009300001FB904809F0FEFA8F4809F0FBFA8F4856
:1009400009F0F8FA8E4809F0F5FA8E4809F0F2FA43
:100950008D4809F0EFFA8D4809F0ECFA4EE78C4823
:1009600009F0E8FA4AE7404617F0CAFA584600F09C
:10097000FDFE00225A4B40461A605B4B1A6017F08E
:100980000FFA844809F0D6FA38E7834809F0D2FA1A
:10099000642005F067FF01220020804906F00CFA70
:1009A000FEE77F4809F0C6FA300003F007FC337F0A
:1009B0002A7DD7B2002A0FD17A4A17607A4A177077
:1009C00000229146002B00D15EE654E6FA21890010
:1009D00006F0BCFB040033E672490A68002A37D1EE
:1009E0000C6071490A70002CEAD01F003B000127FF
:1009F000E6E7059B069AE31A934200D215E7337F98
:100A0000002B00D011E70CA800F0A4FA002200216E
:100A10000CA800F0A9FA484607F096FA634A00903D
:100A20000191102111A808F0D1FF11A90CA800F024
:100A3000B7FA04970594F8E65A4B1A68002A20D1B1
:100A40001C60594B1A70002CD0D10023994612E635
:100A5000554908780028B3D1FA200127A21A80004E
:100A60008242ADD90F7099461F1E00D003E6504850
:100A700009F060FA300002F0E3FD0137B946337F38
:100A8000A0E749490B78002BDFD13B00E4E7494858
:100A900009F050FAF4E42721474809F0CFFA474813
:100AA00009F048FA3C235246D35C002B00D10EE5F6
:100AB000002243490EA803F027FDA3E07C86011025
:100AC000A4860110C886011000002041DC860110B8
:100AD0000487011020870110388701105487011006
:100AE000F42A002070870110FC2A0020888701105A
:100AF000809401100C800110A48701102080011047
:100B000010800110C0870110F82A0020F02A002070
:100B1000FC84011004800110008001106486011023
:100B2000E48801100889011014890110388001102F
:100B3000308001102489011030890110448901108E
:100B400058890110CC870110F08701101C88011012
:100B50002C8801103C8801104C88011088880110F5
:100B60001485011028850110448501105885011055
:100B7000748501109C850110B4850110D485011085
:100B8000F48501100C860110208601103C860110AE
:100B900088890110C4880110DC8401100020042021
:100BA00044840110002B0020A73B0020F47F01109B
:100BB0007C84011098810110308201106082011044
:100BC0002C8201100EA803F059FB0EA803F08CFB39
:100BD0000A2217490EA803F0D9FBFA20400005F0BD
:100BE00041FE142213490EA803F0D0FB55E41E2247
:100BF00011490EA803F0CAFB78E401220F490EA8A0
:100C000003F082FC3C235246D35C002B00D15EE40F
:100C10001E2209490EA803F0B9FB58E402E038008F
:100C20000CF0FAFD280000F0B9FE0CF069F9C0469E
:100C3000E8810110F88101109C8201102C820110C2
:100C4000F8B5104B4746CE4699460F4B80B59846AF
:100C50000E4C0F4D0F4F104E200000F037FB2800B8
:100C600017F04EF94A4663692000136000F022FD38
:100C700043461860A36F28003B60E36F336017F0B2
:100C80008FF8E9E7F82A0020F02A0020042B002042
:100C9000E82A0020F42A0020FC2A00200823016012
:100CA000027143717047C046F0B5D6464F4646467E
:100CB000C0B5437904001A4308000F23984303008A
:100CC0000D27002584B0090103AE6F4413430A4386
:100CD00033703A70217932002068012300950BF0BF
:100CE00057FF0E226A4490460422914692464A4695
:100CF000414633780F261A430A7052466E44934396
:100D00003370424621790123206800950BF040FFA3
:100D10000120002105F030FD3200217901232068F7
:100D200000950BF035FF3220002105F025FD2179DB
:100D30003A002068012300950BF02AFF4A464146FD
:100D40003B7820681A430A705246934333704246F8
:100D50002179012300950BF01BFF0120002105F0F4
:100D60000BFD217901233200206800950BF010FF64
:100D70003220002105F000FD04B0E0BCBA46B146C7
:100D8000A846F0BDF0B5DE4657464E464546E0B5AE
:100D9000040085B0322005F065FD30239B460D260A
:100DA0005A46002563796E4413433370217932002B
:100DB0002068012300950BF0EBFE0E226A4490465A
:100DC0000422914692464A46414633780F271A43F9
:100DD0000A7052466F4493433B7042462179012387
:100DE000206800950BF0D4FE0120002105F0C4FC22
:100DF0003A0001232179206800950BF0C9FE0021FB
:100E0000322005F0B9FC052005F02CFD5A46637927
:100E100020681343337021793200012300950BF0D1
:100E2000B7FE4A464146337820681A430A70524654
:100E300093433B7042462179012300950BF0A8FEB5
:100E40000120002105F098FC3A0001232179206857
:100E500000950BF09DFE3220002105F08DFC6420F2
:100E6000002105F089FC5A466379206813433370EA
:100E700021793200012300950BF08AFE4A46414653
:100E8000337820681A430A70524693433B704246B7
:100E90002179012300950BF07BFE0120002105F054
:100EA0006BFC3A0001232179206800950BF070FE5D
:100EB0003220002105F060FC6420002105F05CFC7C
:100EC0002022637920681343337021793200012393
:100ED00000950BF05DFE4B46414632782068134387
:100EE0000B7053469A433A7021794246033B009572
:100EF0000BF04EFE0120002105F03EFC01233A00DC
:100F00002179206800950BF043FE3220002105F086
:100F100033FC200000222821FFF7C6FE200000221B
:100F20000C21FFF7C1FE002201212000FFF7BCFECB
:100F3000022005F097FC002206212000FFF7B4FEF6
:100F4000022005F08FFC05B0F0BCBB46B246A946B6
:100F5000A046F0BD10B500220121FFF7A5FE02203A
:100F600005F080FC10BDC04600B50C4B83B001936A
:100F7000131C032A00D90323DBB20A1C0F2900D952
:100F80000F2201A9CB5C80219B1849421943002202
:100F9000C9B2FFF789FE03B000BDC046004014543B
:100FA000F0B5DE4657464E464546E0B58B460978D5
:100FB000040085B000296AD003AB9A460D236B4428
:100FC00099460E230F276B44984600256F44012352
:100FD0000A000F2056469C46637982431A430E3816
:100FE000024332704A4609010B43034313702179CF
:100FF0000123524620680095E3440BF0C9FD337885
:1010000004261A00414632430A70042293433B707F
:10101000424601232179206800950BF0B9FD01209B
:10102000002105F0A9FB01233A00217920680095F1
:101030000BF0AEFD3220002105F09EFB217901234B
:101040004A46206800950BF0A3FD4B46042241461A
:101050001B7820681E4393433B700E700123424669
:10106000217900950BF094FD0120002105F084FB0F
:10107000012321793A00206800950BF089FD0021B9
:10108000322005F079FB5B46197800299FD105B025
:10109000F0BCBB46B246A946A046F0BD082343714A
:1010A0007047C046CB003821F0B5DE46574645466E
:1010B0004E4619404023E0B5194387B0170000227F
:1010C0000400FFF7F1FD08239C46BC44634602AAD6
:1010D000039305AB94469A460D2363449B460E2327
:1010E000634499460F2363449846002539780F20BE
:1010F0000A005646637982431A430E38024332701F
:101100005A4609010B4303431370217901235246C8
:10111000206800950BF03CFD337804261A00494600
:1011200032430A700422414693430B704A4601231E
:101130002179206800950BF02BFD0120002105F09E
:101140001BFB012342462179206800950BF020FD0E
:101150003220002105F010FB217901235A46206836
:1011600000950BF015FD5B4604221B7849461E4393
:10117000934342460E701370217901234A4620683A
:1011800000950BF005FD0120002105F0F5FA012383
:1011900021794246206800950BF0FAFC32200021AC
:1011A00005F0EAFA039B0137BB429FD107B0F0BCC0
:1011B000BB46B246A946A046F0BDC046F0B5CE46F5
:1011C00047468C2380B5C35C040087B0002B4BD00E
:1011D0003B4940680BF0F0FCE368C201984680236D
:1011E0005B020293030009331B0313430393F822AA
:1011F00043461203DB0313400593324B65680493A7
:10120000314BA668EC18240D0634E4B20700210027
:10121000404604F0E5FA01234344180021009946B2
:1012200004F0DEFA00234246310000932800023326
:101230000BF03EFD00220121404604F0EBFA0022B3
:101240000121484604F0E6FA3A0002AB31002800DA
:101250000BF088FD0123B3402A6813432B6007B0CD
:10126000C0BCB946B046F0BD0125C06804F07AFBA9
:10127000206904F077FB2B00E068D02683402A0029
:101280003606B362236901219A40B262002204F05B
:10129000C1FA00220121206904F0BCFA280021696A
:1012A000726888400240511E8A41E16873688D402F
:1012B0002B40591E8B41520013432376CFE7C04683
:1012C0005CAA0110000008800000E0AFF0B54546C0
:1012D000DE4657464E46E0B591B0050005F0D8FB16
:1012E000002900D148E1FA220023920005F06CFFAA
:1012F0000C906B690B938C23EB5C9846002B00D110
:1013000019E101263000C44BAA681F6890400E976F
:101310000B9F0F9203970E9F083204970027BA463F
:101320000797019705970337BC46BC4F08901000FC
:10133000BB464746BA4C9640226869689146B94A0E
:1013400080000D92127809940A934B68089C1C4205
:1013500007D001239846C1444B683342FCD143581F
:1013600001974B681C0034400294334200D032E1B4
:1013700000231024984606951300624645582A40DB
:101380009A4209D05D469B001343DBB2EB56002B1B
:1013900000D1BAE09844BA464B68334202D1013CCE
:1013A000002CE9D1A04B049C9B6A069D1C1B069354
:1013B0009E4B9C4200D9B9E04B4602934346002B1A
:1013C00000D0A7E00798099C0A9B002801D0049848
:1013D00018605346002B01D00D9B1A70019B002B07
:1013E00001D0029B2360059B0A2B00D1E5E04B68EE
:1013F000089A1A4225D0AB6F0133AB674B68334272
:101400001FD1059804281CD80F9B9B00CB181A6A83
:101410004A68324215D1042813D01A6A4A68324207
:101420000FD103280DD01A6A4A68324209D1022826
:1014300007D01A6A4A68324203D1002801D11B6AD8
:101440004B680B9B039A93421BD06420D41A8823C9
:10145000E9582B5C0C9E9A00AA18711A54625164C8
:10146000072201331340FA222B54EB6E286FF31A34
:101470009200934200D385E0E317E4185C402418FF
:101480002C6788230C9AAC6CEA506B6C0020E41833
:10149000EB6CE4182B6DE4186B6DE418AB6DE4187D
:1014A000EB6DE4182B6EE418002C26D06B6AA86A4A
:1014B000C018EB6AC0182B6BC0186B6BC018AB6BF5
:1014C000C018EB6BC0182B6CC01806F0E3FC061CB0
:1014D000200006F0DAFC011C301C06F07EFC5449AA
:1014E00006F08FFCE96906F08CFC041C286A06F003
:1014F000CCFC011C201C06F070FCA86611B0F0BCEE
:10150000BB46B246A946A046F0BD01239A460197C4
:10151000D14440E7059B0A2B3ED0039C0133059341
:10152000029B4444994603946C610EE7069B07971F
:101530000493019742E701210C00D02328691B0680
:1015400084405A685B682240501E8241E86852001D
:1015500081400B40591E8B4113432A7E9A4290D002
:10156000920034491A43D2B28A560B992B768C4694
:10157000624403926A6164E7FA21890005F0E6FD9E
:101580000C90B6E606F081FCFA21890506F039FCDC
:10159000EE66686700206FE70798099C0A9B0028A1
:1015A00001D0049818605346002B01D00D9B1A708F
:1015B000019B002B01D0029B2360AB6F0122013302
:1015C000AB678423EA547A3B0593089A4B681A4226
:1015D00000D136E70FE70798099C0A9B002817D02F
:1015E000049818605046002801D00D980270019AA6
:1015F000002A01D04A4622600B4A0498926A171AC0
:101600000A48874200D8EEE600201A602060EAE629
:101610000E980490E6E7C046982B00204CAA0110D3
:10162000942B0020A83B00200040054080969800A5
:1016300000007A444CAA011070B50400A260059A1B
:10164000E360E261049B069A6846236122620023FC
:101650008C22007F164D6160256063612376A05463
:101660000022A2666422A35405F012FA002919D0C0
:10167000FA220023920005F0A7FD88230022E05003
:10168000002362678022E0662367A367E367A050B8
:1016900020000432A3540021443A243006F020FDF7
:1016A000200070BDFA21890005F050FDE5E7C04635
:1016B00044AA011070B50400406906F0EBFBE16933
:1016C00006F09FFB051C206A06F0DFFB011C281CAE
:1016D00006F083FB70BDC04670B5C56904000021EB
:1016E000281C06F0CDFB002801D1002070BD291C6C
:1016F000A06E06F072FB024906F083FBF6E7C046D7
:101700000000704270B50C1C05000021201C06F082
:10171000B7FB002801D1002070BDA86E211C40003D
:10172000400806F05AFB024906F06BFBF4E7C0469E
:101730000000C84270B5046A002C06D0456F002135
:10174000281C06F09DFB002801D1002070BD064931
:10175000281C06F056FB051C200006F096FB011C19
:10176000281C06F03AFBF1E70000704200238422B7
:1017700010B58367C3678354040005F089F9002915
:1017800007D0FA220023920005F01EFD8023E050CE
:1017900010BDFA21890005F0D9FCF7E70160704718
:1017A00070B506000024054D2A00E1B2306801340E
:1017B000FFF778FC0835082CF6D170BD78AA011027
:1017C000054B016043610023037183600023C36004
:1017D000012303747047C0460000204110B5040087
:1017E000032200210068FFF7BFFB02492068FFF7D2
:1017F000D7FB10BDC0890110F0B5C64600B5544DE9
:1018000004002B681A7D002A07D1D02212065168E5
:10181000012298688240114208D01A68A2420CD076
:101820009B68A34235D080BCB846F0BD494808F05B
:1018300081FB2B68002BF6D0EFE7474808F07AFBD6
:10184000464B9C6A2B6801252A001868596A824019
:101850004348611A814263D9D0200006416840683C
:101860000A4011004E1EB141C9B2002A0AD11A7BAA
:10187000002A07D05A6895401A69284261D001327F
:101880001A615C62197319693648DA6908F0D6FB87
:10189000C9E70126344808F04DFB32002F4BD02118
:1018A0009B6A090698462B684C68986882402242D9
:1018B0002AD137004C68A4461C68A7403C00674604
:1018C000274236D037004C6859688F403C4230D0B0
:1018D00044469969611A254CA14215D942464146B0
:1018E0001E759A611A6A8A1A21498A422DD8DA69C4
:1018F0000132DA6142461A62D9691E4808F09EFB3D
:1019000001222B6898688240D021090649680A4262
:1019100001D000221A750122042103F08FFF82E713
:10192000D021090649680A40511E8A41D2B21A7371
:1019300079E7114808F0FEFA01222B689868824086
:10194000E2E7013A1A615C629CE7DE61D2E7C046D9
:10195000C82A0020D0890110E88901100040054004
:10196000B70B00000C8A0110408A01101F4E0000C6
:101970003F420F00A88A0110648A0110836000238F
:101980000373036103758361C36103624362024BA6
:101990000160426018607047C82A0020034B1A6833
:1019A000824200D0704700221A60FBE7C82A00205C
:1019B00070B50400012581681D4808F03FFB2068D0
:1019C00003F0D0FF606803F0CDFFA06803F0CAFF0A
:1019D0002B002068D02683402A003606B362636855
:1019E00001219A40B2622A00A3689A40B2620022A2
:1019F00003F010FF60680022012103F00BFF0022BA
:101A0000A068012103F006FF2068736885402B4021
:101A10005A1E9341DBB223730122064B0C2103F0C3
:101A200039FFA0680122042103F008FF012070BDE6
:101A3000D08A0110F9170010024B026918681A6069
:101A4000101A70479C2B00200B4B9B6AC269022A1C
:101A500004D9026A09499A1A8A4209D9026A9B1A68
:101A6000074A934201D8002070470023C361FAE778
:101A70000023C3610120F7E7004005403F420F000B
:101A800040420F000122D02310B584681B06A240FB
:101A900059680A4B9B6A114202D0027D002A0AD182
:101AA000026A9B1A064A934204D9C369002B01D0EB
:101AB0000023C36110BD00220275F1E7004005401C
:101AC00040420F0010B50369027D82B0002A0CD09D
:101AD0000749C069074C0190009120006421064A23
:101AE00007F074FF200002B010BD0449F1E7C046C2
:101AF000F48A0110942C0020FC8A0110F88A01104D
:101B000010B5040086B00068FFF724FA0022002117
:101B10002068FFF729FA11492068FFF741FA0122EE
:101B200000212068FFF720FAA368002B13D05B691F
:101B30000B4A142101A807F049FF206801A9FFF70B
:101B40002FFA022200212068FFF70EFAFA2004F093
:101B500089FE06B010BD0023EAE7C046188B0110CD
:101B6000248B011070B5040088B000680E1CFFF7CC
:101B7000F1F9002220680021FFF7F6F920681549E5
:101B8000FFF70EFA012220680021FFF7EDF9206827
:101B90001149FFF705FA022220680021FFF7E4F956
:101BA000301C06F0D1F90D4D009001912A0014214E
:101BB00003A807F00BFF206803A9FFF7F1F9032240
:101BC00020680021FFF7D0F905492068FFF7E8F900
:101BD00008B070BD308B0110448B0110588B011080
:101BE000608B011070B5040088B000680E1CFFF710
:101BF000B1F9002220680021FFF7B6F920681549E5
:101C0000FFF7CEF9012220680021FFF7ADF9206827
:101C10001149FFF7C5F9022220680021FFF7A4F956
:101C2000301C06F091F90D4D009001912A0014210D
:101C300003A807F0CBFE206803A9FFF7B1F9032240
:101C400020680021FFF790F905492068FFF7A8F9FF
:101C500008B070BDA48B0110448B0110588B01108B
:101C6000608B011030B504008BB00068FFF772F98B
:101C7000002220680021FFF777F920681549FFF757
:101C80008FF9012220680021FFF76EF920681249C0
:101C9000FFF786F9022220680021FFF765F9A823E3
:101CA000E05806F051F90D4D009001912A002021D5
:101CB00002A807F08BFE206802A9FFF771F9032242
:101CC00020680021FFF750F905492068FFF768F9FF
:101CD0000BB030BDB88B0110CC8B0110DC8B011028
:101CE000E88B011030B504008BB00068FFF732F9C3
:101CF000002220680021FFF737F920681149FFF71B
:101D00004FF9012220680021FFF72EF9A823E0589F
:101D100006F01AF90C4D009001912A00202102A82A
:101D200007F054FE206802A9FFF73AF90222206862
:101D30000021FFF719F905492068FFF731F90BB0C9
:101D400030BDC046FC8B0110DC8B0110108C0110E3
:101D500010B5040090B00068FFF7FCF8002220687E
:101D60000021FFF701F920681749FFF719F92068EA
:101D700001220021FFF7F8F8144B154A202168468C
:101D800007F024FE69462068FFF70AF9206802225E
:101D90000021FFF7E9F80F4B0F4A202108A807F0B0
:101DA00015FE206808A9FFF7FBF803222068002130
:101DB000FFF7DAF809492068FFF7F2F8FA20C000C7
:101DC00004F050FD10B010BD648C01109080011023
:101DD000748C011044800110808C0110888C0110DB
:101DE00070B5426083601500049B2A4AC36002629A
:101DF0000023D02201600361436183610377436262
:101E000083500432835404328350043283500432AA
:101E10008354214A0400028596229200C262FE2267
:101E200092050263342283541C4A64338287012260
:101E300083630364203BC252194B210083644C230B
:101E4000FF32C252013B0365413B4365154B2831CC
:101E50008365CC3A5C3006F049F9002D02D02800A9
:101E6000FFF710FE00239022A3540432A350043243
:101E7000A3500832A3500023043AA3500832A350C1
:101E80000432A3500832A350FE22CC239205200036
:101E9000E25070BD60EA0000D20400003250000041
:101EA000102700000000C842134B10B5038596238D
:101EB0009B00C362FE239B05036300223423C254AC
:101EC0000E4A30338287012283630364203BC2526F
:101ED0000B4B010083644C23FF32C252013B03656C
:101EE000413B4365074B28318365CC3A5C3006F0B3
:101EF000FDF8012010BDC046D204000032500000A1
:101F0000102700000000C84210B504000068FFF769
:101F100021F8002220680021FFF726F820680F49E9
:101F2000FFF73EF8012220680021FFF71DF8206826
:101F30000B49FFF735F8022220680021FFF714F85B
:101F400020680849FFF72CF8032220680021FFF7DA
:101F50000BF805492068FFF723F810BD988C011095
:101F6000A48C0110B48C0110C88C0110F8B5CE46B9
:101F70004746050080B50F000168304808F05EF85C
:101F80002868FEF7E7FF002200212868FEF7ECFF33
:101F90007C1E2B492868FFF703F8072C17DD072460
:101FA000284B01269946284B984628680021F2B212
:101FB000FEF7DAFF2868A7420DD04946FEF7F0FF8A
:101FC0002868092C36D84246A300D3589F46E343DD
:101FD000DB171C40E4E71D49FEF7E2FFF0E71C4970
:101FE000FEF7DEFFC0BCB946B046F8BD1949FEF7A2
:101FF000D7FF01360134042ED7D1F3E71649FEF797
:10200000CFFFF6E71549FEF7CBFFF2E71449FEF7DD
:10201000C7FFEEE71349FEF7C3FFEAE71249FEF7F1
:10202000BFFFE6E71149FEF7BBFFE2E71049FEF705
:10203000B7FFDEE70F49FEF7B3FFDAE7D88C0110F0
:10204000108D0110248D0110B8AA0110208D0110EF
:10205000AC8D0110A08D0110908D0110808D0110AC
:10206000748D0110688D01105C8D0110508D011070
:102070003C8D0110288D0110F8B5904E0400336896
:102080000D00052B09D88E4A9B00D3589F46032983
:1020900000D1EDE0042900D180E0F8BD032900D192
:1020A000BEE00429F9D103233360864B1968FFF79A
:1020B00099FDF2E7032900D1F3E005230429ECD1CF
:1020C0002361814B20001968FFF750FFE5E7436863
:1020D0001A697E4B18681A60101A05F0DBFE7C49FD
:1020E00005F08FFE7B4F396805F074FE3860012DD6
:1020F00000D18CE0022D00D1B0E0032D77D0042D6B
:1021000000D088E0002320003360FFF7FDFEC4E725
:10211000032900D1B9E00429BFD1012333606D4BFD
:102120001968FFF71FFDB8E743681A69674B18681D
:102130001A60101A05F0AEFE654905F062FE614FA7
:10214000396805F047FE3860012D57D0022D00D1C7
:1021500089E0032D3FD0042D54D102232068336041
:10216000FEF7F8FE002220680021FEF7FDFE206841
:102170005949FEF715FF012220680021FEF7F4FE01
:1021800020685649FEF70CFF206802220021FEF766
:10219000EBFE53492068FEF703FF7EE70068FEF779
:1021A000D9FE002100222068FEF7DEFE4D4920689E
:1021B000FEF7F6FE012200212068FEF7D5FE4A490F
:1021C0002068FEF7EDFEFA20800004F04BFB0023B0
:1021D0003360053374E7A3685A69A023E2500433DF
:1021E000E050A03B20003360FFF73CFD55E7A368BB
:1021F0005A699823E2500433E050AEE7344905F0C1
:10220000E9FD3860011C2000FFF7ECFC45E7304990
:1022100005F0E0FD3860011C2000FFF7A3FC3CE75F
:10222000A023C258083BC3580020D71A9A420DD0A9
:102230009C23E1580833E05805F0C9FD051C38001F
:1022400005F028FE011C281C05F0C7FDA823E0505E
:10225000A33B20003360FFF745FD1EE71C4905F056
:10226000B6FD3860D7E71A4905F0B1FD3860C9E717
:10227000A823C35803630068FEF76CFE0021002208
:102280002068FEF771FE194991E7A4233160C15817
:102290000C4B196043681A690C4B1A60FFF7A2FCDB
:1022A000FBE6012333609B33C1580A4B1960436836
:1022B0001A69064B1A60FFF755FCEEE6742C0020F5
:1022C000E0AA01107C2C0020802C0020702C002023
:1022D0000AD7233C782C0020748B0110848B0110CA
:1022E000948B01103C8C0110548C0110288C01102F
:1022F000F0B54546DE4657464E46E0B52A4B8DB012
:1023000002AE8846320019000400A1C9A1C221C949
:1023100021C21433914623CB23C203CB03C22068CE
:10232000FEF718FE002200212068FEF71DFE1F495F
:102330002068FEF735FE1E4B00259A461D4B019383
:10234000012343449B466F1C20680021FAB2FEF72C
:102350000BFE2068A8451CD05146FEF721FE02CE98
:102360002068FEF71DFE3D00052FECD120680422F9
:102370000021FEF7F9FD43464A469B00D1582068EC
:10238000FEF70EFE0DB0F0BCBB46B246A946A04615
:10239000F0BD5D460199FEF703FE02CE2068FEF710
:1023A000FFFD052DCFD1E1E7D0AB0110B88D0110B5
:1023B000248D0110208D0110F0B5DE4657464646AB
:1023C000C0B505000C00BC4B88B000294BD00022E2
:1023D000BA491A7088460F68042C00D1FFE0032C1C
:1023E00020D0012C00D13FE1022C00D028E1B44ED6
:1023F0003378002B00D181E17C1E022C00DC57E1F8
:102400000224022F00D1CFE100DDA8E1002F00D18E
:10241000A8E1012F34D1AB4A1368012B30DD013B19
:1024200013602DE0A64E3278002A00D1E5E0022F9D
:1024300000D1C8E100DDBDE1002F00D1A2E1012FF4
:1024400007D1A04B186805F025FD9F4905F0C5FC94
:10245000286300237C1E3370022C00DDCBE0E343B5
:10246000DB171C400CE01A78002A00D1ADE0934A3B
:10247000934E11609046934A317011601970002498
:102480002868FEF767FD002200212868FEF76CFD32
:102490008E492868FEF784FDE31C9B468C4B012780
:1024A0009A463F1B3A1928680021D2B2FEF75CFD1C
:1024B00043461B682868A3422FD13378002B54D0A1
:1024C000042C00D1E6E08349FEF76AFD022C51D0CE
:1024D000032C30D13378002B04D043461B68032BE8
:1024E00000D1B6E0AB6B14217B4A03A807F06EFA6B
:1024F000286803A90134FEF753FDA345D2D13378F0
:10250000002B04D043461B68032B00DCC6E008B058
:10251000E0BCBB46B246A846F0BD5146FEF740FDC2
:10252000022C27D0022C06DD032CD3D06B4928685F
:10253000FEF736FDE3E7012C34D13378002B04D0CD
:1025400043461B68012B00D186E0286B05F0FCFC9C
:10255000634A00900191142103A807F037FA286814
:1025600003A9FEF71DFD01349CE75E49FEF718FD47
:10257000022CD7D128685C49FEF712FD3378286811
:10258000002B03D043461B68022B05D03423EB5CA1
:10259000002B05D05549ADE74A4B1B68002BF9D1FC
:1025A0005349A7E73378002B03D043461B68002B21
:1025B00043D0EB6A14214F4A03A807F007FA2868B2
:1025C00003A9FEF7EDFC01346CE73C4B1C68984610
:1025D000013C022C37DC002C38DB394E50E701215E
:1025E000374E19703378002B00D1A0E07C1E32707A
:1025F000022C00DC33E7022442E7042F00D1C5E0BF
:1026000001237C1E3370022C00DD9FE0E343DB17C7
:102610001C40022F00D1E1E000DD99E0002F00D145
:10262000D8E0012F00D02BE72749286B05F0E9FB04
:1026300005F052FC234F386022E7224B1B68B9E7B4
:102640007C1E022CC7DD02241D4E19E700241C4EFF
:1026500016E71C4B1B6846E71A4B186805F01AFC76
:10266000194905F0BAFB71E7154E7C1E3378002B33
:1026700054D0022C4EDD0224022F00D194E079DCEC
:10268000002F7AD0012F00D0FAE60E4A13680133EA
:102690001360F5E61349FEF783FC47E72868042238
:1026A0000021FEF761FC14492868FEF779FC2EE74B
:1026B000E343DB171C40A4E6C0200020682C002068
:1026C000A93B0020642C00200000C842188E011095
:1026D000248D0110288E0110488E0110548E011097
:1026E000348E0110208D0110408E01100C8E0110CF
:1026F000108E01102C8E01105C8E0110032F00DD56
:10270000BEE67B1C0B60022F00DDB9E6FC43E4173C
:102710003C40B5E6E343DB171C40ADE7002F00DC8F
:10272000ADE60C60BC1E022C00DC98E663E72E4A86
:1027300011684246042F44D01460337005232B6186
:102740002A4B28002B62FFF711FCE0E6022460E729
:10275000032F00D094E6264BAA6B1A6090E6032F55
:1027600000D08DE6224A13680A2B00DC88E60A3B7B
:10277000136085E6032F00D082E61D4A13680A33F2
:1027800013607DE61A4B1B68EB6262E6012119704B
:1027900043461A6005230361144B32700362124BE7
:1027A0001968FFF7E3FBB2E6114A136859424B413F
:1027B000136065E6032F00D04BE60D4B1B68AB633F
:1027C00047E61360B9E70A4B1B685A1E934134224F
:1027D000AB543EE6064BEA6A1A6051E63422044BDB
:1027E000AA5C1A604CE6C046802C002060EA00001B
:1027F000642C002070B5204D04002B78002B23D0D2
:10280000032902D0042915D070BD210034225C3187
:10281000283005F06BFC2068FEF79CFB00220021AD
:102820002068FEF7A1FB20681449FEF7B9FB1448A5
:1028300004F018F800232B7005332361114B20009E
:102840001968FFF793FBDFE70068FEF783FB0022C0
:1028500000212068FEF788FB0B492068FEF7A0FBEB
:10286000012200212068FEF77FFB08492068FEF75F
:1028700097FB01232B70C7E7AC3B0020A48E01100F
:10288000DC050000802C0020788E0110908E011055
:1028900010B504008AB0042932D00068FEF75AFB54
:1028A000002200212068FEF75FFB1A492068FEF72E
:1028B00077FB012200212068FEF756FB164A1749D4
:1028C000684607F06DF869462068FEF769FB02224A
:1028D00000212068FEF748FB114A124905A807F0BD
:1028E0005FF8206805A9FEF75BFB00212068032242
:1028F000FEF73AFB0C492068FEF752FB0AB010BD08
:1029000005230361094B0362094B1968FFF72EFB8E
:10291000F4E7C046B88E011044800110808C01108D
:1029200090800110C48E0110FC8D011060EA00003F
:10293000802C0020F0B5CE46474680B50339040010
:1029400087B001295BD9344D2B78002B4AD13C2329
:10295000C25C324B98461B689A4248D0304B99462D
:102960003C273D262068FEF7F5FA0022002120686A
:10297000FEF7FAFA2B492068FEF712FB012200212C
:102980002068FEF7F1FAE35D274A142101A807F059
:102990001DF8206801A9FEF703FB02220021206830
:1029A000FEF7E2FAA35D214A142101A807F00EF810
:1029B000206801A9FEF7F4FA032200212068FEF73F
:1029C000D3FA1B492068FEF7EBFA4246E35D136039
:1029D0004A46A35D136000232B7007B0C0BCB94604
:1029E000B046F0BD0D4B98460D4B9946B8E73D23D8
:1029F000C25C0B4B99461B689A42B1D1EDE70122AC
:102A0000054B1A70052303610A4B03620A4B1968D0
:102A1000FFF7ACFAE1E7C046B4200020BC2000205C
:102A2000B8200020DC8E0110F08E0110008F011004
:102A3000FC8D011060EA0000802C002070B5214D53
:102A40000B0004002968032B16D008DC012B0ED0E4
:102A5000022B08D1032906DC0131296003E0042B95
:102A600001D1052323612000FFF742FC70BD00293E
:102A7000F9DD01392960F6E70429F4D8124A8B0000
:102A8000D3589F4615230361EDE70021FFF794FC1F
:102A90002968E8E70021FFF74DFF2968E3E70068B0
:102AA000FEF758FA002200212068FEF75DFA074978
:102AB0002068FEF775FAFA20800003F0D3FE29683B
:102AC000D1E7C0466C2C0020F8AA0110108F01102D
:102AD00010B5040086B0042934D00068FEF73AFA35
:102AE000002200212068FEF73FFA1B492068FEF70C
:102AF00057FA012200212068FEF736FA236D174AA3
:102B0000142101A806F062FF206801A9FEF748FA27
:102B1000022200212068FEF727FA636D104A142173
:102B200001A806F053FF206801A9FEF739FA002139
:102B300020680322FEF718FA0A492068FEF730FAE7
:102B400006B010BD05230361074B0362074B1968EC
:102B5000FFF70CFAF4E7C0462C8F0110388F0110F4
:102B6000488F0110FC8D011060EA0000802C0020CD
:102B700030B5040095B00068FEF7ECF9002220683B
:102B80000021FEF7F1F920684049FEF709FA012219
:102B900020680021FEF7E8F9AC23E05805F0D4F9ED
:102BA0000B0002003A49684606F0FAFE69462068C2
:102BB000FEF7F6F9022220680021FEF7D5F9A823D6
:102BC000E05805F0C1F9B0250B000200314905A815
:102BD00006F0E6FE206805A9FEF7E2F90322206868
:102BE0000021FEF7C1F9605905F0AEF902000B00B3
:102BF0000AA8294906F0D4FE20680AA9FEF7D0F9F0
:102C00009C23E1580833E05805F0E1F8011C6059B5
:102C100005F0E3F840002149400805F0F2F8051CF2
:102C20001F4803F01FFE2068FEF794F90022206879
:102C30000021FEF799F920681A49FEF7B1F901223F
:102C400020680021FEF790F9281C05F07DF90B00A3
:102C5000020015490FA806F0A3FE20680FA9FEF791
:102C60009FF9022220680021FEF77EF920680F49B3
:102C7000FEF796F9032220680021FEF775F90C494A
:102C80002068FEF78DF915B030BDC046588F011091
:102C90006C8F0110788F0110848F01100000C842E2
:102CA000B80B0000908F0110A08F0110B08F0110A1
:102CB000C08F011030B504008BB00068FEF74AF9F0
:102CC0009423E3580D2B15D8E04A9B00D3589F4618
:102CD000002200212068FEF747F92068DC49FEF752
:102CE0005FF9012220680021FEF73EF9D9492068EA
:102CF000FEF756F90BB030BD002220680021FEF728
:102D000033F92068D449FEF74BF9012220680021ED
:102D1000FEF72AF92068D149FEF742F9022220681D
:102D20000021FEF721F9A823E05805F00DF90B006A
:102D30000200CB4905A806F033FE206805A9FEF77E
:102D40002FF9206803220021FEF70EF9C5492068FB
:102D5000FEF726F9CEE7002220680021FEF704F9ED
:102D60002068C149FEF71CF9012220680021FEF706
:102D7000FBF82068BD49FEF713F920680222002104
:102D8000FEF7F2F8E36ABA4A142105A806F01EFE1F
:102D9000206805A9FEF704F9206803220021FEF748
:102DA000E3F8B4492068FEF7FBF8A3E700222068A7
:102DB0000021FEF7D9F82068AF49FEF7F1F8206846
:102DC00001220021FEF7D0F8AC492068FEF7E8F8B0
:102DD00090E7002100222068FEF7C6F8A849206885
:102DE000FEF7DEF8012220680021FEF7BDF8CC23B3
:102DF000E05805F0A9F80B000200A249684606F069
:102E0000CFFD69462068FEF7CBF82068022200213A
:102E1000FEF7AAF8A3689C495A6905A806F0C0FD08
:102E2000206805A9FEF7BCF8206803220021FEF700
:102E30009BF896492068FEF7B3F85BE70022002173
:102E40002068FEF791F892492068FEF7A9F8012260
:102E500000212068FEF788F89C23E05805F074F8FC
:102E60000B0002008B4905A806F09AFD206805A911
:102E7000FEF796F8B823E35C002B12D005A814F0F7
:102E80007FFAC023E35CC11F002B01D0043B19185B
:102E90002068C9B20122FEF767F87F492068FEF773
:102EA0007FF8022220680021FEF75EF820687B4947
:102EB000FEF776F8206803220021FEF755F87849DE
:102EC0002068FEF76DF815E7002200212068FEF764
:102ED0004BF874492068FEF763F80122002120684E
:102EE000FEF742F870492068FEF75AF802220021E6
:102EF0002068FEF739F820686C49FEF751F8032284
:102F00002068F0E6002220680021FEF72DF82068F6
:102F10006749FEF745F8206801220021FEF724F8F2
:102F2000A36864495A699823E35805A8D21AD317AD
:102F3000D2185A4006F034FD206805A9FEF730F893
:102F4000206802220021FEF70FF85B492068FEF797
:102F500027F8CFE6002100222068FEF705F8574940
:102F60003DE7002200212068FDF7FEFF4849206868
:102F7000FEF716F8012200212068FDF7F5FFA423D3
:102F8000E05804F0E1FF0B0002004249684606F0F9
:102F900007FD69462068FEF703F8B823E35C002BC1
:102FA00012D0684614F0ECF9C023E35CC11F002B7B
:102FB00001D0043B19182068C9B20122FDF7D4FFE3
:102FC00035492068FDF7ECFF022220680021FDF75B
:102FD000CBFF9C23E1580833E05804F0F8FE45008D
:102FE0006D08281C04F0B0FF02000B0005A834494E
:102FF00006F0D6FC206805A9FDF7D2FF2068002165
:103000000322FDF7B1FF2F49281C246804F030FF8C
:10301000002872D020002C49FDF7C2FF6AE600228A
:1030200020680021FDF7A0FF20682849FDF7B8FFC0
:10303000206801220021FDF797FF25492068FDF750
:10304000AFFF57E62000FFF793FD53E60CAB0110EE
:103050002C90011040900110688D0110B09101106A
:10306000BC910110C8910110988C0110D08F0110F3
:10307000E48F0110F48F01100890011018900110D6
:103080005490011068900110789001108490011004
:1030900098900110A8900110B0900110B490011008
:1030A000C4900110D8900110E8900110F890011020
:1030B000089101101C9101103091011040910110F4
:1030C000509101100000C84264910110CC8B011096
:1030D00084910110002220680021FDF745FF20683F
:1030E0000849FDF75DFF206801220021FDF73CFF44
:1030F00005492068FDF754FFFCE520000349FDF772
:103100004FFFF7E590910110A0910110749101100B
:10311000F0B5DE4657464E4645460400E0B5284821
:1031200083B006F007FF2068FDF714FF002200219E
:103130002068FDF719FF234B206819009A46FDF718
:103140002FFF012200212068FDF70EFF1E49206895
:10315000FDF726FF022200212068FDF705FFDD2391
:1031600098461A4B00259946194BD4269B46194F71
:10317000A0444346A25D5B5DAA421FD04A4604219B
:1031800001A806F023FC206801A9FDF709FF01351D
:1031900039002068FDF704FF042DEAD103222068DE
:1031A0000021FDF7E1FE51462068FDF7F9FE03B06E
:1031B000F0BCBB46B246A946A046F0BD5A46DEE783
:1031C000DC9101100087011000920110189201108B
:1031D00010920110E0960110F0B5DE4657464E46BB
:1031E0004546E0B506008BB01F0014AB1C780068A4
:1031F0008A469146FDF7AEFE306800220021FDF7B9
:10320000B3FE3068002C52D000254B49FDF7C8FEB4
:10321000012200213068FDF7A7FE48493068FDF71C
:10322000BFFE05AB180014220021984604F058FF99
:10323000434B03AC9A46434B9B46434B01934A4650
:103240006B00D25ABD4217D05146200006F0A8FBB1
:10325000032D27D0200014F093F80222594620189D
:1032600004F044FF2100404613F0D0FE4A460135E9
:103270006B00D25ABD42E7D10199200006F090FBC5
:1032800001352100404613F0C1FE042DD7D141463F
:103290003068FDF785FE0BB0F0BCBB46B246A946D0
:1032A000A046F0BD2100404613F0B0FEEFE7002538
:1032B0002649FDF775FE012200213068FDF754FE16
:1032C0001E493068FDF76CFE05AB18001422002182
:1032D000984604F005FF1A4B03AC9946194B9B46E0
:1032E000194B019352466B00D25ABD4217D0494642
:1032F000200006F055FB032DD4D0200014F040F838
:1033000002225946201804F0F1FE2100404613F035
:103310007DFE524601356B00D25ABD42E7D101997C
:10332000200006F03DFB01352100404613F06EFE03
:10333000042DD7D1ABE7C046A8920110B892011076
:10334000548F0110E096011010920110C0920110EC
:10335000F0B5CE46474680B5040083B0032937D088
:1033600020DC012900D186E0022916D1814A824B56
:1033700012781B78002A00D197E0804E5A00B15A8B
:103380000920002901D0013988B2B0520122200061
:1033900000927B493200FFF71FFF03B0C0BCB94663
:1033A000B046F0BD0429F8D1734A72491378087801
:1033B000002B00D0A7E0002853D00B700321200081
:1033C000117000936D4A03236D49FFF705FFE4E791
:1033D000694F684A3B7890461078022B00D888E005
:1033E000002800D1BBE0664D644E2B88328894469D
:1033F0009A4200D08BE072886B8891469A4200D046
:1034000085E0AA88B388934200D080E0E988F288FA
:1034100020688A427CD1FA216546890069434E467C
:10342000642575434919521899005B185B00D2183E
:103430002285FDF78FFD002200212068FDF794FD15
:1034400050492068FDF7ACFD012200212068FDF7FE
:103450008BFD20684C49FDF7A3FDFA20C00003F066
:1034600001FA05232361494B20002362484B196868
:10347000FEF77CFD91E73F4A3F4B10781B78002810
:1034800024D0092500203D4E5F00F25B013292B24C
:1034900095424041404202403948F2530091320087
:1034A00001002000FFF798FE77E7354D5A00A95A32
:1034B0000920002901D0013988B20021A8520091C9
:1034C000200029002D4AFFF787FE66E70921060044
:1034D0002B4D5F00EA5B013292B29142464171424C
:1034E0000A40EA5329000090244A2000FFF774FEA6
:1034F00053E70133DBB23B700090204A20002049A3
:10350000FFF76AFE49E7013BDBB21370F4E720687E
:10351000FDF720FD002220680021FDF725FD206831
:103520001C49FDF73DFD012220680021FDF71CFD2F
:1035300019492068FDF734FDFA20C00003F092F924
:10354000002342463B7013702B606B6033607360E6
:103550003200290020000093FFF73EFE1DE7012303
:103560003870137020000093044A00230449FFF7C9
:1035700033FE12E7AB3B0020AA3B002028270020A7
:1035800020270020CC920110E092011060EA000098
:10359000802C0020F09201100493011010B504005B
:1035A00088B001681F4806F049FD2068FDF7D2FC8D
:1035B000002200212068FDF7D7FC1B492068FDF799
:1035C000EFFC012200212068FDF7CEFC206817499E
:1035D000FDF7E6FCA3692068022B21D8144A9B0062
:1035E0009958FDF7DDFC022220680021FDF7BCFCA4
:1035F00020681049FDF7D4FC206803220021FDF764
:10360000B3FC0321A3690C4A0133009103A81131D3
:1036100006F0DCF9206803A9FDF7C2FC08B010BD74
:103620000649DEE71893011044930110B4A4011079
:10363000C4AB0110D88D011044940110C48D011049
:1036400010B5040086B0154806F074FC01232377FA
:10365000236100232068A361FDF77CFC0022206821
:103660000021FDF781FC20680D49FDF799FC2068D9
:1036700001220021FDF778FC0A4A0B4901A806F057
:103680008FF901A92068FDF78BFCFA20800003F078
:10369000E9F82000FFF782FF06B010BD509301103B
:1036A0008C930110448001109C93011010B504000C
:1036B00086B003294AD012DC012940D0022939D131
:1036C000354A1368082B35DC013313602369052B59
:1036D00033D1314B20001968FEF748FC2DE0042956
:1036E00028D12E4806F026FC0123237723610023EE
:1036F0002068A361FDF72EFC002200212068FDF761
:1037000033FC27492068FDF74BFC0122002120688B
:10371000FDF72AFC234A244901A806F041F9206854
:1037200001A9FDF73DFCFA20800003F09BF8200082
:10373000FFF734FF2369052BCBD006B010BD164A26
:103740001368002BF6DD013B1360F3E7124B1B6897
:10375000092BEFD8154A9B00D3589F4614230361C9
:10376000EBE70B2300210361FEF726FEE2E70C23C3
:103770000361E2E70E230361DFE70F230361DCE768
:1037800010230361D9E711230361D6E715230361F1
:10379000D3E712230361D0E7802C0020509301105F
:1037A0008C930110448001109C93011044AB0110D4
:1037B000F0B5844B04001A780D0087B0002A07D0BA
:1037C0004268002A02D0127D002A2BD100221A70F2
:1037D0007D4E3378002B07D06368002B02D01B7D11
:1037E000002B1FD100233370D4272900E25D7748D6
:1037F00006F024FC032D22D016DC6B1E012B11D801
:10380000E35DE3181A00DD321278012D00D187E064
:103810000921002A01D0013AD1B2DD33200019700C
:10382000FFF776FC07B0F0BD042DFBD1E55D002D60
:103830004DD0013D2000E555FFF76AFCF2E701237A
:103840003370E35D022B74D9032BEBD1DA33E35CE5
:10385000012B74D1DE23E35C022B70D1DF23E35C08
:10386000032B6CD1E023E35C2068042B68D1052393
:103870002361FDF76FFB002200212068FDF774FB38
:1038800053492068FDF78CFB012200212068FDF7D9
:103890006BFB50492068FDF783FB02220021206862
:1038A000FDF762FB4C4A4D4901A806F079F8206803
:1038B00001A9FDF775FB4A4802F0D4FF2369052BE7
:1038C000B0D1484B20001968FEF750FBAAE74648E4
:1038D00006F030FB0123A561237723612068FDF703
:1038E00039FB002220680021FDF73EFB20683F499C
:1038F000FDF756FB206801220021FDF735FB364A13
:103900003B4901A806F04CF8206801A9FDF748FBE7
:10391000FA20800002F0A6FF2000FFF73FFE81E7BB
:103920000132D1B209200022884252415242114054
:1039300073E701332000E355FFF7EAFB72E72068E5
:10394000DC25635D01336355FDF704FB0022002194
:103950002068FDF709FB27492068FDF721FB0122BC
:1039600000212068FDF700FB625D022A19D80323BD
:10397000214901A806F014F8206801A9FDF710FB01
:10398000174802F06FFF0023D422A3540932A35436
:103990000132A3520022E0332000E254FFF7B8FBCB
:1039A00040E716492068FDF7FBFAFA20C00002F054
:1039B00059FF0D4806F0BEFA012323772361002347
:1039C000A3618BE7A63B0020A53B0020A09301103C
:1039D000E8930110F8930110448001100C94011039
:1039E000DC050000802C0020509301108C93011006
:1039F0009C930110189401103C9401102C94011018
:103A000010B504000068FDF7A5FA00222068002127
:103A1000FDF7AAFA20680F49FDF7C2FA01222068D3
:103A20000021FDF7A1FA20680B49FDF7B9FA02223F
:103A300020680021FDF798FA20680849FDF7B0FAE0
:103A4000032220680021FDF78FFA05492068FDF761
:103A5000A7FA10BD4C9401106094011068940110F5
:103A60007894011010B5040003292DD00CDC012935
:103A700020D002291DD18369022B31D001332000CF
:103A8000A361FFF78BFD14E0042912D10023206805
:103A900023772361FDF75EFA002200212068FDF7FD
:103AA00063FA20681149FDF77BFAFA20400002F022
:103AB000D9FE10BD82690223002AE0D0531E2000E7
:103AC000A361FFF76BFDF4E78369012B0AD0022B9A
:103AD000DCD0002BEDD102330361FFF791FFE8E763
:103AE0000023CCE7FEF734F9E3E7C046D08E01109F
:103AF000036910B50400152B05D83E4A9B00D35826
:103B00009F46FEF777FE10BDFFF722FCFBE7FFF7AD
:103B1000A9FFF8E7FFF74CFEF5E7FFF7C7FDF2E76F
:103B2000FEF7AAFAEFE7FEF789FFECE7FEF744FCA1
:103B3000E9E7FEF7FFFEE6E7FEF7AAFEE3E7042962
:103B400023D0FDF7DDFFDEE79022835C002BDAD186
:103B5000032924D0042918D00068FDF7FBF90022BE
:103B600020680021FDF700FA20682349FDF718FAC4
:103B7000206802220021FDF7F7F920492068FDF7AF
:103B80000FFAC0E7FEF7A4FFBDE7052323611C4B36
:103B9000200023621B4B1968FEF7E8F9B3E70239EE
:103BA00081540432815020328350FE22B833C154F4
:103BB00092051433C25002F06BFF002914D0FA2290
:103BC0000023920003F000FBC423E05063682068E8
:103BD0001A69C823E250226B1C3BE250FDF7BAF988
:103BE0002000FFF767F88EE7FA21890003F0AEFAAC
:103BF000EAE7C0466CAB0110EC8D0110FC8D0110A2
:103C000060EA0000802C0020F0B5DE464E464546B6
:103C100057460400E0B50D001600017F026983B02D
:103C2000C54806F00BFA237F002B06D103B0F0BC89
:103C3000BB46B246A946A046F0BD2169BF4806F082
:103C4000FDF9BF4B9F6A9023E35C002B00D0F1E0AD
:103C50002369042B00D1CAE06068FDF7EDFE2369FB
:103C600007009846042B00D19FE0002845DD01277E
:103C70000B2B00D128E20022B24B1A604346052BE1
:103C800000D18DE1B04B1A6043460F2B00D1CFE13C
:103C9000AE4B1A60AE4B9A461B689946002B08D172
:103CA000FA21A74B8900986A03F050FA53468146DF
:103CB0001860002F00D064E2FA21A14B8900986AB5
:103CC00003F044FA4B46C01AA24B9842AED90025E5
:103CD000206825772561FDF73DF900220021206845
:103CE000FDF742F99C492068FDF75AF9FA20400097
:103CF00002F0B8FD53461D6098E7002800D08AE125
:103D0000002D00D0C5E1002E00D010E20B2BB2D167
:103D1000FA218B4B8900986A03F018FA894E050046
:103D20003368002B00D130608C4BBFF35B8F1B6876
:103D3000BFF35B8F99468A4BBFF35B8F1A78BFF353
:103D40005B8FD2B217007B1E9F41864BFFB2BFF341
:103D50005B8F1B680193BFF35B8F834B98461B6897
:103D60004B4500D1C4E1814B9A46814B9B460021D3
:103D70002000FEF721FB43464A461A6053461F7057
:103D80005B46019A1A603368ED1A7A4B9D4200D85F
:103D90004CE705232361784B20002362774B196899
:103DA000FEF7E4F80023336040E7694B9A461B684E
:103DB0009946002D00D1ABE00023624A1360624AAD
:103DC0001360624A1360033398464B46002B01D1BF
:103DD0005B4B9B6AFA215A4B8900986A03F0B6F94B
:103DE0005346414618602000FFF782FE1EE7D43399
:103DF000E358634AFB1A934200D82DE72068FDF789
:103E0000A9F8002200212068FDF7AEF85D4920687E
:103E1000FDF7C6F8012200212068FDF7A5F85A49F0
:103E20002068FDF7BDF8594802F01CFD00232377F8
:103E3000236111E702F02CFE002900D1E6E0FA220E
:103E40000023920003F0C0F9B422FA21A3584900DC
:103E5000C31A8B420CD9B8239946E35C98460123D8
:103E60009C464146634659400B0049466354A05066
:103E700094230422E358043B934300D0E8E602F085
:103E800007FE002900D0FDE0FA21890003F05EF969
:103E9000814663684A461B699A46C423E358D31A8D
:103EA0009846322B00D8D3E6C823E0585346181A58
:103EB00003F0F0FF364903F0A4FF8346404603F0C9
:103EC000E4FF011C584603F088FF400043083149D5
:103ED000181C984603F0D4FF002800D010E140469B
:103EE0002D4903F0CDFF002800D02DE140462B499D
:103EF00003F0C6FF002800D040E1FE229205CC234B
:103F0000E2504A46083BE25052460433E2509FE6F4
:103F10000C4B002E00D0A0E0002800DCF2E01E6078
:103F2000094B1E60094B1E60012398464B46002B2F
:103F300000D04FE74CE7C04684940110D0940110A4
:103F400000400540842C00208C2C0020902C002068
:103F5000882C002030750000D08E0110C02A00206F
:103F6000BC2A0020C42A0020CC200020AD3B002029
:103F7000C8200020204E000060EA0000802C0020B5
:103F800080C3C9018492011098920110DC050000E1
:103F900000007A440000A041000020410000A04041
:103FA000FA21794B8900986A03F0D0F8774E050022
:103FB0003368002B5BD0002F00D08EE06269744F15
:103FC00090463A68424507D0724B20001968FDF7C9
:103FD000CDFF43463B603368ED1A6F4B9D4200D8DE
:103FE00024E60025206825772561FCF7B3FF002231
:103FF00000212068FCF7B8FF68492068FCF7D0FF73
:10400000FA20400002F02EFC35600FE6FA2189000C
:1040100003F09CF818E702270B2B00D02BE6FA21BF
:10402000594B8900986A03F091F8022105003CE0A1
:10403000FA21554B8900986A03F088F8584E05001C
:104040003368002B00D13060002F38D039002000B9
:104050003560FFF74DFD3368BEE71D604B4B1D60BB
:104060004F4B1D604B46002B00D1B1E6B2E63060ED
:10407000002F32D16369464F98463B68984500D17E
:10408000D4E5A1E7FA220023920003F09DF88146CF
:10409000FFE603370B2B00D0EDE5FA213A4B890000
:1040A000986A03F053F8032105003E4E2000356066
:1040B000FFF71EFD01223C4B52421A6063E62000CE
:1040C000FDF71EFD336887E7FA212F4B8900986AB8
:1040D00003F03CF801210500E7E7390020003560D6
:1040E000FFF706FD01222A4B52421A60336873E73C
:1040F0002E4B9A461B78BB4228D02D4B9B4636E66A
:104100002C4AFCE600282CD11D60204B1D60244B5E
:104110001D604B46002B00D0CEE5FA211A4B8900DA
:10412000986A03F013F8534681461860C4E50427E3
:104130000B2B00D09FE5FA21134B8900986A03F0FE
:1041400005F804210500B0E71B4AD8E6002A00D193
:1041500019E6174B019A9B461B68934200D006E66E
:1041600011E61E60094B1E600D4B1E604B46002B76
:1041700001D1054B9B6A022398462BE68022D2058B
:10418000BDE6B84626E6C046004005408C2C00201F
:10419000C4200020802C002030750000D08E01103B
:1041A000902C0020842C0020CC200020AD3B00204F
:1041B000C8200020000020410000A040F8B5CE46F5
:1041C0004746040080B5224805F0B4FE214805F0BA
:1041D000B1FE042300250126D82723619946D83350
:1041E0002677E5541C4B1D4898469B6AE35105F021
:1041F000A1FED4230022E5540933E5540133E552EE
:104200000233E2544B46236143469B6A2068E351E4
:10421000134B1E70FCF79EFE002220680021FCF765
:10422000A3FE20680F49FCF7BBFE01222068002195
:10423000FCF79AFE0C492068FCF7B2FE0B4805F02B
:1042400079FE2000FEF764FFC0BCB946B046F8BD59
:104250000C95011050950110004005407C9501100F
:10426000A63B0020209201103092011040920110D4
:1042700000230160037183607047C04670B504007D
:104280000068FCF767FE002220680021FCF76CFE46
:10429000114D20682900FCF783FE012220680021CF
:1042A000FCF762FE20680D49FCF77AFE02222068C6
:1042B0000021FCF759FE29002068FCF771FE03225B
:1042C00020680021FCF750FE05492068FCF768FED5
:1042D000044802F0C7FA70BD88960110B496011028
:1042E000D0960110DC05000030B504008BB00068EA
:1042F000FCF730FE002220680321FCF735FE206821
:104300001C49FCF74DFE1C4A1C49684605F048FB59
:10431000684613F035F81425291A4910012220683F
:10432000C9B2FCF721FE69462068FCF739FE144A41
:10433000144905A805F034FB05A813F021F8291A43
:10434000491002222068C9B2FCF70EFE206805A9B8
:10435000FCF726FE032220680221FCF705FE0A492D
:104360002068FCF71DFEFA20C00002F07BFA0BB0BB
:1043700030BDC046E496011044800110F49601104F
:10438000009701100C97011018970110F0B5D64650
:1043900046464F4604000D00C0B500688CB01600BC
:1043A000FCF7D8FD002203212068FCF7DDFD4C4915
:1043B0002068FCF7F5FD012200212068FCF7D4FD00
:1043C0002A00484906A805F0EBFA206806A9FCF780
:1043D000E7FDFA21444B8900986A02F0B7FEA36812
:1043E000C31AC72B05D903232279A06001321340D9
:1043F0002371012210212068FCF7B6FD3B4B227986
:10440000196820688918FCF7CBFD0021206802227A
:10441000FCF7AAFD36492068FCF7C2FD632E30D9AF
:104420000025344F013539002068EDB2FCF7B8FDA6
:10443000122DF7D120683049FCF7B2FD2068032225
:104440000021FCF791FD32002C4901A805F0A8FAE3
:1044500001A812F095FF1421091A491003222068BF
:10446000C9B2FCF781FD206801A9FCF799FD9620EF
:10447000400002F0F7F90CB0E0BCBA46B146A846DD
:10448000F0BDF00080196421400002F037FEC3B295
:1044900098460025002818D1194B1A4F9A46012337
:1044A0004344994606E001353900EDB2FCF778FD4A
:1044B000122DBFD02068A845F5D15146FCF770FDFC
:1044C0004B46DDB2122DF5D1B4E70A4F0135390064
:1044D0002068EDB2FCF764FDA845F7D84546DBE758
:1044E000289701103897011000400540D020002087
:1044F0004097011024850110C4A6011044970110B3
:10450000B4A40110E0960110F0B5160004000D00EF
:1045100087B0012200210068FCF726FD002E0FD095
:104520001C492A0068461C4B05F03AFA6946206887
:10453000FCF736FDFA20400002F094F907B0F0BD18
:104540002A000325154B1349684605F029FA6946E8
:104550002068FCF725FD124F124E0122132120681E
:10456000FCF702FD39002068FCF71AFDC82002F0B4
:1045700079F9012213212068FCF7F6FC310020684C
:10458000FCF70EFD013DC82002F06CF9002DE4D1CE
:10459000D0E7C04658970110549701106497011056
:1045A000B8910110E0960110F8B5CE4647460400D8
:1045B00080B50068FCF7CEFC002204212068FCF7DF
:1045C000D3FC304B206819009946FCF7E9FC012226
:1045D00002212068FCF7C8FC2B4B20681900984684
:1045E000FCF7DEFC022203212068FCF7BDFC274F0C
:1045F00020683900FCF7D4FC032203212068FCF773
:10460000B3FC234E20683100FCF7CAFC022596203B
:10461000400002F027F92068FCF79CFCC82002F05B
:1046200021F9002204212068FCF79EFC49462068FD
:10463000FCF7B6FC012202212068FCF795FC4146FC
:104640002068FCF7ADFC022203212068FCF78CFCFB
:1046500039002068FCF7A4FC032120680322FCF742
:1046600083FC31002068FCF79BFC012D07D1FA2068
:10467000800002F0F7F8C0BCB946B046F8BD01258D
:10468000C5E7C0466C970110789701108897011014
:1046900098970110F8B5C4230600CE4647469946C0
:1046A000CA36040080B5BE2200218144300003F0E8
:1046B00017FDC423604A0127E25008220433FF3269
:1046C000E2521833ED32E250FE239B059846E42374
:1046D0004246C021E250EC220433E754843BA3500D
:1046E00049000432A15255490432A15054490432C0
:1046F000A15254490432A1500432A7540432A350A9
:1047000020000222A433FF320D30E2520021E13AB0
:10471000FF3003F0E5FC9C2342465B00E2503E2361
:10472000494AFF33E7540333E25002224F46012047
:104730000433E2544549464B3A780137534002006E
:104740001A4052425B080A405A4093B20240524219
:104750005B080A405A4093B2024052425B080A404A
:104760005A4093B2024052425B080A405A4093B208
:10477000024052425B080A405A4093B20240524201
:104780005B080A405A4093B2024052425B080A401A
:104790005A4095B2024053420B406A0853409BB2C4
:1047A000BE42C9D12700260001208937284A27495F
:1047B000CC36FF3735780136554002002A40524248
:1047C0006D080A406A4095B2024052426D080A40A4
:1047D0006A4095B2024052426D080A406A4095B262
:1047E000024052426D080A406A4095B2024052426D
:1047F0006D080A406A4095B2024052426D080A4074
:104800006A4095B2024052426D080A406A4095B231
:10481000024052420A406D086A4092B2B742C9D182
:104820005A40CA234946E2522000C42203F05EFCEB
:10483000C0BCB946B046F8BD4C524550307500007A
:10484000D204000060EA0000E093040001A0FFFF32
:10485000FFFF0000F0B5DE4657464E464546E0B540
:10486000824683B0DD4805F065FBDD4805F062FB5C
:10487000DC4CC4222000DC4903F038FCDB4B22680E
:104880009A4200D080E08423A2885B009A427BD2C7
:1048900025000120D64AD749A61D2B7801355A405C
:1048A000030013405B4252080B4053409AB203404E
:1048B0005B4252080B4053409AB203405B4252089D
:1048C0000B4053409AB203405B4252080B405340A6
:1048D0009AB203405B4252080B4053409AB20340E5
:1048E0005B4252080B4053409AB203405B4252086D
:1048F0000B4053409AB203405B420B4052085A406F
:1049000092B2AE42C9D126000120BB4DB84FB94981
:10491000C4362B7801355F4003003B405B427F0883
:104920000B407B409FB203405B427F080B407B40C3
:104930009FB203405B427F080B407B409FB2034025
:104940005B427F080B407B409FB203405B427F0885
:104950000B407B409FB203405B427F080B407B4093
:104960009FB203405B427F080B407B409FB20340F5
:104970005B420B407F085F40BFB2B542C9D1E388BC
:104980005740BB4200D1FCE09C4805F0D3FA9C4B59
:10499000822699469B4B002598469B4BF602009336
:1049A000924B9B464B46019332002900019805F03B
:1049B00045FB2900404605F041FB80235B05F118CB
:1049C000C422200003F092FB01222900009805F088
:1049D00035FB23685B4500D086E08422A388520023
:1049E000934200D380E0A31D994627000120804A0E
:1049F00080493B7801375A40030013405B4252081C
:104A00000B4053409AB203405B4252080B40534064
:104A10009AB203405B4252080B4053409AB20340A3
:104A20005B4252080B4053409AB203405B4252082B
:104A30000B4053409AB203405B4252080B40534034
:104A40009AB203405B4252080B4053409AB2034073
:104A50005B420B4052085A4092B24F45C9D1C42321
:104A6000654F9946624B944601203A001F00614908
:104A7000A144137801325F4003003B405B427F0852
:104A80000B407B409FB203405B420B407F085F407E
:104A9000BBB207407F425B080F405F40BBB207409C
:104AA0007F425B080F405F40BBB207407F425B081C
:104AB0000F405F40BBB207407F425B080F405F4042
:104AC000BBB207407F425B080F405F40BBB207406C
:104AD0007F420F405B085F40BFB24A45C9D1624682
:104AE000E1887A40914212D080235B019C460135D7
:104AF0006644032D00D057E7444805F01BFA002018
:104B000003B0F0BCBB46B246A946A046F0BDE3697F
:104B10003F4A643B9342E7D8236A3E49181C9946B2
:104B200003F0A6F90028DFD048463B4903F098F986
:104B30000028D9D0A36A394A0A3B9342D4D8A38E1D
:104B4000374A013B9BB29342CED82900354805F045
:104B500075FAC4222100504603F0C8FAEFF310841E
:104B600072B6802180204901C00213F081F98020B3
:104B7000C4225146C00213F03BF984F3108801208F
:104B8000BEE7E369224A643B934200D9FCE6256A0A
:104B90002049281C03F06CF9002800D1F4E61E49D6
:104BA000281C03F05DF9002800D1EDE6A36A1B4A3A
:104BB0000A3B934200D9E7E6A38E194A013B9BB218
:104BC000934200D9E0E6184805F0B4F9C422210068
:104BD000504603F08BFA012092E7C046B0970110CF
:104BE000E0970110A02B0020000004104C5245500B
:104BF000FFFF000001A0FFFFA82B00207C98011000
:104C0000B4980110F898011048990110D899011032
:104C1000AC260000CDCCCC3D00004842DE030000B5
:104C20000E270000A099011020980110F8B504008B
:104C30005C4805F07FF9A3685B480133A36005F089
:104C400079F901F025FF002900D1A5E0FA2200231F
:104C5000920002F0B9FAE060544805F06BF923695C
:104C600053480133236105F065F925000120514BBC
:104C70005149A61D2A780135534002001A4052427C
:104C80005B080A405A4093B2024052425B080A4015
:104C90005A4093B2024052425B080A405A4093B2D3
:104CA000024052425B080A405A4093B202405242CC
:104CB0005B080A405A4093B2024052425B080A40E5
:104CC0005A4093B2024052425B080A405A4097B29F
:104CD000024053420B407F087B409BB2B542C9D192
:104CE000250026000120334F33490835C4362A7881
:104CF0000135574002003A4052427F080A407A404C
:104D000097B2024052427F080A407A4097B202406E
:104D100052427F080A407A4097B2024052427F08CE
:104D20000A407A4097B2024052427F080A407A40D5
:104D300097B2024052427F080A407A4097B202403E
:104D400052427F080A407A4097B2024052420A40DB
:104D50007F085740BFB2AE42C9D15F40E7801748D5
:104D600005F0E8F8164805F0E5F8EFF3108572B69F
:104D7000802180204901C00213F07AF88020C422EB
:104D80002100C00213F034F885F3108801210D488A
:104D900005F054F90120F8BDFA21890002F0D6F996
:104DA00059E7C046189A01104C9A01108C9A0110CC
:104DB000C89A0110FFFF000001A0FFFF109B011027
:104DC000509B0110909B0110F0B5C64600B583685A
:104DD000C0B0013383600400884601F059FE002909
:104DE00000D19BE0FA220023920002F0EDF9E0608E
:104DF000260001204C4B4D49A71D32780136534007
:104E000002001A4052425B080A405A4093B20240E4
:104E100052425B080A405A4093B2024052425B0839
:104E20000A405A4093B2024052425B080A405A403C
:104E300093B2024052425B080A405A4093B2024089
:104E400052425B080A405A4093B2024052425B0809
:104E50000A405A4095B2024053420B406A08534000
:104E60009BB2BE42C9D12600270001202E4A2F49FD
:104E70000836C43735780136554002002A40524280
:104E80006D080A406A4095B2024052426D080A40DD
:104E90006A4095B2024052426D080A406A4095B29B
:104EA000024052426D080A406A4095B202405242A6
:104EB0006D080A406A4095B2024052426D080A40AD
:104EC0006A4095B2024052426D080A406A4095B26B
:104ED000024052420A406D086A4092B2B742C9D1BC
:104EE0005A40E280FF213C2231A803F0F9F8C422A5
:104EF0002100684603F0FAF8EFF3108472B6F02050
:104F00008022000669464044520012F071FF84F38B
:104F10001088012040B080BCB846F0BDFA2189005D
:104F200002F014F963E7C046FFFF000001A0FFFF95
:104F3000F8B5DE46574645464E46E0B50500ED4815
:104F400004F0F8FFC4239A4606339846A844BE22CC
:104F50000021404603F0C4F8C423E74AFE26EA5085
:104F600008220124C0210433FF32EA521833ED3203
:104F7000EA50B6050433EE50093A0433EC54FF3AD4
:104F8000843BAB5049000432A952DC490432A95099
:104F9000DB490432A952DB490432A9500432AC5433
:104FA0000432AB500222A433FF32EA5204339B4650
:104FB000AB440021E13A584603F092F89C235B0091
:104FC000EE503E23D04AFF33EC540333EA50022222
:104FD0000433EA54CD4BAA44574650460121444677
:104FE0001E00CB4A037801305E400B0033405B4229
:104FF0007608134073409EB20B405B427608134024
:1050000073409EB20B405B427608134073409EB2E1
:105010000B405B427608134073409EB20B405B42EC
:105020007608134073409EB20B405B4276081340F3
:1050300073409EB20B405B427608134073409EB2B1
:105040000B405B42134076085E40B6B28442C9D141
:10505000C42252009146AD4A33002E0010002A00AF
:10506000A944CC36A0469C464D46012433009146C7
:10507000A7491A78013350402200024052424008AA
:105080000A40424090B2224052420A4040085040FA
:1050900082B22040404252080840504082B2204034
:1050A000404252080840504082B2204040425208DC
:1050B0000840504082B220404042520808405040D0
:1050C00082B22040404252080840504082B2204004
:1050D000404208405208504080B2AB42C9D14946D4
:1050E0006346CA22A9460D0043408B522800514610
:1050F000063A02F0FBFF874804F01CFF2800FFF788
:10510000A9FB002824D0844804F014FFC4235B00CA
:10511000EC5201F0BDFC002900D107E1FA22002386
:10512000920002F051F8CA23CC22CE245B00E85052
:105130005200AB5879480133AB50640004F0FAFEDA
:105140002B5D002B00D0F6E0754804F0F3FECAE0BA
:10515000744804F0EFFEBE220021404602F0C0FF7A
:10516000C423654AFE24EA5008220433FF32EA527F
:1051700001201833ED32EA50C021EC22A40504339B
:10518000EC500433E854843BAB5049000432A9523C
:105190005A490432A9505A490432A9525949043291
:1051A000A9500432A8540432AB500222A433FF3277
:1051B000EA520021E13A584602F092FF9C235B003C
:1051C000EC503E230120504AFF33E8540333EA50A9
:1051D000022244460433EA544D494C4A3B78013795
:1051E0005A40030013405B4252080B4053409AB2AE
:1051F00003405B4252080B4053409AB203405B426B
:1052000052080B4053409AB203405B4252080B4095
:1052100053409AB203405B4252080B4053409AB24B
:1052200003405B4252080B4053409AB203405B423A
:1052300052080B4053409AB203405B420B40520865
:105240005A4092B2BC42C9D1304B01204C461F009B
:105250002F49337801365F4003003B405B427F08B3
:105260000B407B409FB203405B427F080B407B407A
:105270009FB203405B427F080B407B409FB20340DC
:105280005B427F080B407B409FB203405B427F083C
:105290000B407B409FB203405B427F080B407B404A
:1052A0009FB203405B427F080B407B409FB20340AC
:1052B0005B420B407F085F40BFB2A642C9D1CA2300
:1052C0007A405146EA522800C42202F00FFFC4235C
:1052D00002225B00FF322800EA52FFF7A7FC0121FF
:1052E000114804F0ABFE0120F0BCBB46B246A94613
:1052F000A046F8BDD49B01104C52455030750000BB
:10530000D204000060EA0000E0930400FFFF000008
:1053100001A0FFFF0C9C0110449C0110809C011017
:10532000009D0110309D0110A49D0110FA218900FB
:1053300001F00CFFF7E61D4804F0FCFDC4235B0000
:10534000EB5C002B00D1FFE62B5D002B00D1FBE6D0
:1053500001F09EFB002923D0FA220023920001F0E5
:1053600033FF0400AB69124AE31A934200D8EBE61C
:1053700003272B7D802101331F403E00F023403660
:1053800036031B06F018490112F072FD2B6931003B
:10539000013328002F75AC612B61FFF715FDD3E6B3
:1053A000FA21890001F0D2FE0400DBE7C09C011065
:1053B0007FEE3600F0B5C64600B5040001F068FB8C
:1053C000002939D0FA220023920001F0FDFE0500E9
:1053D000CC267600A359002B07D0CA23FA225B0003
:1053E000E358D200EB1A93425FD2CE22C42352007C
:1053F000A25C5B00E35C002A04D0D0225200A158DA
:10540000A9421FD9002B14D07923E35C002B10D0C4
:105410008A23FF33E35C002B04D19933FF33E35835
:10542000002B06D0C6235B00E358ED1AE36F9D42C4
:1054300046D280BCB846F0BDFA21890001F086FE54
:105440000500C5E7002B3FD001F022FB002940D02A
:10545000FA220023920001F0B7FE0600A369204A59
:10546000F31A934218D90323227D8021013213407D
:105470001F009846F02340371B063F03F8184901E8
:1054800012F0F6FC434623752369390001332000EE
:10549000A6612361FFF798FCC423D021114A5B0069
:1054A0004900AA18E35C6250ACE78A23FF33E35C4F
:1054B000002B9AD02000FFF7B9FB0023A35194E7FB
:1054C0002000FFF7B3FBB4E7064B9C466544A550AC
:1054D000AFE7FA21890001F039FE0600BEE7C046B9
:1054E0007FEE3600C0270900C422002301210948AD
:1054F000520010B583520432835004328350043278
:105500008350043283500432815404328350FFF7B5
:10551000C1F810BD8C350020D0231B061B68AC4A97
:105520009900F0B5DE468B4651585A4253412F221E
:1055300057464E4645465B4293439A46A54BE0B5D7
:105540009C4683B000260191E244002938D0A24B4A
:1055500099465246F30808339B009D5801233400B6
:1055600098460836002D22D00F2120002940013412
:105570002D09002919D04B465A469A580300C240BB
:10558000203BDB171340424613420CD107220F0089
:105590000240920097403A00C308904F3C339B0072
:1055A000DA51019B9847002D01D0B442DCD3202E64
:1055B000CFD103B0F0BCBB46B246A946A046F0BD71
:1055C000854E5F4600210F23B346CC08220050468B
:1055D000083292001258002A00D1D0E01800104082
:1055E0008046100913421AD05D46ED59A946202580
:1055F0006D42AC468C446546ED17AC464D46CD40F9
:10560000A94665464E4635400126354204D14646F8
:10561000724D3C34A4006651002800D1AFE01C005C
:105620000440A446140A03421AD0481C8046584637
:10563000C059464681464D460800F5401F38C01700
:1056400028400125284208D165462D01AC46F008C6
:105650006646624D3C3080004651002C00D18EE001
:10566000180020408446100B234211D08C1CA04609
:105670005C46E4594646A1464D460C00F5401E3CAA
:10568000E4172C4001252C4200D182E0002876D07E
:105690001C000440A446140C034210D0C81C8046D1
:1056A0005846C059464681464D460800F5401D38CB
:1056B000C01728400125284275D0002C5FD0180063
:1056C00020408046100D23420ED00C1DA446654696
:1056D000414CE459EC40A1460C004D461C3CE40F03
:1056E0002C426AD000284AD01C000440A446140E64
:1056F000034218D0481D804645463748C059E84007
:10570000814608004D461B38C00F284209D1654626
:105710002D05AC4640466646C008304D3C30800002
:105720004651002C2BD0180020408446120F2342F3
:105730002AD029488C1D8146C059E0408046080087
:1057400045461A38C00F284206D1E0086446234D6A
:105750003C30240680004451002A10D04846C059ED
:10576000CC1DE0408446080065461938C00F284229
:1057700005D1E0083C30194C120780000251083175
:10578000202900D021E714E7002AF8D012488146EA
:10579000E4E765462D02AC46F40866460F4D3C34FE
:1057A000A400665172E765462D03AC46F0086646D4
:1057B0000A4D3C30800046517FE745462D04A846FF
:1057C00064464646E408054D3C34A400665189E72A
:1057D0001435002030410140743B0020004001405E
:1057E000094A83009A1810B5146840225440803248
:1057F0002240064CC000A44663441A60044B9C46F9
:105800006044416010BDC04604C0014004D0014066
:1058100000400140074B8000C3181B68C90092007C
:105820000A435A400C231340034A944660440360E1
:105830007047C04604C0014004D00140D0231B067D
:105840001B6830B50500584243412F205B4283431B
:105850000E48EC0884460720284080008140200044
:105860000B4D3C3063448000A40041511B19002AB9
:1058700005D08022920194466344196030BDC02255
:105880009201944663441960F8E7C04630410140F4
:1058900000400140F8B545469846D0231B06DE4639
:1058A0001C689B462B4B57469A46A3004E4699468A
:1058B000E0B5534616004A469B5807000D00002BE2
:1058C00034D04346002B3FD053464A464146995078
:1058D000D0231B061C6863425C412F2207206342D1
:1058E00093431D4A38409446FA08110080008540D1
:1058F0003C311A486344890092000D509B18002ED9
:105900000ED0802292019446634401210D201D6037
:1059100000F020F9F0BCBB46B246A946A046F8BD4F
:10592000C0229201944663441D60F3E74346002B76
:10593000D1D0534641460D2099500022084900F02D
:105940006BF95B461C68C6E70D20054900F05EFA5E
:10595000BAE7C04614350020304101400040014004
:10596000195500100123D0228340120693629361DF
:10597000094A83009A1811684022514080320A4037
:105980000649C0008C4663441A60054B9C460523BB
:10599000604443607047C04604C0014004D00140E9
:1059A000004001408023DB051868000F7047C046A7
:1059B0000FB400B5084883B004F0BCFA049B002B78
:1059C00007D005A91800019104F026F8034804F057
:1059D000B1FA012004F038F8009E0110F49801108B
:1059E000EFF3108072B6034A1368002BFCD0BFF3AC
:1059F0005F8F70472C0100D0BFF35F8F0022024BF6
:105A00001A6080F3108870472C0100D070B5EFF356
:105A1000108C72B60D4D2B68002BFCD0BFF35F8F3E
:105A20000724CB08C618C05C01230C40A3401C000F
:105A30000440034207D118433070BFF35F8F2C60DE
:105A40008CF3108870BD1000FFF7B2FF2C0100D05E
:105A5000F8B54746CE46884680B5EFF3108C72B64F
:105A60001C4D2C68002CFCD0BFF35F8F9A4222D8CB
:105A700007210126894602E00132934218D34D46A0
:105A800037001540AF40D4080119045D2742F3D117
:105A900010003C430C70BFF35F8F00220D4B1A6067
:105AA0008CF3108800280EDBC0BCB946B046F8BDA8
:105AB00001204042EFE7BFF35F8F00232B608CF3A0
:105AC0001088012040424346002BEDD00898FFF794
:105AD0006FFFC0462C0100D0044A1078431CDBB293
