:020000041000EA
:1000000000B5324B212058609868022188439860DF
:10001000D860186158612E4B002199600221596106
:100020000121F02299502B49196001219960352056
:1000300000F044F80222904214D00621196600F024
:1000400034F8196E01211966002018661A6600F04E
:100050002CF8196E196E196E052000F02FF8012189
:100060000842F9D1002199601B49196000215960AB
:100070001A491B48016001219960EB211966A021F2
:10008000196600F012F800219960164914480160C1
:100090000121996001BC002800D000471248134993
:1000A000086003C880F30888084703B5996A0420EC
:1000B0000142FBD001200142F8D103BD02B5186610
:1000C0001866FFF7F2FF186E186E02BD00000240BE
:1000D000000000180000070000035F00212200005C
:1000E000F4000018222000A00001001008ED00E03C
:1000F00000000000000000000000000074B24E7A12
:1001000000200420F7010010C3010010C5010010F9
:10011000C1010010C1010010C1010010C101001097
:10012000C1010010C1010010C1010010C701001081
:10013000C1010010C1010010C9010010CB01001065
:10014000CD010010CD010010CD010010CD01001037
:10015000CD010010CD010010CD010010CD01001027
:10016000CD010010CD010010CD010010CD01001017
:10017000CD010010CD010010CD010010CD01001007
:10018000CD010010CD010010CD010010CD010010F7
:10019000CD010010CD010010CD010010CD010010E7
:1001A000CD010010CD010010CD010010CD010010D7
:1001B000CD010010CD010010CD010010CD010010C7
:1001C00000BE00BE00BE00BE00BE00BEEFF3058054
:1001D000103800BEF2EB887194C40110B8C401104D
:1001E0003802001090A31AE71E481F49086006C88D
:1001F00081F3088810471D480068002801D019487D
:10020000F3E70DA40ECC002902D000F012F8F9E7B4
:100210001749184A002000E001C19142FCD116495B
:100220008847164988471649884700BEFDE701C937
:1002300001C29A42FBD37047B8C40110C00000202D
:1002400000270020F8EA011000000420000004202C
:10025000F8EA011000100420001004200000000043
:10026000704700000000000008ED00E0000000D032
:1002700000270020743B00203D960010B1030010C1
:1002800035960010F8B5C04606480749091A8B1084
:10029000C90FC91810B5491003D0044B002B00D06A
:1002A000984710BD00270020002700200000000014
:1002B000054B10B5002B03D00449054800E000BFF2
:1002C000FFF7E2FF10BDC04600000000003B002029
:1002D000B47A0110F0B5D6464F464646C0B5070081
:1002E00084B02C4809F0C4FB2B4809F0C1FB2B4B10
:1002F000002499462A4B9A462A4B98460F23782584
:100300001E0025402640234214D0002D2DD0782DEC
:1003100016D1404609F030FC0F2E36D00134802C27
:10032000ECD1214809F0A4FB04B0E0BCBA46B146C8
:10033000A846F0BD21001D4809F01EFC002D1ED06E
:1003400000230F223868E1B200936A4401330CF0B5
:10035000C7F900280FDB2100484609F00DFC0F2EDD
:10036000DCD10A2009F03AFBD8E70E4D280009F04D
:1003700003FC0134C2E7504609F0FEFBEFE7094DEC
:100380000124280009F0F8FBF0E70A2009F026FB19
:10039000C7E7C046B87A0110D07A0110147B01106B
:1003A000107B01100C7B01101C7B0110047B0110E1
:1003B000F0B5DE46574645464E46E0B5E5B009F095
:1003C000BDFAB74BB7481900079309F0D5FBB648FB
:1003D00009F04EFBB54BB64A1900B648099308928E
:1003E00009F0CAFBB44809F043FBFA20C00006F04C
:1003F0001BF8B24CB24920000CF040F90321042054
:1004000004F0D0FF0321052004F0CCFF00220121DD
:10041000042004F0E1FF00220121052004F0DCFFAC
:10042000A74B05220421A74809F0A6FB272221009B
:100430000CA800F033FCA44D280009F019FB0CA80F
:1004400000F0A0FC0CA800F029FE002200210CA85E
:1004500000F08AFD9D490CA800F0A2FDFA20C00022
:1004600005F0E2FF9A4809F003FB9A4B18009A4600
:1004700004F040FB002800D009E3974809F0F8FA9F
:10048000964809F0F5FA0CA90EA803F0D3FC3C231A
:100490005246D35C002B00D094E30AA80A94FFF7DD
:1004A00019FF002325AE00933200272120000133DD
:1004B0000CF016F9002800DAEDE22721884809F04F
:1004C0005BFB3C235246D35C002B00D095E3280015
:1004D00009F0CEFA0CA800F055FC0CA800F0DEFDE7
:1004E0003C235246D35C002B00D080E31BAD0E238F
:1004F0000D220C21280001F041FA280001F058FAE1
:100500003C235246D35C002B09D0012275490EA82A
:1005100003F0DCFD282274490EA803F019FD0CA994
:100520000BA801F03BF90BA801F03AF915AC20003B
:100530000CA901F045F96D4B2000636101F04EF903
:100540006B4809F095FA3C235246D35C002B09D046
:10055000012268490EA803F0B9FD3C2266490EA8A5
:1005600003F0F6FC654F38000CF0D8FE644B9B4658
:10057000002812D052462423D35C58460393D369F3
:1005800060490293136A002201930B230093013BFD
:1005900001F052F838000CF0E1FE584600F00EFE73
:1005A000594B1800984605F09DFB58480BF012FF78
:1005B0003C235246D35C002B09D0012254490EA89B
:1005C00003F084FD502253490EA803F0C1FC5B46A2
:1005D0002A00300000940CA901F0D0FB300001F09B
:1005E00029FC4D4809F044FA3C235246D35C002BC9
:1005F0000CD0012247490EA803F068FD6422474948
:100600000EA803F0A5FC0EA803F0B0FD53469B6AAC
:100610004348069309F02CFA424809F029FA424867
:1006200009F026FA00230493059306F013F8002935
:1006300000D1CBE1FA220023920006F0A7FB0400D0
:10064000504604F099FC280001F01CFA280001F043
:10065000FBF9337F002800D1AAE1002B00D1A0E1F3
:100660002B7DDFB2002B00D0E6E1304B1F60304B1A
:100670001F700023994631692E4809F07DFA4A46D9
:100680003900300003F088FA002009F05BF94238A5
:10069000342800D9B2E0284B80001B589F46C04642
:1006A0007C7B0110847B0110987B0110C87B0110BA
:1006B000BC7B0110D47B0110E47B01107821002069
:1006C000801A0600007C0110387C01105C7C01104F
:1006D000647C0110483500208C7C0110007D0110E5
:1006E000407D0110E07D0110F07D011000002041EF
:1006F000007E0110287E0110347E0110982A00200F
:10070000D82A002000002050BC2A0020410C0010F4
:10071000447E0110547E0110607E0110847E011021
:10072000987E0110C47E0110307F0110D42A002071
:10073000613B0020E07F011060A40110404617F0EB
:1007400083F9DE4809F094F95B46986E07F0A6F944
:1007500002000B00DA4809F00FFA584600F0BCFF1F
:1007600007F09CF902000B00D64809F005FA58463C
:10077000D54900F0C7FF07F091F902000B00D348FC
:1007800009F0FAF95B46586F07F088F902000B0090
:10079000CF4809F0F1F95B46CE48196F09F0ECF942
:1007A000584600F0C7FF07F079F902000B00CA486D
:1007B00009F0E2F9C94809F05BF9C94BC948196861
:1007C00009F0DAF9C84BC948196809F0D5F984234A
:1007D0005A46D35CC649002B00D0C649C64809F02A
:1007E000CBF98C235A46D35CC449002B00D0C449B2
:1007F000C44809F0C1F9404617F06EF8404617F0BA
:1008000023F9C14B40461F68C04B1B689946B44B47
:100810001B68B54B1B6817F05FF8049BBB4200D107
:10082000E7E0337F002B00D1EDE0012005F0FCFD77
:10083000FBE60AA8FFF74EFDE0E7404617F004F993
:1008400000235A465361B04A404613600022AF4B22
:100850001A6017F041F8AE4809F00AF9CEE74046B1
:1008600017F0F2F88C225B4601219B5C58464B4006
:1008700059468B5400F0A2FC404617F02DF88C230B
:100880005A46D35CA349002B00D0A349A34809F0E2
:1008900073F9B3E7A24809F0EBF8280001F012F968
:1008A000A04B0100180009F067F929699E4809F07A
:1008B00063F92B7D9D49002B00D09D499D4809F08F
:1008C0005BF9E9699C4809F057F9337F8849002BA7
:1008D00000D08849994809F04FF9994809F0C8F8BB
:1008E0008CE7984809F0C4F8974809F0C1F8974890
:1008F000079909F041F99648099909F03DF9954899
:10090000089909F039F9944809F0B2F8934809F0C8
:10091000AFF873E7924809F0ABF8924809F0A8F8ED
:10092000914809F0A5F8914809F0A2F8904809F01B
:100930009FF8904809F09CF88F4809F099F88F4883
:1009400009F096F88E4809F093F88E4809F090F86F
:100950008D4809F08DF88D4809F08AF84EE78C48EB
:1009600009F086F84AE7404617F06EF8584600F05E
:10097000FDFE00225A4B40461A605B4B1A6016F08F
:10098000ABFF844809F074F838E7834809F070F841
:10099000642005F049FD01220020804905F0EEFFAA
:1009A000FEE77F4809F064F8300003F0F1F9337F87
:1009B0002A7DD7B2002A0FD17A4A17607A4A177077
:1009C00000229146002B00D15EE654E6FA21890010
:1009D00006F09EF9040033E672490A68002A37D10E
:1009E0000C6071490A70002CEAD01F003B000127FF
:1009F000E6E7059B069AE31A934200D215E7337F98
:100A0000002B00D011E70CA800F0A4FA002200216E
:100A10000CA800F0A9FA484607F040F8634A009095
:100A20000191102111A808F06FFD11A90CA800F088
:100A3000B7FA04970594F8E65A4B1A68002A20D1B1
:100A40001C60594B1A70002CD0D10023994612E635
:100A5000554908780028B3D1FA200127A21A80004E
:100A60008242ADD90F7099461F1E00D003E6504850
:100A700008F0FEFF300002F00DFE0137B946337F6B
:100A8000A0E749490B78002BDFD13B00E4E7494858
:100A900008F0EEFFF4E42721474809F06DF84748D5
:100AA00008F0E6FF3C235246D35C002B00D10EE554
:100AB000002243490EA803F009FBA3E0B481011012
:100AC000DC8101100082011000002041148201101D
:100AD0003C82011058820110708201108C8201103A
:100AE000C82A0020A8820110D02A0020C08201104C
:100AF000908F0110447B0110DC820110587B0110A3
:100B0000487B0110F8820110CC2A0020C42A002062
:100B1000348001103C7B0110387B01109C81011056
:100B20001C840110408401104C840110707B011062
:100B3000687B01105C840110688401107C840110C2
:100B40009084011004830110288301105483011044
:100B5000648301107483011084830110C083011029
:100B60004C800110608001107C8001109080011089
:100B7000AC800110D4800110EC8001100C810110B8
:100B80002C810110448101105881011074810110E1
:100B9000C0840110FC830110148001100020042087
:100BA0007C7F0110D42A0020613B00202C7B0110A7
:100BB000B47F0110D07C0110687D0110987D011078
:100BC000647D01100EA803F03BF90EA803F06EF946
:100BD0000A2217490EA803F0BBF9FA20400005F0DD
:100BE00023FC142213490EA803F0B2F955E41E2287
:100BF00011490EA803F0ACF978E401220F490EA8C0
:100C000003F064FA3C235246D35C002B00D15EE42F
:100C10001E2209490EA803F09BF958E402E03800AF
:100C20000CF098FB280000F0B9FE0BF007FFC0465F
:100C3000207D0110307D0110D47D0110647D0110F4
:100C4000F8B5104B4746CE4699460F4B80B59846AF
:100C50000E4C0F4D0F4F104E200000F037FB2800B8
:100C600016F0F2FE4A4663692000136000F022FD90
:100C700043461860A36F28003B60E36F336016F0B3
:100C80002BFEE9E7CC2A0020C42A0020D82A002025
:100C9000BC2A0020C82A0020D02A00200823016096
:100CA000027143717047C046F0B5D6464F4646467E
:100CB000C0B5437904001A4308000F23984303008A
:100CC0000D27002584B0090103AE6F4413430A4386
:100CD00033703A70217932002068012300950BF0BF
:100CE000F5FC0E226A4490460422914692464A46FA
:100CF000414633780F261A430A7052466E44934396
:100D00003370424621790123206800950BF0DEFC08
:100D10000120002105F012FB320021790123206817
:100D200000950BF0D3FC3220002105F007FB217960
:100D30003A002068012300950BF0C8FC4A46414662
:100D40003B7820681A430A705246934333704246F8
:100D50002179012300950BF0B9FC0120002105F059
:100D6000EDFA217901233200206800950BF0AEFCEA
:100D70003220002105F0E2FA04B0E0BCBA46B146E8
:100D8000A846F0BDF0B5DE4657464E464546E0B5AE
:100D9000040085B0322005F047FB30239B460D262A
:100DA0005A46002563796E4413433370217932002B
:100DB0002068012300950BF089FC0E226A449046BE
:100DC0000422914692464A46414633780F271A43F9
:100DD0000A7052466F4493433B7042462179012387
:100DE000206800950BF072FC0120002105F0A6FAA6
:100DF0003A0001232179206800950BF067FC00215F
:100E0000322005F09BFA052005F00EFB5A46637967
:100E100020681343337021793200012300950BF0D1
:100E200055FC4A464146337820681A430A705246B8
:100E300093433B7042462179012300950BF046FC19
:100E40000120002105F07AFA3A0001232179206877
:100E500000950BF03BFC3220002105F06FFA642076
:100E6000002105F06BFA5A4663792068134333700A
:100E700021793200012300950BF028FC4A464146B7
:100E8000337820681A430A70524693433B704246B7
:100E90002179012300950BF019FC0120002105F0B8
:100EA0004DFA3A0001232179206800950BF00EFCE1
:100EB0003220002105F042FA6420002105F03EFABC
:100EC0002022637920681343337021793200012393
:100ED00000950BF0FBFB4B464146327820681343EC
:100EE0000B7053469A433A7021794246033B009572
:100EF0000BF0ECFB0120002105F020FA01233A0061
:100F00002179206800950BF0E1FB3220002105F0EB
:100F100015FA200000222821FFF7C6FE200000223B
:100F20000C21FFF7C1FE002201212000FFF7BCFECB
:100F3000022005F079FA002206212000FFF7B4FE16
:100F4000022005F071FA05B0F0BCBB46B246A946D6
:100F5000A046F0BD10B500220121FFF7A5FE02203A
:100F600005F062FA10BDC04600B50C4B83B001938A
:100F7000131C032A00D90323DBB20A1C0F2900D952
:100F80000F2201A9CB5C80219B1849421943002202
:100F9000C9B2FFF789FE03B000BDC046004014543B
:100FA000F0B5DE4657464E464546E0B58B460978D5
:100FB000040085B000296AD003AB9A460D236B4428
:100FC00099460E230F276B44984600256F44012352
:100FD0000A000F2056469C46637982431A430E3816
:100FE000024332704A4609010B43034313702179CF
:100FF0000123524620680095E3440BF067FB3378E9
:1010000004261A00414632430A70042293433B707F
:10101000424601232179206800950BF057FB0120FF
:10102000002105F08BF901233A0021792068009511
:101030000BF04CFB3220002105F080F921790123CF
:101040004A46206800950BF041FB4B46042241467E
:101050001B7820681E4393433B700E700123424669
:10106000217900950BF032FB0120002105F066F993
:10107000012321793A00206800950BF027FB00211D
:10108000322005F05BF95B46197800299FD105B045
:10109000F0BCBB46B246A946A046F0BD082343714A
:1010A0007047C046CB003821F0B5DE46574645466E
:1010B0004E4619404023E0B5194387B0170000227F
:1010C0000400FFF7F1FD08239C46BC44634602AAD6
:1010D000039305AB94469A460D2363449B460E2327
:1010E000634499460F2363449846002539780F20BE
:1010F0000A005646637982431A430E38024332701F
:101100005A4609010B4303431370217901235246C8
:10111000206800950BF0DAFA337804261A00494665
:1011200032430A700422414693430B704A4601231E
:101130002179206800950BF0C9FA0120002105F003
:10114000FDF8012342462179206800950BF0BEFA94
:101150003220002105F0F2F8217901235A46206857
:1011600000950BF0B3FA5B4604221B7849461E43F8
:10117000934342460E701370217901234A4620683A
:1011800000950BF0A3FA0120002105F0D7F8012308
:1011900021794246206800950BF098FA3220002110
:1011A00005F0CCF8039B0137BB429FD107B0F0BCE0
:1011B000BB46B246A946A046F0BDC046F0B5CE46F5
:1011C00047468C2380B5C35C040087B0002B4BD00E
:1011D0003B4940680BF08EFAE368C20198468023D1
:1011E0005B020293030009331B0313430393F822AA
:1011F00043461203DB0313400593324B65680493A7
:10120000314BA668EC18240D0634E4B20700210027
:10121000404604F0C7F801234344180021009946D2
:1012200004F0C0F800234246310000932800023346
:101230000BF0DCFA00220121404604F0CDF8002238
:101240000121484604F0C8F83A0002AB31002800FA
:101250000BF026FB0123B3402A6813432B6007B031
:10126000C0BCB946B046F0BD0125C06804F05CF9C9
:10127000206904F059F92B00E068D02683402A0049
:101280003606B362236901219A40B262002204F05B
:10129000A3F800220121206904F09EF828002169AA
:1012A000726888400240511E8A41E16873688D402F
:1012B0002B40591E8B41520013432376CFE7C04683
:1012C00070A50110000008800000E0AFF0B54546B1
:1012D000DE4657464E46E0B591B0050005F0BAF936
:1012E000002900D148E1FA220023920005F04EFDCA
:1012F0000C906B690B938C23EB5C9846002B00D110
:1013000019E101263000C44BAA681F6890400E976F
:101310000B9F0F9203970E9F083204970027BA463F
:101320000797019705970337BC46BC4F08901000FC
:10133000BB464746BA4C9640226869689146B94A0E
:1013400080000D92127809940A934B68089C1C4205
:1013500007D001239846C1444B683342FCD143581F
:1013600001974B681C0034400294334200D032E1B4
:1013700000231024984606951300624645582A40DB
:101380009A4209D05D469B001343DBB2EB56002B1B
:1013900000D1BAE09844BA464B68334202D1013CCE
:1013A000002CE9D1A04B049C9B6A069D1C1B069354
:1013B0009E4B9C4200D9B9E04B4602934346002B1A
:1013C00000D0A7E00798099C0A9B002801D0049848
:1013D00018605346002B01D00D9B1A70019B002B07
:1013E00001D0029B2360059B0A2B00D1E5E04B68EE
:1013F000089A1A4225D0AB6F0133AB674B68334272
:101400001FD1059804281CD80F9B9B00CB181A6A83
:101410004A68324215D1042813D01A6A4A68324207
:101420000FD103280DD01A6A4A68324209D1022826
:1014300007D01A6A4A68324203D1002801D11B6AD8
:101440004B680B9B039A93421BD06420D41A8823C9
:10145000E9582B5C0C9E9A00AA18711A54625164C8
:10146000072201331340FA222B54EB6E286FF31A34
:101470009200934200D385E0E317E4185C402418FF
:101480002C6788230C9AAC6CEA506B6C0020E41833
:10149000EB6CE4182B6DE4186B6DE418AB6DE4187D
:1014A000EB6DE4182B6EE418002C26D06B6AA86A4A
:1014B000C018EB6AC0182B6BC0186B6BC018AB6BF5
:1014C000C018EB6BC0182B6CC01806F0C5FA061CD0
:1014D000200006F0BCFA011C301C06F060FA5449EA
:1014E00006F071FAE96906F06EFA041C286A06F043
:1014F000AEFA011C201C06F052FAA86611B0F0BC2E
:10150000BB46B246A946A046F0BD01239A460197C4
:10151000D14440E7059B0A2B3ED0039C0133059341
:10152000029B4444994603946C610EE7069B07971F
:101530000493019742E701210C00D02328691B0680
:1015400084405A685B682240501E8241E86852001D
:1015500081400B40591E8B4113432A7E9A4290D002
:10156000920034491A43D2B28A560B992B768C4694
:10157000624403926A6164E7FA21890005F0C8FBBE
:101580000C90B6E606F063FAFA21890506F01BFA1C
:10159000EE66686700206FE70798099C0A9B0028A1
:1015A00001D0049818605346002B01D00D9B1A708F
:1015B000019B002B01D0029B2360AB6F0122013302
:1015C000AB678423EA547A3B0593089A4B681A4226
:1015D00000D136E70FE70798099C0A9B002817D02F
:1015E000049818605046002801D00D980270019AA6
:1015F000002A01D04A4622600B4A0498926A171AC0
:101600000A48874200D8EEE600201A602060EAE629
:101610000E980490E6E7C0466C2B002060A50110F0
:10162000682B0020623B0020004005408096980017
:1016300000007A4460A5011070B50400A260059A0C
:10164000E360E261049B069A6846236122620023FC
:101650008C22007F164D6160256063612376A05463
:101660000022A2666422A35404F0F4FF002919D0DA
:10167000FA220023920005F089FB88230022E05023
:10168000002362678022E0662367A367E367A050B8
:1016900020000432A3540021443A243006F0BEFA5C
:1016A000200070BDFA21890005F032FBE5E7C04655
:1016B00058A5011070B50400406906F0CDF9E16944
:1016C00006F081F9051C206A06F0C1F9011C281CEE
:1016D00006F065F970BDC04670B5C569040000210B
:1016E000281C06F0AFF9002801D1002070BD291C8C
:1016F000A06E06F054F9024906F065F9F6E7C04617
:101700000000704270B50C1C05000021201C06F082
:1017100099F9002801D1002070BDA86E211C40005D
:10172000400806F03CF9024906F04DF9F4E7C046DE
:101730000000C84270B5046A002C06D0456F002135
:10174000281C06F07FF9002801D1002070BD064951
:10175000281C06F038F9051C200006F078F9011C59
:10176000281C06F01CF9F1E70000704200238422D7
:1017700010B58367C3678354040004F06BFF00292E
:1017800007D0FA220023920005F000FB8023E050EE
:1017900010BDFA21890005F0BBFAF7E70160704738
:1017A00070B506000024054D2A00E1B2306801340E
:1017B000FFF778FC0835082CF6D170BD8CA5011018
:1017C000054B016043610023037183600023C36004
:1017D000012303747047C0460000204110B5040087
:1017E000032200210068FFF7BFFB02492068FFF7D2
:1017F000D7FB10BDF8840110F0B5C64600B5544DB6
:1018000004002B681A7D002A07D1D02212065168E5
:10181000012298688240114208D01A68A2420CD076
:101820009B68A34235D080BCB846F0BD494808F05B
:101830001FF92B68002BF6D0EFE7474808F018F99E
:10184000464B9C6A2B6801252A001868596A824019
:101850004348611A814263D9D0200006416840683C
:101860000A4011004E1EB141C9B2002A0AD11A7BAA
:10187000002A07D05A6895401A69284261D001327F
:101880001A615C62197319693648DA6908F074F9EB
:10189000C9E70126344808F0EBF832002F4BD0217D
:1018A0009B6A090698462B684C68986882402242D9
:1018B0002AD137004C68A4461C68A7403C00674604
:1018C000274236D037004C6859688F403C4230D0B0
:1018D00044469969611A254CA14215D942464146B0
:1018E0001E759A611A6A8A1A21498A422DD8DA69C4
:1018F0000132DA6142461A62D9691E4808F03CF9A1
:1019000001222B6898688240D021090649680A4262
:1019100001D000221A750122042103F071FD82E733
:10192000D021090649680A40511E8A41D2B21A7371
:1019300079E7114808F09CF801222B6898688240EA
:10194000E2E7013A1A615C629CE7DE61D2E7C046D9
:101950009C2A0020088501102085011000400540C8
:10196000B70B000044850110788501101F4E000060
:101970001FA10700E08501109C85011083600023F2
:101980000373036103758361C36103624362024BA6
:1019900001604260186070479C2A0020034B1A685F
:1019A000824200D0704700221A60FBE79C2A002088
:1019B00070B50400012581681D4808F0DDF8206835
:1019C00003F0B2FD606803F0AFFDA06803F0ACFD6A
:1019D0002B002068D02683402A003606B362636855
:1019E00001219A40B2622A00A3689A40B2620022A2
:1019F00003F0F2FC60680022012103F0EDFC0022FC
:101A0000A068012103F0E8FC2068736885402B4042
:101A10005A1E9341DBB223730122064B0C2103F0C3
:101A20001BFDA0680122042103F0EAFC012070BD27
:101A300008860110F9170010024B026918681A6035
:101A4000101A7047702B00200B4B9B6AC269022A48
:101A500004D9026A09499A1A8A4209D9026A9B1A68
:101A6000074A934201D8002070470023C361FAE778
:101A70000023C3610120F7E7004005401FA10700D4
:101A800020A107000122D02310B584681B06A240C4
:101A900059680A4B9B6A114202D0027D002A0AD182
:101AA000026A9B1A064A934204D9C369002B01D0EB
:101AB0000023C36110BD00220275F1E7004005401C
:101AC00020A1070010B50369027D82B0002A0CD066
:101AD0000749C069074C0190009120006421064A23
:101AE00007F012FD200002B010BD0449F1E7C04626
:101AF0002C860110502C00203486011030860110F5
:101B000070B5040088B000680E1CFFF723FA0022AD
:101B100020680021FFF728FA20681549FFF740FAEE
:101B2000012220680021FFF71FFA20681149FFF702
:101B300037FA022220680021FFF716FA301C05F060
:101B4000ADFF0D4D009001912A00142103A807F06C
:101B5000DBFC206803A9FFF723FA03222068002199
:101B6000FFF702FA05492068FFF71AFA08B070BDBE
:101B7000508601106486011078860110808601105D
:101B800070B5040088B000680E1CFFF7E3F900226E
:101B900020680021FFF7E8F920681549FFF700FAEF
:101BA000012220680021FFF7DFF920681149FFF7C3
:101BB000F7F9022220680021FFF7D6F9301C05F062
:101BC0006DFF0D4D009001912A00142103A807F02C
:101BD0009BFC206803A9FFF7E3F90322206800219A
:101BE000FFF7C2F905492068FFF7DAF908B070BDC0
:101BF000C486011064860110788601108086011069
:101C000030B504008BB00068FFF7A4F9002220680B
:101C10000021FFF7A9F920681549FFF7C1F9012252
:101C200020680021FFF7A0F920681249FFF7B8F9F2
:101C3000022220680021FFF797F9A823E05805F059
:101C40002DFF0D4D009001912A00202102A807F0E0
:101C50005BFC206802A9FFF7A3F90322206800219A
:101C6000FFF782F905492068FFF79AF90BB030BDFC
:101C7000D8860110EC860110FC860110088701103F
:101C800030B504008BB00068FFF764F900222068CB
:101C90000021FFF769F920681149FFF781F9012256
:101CA00020680021FFF760F9A823E05805F0F6FE50
:101CB0000C4D009001912A00202102A807F024FC7D
:101CC000206802A9FFF76CF9022220680021FFF7C3
:101CD0004BF905492068FFF763F90BB030BDC046EA
:101CE0001C870110FC8601103087011010B504001C
:101CF00090B00068FFF72EF9002220680021FFF75E
:101D000033F920681749FFF74BF9206801220021B9
:101D1000FFF72AF9144B154A2021684607F0F4FB17
:101D200069462068FFF73CF9206802220021FFF78E
:101D30001BF90F4B0F4A202108A807F0E5FB20688C
:101D400008A9FFF72DF9032220680021FFF70CF9FD
:101D500009492068FFF724F9FA20C00004F064FB69
:101D600010B010BD84870110C87B0110948701104A
:101D70007C7B0110A0870110A887011070B58360DB
:101D8000049B0025C360264B05610362D023456197
:101D900085610577456201604260C5500433C554D2
:101DA0000433C5500433C5500433C5541D4BFE26BF
:101DB000038596239B00C36234231B4AB605066342
:101DC000C554828701220400303383630364203BBF
:101DD000C252164B210083644C23FF32C252013B96
:101DE0000365413B4365124B28318365CC3A5C3037
:101DF00005F01AFF9023E5540433E5500433E55011
:101E00000833E5509C220023A3500832A35004322B
:101E1000A3500832A350CC232000E65070BDC0462A
:101E200060EA0000D20400003250000010270000D9
:101E30000000C842134B10B5038596239B00C36274
:101E4000FE239B05036300223423C2540E4A303321
:101E50008287012283630364203BC2520B4B010043
:101E600083644C23FF32C252013B0365413B43650F
:101E7000074B28318365CC3A5C3005F0D5FE012054
:101E800010BDC046D20400003250000010270000F0
:101E90000000C84210B504000068FFF75BF800229C
:101EA00020680021FFF760F820680F49FFF778F8F5
:101EB000012220680021FFF757F820680B49FFF73F
:101EC0006FF8022220680021FFF74EF820680849C9
:101ED000FFF766F8032220680021FFF745F805495F
:101EE0002068FFF75DF810BDB8870110C4870110A6
:101EF000D4870110E8870110F8B5DE4657464546FD
:101F00004E46E0B505000F000168324807F034FE88
:101F10002868FFF71FF8002200212868FFF724F83F
:101F20002D492868FFF73CF82C4B002498462C4B91
:101F300099462C4B9A462C4B9B46661C28680021E0
:101F4000F2B2FFF711F82868A7423AD04946FFF7E6
:101F500027F82868092C38D84346A4001B599F4607
:101F60002249FFF71DF8F0BCBB46B246A946A04681
:101F7000F8BD1F49FFF714F83400DEE71D49FFF7ED
:101F80000FF83400D9E71C49FFF70AF83400D4E70A
:101F90001A49FFF705F83400CFE71949FFF700F8B1
:101FA0003400CAE71749FEF7FBFF3400C5E71649BE
:101FB000FEF7F6FF3400C0E71449FEF7F1FF3400E6
:101FC000BBE75146FEF7ECFFC3E75946FEF7E8FFD3
:101FD0003400B2E7F887011030880110CCA5011059
:101FE000448801104088011048880110CC880110F5
:101FF000C0880110B0880110A088011094880110D9
:10200000888801107C880110708801105C8801109C
:10201000F8B5904E040033680D00052B09D88E4AA0
:102020009B00D3589F46032900D1EDE0042900D13D
:1020300080E0F8BD032900D1BEE00429F9D10323D3
:102040003360864B1968FFF79BFDF2E7032900D147
:10205000F3E005230429ECD12361814B20001968AA
:10206000FFF74AFFE5E743681A697E4B18681A6074
:10207000101A05F0F1FC7C4905F0A5FC7B4F39688E
:1020800005F08AFC3860012D00D18CE0022D00D1D2
:10209000B0E0032D77D0042D00D088E0002320008D
:1020A0003360FFF7F7FEC4E7032900D1B9E0042944
:1020B000BFD1012333606D4B1968FFF721FDB8E7ED
:1020C00043681A69674B18681A60101A05F0C4FC57
:1020D000654905F078FC614F396805F05DFC3860B2
:1020E000012D57D0022D00D189E0032D3FD0042DC2
:1020F00054D1022320683360FEF72CFF00222068B1
:102100000021FEF731FF20685949FEF749FF0122FF
:1021100020680021FEF728FF20685649FEF740FF9F
:10212000206802220021FEF71FFF53492068FEF7B6
:1021300037FF7EE70068FEF70DFF002100222068D0
:10214000FEF712FF4D492068FEF72AFF0122002109
:102150002068FEF709FF4A492068FEF721FFFA20B0
:10216000800004F061F900233360053374E7A3684D
:102170005A69A023E2500433E050A03B20003360B2
:10218000FFF73EFD55E7A3685A699823E2500433F0
:10219000E050AEE7344905F0FFFB3860011C200039
:1021A000FFF7EEFC45E7304905F0F6FB3860011C0F
:1021B0002000FFF7A5FC3CE7A023C258083BC3580A
:1021C0000020D71A9A420DD09C23E1580833E058DA
:1021D00005F0DFFB051C380005F03EFC011C281C47
:1021E00005F0DDFBA823E050A33B20003360FFF7A0
:1021F00047FD1EE71C4905F0CCFB3860D7E71A49BC
:1022000005F0C7FB3860C9E7A823C358036300681B
:10221000FEF7A0FE002100222068FEF7A5FE194966
:1022200091E7A4233160C1580C4B196043681A69C7
:102230000C4B1A60FFF7A4FCFBE6012333609B33D1
:10224000C1580A4B196043681A69064B1A60FFF7B8
:1022500057FCEEE6402C0020F4A50110482C00208D
:102260004C2C00203C2C00200AD7233C442C00207E
:1022700094860110A4860110B48601105C870110B9
:102280007487011048870110F0B54546DE46574671
:102290004E46E0B52A4B8DB002AE8846320019009A
:1022A0000400A1C9A1C221C921C21433914623CB84
:1022B00023C203CB03C22068FEF74CFE002200219C
:1022C0002068FEF751FE1F492068FEF769FE1E4B8D
:1022D00000259A461D4B0193012343449B466F1CE6
:1022E00020680021FAB2FEF73FFE2068A8451CD006
:1022F0005146FEF755FE02CE2068FEF751FE3D0026
:10230000052FECD1206804220021FEF72DFE434664
:102310004A469B00D1582068FEF742FE0DB0F0BC43
:10232000BB46B246A946A046F0BD5D460199FEF700
:1023300037FE02CE2068FEF733FE052DCFD1E1E750
:1023400038A70110D8880110448801104088011076
:1023500010B5040088B00068FEF7FCFD00220021E3
:102360002068FEF701FE1A492068FEF719FE0122D7
:1023700000212068FEF7F8FD20681649FEF710FEE0
:1023800063692068092B21D8134A9B009958FEF7EE
:1023900007FE022220680021FEF7E6FD20680F49B3
:1023A000FEF7FEFD206803220021FEF7DDFD0A2175
:1023B00063690B4A0133009103A80A3107F0A4F8BE
:1023C000206803A9FEF7ECFD08B010BD0549DEE763
:1023D000EC880110CC9F011010A70110F8880110A3
:1023E000548F0110E488011070B5204D04002B7843
:1023F000002B23D0032902D0042915D070BD210061
:1024000034225C31283005F00FFC2068FEF7A2FD75
:10241000002200212068FEF7A7FD20681449FEF77E
:10242000BFFD144804F000F800232B70053323612E
:10243000114B20001968FFF75FFDDFE70068FEF72A
:1024400089FD002200212068FEF78EFD0B492068DF
:10245000FEF7A6FD012200212068FEF785FD084950
:102460002068FEF79DFD01232B70C7E7653B002028
:1024700058890110DC0500004C2C00202C8901102B
:1024800044890110F0B5CE464746040080B5006887
:1024900087B0FEF75FFD002200212068FEF764FD93
:1024A0002E492068FEF77CFD2D4B002598462D4BCC
:1024B000D02799466E1C20680021F2B2FEF754FD29
:1024C000E3592068AB4214D04146FEF769FD022D66
:1024D00014D0032D31D0012D1ED01021E36A224AE1
:1024E00002A807F011F8206802A9FEF759FD35008F
:1024F000E0E74946FEF754FD022DEAD120681B496A
:10250000FEF74EFD3423E35C2068002B24D11849EC
:10251000FEF746FD3500CDE7206B05F0BFFA154DFF
:10252000009001912A00102102A806F0EDFF20681A
:1025300002A9FEF735FD3500BCE7A36B0E4A10215A
:1025400002A806F0E1FF206802A9FEF729FD07B006
:10255000C0BCB946B046F0BD0849D9E7788901103A
:102560004488011040880110888901109C8901105D
:102570007089011090890110A48901106C890110E3
:1025800010B504008AB0042932D00068FEF7E2FCDE
:10259000002200212068FEF7E7FC19492068FEF7B9
:1025A000FFFC012200212068FEF7DEFC154A1649D7
:1025B000684606F093FF69462068FEF7F1FC0222A8
:1025C00000212068FEF7D0FC104A114905A806F04A
:1025D00085FF206805A9FEF7E3FC0021206803229F
:1025E000FEF7C2FC0B492068FEF7DAFC0AB010BD0A
:1025F00005230361084B0362FFF7AAFEF6E7C04616
:10260000B08901107C7B0110A0870110C87B0110EC
:10261000BC8901101C89011060EA000010B504009B
:1026200086B0042936D00068FEF794FC0022002111
:102630002068FEF799FC1B492068FEF7B1FC0122D7
:1026400000212068FEF790FC3C23174AE35C14212C
:1026500001A806F059FF206801A9FEF7A1FC02229B
:1026600000212068FEF780FC3D23104AE35C142122
:1026700001A806F049FF206801A9FEF791FC00219E
:1026800020680322FEF770FC09492068FEF788FCE9
:1026900006B010BD05230361064B0362FFF758FE29
:1026A000F6E7C046D4890110E8890110F8890110C5
:1026B0001C89011060EA000070B5204D0B00040079
:1026C0002968032B16D008DC012B0ED0022B08D171
:1026D000032906DC0131296003E0042B01D1052325
:1026E00023612000FFF7D0FD70BD0029F9DD01391D
:1026F0002960F6E70429F4D8114A8B00D3589F4685
:1027000015230361EDE7FFF7BDFE2968E9E7002126
:10271000FFF784FF2968E4E70068FEF71BFC00224E
:1027200000212068FEF720FC06492068FEF738FCEF
:10273000FA20800003F078FE2968D2E7382C0020C8
:102740000CA60110088A011010B5040086B00429F7
:102750002CD00369042B25D00068FEF7FBFB002278
:1027600000212068FEF700FC14492068FEF718FCE1
:10277000012200212068FEF7F7FBA368002B13D08D
:102780005B690F4A142101A806F0BEFE206801A96A
:10279000FEF706FC206802220021FEF7E5FBFA2086
:1027A00003F042FE06B010BD0023EAE705230361F3
:1027B000044B0362FFF7CCFDF4E7C046248A011006
:1027C000308A011060EA000010B5040086B00429C8
:1027D00034D00068FEF7BEFB002200212068FEF71F
:1027E000C3FB1A492068FEF7DBFB012200212068A9
:1027F000FEF7BAFB236D164A142101A806F084FEE9
:10280000206801A9FEF7CCFB022200212068FEF718
:10281000ABFB636D0F4A142101A806F075FE20681A
:1028200001A9FEF7BDFB002120680322FEF79CFBF7
:1028300009492068FEF7B4FB06B010BD052303610B
:10284000064B0362FFF784FDF6E7C0463C8A0110A1
:10285000488A0110588A01101C89011060EA0000A2
:10286000A023C258083BC35870B50400D61A9A4238
:1028700020D09C23C1580833C05805F08AF8F317BC
:10288000051CF018584005F0E7F8011C061C281C30
:1028900005F085F8A823E0500433E158301C05F01A
:1028A00092F8291C05F075F8B0230A22E050942311
:1028B000E25070BD0068FEF74DFB00220021206849
:1028C000FEF752FB09492068FEF76AFB012200214E
:1028D0002068FEF749FB06492068FEF761FBFA20F5
:1028E000C00003F0A1FD0522E1E7C046948A011073
:1028F000A88A011030B5040095B00068FEF72AFBE5
:10290000002220680021FEF72FFB20684049FEF7D7
:1029100047FB012220680021FEF726FBAC23E0588C
:1029200005F0BCF80B0002003A49684606F0D6FDF7
:1029300069462068FEF734FB022220680021FEF77A
:1029400013FBA823E05805F0A9F8B0250B000200FE
:10295000314905A806F0C2FD206805A9FEF720FB55
:10296000032220680021FEF7FFFA605905F096F86F
:1029700002000B000AA8294906F0B0FD20680AA948
:10298000FEF70EFB9C23E1580833E05805F001F8F0
:10299000011C605905F003F840002149400805F08A
:1029A00012F8051C1F4803F03FFD2068FEF7D2FA1D
:1029B000002220680021FEF7D7FA20681A49FEF7A6
:1029C000EFFA012220680021FEF7CEFA281C05F05C
:1029D00065F80B00020015490FA806F07FFD20687E
:1029E0000FA9FEF7DDFA022220680021FEF7BCFAEB
:1029F00020680F49FEF7D4FA032220680021FEF771
:102A0000B3FA0C492068FEF7CBFA15B030BDC046CA
:102A1000B48A0110C88A0110D48A0110E08A01101A
:102A20000000C842B80B0000EC8A0110FC8A0110BB
:102A30000C8B01101C8B011030B504008BB00068AA
:102A4000FEF788FA9423E3580C2B15D8D74A9B003D
:102A5000D3589F46002200212068FEF785FA20689F
:102A6000D349FEF79DFA012220680021FEF77CFA87
:102A7000D0492068FEF794FA0BB030BD00222068E0
:102A80000021FEF771FA2068CB49FEF789FA01228E
:102A900020680021FEF768FA2068C849FEF780FA2E
:102AA000022220680021FEF75FFAA823E05804F014
:102AB000F5FF0B000200C24905A806F00FFD2068D3
:102AC00005A9FEF76DFA206803220021FEF74CFAF3
:102AD000BC492068FEF764FACEE700222068002196
:102AE000FEF742FA2068B849FEF75AFA2068012238
:102AF0000021FEF739FAB5492068FEF751FABBE725
:102B0000002100222068FEF72FFAB1492068FEF765
:102B100047FA012220680021FEF726FACC23E0586C
:102B200004F0BCFF0B000200AA49684606F0D6FC80
:102B300069462068FEF734FA206802220021FEF779
:102B400013FAA368A4495A6905A806F0C7FC2068CF
:102B500005A9FEF725FA206803220021FEF704FAF2
:102B60009E492068FEF71CFA86E7002200212068B3
:102B7000FEF7FAF99A492068FEF712FA01220021BD
:102B80002068FEF7F1F99C23E05804F087FF0B0062
:102B90000200944905A806F0A1FC206805A9FEF7EB
:102BA000FFF9B823E35C002B12D005A814F086F9D6
:102BB000C023E35CC11F002B01D0043B191820681F
:102BC000C9B20122FEF7D0F987492068FEF7E8F97B
:102BD000022220680021FEF7C7F920688349FEF72A
:102BE000DFF9206803220021FEF7BEF98049206842
:102BF000FEF7D6F940E7002200212068FEF7B4F97D
:102C00007C492068FEF7CCF9012200212068FEF7FC
:102C1000ABF979492068FEF7C3F902220021206848
:102C2000FEF7A2F920687549FEF7BAF90322206879
:102C30001BE7002220680021FEF796F92068704902
:102C4000FEF7AEF9206801220021FEF78DF9A36896
:102C50006C495A699823E35805A8D21AD317D21899
:102C60005A4006F03BFC206805A9FEF799F9206858
:102C700002220021FEF778F963492068FEF790F9F7
:102C8000FAE6002100222068FEF76EF95F493DE771
:102C9000002200212068FEF767F951492068FEF7FD
:102CA0007FF9012200212068FEF75EF9A423E05895
:102CB00004F0F4FE0B0002004A49684606F00EFCE0
:102CC00069462068FEF76CF9B823E35C002B12D04C
:102CD000684614F0F3F8C023E35CC11F002B01D059
:102CE000043B19182068C9B20122FEF73DF93E499C
:102CF0002068FEF755F9022220680021FEF734F91A
:102D00009C23E1580833E05804F043FE45006D0869
:102D1000281C04F0C3FE02000B0005A83C4906F085
:102D2000DDFB206805A9FEF73BF92068002103229E
:102D3000FEF71AF93749281C246804F07BFE0028A6
:102D40002ED020003449FEF72BF995E600222068AA
:102D50000021FEF709F920683049FEF721F92068C3
:102D600001220021FEF700F92D492068FEF718F92D
:102D700082E62000FFF7BEFD7EE6002220680021EB
:102D8000FEF7F2F820682749FEF70AF920680122C9
:102D90000021FEF7E9F824492068FEF701F96BE607
:102DA00020002249FEF7FCF866E6C04620A6011086
:102DB000508B0110648B011088880110D48C011095
:102DC000E08C0110EC8C01102C8B01103C8B01105D
:102DD000788B01108C8B01109C8B0110A88B01103B
:102DE000BC8B0110CC8B0110D48B0110D88B01103F
:102DF000E88B0110FC8B01100C8C01101C8C011055
:102E00002C8C0110408C0110548C0110648C01102A
:102E1000748C01100000C842888C0110EC860110EF
:102E2000A88C0110B48C0110C48C0110988C011076
:102E300070B59425435904000E00012B00D070BDDD
:102E4000042929D00068FEF785F8002200212068B7
:102E5000FEF78AF87A492068FEF7A2F801220021DD
:102E60002068FEF781F877492068FEF799F8764BDD
:102E70001B78002BE3D06359043B082B08D8734A16
:102E80009B00D3589F46032E02D194230622E25082
:102E90002000FFF7D1FDD2E7043303616C4B0362DE
:102EA000FFF756FACBE7033E012EF1D8002390221C
:102EB000A3540432A3500432A3500832A350002379
:102EC000043AA3500832A3500432A3500832A3504E
:102ED000FE22CC239205E250C73B23615C4B2000CD
:102EE0002362FFF735FAD3E7032ED1D1A823E358A5
:102EF0000C22236394232068E250FEF72BF8002273
:102F000020680021FEF730F820685249FEF748F8A3
:102F1000012220680021FEF727F820684E49FEF7BD
:102F20003FF84E4803F080FAB2E7032E52D0731EEA
:102F3000012BADD8012E7FD049494A48A423E5583A
:102F40001C33E35C022B05D8474A9B00995804F0D8
:102F50003AFD011C281C04F01FFDA423E05097E754
:102F6000032E95D108229423E2500833E0583F49BC
:102F700004F012FDA4230022E0501C33E25487E742
:102F8000032E85D194230722E250A3685A69A02317
:102F9000E2507DE7032E19D0731E012B00D977E78D
:102FA000012E45D02E492F489C23E5582433E35C5D
:102FB000022B05D82C4A9B00995804F004FD011CF3
:102FC000281C04F0E9FC9C23E05061E794230522CF
:102FD000E2505DE79C23E1580833E05804F0D9FC47
:102FE00040002249400804F025FD002806D0942323
:102FF00009222000E250FFF733FC49E72068FDF783
:10300000A9FF002220680021FDF7AEFF20681849C3
:10301000FDF7C6FF012220680021FDF7A5FF20680B
:103020001449FDF7BDFFFA20C00003F0FDF92FE7BA
:10303000FE2011498005B7E7FE200F4980057DE796
:10304000688A0110788A01106B3B002054A6011099
:1030500060EA000088880110288D0110DC0500005E
:103060000AD723BC000080BFF8A601100000C842A8
:10307000008D0110148D01100AD7233C902310B548
:103080000400C25C04292DD0032904D0002A48D0B2
:10309000FFF7CEFE10BD002A59D10239C154942346
:1030A000C1502033C250FE220433C1549205143360
:1030B000C25003F0CFFA00294DD0FA22002392002B
:1030C00003F064FEC423E050636820681A69C823D3
:1030D000E250226B1C3BE250FDF73CFF2000FFF763
:1030E000ABFCD7E7002A14D00022C2540433C250EC
:1030F0000433C2500833C25000239C32835008323C
:1031000083500432835008328350FE22CC23920530
:10311000C25005232361124B20002362FFF718F9E8
:10312000B8E70068FDF716FF002220680021FDF7D0
:103130001BFF20680B49FDF733FF206802220021A6
:10314000FDF712FF08492068FDF72AFFA2E70321D7
:10315000FFF76EFE9EE7FA21890003F0D9FDB1E783
:1031600060EA00000C8901101C890110F0B5DE46F0
:1031700057464E4645460400E0B5284883B006F061
:1031800077FC2068FDF7E6FE002200212068FDF7AD
:10319000EBFE234B206819009A46FDF701FF012240
:1031A00000212068FDF7E0FE1E492068FDF7F8FECB
:1031B000022200212068FDF7D7FEDD2398461A4B36
:1031C00000259946194BD4269B46194FA0444346E7
:1031D000A25D5B5DAA421FD04A46042101A806F009
:1031E00093F9206801A9FDF7DBFE0135390020685D
:1031F000FDF7D6FE042DEAD1032220680021FDF759
:10320000B3FE51462068FDF7CBFE03B0F0BCBB46D1
:10321000B246A946A046F0BD5A46DEE7348D0110FD
:1032200038820110588D0110708D0110688D0110C9
:10323000F8910110F0B5DE4657464E464546E0B5DA
:1032400006008BB01F0014AB1C7800688A469146BC
:10325000FDF780FE306800220021FDF785FE306812
:10326000002C52D000254B49FDF79AFE0122002187
:103270003068FDF779FE48493068FDF791FE05ABEF
:10328000180014220021984604F0C8FC434B03ACFC
:103290009A46434B9B46434B01934A466B00D25A96
:1032A000BD4217D05146200006F018F9032D27D053
:1032B000200013F003FE02225946201804F0B4FC4B
:1032C0002100404613F040FC4A4601356B00D25ABB
:1032D000BD42E7D10199200006F000F90135210037
:1032E000404613F031FC042DD7D141463068FDF73C
:1032F00057FE0BB0F0BCBB46B246A946A046F0BD97
:103300002100404613F020FCEFE700252649FDF799
:1033100047FE012200213068FDF726FE1E49306875
:10332000FDF73EFE05AB180014220021984604F07C
:1033300075FC1A4B03AC9946194B9B46194B0193EC
:1033400052466B00D25ABD4217D04946200006F0C3
:10335000C5F8032DD4D0200013F0B0FD0222594649
:10336000201804F061FC2100404613F0EDFB5246AA
:1033700001356B00D25ABD42E7D10199200006F019
:10338000ADF801352100404613F0DEFB042DD7D106
:10339000ABE7C046008E0110108E0110648A011048
:1033A000F8910110688D0110188E0110F0B5CE460D
:1033B000474680B5040083B0032937D020DC0129BB
:1033C00000D184E0022916D1804A814B12781B7803
:1033D000002A00D195E07F4E5A00B15A09200029F9
:1033E00001D0013988B2B0520122200000927A49FE
:1033F0003200FFF71FFF03B0C0BCB946B046F0BDB6
:103400000429F8D1724A714913780878002B00D04A
:10341000A5E0002853D00B70032120001170009309
:103420006C4A03236C49FFF705FFE4E7684F674ADE
:103430003B7890461078022B00D886E0002800D117
:10344000B9E0654D634E2B88328894469A4200D08D
:1034500089E072886B8891469A4200D083E0AA88FE
:10346000B388934200D07EE0E988F28820688A42DF
:103470007AD1FA216546890069434E466425754331
:103480004919521899005B185B00D2182285FDF784
:1034900061FD002200212068FDF766FD4F4920688C
:1034A000FDF77EFD012200212068FDF75DFD20680B
:1034B0004B49FDF775FDFA20C00002F0B5FF05236A
:1034C0002361484B20002362FEF742FF93E73F4A07
:1034D0003F4B10781B78002824D0092500203D4E52
:1034E0005F00F25B013292B295424041404202409D
:1034F0003948F2530091320001002000FFF79AFE94
:1035000079E7354D5A00A95A0920002901D001391F
:1035100088B20021A8520091200029002D4AFFF70F
:1035200089FE68E7092106002B4D5F00EA5B013246
:1035300092B29142464171420A40EA5329000090FA
:10354000244A2000FFF776FE55E70133DBB23B70DB
:103550000090204A20002049FFF76CFE4BE7013B1A
:10356000DBB21370F4E72068FDF7F4FC002220685A
:103570000021FDF7F9FC20681B49FDF711FD012230
:1035800020680021FDF7F0FC18492068FDF708FDD0
:10359000FA20C00002F048FF002342463B7013703F
:1035A0002B606B6033607360320029002000009351
:1035B000FFF740FE1FE701233870137020000093CF
:1035C000044A00230449FFF735FE14E7643B00205A
:1035D000633B00200827002000270020248E0110D4
:1035E000388E011060EA0000488E01105C8E0110D8
:1035F00010B5040088B001681F4806F0BDFA2068C5
:10360000FDF7A8FC002200212068FDF7ADFC1B4956
:103610002068FDF7C5FC012200212068FDF7A4FC0D
:1036200020681749FDF7BCFCA3692068022B21D84C
:10363000144A9B009958FDF7B3FC02222068002130
:10364000FDF792FC20681049FDF7AAFC20680322D0
:103650000021FDF789FC0321A3690C4A0133009185
:1036600003A8113105F050FF206803A9FDF798FC6D
:1036700008B010BD0649DEE7708E01109C8E011067
:10368000CC9F011004A70110F8880110548F01107D
:10369000E488011010B5040086B0154806F0E8F97A
:1036A00001232377236100232068A361FDF752FCE7
:1036B000002220680021FDF757FC20680D49FDF726
:1036C0006FFC206801220021FDF74EFC0A4A0B49DD
:1036D00001A805F003FF01A92068FDF761FCFA20AD
:1036E000800002F0A1FE2000FFF782FF06B010BDAF
:1036F000A88E0110E48E01107C7B0110F48E011065
:1037000010B5040086B003294AD012DC012940D04C
:10371000022939D1354A1368082B35DC013313608F
:103720002369052B33D1314B20001968FEF7E4FBE8
:103730002DE0042928D12E4806F09AF90123237799
:10374000236100232068A361FDF704FC002200210F
:103750002068FDF709FC27492068FDF721FC0122BC
:1037600000212068FDF700FC234A244901A805F048
:10377000B5FE206801A9FDF713FCFA20800002F0D5
:1037800053FE2000FFF734FF2369052BCBD006B092
:1037900010BD164A1368002BF6DD013B1360F3E7FA
:1037A000124B1B68092BEFD8154A9B00D3589F4634
:1037B00014230361EBE706230361FEF76BFBE3E7EA
:1037C0000C230361E3E70E230361E0E70F230361AA
:1037D000DDE710230361DAE711230361D7E715233F
:1037E0000361D4E712230361D1E7C0464C2C0020CB
:1037F000A88E0110E48E01107C7B0110F48E011064
:1038000078A6011030B5040087B0032947D017DC33
:103810004B1E012B12D8D423C35CC3181A00DD320F
:103820001278012900D187E00921002A01D0013A4C
:10383000D1B2DD3320001970FFF798FC07B030BD1E
:103840000429FBD1D423C55C002D70D1634806F058
:103850000FF90123A561237723612068FDF77AFB27
:10386000002220680021FDF77FFB20685C49FDF7FE
:1038700097FB206801220021FDF776FB594A5A493F
:1038800001A805F02BFE206801A9FDF789FBFA20AD
:10389000800002F0C9FD2000FFF7AAFECEE7D42287
:1038A000835C022B51D9032BC8D1DA33C35C012BC3
:1038B00050D1DE23C35C022B4CD1DF23C35C032B2E
:1038C00048D1E023C35C0068042B44D10523236165
:1038D000FDF740FB002200212068FDF745FB43492E
:1038E0002068FDF75DFB012200212068FDF73CFB0D
:1038F0003F492068FDF754FB022200212068FDF7B4
:1039000033FB384A3B4901A805F0E8FD206801A9CE
:10391000FDF746FB384802F087FD2369052B00D0F0
:103920008CE7364B20001968FEF7E6FA86E7013D82
:10393000C554FFF71BFC81E70132D1B209200022F8
:10394000884252415242114073E701338354FFF7DA
:103950000DFC73E72068DC25635D01336355FDF7DB
:10396000F9FA002200212068FDF7FEFA24492068B8
:10397000FDF716FB012200212068FDF7F5FA625DD4
:10398000022A19D803231F4901A805F0A7FD2068C2
:1039900001A9FDF705FB184802F046FD0023D422DB
:1039A000A3540932A3540132A3520022E033200071
:1039B000E254FFF7DBFB41E713492068FDF7F0FA1B
:1039C000FA20C00002F030FD044806F051F801234F
:1039D000237723610023A3613FE7C046A88E01102F
:1039E000E48E01107C7B0110F48E0110F88E011022
:1039F000088F01101C8F0110DC0500004C2C0020EA
:103A0000288F01104C8F01103C8F011010B504005D
:103A10000068FDF79FFA002220680021FDF7A4FA54
:103A200020680F49FDF7BCFA012220680021FDF74C
:103A30009BFA20680B49FDF7B3FA022220680021A7
:103A4000FDF792FA20680849FDF7AAFA03222068D8
:103A50000021FDF789FA05492068FDF7A1FA10BD9C
:103A60005C8F0110708F0110788F0110888F01100A
:103A700010B5040003292DD00CDC012920D0022927
:103A80001DD18369022B31D001332000A361FFF7E0
:103A9000AFFD14E0042912D10023206823772361AD
:103AA000FDF758FA002200212068FDF75DFA206832
:103AB0001149FDF775FAFA20400002F0B5FC10BD7F
:103AC00082690223002AE0D0531E2000A361FFF781
:103AD0008FFDF4E78369012B0AD0022BDCD0002B89
:103AE000EDD102330361FFF791FFE8E70023CCE754
:103AF000FEF7FCF8E3E7C046C8890110036910B57A
:103B0000152B05D8224A9B00D3589F46FEF76CFC24
:103B100010BDFFF74BFCFBE7FFF7AAFFF8E7FFF745
:103B200071FEF5E7FFF7ECFDF2E7FEF771FAEFE75C
:103B3000FEF7C2FDECE7022922D0042919D00129A1
:103B400005D1D0228358002B01DD013B8350FEF7C5
:103B500099FCDDE7FEF762FDDAE7FEF711FDD7E736
:103B6000FEF7F2FDD4E7FFF789FAD1E7FEF72CFE66
:103B7000CEE705230361074B0362FEF7E9FBC7E7C6
:103B8000D0228358022BE2DC01338350DFE7C046AA
:103B9000A0A6011060EA0000F8B5DE464E46454694
:103BA00057460400E0B50D001600017F02696D481C
:103BB00005F0E2FF237F002B05D1F0BCBB46B246E7
:103BC000A946A046F8BD2169674805F0D5FF674BB7
:103BD0009F6A9023E35C002B45D12369042B20D0FE
:103BE0006068FDF729FF2169042910D00121002810
:103BF00003DD2000FFF782FFDFE700280FD1002D53
:103C000000D1A3E003212000FFF778FFD5E7002DC6
:103C1000F8D1002EEDD103390028EADCCDD0022105
:103C2000E7E7D433E358FF1A514B9F42D8D92068B5
:103C3000FDF790F9002200212068FDF795F94D4924
:103C40002068FDF7ADF9012200212068FDF78CF90D
:103C500049492068FDF7A4F9484802F0E5FB002334
:103C600023772361BCE702F0F5FC002963D0FA2238
:103C70000023920003F08AF8B422FA21A3584900E5
:103C8000C31A8B420CD9B8239946E35C98460123AA
:103C90009C464146634659400B0049466354A05038
:103CA00094230422E3589343032B96D102F0D2FCD1
:103CB000002945D0FA220023920003F067F88046DD
:103CC000636842461B699A46C423E358D31A99464F
:103CD000322B82D9C823E0585346181A03F0BCFE91
:103CE000274903F070FE8346484603F0B0FE011CEE
:103CF000584603F054FE400043082249181C9946D8
:103D000003F0A0FE002826D148461F4903F09AFE82
:103D1000002822D148461D4903F094FE00281ED1F8
:103D2000FE229205CC23E2504246083BE250524626
:103D30000433E25051E7FA21890002F0E9FF9BE7E2
:103D4000FA21890002F0E4FF8046B9E70331002E32
:103D500000D04EE731E70C4AE4E70C4AE2E7802264
:103D6000D205DFE7948F0110E08F0110004005407D
:103D700080C3C901DC8D0110F08D0110DC0500004D
:103D800000007A440000A041000020410000A04053
:103D9000F0B5C646040000B51F4805F069FE1F488F
:103DA00005F066FE01230025D8262377033323611F
:103DB00098461B4FD833E554BB6A1A48A35105F007
:103DC00057FED4230022E5540933E5540133E5526C
:103DD0000233E25443462361BB6A2068A351FDF7D6
:103DE000B9F8002220680021FDF7BEF820680E49CE
:103DF000FDF7D6F8012220680021FDF7B5F80B4940
:103E00002068FDF7CDF80A4805F032FE2000FFF7E4
:103E1000ADF980BCB846F0BD1C9001106090011057
:103E2000004005408C900110788D0110888D0110A4
:103E3000988D011000230160037183607047C046B4
:103E400070B504000068FDF785F8002220680021A5
:103E5000FDF78AF8114D20682900FDF7A1F801222D
:103E600020680021FDF780F820680D49FDF798F8DB
:103E7000022220680021FDF777F829002068FDF76D
:103E80008FF8032220680021FDF76EF805492068AD
:103E9000FDF786F8044802F0C7FA70BDA091011042
:103EA000CC910110E8910110DC05000030B5040050
:103EB0008BB00068FDF74EF8002220680321FDF763
:103EC00053F820681C49FDF76BF81C4A1C496846EA
:103ED00005F004FB684612F0F1FF1425291A491079
:103EE00001222068C9B2FDF73FF869462068FDF756
:103EF00057F8144A144905A805F0F0FA05A812F07D
:103F0000DDFF291A491002222068C9B2FDF72CF8FA
:103F1000206805A9FDF744F8032220680221FDF777
:103F200023F80A492068FDF73BF8FA20C00002F0A8
:103F30007BFA0BB030BDC046FC9101107C7B0110B8
:103F40000C9201101892011024920110309201106D
:103F5000F0B5D64646464F4604000D00C0B5006891
:103F60008CB01600FCF7F6FF002203212068FCF756
:103F7000FBFF4C492068FDF713F80122002120685F
:103F8000FCF7F2FF2A00484906A805F0A7FA2068C6
:103F900006A9FDF705F8FA21444B8900986A02F05A
:103FA000B7FEA368C31AC72B05D903232279A060E3
:103FB000013213402371012210212068FCF7D4FF45
:103FC0003B4B2279196820688918FCF7E9FF00212A
:103FD00020680222FCF7C8FF36492068FCF7E0FFA2
:103FE000632E30D90025344F013539002068EDB2F9
:103FF000FCF7D6FF122DF7D120683049FCF7D0FF2F
:10400000206803220021FCF7AFFF32002C4901A8F1
:1040100005F064FA01A812F051FF1421091A4910A1
:1040200003222068C9B2FCF79FFF206801A9FCF7B2
:10403000B7FF9620400002F0F7F90CB0E0BCBA469A
:10404000B146A846F0BDF00080196421400002F09E
:1040500037FEC3B298460025002818D1194B1A4FD5
:104060009A4601234344994606E001353900EDB2F2
:10407000FCF796FF122DBFD02068A845F5D1514618
:10408000FCF78EFF4B46DDB2122DF5D1B4E70A4F97
:10409000013539002068EDB2FCF782FFA845F7D85A
:1040A0004546DBE740920110509201100040054068
:1040B000B4200020589201105C800110DCA1011096
:1040C0005C920110CC9F0110F8910110F0B5160020
:1040D00004000D0087B0012200210068FCF744FFB6
:1040E000002E0FD01C492A0068461C4B05F0F6F93B
:1040F00069462068FCF754FFFA20400002F094F96A
:1041000007B0F0BD2A000325154B1349684605F09A
:10411000E5F969462068FCF743FF124F124E012271
:1041200013212068FCF720FF39002068FCF738FFD6
:10413000C82002F079F9012213212068FCF714FF4E
:1041400031002068FCF72CFF013DC82002F06CF91B
:10415000002DE4D1D0E7C046709201106C9201109E
:104160007C920110B08A0110F8910110F8B5CE468A
:104170004746040080B50068FCF7ECFE00220421ED
:104180002068FCF7F1FE304B206819009946FCF7D7
:1041900007FF012202212068FCF7E6FE2B4B206876
:1041A00019009846FCF7FCFE022203212068FCF768
:1041B000DBFE274F20683900FCF7F2FE03220321C3
:1041C0002068FCF7D1FE234E20683100FCF7E8FEA2
:1041D00002259620400002F027F92068FCF7BAFE7D
:1041E000C82002F021F9002204212068FCF7BCFE5F
:1041F00049462068FCF7D4FE012202212068FCF722
:10420000B3FE41462068FCF7CBFE02220321206862
:10421000FCF7AAFE39002068FCF7C2FE03212068E3
:104220000322FCF7A1FE31002068FCF7B9FE012D46
:1042300007D1FA20800002F0F7F8C0BCB946B046BA
:10424000F8BD0125C5E7C046849201109092011087
:10425000A0920110B0920110F8B5C4230600CE461A
:1042600047469946CA36040080B5BE2200218144E3
:10427000300003F0D3FCC423604A0127E250082237
:104280000433FF32E2521833ED32E250FE239B0535
:104290009846E4234246C021E250EC220433E7541E
:1042A000843BA35049000432A15255490432A15025
:1042B00054490432A15254490432A1500432A75443
:1042C0000432A35020000222A433FF320D30E25208
:1042D0000021E13AFF3003F0A1FC9C2342465B0041
:1042E000E2503E23494AFF33E7540333E2500222AF
:1042F0004F4601200433E2544549464B3A78013792
:10430000534002001A4052425B080A405A4093B29E
:10431000024052425B080A405A4093B20240524265
:104320005B080A405A4093B2024052425B080A407E
:104330005A4093B2024052425B080A405A4093B23C
:10434000024052425B080A405A4093B20240524235
:104350005B080A405A4095B2024053420B406A083B
:1043600053409BB2BE42C9D12700260001208937A5
:10437000284A2749CC36FF373578013655400200A8
:104380002A4052426D080A406A4095B202405242A9
:104390006D080A406A4095B2024052426D080A40D8
:1043A0006A4095B2024052426D080A406A4095B296
:1043B000024052426D080A406A4095B202405242A1
:1043C0006D080A406A4095B2024052426D080A40A8
:1043D0006A4095B2024052420A406D086A4092B269
:1043E000B742C9D15A40CA234946E2522000C422EA
:1043F00003F01AFCC0BCB946B046F8BD4C5245505B
:1044000030750000D204000060EA0000E093040070
:1044100001A0FFFFFFFF0000F0B5DE4657464E4605
:104420004546E0B5824683B0DD4805F021FBDD4816
:1044300005F01EFBDC4CC4222000DC4903F0F4FB39
:10444000DB4B22689A4200D080E08423A2885B0084
:104450009A427BD225000120D64AD749A61D2B7847
:1044600001355A40030013405B4252080B40534051
:104470009AB203405B4252080B4053409AB2034049
:104480005B4252080B4053409AB203405B425208D1
:104490000B4053409AB203405B4252080B405340DA
:1044A0009AB203405B4252080B4053409AB2034019
:1044B0005B4252080B4053409AB203405B420B40B0
:1044C00052085A4092B2AE42C9D126000120BB4DDB
:1044D000B84FB949C4362B7801355F4003003B40E3
:1044E0005B427F080B407B409FB203405B427F08EA
:1044F0000B407B409FB203405B427F080B407B40F8
:104500009FB203405B427F080B407B409FB2034059
:104510005B427F080B407B409FB203405B427F08B9
:104520000B407B409FB203405B427F080B407B40C7
:104530009FB203405B420B407F085F40BFB2B54271
:10454000C9D1E3885740BB4200D1FCE09C4805F04C
:104550008FFA9C4B822699469B4B002598469B4B95
:10456000F6020093924B9B464B4601933200290082
:10457000019805F001FB2900404605F0FDFA802373
:104580005B05F118C422200003F04EFB0122290034
:10459000009805F0F1FA23685B4500D086E084229C
:1045A000A3885200934200D380E0A31D99462700C0
:1045B0000120804A80493B7801375A40030013406C
:1045C0005B4252080B4053409AB203405B42520890
:1045D0000B4053409AB203405B4252080B40534099
:1045E0009AB203405B4252080B4053409AB20340D8
:1045F0005B4252080B4053409AB203405B42520860
:104600000B4053409AB203405B4252080B40534068
:104610009AB203405B420B4052085A4092B24F4557
:10462000C9D1C423654F9946624B944601203A0094
:104630001F006149A144137801325F4003003B40F1
:104640005B427F080B407B409FB203405B420B40C4
:104650007F085F40BBB207407F425B080F405F406E
:10466000BBB207407F425B080F405F40BBB20740D0
:104670007F425B080F405F40BBB207407F425B0850
:104680000F405F40BBB207407F425B080F405F4076
:10469000BBB207407F420F405B085F40BFB24A4554
:1046A000C9D16246E1887A40914212D080235B01F1
:1046B0009C4601356644032D00D057E7444805F079
:1046C000D7F9002003B0F0BCBB46B246A946A046CD
:1046D000F0BDE3693F4A643B9342E7D8236A3E4911
:1046E000181C994603F0A6F90028DFD048463B493C
:1046F00003F098F90028D9D0A36A394A0A3B9342BB
:10470000D4D8A38E374A013B9BB29342CED829001E
:10471000354805F031FAC4222100504603F084FAEE
:10472000EFF3108472B6802180204901C00213F09B
:1047300033F98020C4225146C00213F0F5F884F307
:1047400010880120BEE7E369224A643B934200D906
:10475000FCE6256A2049281C03F06CF9002800D1EA
:10476000F4E61E49281C03F05DF9002800D1EDE6AF
:10477000A36A1B4A0A3B934200D9E7E6A38E194A73
:10478000013B9BB2934200D9E0E6184805F070F96E
:10479000C4222100504603F047FA012092E7C046A8
:1047A000C8920110F8920110742B00200000041030
:1047B0004C524550FFFF000001A0FFFF7C2B002062
:1047C00094930110CC930110109401106094011087
:1047D000F0940110AC260000CDCCCC3D0000484246
:1047E000DE0300000E270000B8940110389301107A
:1047F000F8B504005C4805F03BF9A3685B48013359
:10480000A36005F035F901F025FF002900D1A5E0EE
:10481000FA220023920002F0B9FAE060544805F051
:1048200027F9236953480133236105F021F9250055
:104830000120514B5149A61D2A78013553400200F1
:104840001A4052425B080A405A4093B20240524218
:104850005B080A405A4093B2024052425B080A4049
:104860005A4093B2024052425B080A405A4093B207
:10487000024052425B080A405A4093B20240524200
:104880005B080A405A4093B2024052425B080A4019
:104890005A4097B2024053420B407F087B409BB284
:1048A000B542C9D1250026000120334F33490835D0
:1048B000C4362A780135574002003A4052427F08F8
:1048C0000A407A4097B2024052427F080A407A403A
:1048D00097B2024052427F080A407A4097B20240A3
:1048E00052427F080A407A4097B2024052427F0803
:1048F0000A407A4097B2024052427F080A407A400A
:1049000097B2024052427F080A407A4097B2024072
:1049100052420A407F085740BFB2AE42C9D15F4001
:10492000E780174805F0A4F8164805F0A1F8EFF362
:10493000108572B6802180204901C00213F02CF846
:104940008020C4222100C00212F0EEFF85F31088FF
:1049500001210D4805F010F90120F8BDFA21890068
:1049600002F0D6F959E7C046309501106495011060
:10497000A4950110E0950110FFFF000001A0FFFFCA
:104980002896011068960110A8960110F0B5C64649
:1049900000B58368C0B0013383600400884601F02D
:1049A00059FE002900D19BE0FA220023920002F078
:1049B000EDF9E060260001204C4B4D49A71D3278EF
:1049C0000136534002001A4052425B080A405A40E6
:1049D00093B2024052425B080A405A4093B20240EE
:1049E00052425B080A405A4093B2024052425B086E
:1049F0000A405A4093B2024052425B080A405A4071
:104A000093B2024052425B080A405A4093B20240BD
:104A100052425B080A405A4095B2024053420B4052
:104A20006A0853409BB2BE42C9D12600270001202C
:104A30002E4A2F490836C4373578013655400200D2
:104A40002A4052426D080A406A4095B202405242E2
:104A50006D080A406A4095B2024052426D080A4011
:104A60006A4095B2024052426D080A406A4095B2CF
:104A7000024052426D080A406A4095B202405242DA
:104A80006D080A406A4095B2024052426D080A40E1
:104A90006A4095B2024052420A406D086A4092B2A2
:104AA000B742C9D15A40E280FF213C2231A803F02D
:104AB000B5F8C4222100684603F0B6F8EFF310847D
:104AC00072B6F0208022000669464044520012F07F
:104AD0002BFF84F31088012040B080BCB846F0BDA5
:104AE000FA21890002F014F963E7C046FFFF0000D5
:104AF00001A0FFFFF8B5DE46574645464E46E0B5F5
:104B00000500ED4804F0B4FFC4239A4606339846E6
:104B1000A844BE220021404603F080F8C423E74A9F
:104B2000FE26EA5008220124C0210433FF32EA5253
:104B30001833ED32EA50B6050433EE50093A043327
:104B4000EC54FF3A843BAB5049000432A952DC4993
:104B50000432A950DB490432A952DB490432A9507E
:104B60000432AC540432AB500222A433FF32EA5276
:104B700004339B46AB440021E13A584603F04EF81B
:104B80009C235B00EE503E23D04AFF33EC540333AA
:104B9000EA5002220433EA54CD4BAA445746504609
:104BA000012144461E00CB4A037801305E400B00D1
:104BB00033405B427608134073409EB20B405B4229
:104BC0007608134073409EB20B405B427608134058
:104BD00073409EB20B405B427608134073409EB216
:104BE0000B405B427608134073409EB20B405B4221
:104BF0007608134073409EB20B405B427608134028
:104C000073409EB20B405B42134076085E40B6B2E2
:104C10008442C9D1C42252009146AD4A33002E00CD
:104C200010002A00A944CC36A0469C464D460124DB
:104C300033009146A7491A780133504022000240C0
:104C4000524240080A40424090B2224052420A403A
:104C50004008504082B22040404252080840504034
:104C600082B22040404252080840504082B2204068
:104C7000404252080840504082B220404042520810
:104C80000840504082B22040404252080840504004
:104C900082B22040404208405208504080B2AB42AD
:104CA000C9D149466346CA22A9460D0043408B52EA
:104CB00028005146063A02F0B7FF874804F0D8FEB4
:104CC0002800FFF7A9FB002824D0844804F0D0FE78
:104CD000C4235B00EC5201F0BDFC002900D107E1C8
:104CE000FA220023920002F051F8CA23CC22CE24EB
:104CF0005B00E8505200AB5879480133AB50640078
:104D000004F0B6FE2B5D002B00D0F6E0754804F0F1
:104D1000AFFECAE0744804F0ABFEBE22002140465C
:104D200002F07CFFC423654AFE24EA5008220433C3
:104D3000FF32EA5201201833ED32EA50C021EC2252
:104D4000A4050433EC500433E854843BAB504900D1
:104D50000432A9525A490432A9505A490432A9527C
:104D600059490432A9500432A8540432AB500222EB
:104D7000A433FF32EA520021E13A584602F04EFFD6
:104D80009C235B00EC503E230120504AFF33E85443
:104D90000333EA50022244460433EA544D494C4A54
:104DA0003B7801375A40030013405B4252080B40E6
:104DB00053409AB203405B4252080B4053409AB2B0
:104DC00003405B4252080B4053409AB203405B429F
:104DD00052080B4053409AB203405B4252080B40CA
:104DE00053409AB203405B4252080B4053409AB280
:104DF00003405B4252080B4053409AB203405B426F
:104E00000B4052085A4092B2BC42C9D1304B0120EB
:104E10004C461F002F49337801365F4003003B406A
:104E20005B427F080B407B409FB203405B427F08A0
:104E30000B407B409FB203405B427F080B407B40AE
:104E40009FB203405B427F080B407B409FB2034010
:104E50005B427F080B407B409FB203405B427F0870
:104E60000B407B409FB203405B427F080B407B407E
:104E70009FB203405B420B407F085F40BFB2A64237
:104E8000C9D1CA237A405146EA522800C42202F00E
:104E9000CBFEC42302225B00FF322800EA52FFF758
:104EA000A7FC0121114804F067FE0120F0BCBB46BD
:104EB000B246A946A046F8BDEC9601104C524550AA
:104EC00030750000D204000060EA0000E0930400A6
:104ED000FFFF000001A0FFFF249701105C97011065
:104EE000989701101898011048980110BC9801106B
:104EF000FA21890001F00CFFF7E61D4804F0B8FD27
:104F0000C4235B00EB5C002B00D1FFE62B5D002B84
:104F100000D1FBE601F09EFB002923D0FA220023FA
:104F2000920001F033FF0400AB69124AE31A934286
:104F300000D8EBE603272B7D802101331F403E0084
:104F4000F023403636031B06F018490112F024FD09
:104F50002B693100013328002F75AC612B61FFF7FD
:104F600015FDD3E6FA21890001F0D2FE0400DBE74B
:104F7000D89701107FEE3600F0B5C64600B50400A4
:104F800001F068FB002939D0FA220023920001F0D9
:104F9000FDFE0500CC267600A359002B07D0CA23BE
:104FA000FA225B00E358D200EB1A93425FD2CE2282
:104FB000C4235200A25C5B00E35C002A04D0D02230
:104FC0005200A158A9421FD9002B14D07923E35CC9
:104FD000002B10D08A23FF33E35C002B04D19933DC
:104FE000FF33E358002B06D0C6235B00E358ED1ACD
:104FF000E36F9D4246D280BCB846F0BDFA218900DD
:1050000001F086FE0500C5E7002B3FD001F022FB32
:10501000002940D0FA220023920001F0B7FE0600DA
:10502000A369204AF31A934218D90323227D8021D1
:10503000013213401F009846F02340371B063F0300
:10504000F818490112F0A8FC43462375236939007A
:1050500001332000A6612361FFF798FCC423D0210F
:10506000114A5B004900AA18E35C6250ACE78A234E
:10507000FF33E35C002B9AD02000FFF7B9FB00233D
:10508000A35194E72000FFF7B3FBB4E7064B9C461F
:105090006544A550AFE7FA21890001F039FE06000A
:1050A000BEE7C0467FEE3600C0270900C4220023B9
:1050B00001210948520010B5835204328350043252
:1050C00083500432835004328350043281540432BA
:1050D0008350FFF7C1F810BD48350020D0231B06D0
:1050E0001B68AC4A9900F0B5DE468B4651585A42CF
:1050F00053412F2257464E4645465B4293439A46BC
:10510000A54BE0B59C4683B000260191E2440029FE
:1051100038D0A24B99465246F30808339B009D585D
:105120000123340098460836002D22D00F2120009C
:10513000294001342D09002919D04B465A469A5866
:105140000300C240203BDB171340424613420CD100
:1051500007220F000240920097403A00C308904F88
:105160003C339B00DA51019B9847002D01D0B4429B
:10517000DCD3202ECFD103B0F0BCBB46B246A9464B
:10518000A046F0BD854E5F4600210F23B346CC08F4
:1051900022005046083292001258002A00D1D0E076
:1051A000180010408046100913421AD05D46ED5990
:1051B000A94620256D42AC468C446546ED17AC46A9
:1051C0004D46CD40A94665464E46354001263542FE
:1051D00004D14646724D3C34A4006651002800D1EB
:1051E000AFE01C000440A446140A03421AD0481C35
:1051F00080465846C059464681464D460800F5400F
:105200001F38C01728400125284208D165462D01C6
:10521000AC46F0086646624D3C3080004651002C9A
:1052200000D18EE0180020408446100B234211D09C
:105230008C1CA0465C46E4594646A1464D460C00EF
:10524000F5401E3CE4172C4001252C4200D182E0A1
:10525000002876D01C000440A446140C034210D051
:10526000C81C80465846C059464681464D460800EF
:10527000F5401D38C01728400125284275D0002C64
:105280005FD0180020408046100D23420ED00C1D28
:10529000A4466546414CE459EC40A1460C004D46FD
:1052A0001C3CE40F2C426AD000284AD01C00044069
:1052B000A446140E034218D0481D80464546374880
:1052C000C059E840814608004D461B38C00F2842AF
:1052D00009D165462D05AC4640466646C008304DAE
:1052E0003C3080004651002C2BD0180020408446D2
:1052F000120F23422AD029488C1D8146C059E04014
:105300008046080045461A38C00F284206D1E008FA
:105310006446234D3C30240680004451002A10D0BE
:105320004846C059CC1DE0408446080065461938FF
:10533000C00F284205D1E0083C30194C120780000C
:1053400002510831202900D021E714E7002AF8D0C3
:1053500012488146E4E765462D02AC46F4086646ED
:105360000F4D3C34A400665172E765462D03AC46F0
:10537000F00866460A4D3C30800046517FE74546BE
:105380002D04A84664464646E408054D3C34A40076
:10539000665189E7D034002030410140303B002085
:1053A00000400140094A83009A1810B51468402251
:1053B000544080322240064CC000A44663441A6028
:1053C000044B9C466044416010BDC04604C001408F
:1053D00004D0014000400140074B8000C3181B6807
:1053E000C90092000A435A400C231340034A9446D2
:1053F000604403607047C04604C0014004D00140CF
:10540000D0231B061B6830B50500584243412F20AE
:105410005B4283430E48EC08844607202840800006
:10542000814020000B4D3C3063448000A40041517A
:105430001B19002A05D0802292019446634419600A
:1054400030BDC0229201944663441960F8E7C0461B
:105450003041014000400140F8B545469846D02310
:105460001B06DE461C689B462B4B57469A46A300FC
:105470004E469946E0B5534616004A469B580700EB
:105480000D00002B34D04346002B3FD053464A46F4
:1054900041469950D0231B061C6863425C412F2271
:1054A0000720634293431D4A38409446FA0811008E
:1054B000800085403C311A486344890092000D50B9
:1054C0009B18002E0ED08022920194466344012145
:1054D0000D201D6000F020F9F0BCBB46B246A94685
:1054E000A046F8BDC0229201944663441D60F3E7D4
:1054F0004346002BD1D0534641460D2099500022FF
:10550000084900F06BF95B461C68C6E70D200549A9
:1055100000F05EFABAE7C046D034002030410140C6
:1055200000400140DD5000100123D02283401206CC
:1055300093629361094A83009A181168402251408E
:1055400080320A400649C0008C4663441A60054B0D
:105550009C460523604443607047C04604C0014038
:1055600004D00140004001408023DB051868000F93
:105570007047C0460FB400B5084883B004F078FA0D
:10558000049B002B07D005A91800019103F0E2FF4E
:10559000034804F06DFA012003F0F4FF189901109C
:1055A0000C940110EFF3108072B6034A1368002BBD
:1055B000FCD0BFF35F8F70472C0100D0BFF35F8F2B
:1055C0000022024B1A6080F3108870472C0100D033
:1055D00070B5EFF3108C72B60D4D2B68002BFCD01C
:1055E000BFF35F8F0724CB08C618C05C01230C40B3
:1055F000A3401C000440034207D118433070BFF39E
:105600005F8F2C608CF3108870BD1000FFF7B2FF25
:105610002C0100D0F8B54746CE46884680B5EFF35A
:10562000108C72B61C4D2C68002CFCD0BFF35F8F21
:105630009A4222D807210126894602E0013293428C
:1056400018D34D4637001540AF40D4080119045D0A
:105650002742F3D110003C430C70BFF35F8F002250
:105660000D4B1A608CF3108800280EDBC0BCB946C5
:10567000B046F8BD01204042EFE7BFF35F8F002343
:105680002B608CF31088012040424346002BEDD064
:105690000898FFF76FFFC0462C0100D0044A10782D
:1056A000431CDBB2172B00D9102313707047C04680
:1056B000B820002010B5064B064C82B001000093C4
:1056C00018221F232000FFF7A5FF02B010BDC0461F
:1056D00028990110E03400200021044B044ABFF354
:1056E0005F8F02C39342FAD17047C046000100D0D9
:1056F000800100D0054B064A1360064A13605360D0
:105700009360D360136153619361704780808080A0
:1057100000E400E004E400E01F2318401E3B834047
:10572000002905D0C021044A490053501360704736
:10573000802201498B50FAE700E100E0012282401B
:10574000034B1B6813405A1E9341D8B27047C046A2
:1057500000E100E001238340014A13607047C04626
:1057600000E200E0064B10309B688000C358054AF9
:1057700000209B1A2F229A424041C0B27047C04677
:1057800000ED00E0BC20002070B50D00EFF31086A6
:1057900072B60F4A1368002BFCD0BFF35F8F0D4B1E
:1057A00010309B6884001B590B4A934203D09D42E2
:1057B00001D001F093F9074B9B681D51BFF35F8F38
:1057C000BFF35F8F0022024B1A6086F3108870BD12
:1057D000240100D000ED00E0CD010010F0B55746E7
:1057E0004E46DE464546E0B585B0060000911700FE
:1057F000EFF3108B72B66A4A1368002BFCD0BFF32C
:105800005F8F0025674B5D579A46002D00DAA9E0AF
:105810006B00654C01935B199B009846A146C144FF
:105820004B4652469B7910361370604BB6009B680E
:1058300099590B1B2F2B33D95D4B994200D0ACE00B
:10584000019B42469C465B4B6544AD0063535A4BFB
:105850000232A218043B9B1A1B05584A5B0D6519BE
:1058600013436B80564B0121AB80FF23AB71009B30
:10587000EF71AB604B460B4319004C4B9B68995141
:10588000BFF35F8FBFF35F8F0022454B1A608BF32E
:10589000108805B0F0BCBB46B246A946A046F0BD94
:1058A00001200A008243D3798C46BB4231D8454659
:1058B000130044491B1B5B415943090D3D4B635386
:1058C0003D4B02356519043B5B1B1B053B4D5B0DD6
:1058D0002B43AA464D466B800425AC465546E04412
:1058E000131F44441B1B1B055B0D1D434B46997145
:1058F00000999D8099604946DF71334B01431360E5
:10590000BBE75800C01880002018C179B9422FD9D0
:1059100002000623D356002BF3DA02932B4B614689
:105920000393131D9A4604235B429C46E144504670
:105930004B461B1A1B055B0D9C46204B95719846E8
:105940006346404603439380019B5A199200039B90
:10595000A418A380029B1C4AA371009B2260E771DC
:10596000A3608AE701F0BAF8002553465D574FE778
:10597000908802934005131D9A46031561469C4684
:105980004046D444634604302018181AE02300052A
:10599000400D1B0218430390C5E701F09FF84FE745
:1059A000240100D06C3B0020BC20002000ED00E072
:1059B000CD01001000A1FFFFEC20002000E0FFFF60
:1059C00001BDFFFFAAAA00000148804701BD0000F9
:1059D000F0B5DE4657464E464546E0B50C0083B06E
:1059E000EFF3108872B6634A1368002BFCD0BFF344
:1059F0005F8F614B61499A68030010339F00D5594E
:105A000001938D4243D0A54254D05D4EAA1B2F2A4C
:105A10003DD85C4B9B461B68994601231A009C4667
:105A200082404B4613401F229946634602409340F2
:105A30009A4680225B4650469850BFF35F8FEFF343
:105A400005839B46002B37D0019B5B4501D001F0BD
:105A500045F801232A009A439068844208D176E0F1
:105A60004B005B189B00F3189868844236D01A00EC
:105A7000062151560029F3DA844254D04B46002BBC
:105A800027D0C02251463F4B5200995019603A4BE3
:105A90009B68DD51BFF35F8FBFF35F8F0022354BF3
:105AA0001A6088F3108803B0F0BCBB46B246A94622
:105AB000A046F0BD0D00EAE72A0063469A439068CD
:105AC0008442D5D106201056130000280ADA0D00B2
:105AD00031E0802351462B4AD150D8E70620185692
